{"contracts/ChainSageOApp.sol":{"ChainSageOApp":{"abi":[{"inputs":[{"internalType":"address","name":"_endpoint","type":"address"},{"internalType":"address","name":"_owner","type":"address"}],"stateMutability":"nonpayable","type":"constructor"},{"inputs":[],"name":"InvalidDelegate","type":"error"},{"inputs":[],"name":"InvalidEndpointCall","type":"error"},{"inputs":[],"name":"LzTokenUnavailable","type":"error"},{"inputs":[{"internalType":"uint32","name":"eid","type":"uint32"}],"name":"NoPeer","type":"error"},{"inputs":[{"internalType":"uint256","name":"msgValue","type":"uint256"}],"name":"NotEnoughNative","type":"error"},{"inputs":[{"internalType":"address","name":"addr","type":"address"}],"name":"OnlyEndpoint","type":"error"},{"inputs":[{"internalType":"uint32","name":"eid","type":"uint32"},{"internalType":"bytes32","name":"sender","type":"bytes32"}],"name":"OnlyPeer","type":"error"},{"anonymous":false,"inputs":[{"indexed":true,"internalType":"address","name":"previousOwner","type":"address"},{"indexed":true,"internalType":"address","name":"newOwner","type":"address"}],"name":"OwnershipTransferred","type":"event"},{"anonymous":false,"inputs":[{"indexed":false,"internalType":"uint32","name":"eid","type":"uint32"},{"indexed":false,"internalType":"bytes32","name":"peer","type":"bytes32"}],"name":"PeerSet","type":"event"},{"anonymous":false,"inputs":[{"indexed":false,"internalType":"uint32","name":"srcEid","type":"uint32"},{"indexed":false,"internalType":"uint32","name":"dstEid","type":"uint32"},{"indexed":false,"internalType":"string","name":"strategyName","type":"string"},{"indexed":false,"internalType":"uint256","name":"apy","type":"uint256"}],"name":"StrategyOptimized","type":"event"},{"inputs":[{"internalType":"uint32","name":"_eid","type":"uint32"},{"internalType":"string","name":"_name","type":"string"},{"internalType":"uint256","name":"_apy","type":"uint256"},{"internalType":"uint256","name":"_risk","type":"uint256"},{"internalType":"uint256","name":"_liquidity","type":"uint256"},{"internalType":"uint256","name":"_volatility","type":"uint256"}],"name":"addStrategy","outputs":[],"stateMutability":"nonpayable","type":"function"},{"inputs":[{"components":[{"internalType":"uint32","name":"srcEid","type":"uint32"},{"internalType":"bytes32","name":"sender","type":"bytes32"},{"internalType":"uint64","name":"nonce","type":"uint64"}],"internalType":"struct Origin","name":"origin","type":"tuple"}],"name":"allowInitializePath","outputs":[{"internalType":"bool","name":"","type":"bool"}],"stateMutability":"view","type":"function"},{"inputs":[{"internalType":"uint256","name":"","type":"uint256"}],"name":"chainIdToEid","outputs":[{"internalType":"uint32","name":"","type":"uint32"}],"stateMutability":"view","type":"function"},{"inputs":[{"internalType":"uint32[]","name":"_chainIds","type":"uint32[]"}],"name":"compareStrategiesAcrossChains","outputs":[{"components":[{"internalType":"string","name":"name","type":"string"},{"internalType":"uint256","name":"apy","type":"uint256"},{"internalType":"uint256","name":"risk","type":"uint256"},{"internalType":"uint256","name":"liquidity","type":"uint256"},{"internalType":"uint256","name":"volatility","type":"uint256"}],"internalType":"struct ChainSageOApp.Strategy","name":"bestStrategy","type":"tuple"},{"internalType":"uint32","name":"bestChainId","type":"uint32"}],"stateMutability":"view","type":"function"},{"inputs":[{"internalType":"uint32","name":"","type":"uint32"}],"name":"eidToChainId","outputs":[{"internalType":"uint256","name":"","type":"uint256"}],"stateMutability":"view","type":"function"},{"inputs":[],"name":"endpoint","outputs":[{"internalType":"contract ILayerZeroEndpointV2","name":"","type":"address"}],"stateMutability":"view","type":"function"},{"inputs":[{"internalType":"uint32","name":"_eid","type":"uint32"}],"name":"getStrategiesData","outputs":[{"components":[{"internalType":"string","name":"name","type":"string"},{"internalType":"uint256","name":"apy","type":"uint256"},{"internalType":"uint256","name":"risk","type":"uint256"},{"internalType":"uint256","name":"liquidity","type":"uint256"},{"internalType":"uint256","name":"volatility","type":"uint256"}],"internalType":"struct ChainSageOApp.Strategy[]","name":"","type":"tuple[]"}],"stateMutability":"view","type":"function"},{"inputs":[{"components":[{"internalType":"uint32","name":"srcEid","type":"uint32"},{"internalType":"bytes32","name":"sender","type":"bytes32"},{"internalType":"uint64","name":"nonce","type":"uint64"}],"internalType":"struct Origin","name":"","type":"tuple"},{"internalType":"bytes","name":"","type":"bytes"},{"internalType":"address","name":"_sender","type":"address"}],"name":"isComposeMsgSender","outputs":[{"internalType":"bool","name":"","type":"bool"}],"stateMutability":"view","type":"function"},{"inputs":[{"components":[{"internalType":"uint32","name":"srcEid","type":"uint32"},{"internalType":"bytes32","name":"sender","type":"bytes32"},{"internalType":"uint64","name":"nonce","type":"uint64"}],"internalType":"struct Origin","name":"_origin","type":"tuple"},{"internalType":"bytes32","name":"_guid","type":"bytes32"},{"internalType":"bytes","name":"_message","type":"bytes"},{"internalType":"address","name":"_executor","type":"address"},{"internalType":"bytes","name":"_extraData","type":"bytes"}],"name":"lzReceive","outputs":[],"stateMutability":"payable","type":"function"},{"inputs":[{"internalType":"uint32","name":"","type":"uint32"},{"internalType":"bytes32","name":"","type":"bytes32"}],"name":"nextNonce","outputs":[{"internalType":"uint64","name":"nonce","type":"uint64"}],"stateMutability":"view","type":"function"},{"inputs":[],"name":"oAppVersion","outputs":[{"internalType":"uint64","name":"senderVersion","type":"uint64"},{"internalType":"uint64","name":"receiverVersion","type":"uint64"}],"stateMutability":"pure","type":"function"},{"inputs":[{"internalType":"uint32","name":"_dstEid","type":"uint32"},{"internalType":"bytes","name":"_options","type":"bytes"}],"name":"optimizeStrategy","outputs":[],"stateMutability":"payable","type":"function"},{"inputs":[{"internalType":"uint32","name":"_eid","type":"uint32"}],"name":"optimizeWithPhala","outputs":[{"components":[{"internalType":"string","name":"name","type":"string"},{"internalType":"uint256","name":"apy","type":"uint256"},{"internalType":"uint256","name":"risk","type":"uint256"},{"internalType":"uint256","name":"liquidity","type":"uint256"},{"internalType":"uint256","name":"volatility","type":"uint256"}],"internalType":"struct ChainSageOApp.Strategy","name":"","type":"tuple"}],"stateMutability":"view","type":"function"},{"inputs":[{"internalType":"uint32","name":"_dstEid","type":"uint32"},{"internalType":"bytes","name":"_options","type":"bytes"}],"name":"optimizeZircuitStrategy","outputs":[],"stateMutability":"payable","type":"function"},{"inputs":[],"name":"owner","outputs":[{"internalType":"address","name":"","type":"address"}],"stateMutability":"view","type":"function"},{"inputs":[{"internalType":"uint32","name":"eid","type":"uint32"}],"name":"peers","outputs":[{"internalType":"bytes32","name":"peer","type":"bytes32"}],"stateMutability":"view","type":"function"},{"inputs":[],"name":"renounceOwnership","outputs":[],"stateMutability":"nonpayable","type":"function"},{"inputs":[{"internalType":"uint256","name":"_chainId","type":"uint256"},{"internalType":"uint32","name":"_eid","type":"uint32"}],"name":"setChainIdMapping","outputs":[],"stateMutability":"nonpayable","type":"function"},{"inputs":[{"internalType":"address","name":"_delegate","type":"address"}],"name":"setDelegate","outputs":[],"stateMutability":"nonpayable","type":"function"},{"inputs":[{"internalType":"uint32","name":"_eid","type":"uint32"},{"internalType":"bytes32","name":"_peer","type":"bytes32"}],"name":"setPeer","outputs":[],"stateMutability":"nonpayable","type":"function"},{"inputs":[{"internalType":"uint32","name":"","type":"uint32"},{"internalType":"uint256","name":"","type":"uint256"}],"name":"strategies","outputs":[{"internalType":"string","name":"name","type":"string"},{"internalType":"uint256","name":"apy","type":"uint256"},{"internalType":"uint256","name":"risk","type":"uint256"},{"internalType":"uint256","name":"liquidity","type":"uint256"},{"internalType":"uint256","name":"volatility","type":"uint256"}],"stateMutability":"view","type":"function"},{"inputs":[{"internalType":"uint32","name":"","type":"uint32"}],"name":"strategyCount","outputs":[{"internalType":"uint256","name":"","type":"uint256"}],"stateMutability":"view","type":"function"},{"inputs":[{"internalType":"address","name":"newOwner","type":"address"}],"name":"transferOwnership","outputs":[],"stateMutability":"nonpayable","type":"function"}],"evm":{"bytecode":{"linkReferences":{},"object":"60a06040523480156200001157600080fd5b5060405162002b7038038062002b7083398101604081905262000034916200014b565b818181816200004333620000de565b6001600160a01b0380831660805281166200007157604051632d618d8160e21b815260040160405180910390fd5b60805160405163ca5eb5e160e01b81526001600160a01b0383811660048301529091169063ca5eb5e190602401600060405180830381600087803b158015620000b957600080fd5b505af1158015620000ce573d6000803e3d6000fd5b5050505050505050505062000183565b600080546001600160a01b038381166001600160a01b0319831681178455604051919092169283917f8be0079c531659141344cd1fd0a4f28419497f9722a3daafe3b4186f6b6457e09190a35050565b80516001600160a01b03811681146200014657600080fd5b919050565b600080604083850312156200015f57600080fd5b6200016a836200012e565b91506200017a602084016200012e565b90509250929050565b6080516129ae620001c26000396000818161022e015281816104e601528181610e1f01528181611635015281816119750152611a2e01526129ae6000f3fe6080604052600436106101405760003560e01c80638da5cb5b116100b6578063dcdbf3ec1161006f578063dcdbf3ec146103dd578063f151e4971461040b578063f2fde38b14610453578063f56f1db214610473578063f788b3a6146104a4578063ff7bd03d146104c457600080fd5b80638da5cb5b146103125780638f56569214610330578063bb0b6a531461035d578063bd5c9aaf1461038a578063ca5eb5e11461039d578063d439a5c9146103bd57600080fd5b806359c730c31161010857806359c730c3146101ef5780635e280f111461021c578063715018a6146102685780637d25a05e1461027d57806382413eac146102b55780638b42babd146102e557600080fd5b806313137d651461014557806317442b701461015a57806333c56c75146101815780633400288b146101bc57806357efdeaa146101dc575b600080fd5b610158610153366004611d7d565b6104e4565b005b34801561016657600080fd5b50604080516001815260026020820152015b60405180910390f35b34801561018d57600080fd5b506101ae61019c366004611e35565b60036020526000908152604090205481565b604051908152602001610178565b3480156101c857600080fd5b506101586101d7366004611e57565b6105a4565b6101586101ea366004611e81565b6105ba565b3480156101fb57600080fd5b5061020f61020a366004611e35565b6106f5565b6040516101789190611fc4565b34801561022857600080fd5b506102507f000000000000000000000000000000000000000000000000000000000000000081565b6040516001600160a01b039091168152602001610178565b34801561027457600080fd5b50610158610821565b34801561028957600080fd5b5061029d610298366004611e57565b610835565b6040516001600160401b039091168152602001610178565b3480156102c157600080fd5b506102d56102d0366004611fd7565b61083e565b6040519015158152602001610178565b3480156102f157600080fd5b506101ae610300366004611e35565b60056020526000908152604090205481565b34801561031e57600080fd5b506000546001600160a01b0316610250565b34801561033c57600080fd5b5061035061034b366004611e35565b610853565b604051610178919061203d565b34801561036957600080fd5b506101ae610378366004611e35565b60016020526000908152604090205481565b610158610398366004611e81565b610b6a565b3480156103a957600080fd5b506101586103b8366004612050565b610df8565b3480156103c957600080fd5b506101586103d836600461216c565b610e7e565b3480156103e957600080fd5b506103fd6103f83660046121ff565b610f45565b604051610178929190612290565b34801561041757600080fd5b5061043e6104263660046122b8565b60046020526000908152604090205463ffffffff1681565b60405163ffffffff9091168152602001610178565b34801561045f57600080fd5b5061015861046e366004612050565b61112d565b34801561047f57600080fd5b5061049361048e366004611e57565b6111a6565b6040516101789594939291906122d1565b3480156104b057600080fd5b506101586104bf366004612308565b611281565b3480156104d057600080fd5b506102d56104df366004612334565b6112bc565b7f00000000000000000000000000000000000000000000000000000000000000006001600160a01b03163314610534576040516391ac5e4f60e01b81523360048201526024015b60405180910390fd5b6020870180359061054e90610549908a611e35565b6112f2565b1461058c576105606020880188611e35565b60405163309afaf360e21b815263ffffffff90911660048201526020880135602482015260440161052b565b61059b8787878787878761132e565b50505050505050565b6105ac611510565b6105b6828261156a565b5050565b4660009081526004602052604081205463ffffffff16900361061e5760405162461bcd60e51b815260206004820152601b60248201527f536f7572636520636861696e206e6f7420636f6e666967757265640000000000604482015260640161052b565b4660009081526004602090815260408083205463ffffffff16808452600283528184209151909392610654928592909101612384565b60408051601f19818403018152828201825234835260006020848101919091528251808401909352601d83527f66726f6d20636f6e7472616374206265666f7265206c7a53656e643a200000009083015292506106b0906115bf565b61059b868387878080601f0160208091040260200160405190810160405280939291908181526020018383808284376000920191909152508792503391506116029050565b63ffffffff81166000908152600260209081526040808320805482518185028101850190935280835260609492939192909184015b8282101561081657838290600052602060002090600502016040518060a001604052908160008201805461075d90612350565b80601f016020809104026020016040519081016040528092919081815260200182805461078990612350565b80156107d65780601f106107ab576101008083540402835291602001916107d6565b820191906000526020600020905b8154815290600101906020018083116107b957829003601f168201915b505050505081526020016001820154815260200160028201548152602001600382015481526020016004820154815250508152602001906001019061072a565b505050509050919050565b610829611510565b610833600061170d565b565b60005b92915050565b6001600160a01b03811630145b949350505050565b6108856040518060a0016040528060608152602001600081526020016000815260200160008152602001600081525090565b63ffffffff82166000908152600260205260409020546108f35760405162461bcd60e51b8152602060048201526024808201527f4e6f207374726174656769657320617661696c61626c6520666f7220746869736044820152630811525160e21b606482015260840161052b565b63ffffffff821660009081526002602052604081208054829061091857610918612491565b90600052602060002090600502016040518060a001604052908160008201805461094190612350565b80601f016020809104026020016040519081016040528092919081815260200182805461096d90612350565b80156109ba5780601f1061098f576101008083540402835291602001916109ba565b820191906000526020600020905b81548152906001019060200180831161099d57829003601f168201915b5050509183525050600182810154602083015260028301546040830152600383015460608301526004909201546080909101529091505b63ffffffff8416600090815260026020526040902054811015610b635760208083015163ffffffff8616600090815260029092526040909120805483908110610a3c57610a3c612491565b9060005260206000209060050201600101541115610b515763ffffffff84166000908152600260205260409020805482908110610a7b57610a7b612491565b90600052602060002090600502016040518060a0016040529081600082018054610aa490612350565b80601f0160208091040260200160405190810160405280929190818152602001828054610ad090612350565b8015610b1d5780601f10610af257610100808354040283529160200191610b1d565b820191906000526020600020905b815481529060010190602001808311610b0057829003601f168201915b5050505050815260200160018201548152602001600282015481526020016003820154815260200160048201548152505091505b80610b5b816124bd565b9150506109f1565b5092915050565b4660009081526004602052604081205463ffffffff169003610bce5760405162461bcd60e51b815260206004820152601b60248201527f536f7572636520636861696e206e6f7420636f6e666967757265640000000000604482015260640161052b565b4660009081526004602090815260408083205463ffffffff16808452600283528184208054835181860281018601909452808452919493909190849084015b82821015610cf957838290600052602060002090600502016040518060a0016040529081600082018054610c4090612350565b80601f0160208091040260200160405190810160405280929190818152602001828054610c6c90612350565b8015610cb95780601f10610c8e57610100808354040283529160200191610cb9565b820191906000526020600020905b815481529060010190602001808311610c9c57829003601f168201915b5050505050815260200160018201548152602001600282015481526020016003820154815260200160048201548152505081526020019060010190610c0d565b50505050905060005b8151811015610d73576064828281518110610d1f57610d1f612491565b6020026020010151602001516069610d3791906124d6565b610d4191906124ed565b828281518110610d5357610d53612491565b602090810291909101810151015280610d6b816124bd565b915050610d02565b5060008282604051602001610d8992919061250f565b60408051601f19818403018152828201825234835260006020848101919091528251601f8901829004820281018201909352878352909350610dee9189918591908a908a90819084018382808284376000920191909152508792503391506116029050565b5050505050505050565b610e00611510565b60405163ca5eb5e160e01b81526001600160a01b0382811660048301527f0000000000000000000000000000000000000000000000000000000000000000169063ca5eb5e190602401600060405180830381600087803b158015610e6357600080fd5b505af1158015610e77573d6000803e3d6000fd5b5050505050565b610e86611510565b63ffffffff86166000908152600260209081526040808320815160a08101835289815280840189905291820187905260608201869052608082018590528054600181018255908452919092208251600590920201908190610ee7908261257c565b5060208281015160018301556040808401516002840155606084015160038085019190915560809094015160049093019290925563ffffffff891660009081529290528120805491610f38836124bd565b9190505550505050505050565b610f776040518060a0016040528060608152602001600081526020016000815260200160008152602001600081525090565b600080805b84518110156111265760006110d760026000888581518110610fa057610fa0612491565b602002602001015163ffffffff1663ffffffff168152602001908152602001600020805480602002602001604051908101604052809291908181526020016000905b828210156110ce57838290600052602060002090600502016040518060a001604052908160008201805461101590612350565b80601f016020809104026020016040519081016040528092919081815260200182805461104190612350565b801561108e5780601f106110635761010080835404028352916020019161108e565b820191906000526020600020905b81548152906001019060200180831161107157829003601f168201915b5050505050815260200160018201548152602001600282015481526020016003820154815260200160048201548152505081526020019060010190610fe2565b5050505061175d565b905060006110e48261186f565b9050838111156111115780935081955086838151811061110657611106612491565b602002602001015194505b5050808061111e906124bd565b915050610f7c565b5050915091565b611135611510565b6001600160a01b03811661119a5760405162461bcd60e51b815260206004820152602660248201527f4f776e61626c653a206e6577206f776e657220697320746865207a65726f206160448201526564647265737360d01b606482015260840161052b565b6111a38161170d565b50565b600260205281600052604060002081815481106111c257600080fd5b9060005260206000209060050201600091509150508060000180546111e690612350565b80601f016020809104026020016040519081016040528092919081815260200182805461121290612350565b801561125f5780601f106112345761010080835404028352916020019161125f565b820191906000526020600020905b81548152906001019060200180831161124257829003601f168201915b5050505050908060010154908060020154908060030154908060040154905085565b611289611510565b6000828152600460209081526040808320805463ffffffff90951663ffffffff1990951685179055928252600590522055565b60006020820180359060019083906112d49086611e35565b63ffffffff1681526020810191909152604001600020541492915050565b63ffffffff8116600090815260016020526040812054806108385760405163f6ff4fb760e01b815263ffffffff8416600482015260240161052b565b6113606040518060400160405280601181526020017017db1e949958d95a5d994818d85b1b1959607a1b8152506115bf565b60008061136f8688018861263b565b915091506113b86040518060400160405280601881526020017f4465636f646564206d6573736167652e207372634569643a00000000000000008152508363ffffffff166118ba565b6113f060405180604001604052806015815260200174273ab6b132b91037b31039ba3930ba32b3b4b2b99d60591b81525082516118ba565b60006113fb8261175d565b90506114406040518060400160405280601a81526020017f4265737420737472617465677920666f756e642e204e616d653a00000000000081525082600001516118ff565b611478604051806040016040528060128152602001712132b9ba1039ba3930ba32b3bc9020a82c9d60711b81525082602001516118ba565b7fef687003a6d93e74ed8bfdda320a959e343aa949fcbb929bb89581a31f29b6136114a660208c018c611e35565b825160208401516040516114be93924692909161275f565b60405180910390a16115046040518060400160405280601f81526020017f53747261746567794f7074696d697a6564206576656e7420656d6974746564008152506115bf565b50505050505050505050565b6000546001600160a01b031633146108335760405162461bcd60e51b815260206004820181905260248201527f4f776e61626c653a2063616c6c6572206973206e6f7420746865206f776e6572604482015260640161052b565b63ffffffff8216600081815260016020908152604091829020849055815192835282018390527f238399d427b947898edb290f5ff0f9109849b1c3ba196a42e35f00c50a54b98b910160405180910390a15050565b6111a3816040516024016115d39190612799565b60408051601f198184030181529190526020810180516001600160e01b031663104c13eb60e21b179052611940565b61160a611cc1565b60006116198460000151611949565b602085015190915015611633576116338460200151611971565b7f00000000000000000000000000000000000000000000000000000000000000006001600160a01b0316632637a450826040518060a001604052808b63ffffffff1681526020016116838c6112f2565b81526020018a815260200189815260200160008960200151111515815250866040518463ffffffff1660e01b81526004016116bf9291906127ac565b60806040518083038185885af11580156116dd573d6000803e3d6000fd5b50505050506040513d601f19601f820116820180604052508101906117029190612825565b979650505050505050565b600080546001600160a01b038381166001600160a01b0319831681178455604051919092169283917f8be0079c531659141344cd1fd0a4f28419497f9722a3daafe3b4186f6b6457e09190a35050565b61178f6040518060a0016040528060608152602001600081526020016000815260200160008152602001600081525090565b60008251116117e05760405162461bcd60e51b815260206004820152601760248201527f4e6f207374726174656769657320617661696c61626c65000000000000000000604482015260640161052b565b6000826000815181106117f5576117f5612491565b602002602001015190506000600190505b8351811015610b63576118188261186f565b61183a85838151811061182d5761182d612491565b602002602001015161186f565b111561185d5783818151811061185257611852612491565b602002602001015191505b80611867816124bd565b915050611806565b60008160800151606461188291906124d6565b606083015160408401516118979060646128ba565b84602001516118a691906124d6565b6118b091906124d6565b61083891906124ed565b6105b682826040516024016118d09291906128cd565b60408051601f198184030181529190526020810180516001600160e01b0316632d839cb360e21b179052611940565b6105b682826040516024016119159291906128ef565b60408051601f198184030181529190526020810180516001600160e01b0316634b5c427760e01b1790525b6111a381611a53565b600081341461196d576040516304fb820960e51b815234600482015260240161052b565b5090565b60007f00000000000000000000000000000000000000000000000000000000000000006001600160a01b031663e4fe1d946040518163ffffffff1660e01b8152600401602060405180830381865afa1580156119d1573d6000803e3d6000fd5b505050506040513d601f19601f820116820180604052508101906119f5919061291d565b90506001600160a01b038116611a1e576040516329b99a9560e11b815260040160405180910390fd5b6105b66001600160a01b038216337f000000000000000000000000000000000000000000000000000000000000000085611a74565b60006a636f6e736f6c652e6c6f679050600080835160208501845afa505050565b604080516001600160a01b0385811660248301528416604482015260648082018490528251808303909101815260849091019091526020810180516001600160e01b03166323b872dd60e01b179052611ace908590611ad4565b50505050565b6000611b29826040518060400160405280602081526020017f5361666545524332303a206c6f772d6c6576656c2063616c6c206661696c6564815250856001600160a01b0316611bae9092919063ffffffff16565b9050805160001480611b4a575080806020019051810190611b4a919061293a565b611ba95760405162461bcd60e51b815260206004820152602a60248201527f5361666545524332303a204552433230206f7065726174696f6e20646964206e6044820152691bdd081cdd58d8d9595960b21b606482015260840161052b565b505050565b606061084b848460008585600080866001600160a01b03168587604051611bd5919061295c565b60006040518083038185875af1925050503d8060008114611c12576040519150601f19603f3d011682016040523d82523d6000602084013e611c17565b606091505b50915091506117028783838760608315611c92578251600003611c8b576001600160a01b0385163b611c8b5760405162461bcd60e51b815260206004820152601d60248201527f416464726573733a2063616c6c20746f206e6f6e2d636f6e7472616374000000604482015260640161052b565b508161084b565b61084b8383815115611ca75781518083602001fd5b8060405162461bcd60e51b815260040161052b9190612799565b60405180606001604052806000801916815260200160006001600160401b03168152602001611d03604051806040016040528060008152602001600081525090565b905290565b600060608284031215611d1a57600080fd5b50919050565b60008083601f840112611d3257600080fd5b5081356001600160401b03811115611d4957600080fd5b602083019150836020828501011115611d6157600080fd5b9250929050565b6001600160a01b03811681146111a357600080fd5b600080600080600080600060e0888a031215611d9857600080fd5b611da28989611d08565b96506060880135955060808801356001600160401b0380821115611dc557600080fd5b611dd18b838c01611d20565b909750955060a08a01359150611de682611d68565b90935060c08901359080821115611dfc57600080fd5b50611e098a828b01611d20565b989b979a50959850939692959293505050565b803563ffffffff81168114611e3057600080fd5b919050565b600060208284031215611e4757600080fd5b611e5082611e1c565b9392505050565b60008060408385031215611e6a57600080fd5b611e7383611e1c565b946020939093013593505050565b600080600060408486031215611e9657600080fd5b611e9f84611e1c565b925060208401356001600160401b03811115611eba57600080fd5b611ec686828701611d20565b9497909650939450505050565b60005b83811015611eee578181015183820152602001611ed6565b50506000910152565b60008151808452611f0f816020860160208601611ed3565b601f01601f19169290920160200192915050565b6000815160a08452611f3860a0850182611ef7565b9050602083015160208501526040830151604085015260608301516060850152608083015160808501528091505092915050565b600082825180855260208086019550808260051b84010181860160005b84811015611fb757601f19868403018952611fa5838351611f23565b98840198925090830190600101611f89565b5090979650505050505050565b602081526000611e506020830184611f6c565b60008060008060a08587031215611fed57600080fd5b611ff78686611d08565b935060608501356001600160401b0381111561201257600080fd5b61201e87828801611d20565b909450925050608085013561203281611d68565b939692955090935050565b602081526000611e506020830184611f23565b60006020828403121561206257600080fd5b8135611e5081611d68565b634e487b7160e01b600052604160045260246000fd5b60405160a081016001600160401b03811182821017156120a5576120a561206d565b60405290565b604080519081016001600160401b03811182821017156120a5576120a561206d565b604051601f8201601f191681016001600160401b03811182821017156120f5576120f561206d565b604052919050565b600082601f83011261210e57600080fd5b81356001600160401b038111156121275761212761206d565b61213a601f8201601f19166020016120cd565b81815284602083860101111561214f57600080fd5b816020850160208301376000918101602001919091529392505050565b60008060008060008060c0878903121561218557600080fd5b61218e87611e1c565b955060208701356001600160401b038111156121a957600080fd5b6121b589828a016120fd565b96999698505050506040850135946060810135946080820135945060a09091013592509050565b60006001600160401b038211156121f5576121f561206d565b5060051b60200190565b6000602080838503121561221257600080fd5b82356001600160401b0381111561222857600080fd5b8301601f8101851361223957600080fd5b803561224c612247826121dc565b6120cd565b81815260059190911b8201830190838101908783111561226b57600080fd5b928401925b828410156117025761228184611e1c565b82529284019290840190612270565b6040815260006122a36040830185611f23565b905063ffffffff831660208301529392505050565b6000602082840312156122ca57600080fd5b5035919050565b60a0815260006122e460a0830188611ef7565b90508560208301528460408301528360608301528260808301529695505050505050565b6000806040838503121561231b57600080fd5b8235915061232b60208401611e1c565b90509250929050565b60006060828403121561234657600080fd5b611e508383611d08565b600181811c9082168061236457607f821691505b602082108103611d1a57634e487b7160e01b600052602260045260246000fd5b6000604080830163ffffffff861684526020828186015281865480845260609350838701915060058482821b89010160008a8152858120815b8581101561247f57605f198c850301875260a08085528383546123df81612350565b92870183905260c09260018281168015612400576001811461241957612444565b60ff1984168a8701528215158b1b8a0186019450612444565b8789528d8920895b8481101561243c5781548c8201890152908301908f01612421565b8b0187019550505b50860154888d0152505060028401548c87015260038401548b87015260048401546080909601959095525095870195908401906001016123bd565b50919c9b505050505050505050505050565b634e487b7160e01b600052603260045260246000fd5b634e487b7160e01b600052601160045260246000fd5b6000600182016124cf576124cf6124a7565b5060010190565b8082028115828204841417610838576108386124a7565b60008261250a57634e487b7160e01b600052601260045260246000fd5b500490565b63ffffffff8316815260406020820152600061084b6040830184611f6c565b601f821115611ba957600081815260208120601f850160051c810160208610156125555750805b601f850160051c820191505b8181101561257457828155600101612561565b505050505050565b81516001600160401b038111156125955761259561206d565b6125a9816125a38454612350565b8461252e565b602080601f8311600181146125de57600084156125c65750858301515b600019600386901b1c1916600185901b178555612574565b600085815260208120601f198616915b8281101561260d578886015182559484019460019091019084016125ee565b508582101561262b5787850151600019600388901b60f8161c191681555b5050505050600190811b01905550565b6000806040838503121561264e57600080fd5b61265783611e1c565b91506020808401356001600160401b038082111561267457600080fd5b818601915086601f83011261268857600080fd5b8135612696612247826121dc565b81815260059190911b830184019084810190898311156126b557600080fd5b8585015b8381101561274e578035858111156126d15760008081fd5b860160a0818d03601f19018113156126e95760008081fd5b6126f1612083565b89830135888111156127035760008081fd5b6127118f8c838701016120fd565b8252506040838101358b830152606080850135918301919091526080808501359183019190915291909201359082015283529186019186016126b9565b508096505050505050509250929050565b600063ffffffff8087168352808616602084015250608060408301526127886080830185611ef7565b905082606083015295945050505050565b602081526000611e506020830184611ef7565b6040815263ffffffff8351166040820152602083015160608201526000604084015160a060808401526127e260e0840182611ef7565b90506060850151603f198483030160a08501526127ff8282611ef7565b60809690960151151560c08501525050506001600160a01b039190911660209091015290565b6000818303608081121561283857600080fd5b604051606081016001600160401b03828210818311171561285b5761285b61206d565b816040528551835260208601519150808216821461287857600080fd5b5060208201526040603f198301121561289057600080fd5b6128986120ab565b6040858101518252606090950151602082015293810193909352509092915050565b81810381811115610838576108386124a7565b6040815260006128e06040830185611ef7565b90508260208301529392505050565b6040815260006129026040830185611ef7565b82810360208401526129148185611ef7565b95945050505050565b60006020828403121561292f57600080fd5b8151611e5081611d68565b60006020828403121561294c57600080fd5b81518015158114611e5057600080fd5b6000825161296e818460208701611ed3565b919091019291505056fea26469706673582212203a461c82b6a58957642975f9ae44819d84584a231b78d320d8c7e420c7c6993e64736f6c63430008140033","opcodes":"PUSH1 0xA0 PUSH1 0x40 MSTORE CALLVALUE DUP1 ISZERO PUSH3 0x11 JUMPI PUSH1 0x0 DUP1 REVERT JUMPDEST POP PUSH1 0x40 MLOAD PUSH3 0x2B70 CODESIZE SUB DUP1 PUSH3 0x2B70 DUP4 CODECOPY DUP2 ADD PUSH1 0x40 DUP2 SWAP1 MSTORE PUSH3 0x34 SWAP2 PUSH3 0x14B JUMP JUMPDEST DUP2 DUP2 DUP2 DUP2 PUSH3 0x43 CALLER PUSH3 0xDE JUMP JUMPDEST PUSH1 0x1 PUSH1 0x1 PUSH1 0xA0 SHL SUB DUP1 DUP4 AND PUSH1 0x80 MSTORE DUP2 AND PUSH3 0x71 JUMPI PUSH1 0x40 MLOAD PUSH4 0x2D618D81 PUSH1 0xE2 SHL DUP2 MSTORE PUSH1 0x4 ADD PUSH1 0x40 MLOAD DUP1 SWAP2 SUB SWAP1 REVERT JUMPDEST PUSH1 0x80 MLOAD PUSH1 0x40 MLOAD PUSH4 0xCA5EB5E1 PUSH1 0xE0 SHL DUP2 MSTORE PUSH1 0x1 PUSH1 0x1 PUSH1 0xA0 SHL SUB DUP4 DUP2 AND PUSH1 0x4 DUP4 ADD MSTORE SWAP1 SWAP2 AND SWAP1 PUSH4 0xCA5EB5E1 SWAP1 PUSH1 0x24 ADD PUSH1 0x0 PUSH1 0x40 MLOAD DUP1 DUP4 SUB DUP2 PUSH1 0x0 DUP8 DUP1 EXTCODESIZE ISZERO DUP1 ISZERO PUSH3 0xB9 JUMPI PUSH1 0x0 DUP1 REVERT JUMPDEST POP GAS CALL ISZERO DUP1 ISZERO PUSH3 0xCE JUMPI RETURNDATASIZE PUSH1 0x0 DUP1 RETURNDATACOPY RETURNDATASIZE PUSH1 0x0 REVERT JUMPDEST POP POP POP POP POP POP POP POP POP POP PUSH3 0x183 JUMP JUMPDEST PUSH1 0x0 DUP1 SLOAD PUSH1 0x1 PUSH1 0x1 PUSH1 0xA0 SHL SUB DUP4 DUP2 AND PUSH1 0x1 PUSH1 0x1 PUSH1 0xA0 SHL SUB NOT DUP4 AND DUP2 OR DUP5 SSTORE PUSH1 0x40 MLOAD SWAP2 SWAP1 SWAP3 AND SWAP3 DUP4 SWAP2 PUSH32 0x8BE0079C531659141344CD1FD0A4F28419497F9722A3DAAFE3B4186F6B6457E0 SWAP2 SWAP1 LOG3 POP POP JUMP JUMPDEST DUP1 MLOAD PUSH1 0x1 PUSH1 0x1 PUSH1 0xA0 SHL SUB DUP2 AND DUP2 EQ PUSH3 0x146 JUMPI PUSH1 0x0 DUP1 REVERT JUMPDEST SWAP2 SWAP1 POP JUMP JUMPDEST PUSH1 0x0 DUP1 PUSH1 0x40 DUP4 DUP6 SUB SLT ISZERO PUSH3 0x15F JUMPI PUSH1 0x0 DUP1 REVERT JUMPDEST PUSH3 0x16A DUP4 PUSH3 0x12E JUMP JUMPDEST SWAP2 POP PUSH3 0x17A PUSH1 0x20 DUP5 ADD PUSH3 0x12E JUMP JUMPDEST SWAP1 POP SWAP3 POP SWAP3 SWAP1 POP JUMP JUMPDEST PUSH1 0x80 MLOAD PUSH2 0x29AE PUSH3 0x1C2 PUSH1 0x0 CODECOPY PUSH1 0x0 DUP2 DUP2 PUSH2 0x22E ADD MSTORE DUP2 DUP2 PUSH2 0x4E6 ADD MSTORE DUP2 DUP2 PUSH2 0xE1F ADD MSTORE DUP2 DUP2 PUSH2 0x1635 ADD MSTORE DUP2 DUP2 PUSH2 0x1975 ADD MSTORE PUSH2 0x1A2E ADD MSTORE PUSH2 0x29AE PUSH1 0x0 RETURN INVALID PUSH1 0x80 PUSH1 0x40 MSTORE PUSH1 0x4 CALLDATASIZE LT PUSH2 0x140 JUMPI PUSH1 0x0 CALLDATALOAD PUSH1 0xE0 SHR DUP1 PUSH4 0x8DA5CB5B GT PUSH2 0xB6 JUMPI DUP1 PUSH4 0xDCDBF3EC GT PUSH2 0x6F JUMPI DUP1 PUSH4 0xDCDBF3EC EQ PUSH2 0x3DD JUMPI DUP1 PUSH4 0xF151E497 EQ PUSH2 0x40B JUMPI DUP1 PUSH4 0xF2FDE38B EQ PUSH2 0x453 JUMPI DUP1 PUSH4 0xF56F1DB2 EQ PUSH2 0x473 JUMPI DUP1 PUSH4 0xF788B3A6 EQ PUSH2 0x4A4 JUMPI DUP1 PUSH4 0xFF7BD03D EQ PUSH2 0x4C4 JUMPI PUSH1 0x0 DUP1 REVERT JUMPDEST DUP1 PUSH4 0x8DA5CB5B EQ PUSH2 0x312 JUMPI DUP1 PUSH4 0x8F565692 EQ PUSH2 0x330 JUMPI DUP1 PUSH4 0xBB0B6A53 EQ PUSH2 0x35D JUMPI DUP1 PUSH4 0xBD5C9AAF EQ PUSH2 0x38A JUMPI DUP1 PUSH4 0xCA5EB5E1 EQ PUSH2 0x39D JUMPI DUP1 PUSH4 0xD439A5C9 EQ PUSH2 0x3BD JUMPI PUSH1 0x0 DUP1 REVERT JUMPDEST DUP1 PUSH4 0x59C730C3 GT PUSH2 0x108 JUMPI DUP1 PUSH4 0x59C730C3 EQ PUSH2 0x1EF JUMPI DUP1 PUSH4 0x5E280F11 EQ PUSH2 0x21C JUMPI DUP1 PUSH4 0x715018A6 EQ PUSH2 0x268 JUMPI DUP1 PUSH4 0x7D25A05E EQ PUSH2 0x27D JUMPI DUP1 PUSH4 0x82413EAC EQ PUSH2 0x2B5 JUMPI DUP1 PUSH4 0x8B42BABD EQ PUSH2 0x2E5 JUMPI PUSH1 0x0 DUP1 REVERT JUMPDEST DUP1 PUSH4 0x13137D65 EQ PUSH2 0x145 JUMPI DUP1 PUSH4 0x17442B70 EQ PUSH2 0x15A JUMPI DUP1 PUSH4 0x33C56C75 EQ PUSH2 0x181 JUMPI DUP1 PUSH4 0x3400288B EQ PUSH2 0x1BC JUMPI DUP1 PUSH4 0x57EFDEAA EQ PUSH2 0x1DC JUMPI JUMPDEST PUSH1 0x0 DUP1 REVERT JUMPDEST PUSH2 0x158 PUSH2 0x153 CALLDATASIZE PUSH1 0x4 PUSH2 0x1D7D JUMP JUMPDEST PUSH2 0x4E4 JUMP JUMPDEST STOP JUMPDEST CALLVALUE DUP1 ISZERO PUSH2 0x166 JUMPI PUSH1 0x0 DUP1 REVERT JUMPDEST POP PUSH1 0x40 DUP1 MLOAD PUSH1 0x1 DUP2 MSTORE PUSH1 0x2 PUSH1 0x20 DUP3 ADD MSTORE ADD JUMPDEST PUSH1 0x40 MLOAD DUP1 SWAP2 SUB SWAP1 RETURN JUMPDEST CALLVALUE DUP1 ISZERO PUSH2 0x18D JUMPI PUSH1 0x0 DUP1 REVERT JUMPDEST POP PUSH2 0x1AE PUSH2 0x19C CALLDATASIZE PUSH1 0x4 PUSH2 0x1E35 JUMP JUMPDEST PUSH1 0x3 PUSH1 0x20 MSTORE PUSH1 0x0 SWAP1 DUP2 MSTORE PUSH1 0x40 SWAP1 KECCAK256 SLOAD DUP2 JUMP JUMPDEST PUSH1 0x40 MLOAD SWAP1 DUP2 MSTORE PUSH1 0x20 ADD PUSH2 0x178 JUMP JUMPDEST CALLVALUE DUP1 ISZERO PUSH2 0x1C8 JUMPI PUSH1 0x0 DUP1 REVERT JUMPDEST POP PUSH2 0x158 PUSH2 0x1D7 CALLDATASIZE PUSH1 0x4 PUSH2 0x1E57 JUMP JUMPDEST PUSH2 0x5A4 JUMP JUMPDEST PUSH2 0x158 PUSH2 0x1EA CALLDATASIZE PUSH1 0x4 PUSH2 0x1E81 JUMP JUMPDEST PUSH2 0x5BA JUMP JUMPDEST CALLVALUE DUP1 ISZERO PUSH2 0x1FB JUMPI PUSH1 0x0 DUP1 REVERT JUMPDEST POP PUSH2 0x20F PUSH2 0x20A CALLDATASIZE PUSH1 0x4 PUSH2 0x1E35 JUMP JUMPDEST PUSH2 0x6F5 JUMP JUMPDEST PUSH1 0x40 MLOAD PUSH2 0x178 SWAP2 SWAP1 PUSH2 0x1FC4 JUMP JUMPDEST CALLVALUE DUP1 ISZERO PUSH2 0x228 JUMPI PUSH1 0x0 DUP1 REVERT JUMPDEST POP PUSH2 0x250 PUSH32 0x0 DUP2 JUMP JUMPDEST PUSH1 0x40 MLOAD PUSH1 0x1 PUSH1 0x1 PUSH1 0xA0 SHL SUB SWAP1 SWAP2 AND DUP2 MSTORE PUSH1 0x20 ADD PUSH2 0x178 JUMP JUMPDEST CALLVALUE DUP1 ISZERO PUSH2 0x274 JUMPI PUSH1 0x0 DUP1 REVERT JUMPDEST POP PUSH2 0x158 PUSH2 0x821 JUMP JUMPDEST CALLVALUE DUP1 ISZERO PUSH2 0x289 JUMPI PUSH1 0x0 DUP1 REVERT JUMPDEST POP PUSH2 0x29D PUSH2 0x298 CALLDATASIZE PUSH1 0x4 PUSH2 0x1E57 JUMP JUMPDEST PUSH2 0x835 JUMP JUMPDEST PUSH1 0x40 MLOAD PUSH1 0x1 PUSH1 0x1 PUSH1 0x40 SHL SUB SWAP1 SWAP2 AND DUP2 MSTORE PUSH1 0x20 ADD PUSH2 0x178 JUMP JUMPDEST CALLVALUE DUP1 ISZERO PUSH2 0x2C1 JUMPI PUSH1 0x0 DUP1 REVERT JUMPDEST POP PUSH2 0x2D5 PUSH2 0x2D0 CALLDATASIZE PUSH1 0x4 PUSH2 0x1FD7 JUMP JUMPDEST PUSH2 0x83E JUMP JUMPDEST PUSH1 0x40 MLOAD SWAP1 ISZERO ISZERO DUP2 MSTORE PUSH1 0x20 ADD PUSH2 0x178 JUMP JUMPDEST CALLVALUE DUP1 ISZERO PUSH2 0x2F1 JUMPI PUSH1 0x0 DUP1 REVERT JUMPDEST POP PUSH2 0x1AE PUSH2 0x300 CALLDATASIZE PUSH1 0x4 PUSH2 0x1E35 JUMP JUMPDEST PUSH1 0x5 PUSH1 0x20 MSTORE PUSH1 0x0 SWAP1 DUP2 MSTORE PUSH1 0x40 SWAP1 KECCAK256 SLOAD DUP2 JUMP JUMPDEST CALLVALUE DUP1 ISZERO PUSH2 0x31E JUMPI PUSH1 0x0 DUP1 REVERT JUMPDEST POP PUSH1 0x0 SLOAD PUSH1 0x1 PUSH1 0x1 PUSH1 0xA0 SHL SUB AND PUSH2 0x250 JUMP JUMPDEST CALLVALUE DUP1 ISZERO PUSH2 0x33C JUMPI PUSH1 0x0 DUP1 REVERT JUMPDEST POP PUSH2 0x350 PUSH2 0x34B CALLDATASIZE PUSH1 0x4 PUSH2 0x1E35 JUMP JUMPDEST PUSH2 0x853 JUMP JUMPDEST PUSH1 0x40 MLOAD PUSH2 0x178 SWAP2 SWAP1 PUSH2 0x203D JUMP JUMPDEST CALLVALUE DUP1 ISZERO PUSH2 0x369 JUMPI PUSH1 0x0 DUP1 REVERT JUMPDEST POP PUSH2 0x1AE PUSH2 0x378 CALLDATASIZE PUSH1 0x4 PUSH2 0x1E35 JUMP JUMPDEST PUSH1 0x1 PUSH1 0x20 MSTORE PUSH1 0x0 SWAP1 DUP2 MSTORE PUSH1 0x40 SWAP1 KECCAK256 SLOAD DUP2 JUMP JUMPDEST PUSH2 0x158 PUSH2 0x398 CALLDATASIZE PUSH1 0x4 PUSH2 0x1E81 JUMP JUMPDEST PUSH2 0xB6A JUMP JUMPDEST CALLVALUE DUP1 ISZERO PUSH2 0x3A9 JUMPI PUSH1 0x0 DUP1 REVERT JUMPDEST POP PUSH2 0x158 PUSH2 0x3B8 CALLDATASIZE PUSH1 0x4 PUSH2 0x2050 JUMP JUMPDEST PUSH2 0xDF8 JUMP JUMPDEST CALLVALUE DUP1 ISZERO PUSH2 0x3C9 JUMPI PUSH1 0x0 DUP1 REVERT JUMPDEST POP PUSH2 0x158 PUSH2 0x3D8 CALLDATASIZE PUSH1 0x4 PUSH2 0x216C JUMP JUMPDEST PUSH2 0xE7E JUMP JUMPDEST CALLVALUE DUP1 ISZERO PUSH2 0x3E9 JUMPI PUSH1 0x0 DUP1 REVERT JUMPDEST POP PUSH2 0x3FD PUSH2 0x3F8 CALLDATASIZE PUSH1 0x4 PUSH2 0x21FF JUMP JUMPDEST PUSH2 0xF45 JUMP JUMPDEST PUSH1 0x40 MLOAD PUSH2 0x178 SWAP3 SWAP2 SWAP1 PUSH2 0x2290 JUMP JUMPDEST CALLVALUE DUP1 ISZERO PUSH2 0x417 JUMPI PUSH1 0x0 DUP1 REVERT JUMPDEST POP PUSH2 0x43E PUSH2 0x426 CALLDATASIZE PUSH1 0x4 PUSH2 0x22B8 JUMP JUMPDEST PUSH1 0x4 PUSH1 0x20 MSTORE PUSH1 0x0 SWAP1 DUP2 MSTORE PUSH1 0x40 SWAP1 KECCAK256 SLOAD PUSH4 0xFFFFFFFF AND DUP2 JUMP JUMPDEST PUSH1 0x40 MLOAD PUSH4 0xFFFFFFFF SWAP1 SWAP2 AND DUP2 MSTORE PUSH1 0x20 ADD PUSH2 0x178 JUMP JUMPDEST CALLVALUE DUP1 ISZERO PUSH2 0x45F JUMPI PUSH1 0x0 DUP1 REVERT JUMPDEST POP PUSH2 0x158 PUSH2 0x46E CALLDATASIZE PUSH1 0x4 PUSH2 0x2050 JUMP JUMPDEST PUSH2 0x112D JUMP JUMPDEST CALLVALUE DUP1 ISZERO PUSH2 0x47F JUMPI PUSH1 0x0 DUP1 REVERT JUMPDEST POP PUSH2 0x493 PUSH2 0x48E CALLDATASIZE PUSH1 0x4 PUSH2 0x1E57 JUMP JUMPDEST PUSH2 0x11A6 JUMP JUMPDEST PUSH1 0x40 MLOAD PUSH2 0x178 SWAP6 SWAP5 SWAP4 SWAP3 SWAP2 SWAP1 PUSH2 0x22D1 JUMP JUMPDEST CALLVALUE DUP1 ISZERO PUSH2 0x4B0 JUMPI PUSH1 0x0 DUP1 REVERT JUMPDEST POP PUSH2 0x158 PUSH2 0x4BF CALLDATASIZE PUSH1 0x4 PUSH2 0x2308 JUMP JUMPDEST PUSH2 0x1281 JUMP JUMPDEST CALLVALUE DUP1 ISZERO PUSH2 0x4D0 JUMPI PUSH1 0x0 DUP1 REVERT JUMPDEST POP PUSH2 0x2D5 PUSH2 0x4DF CALLDATASIZE PUSH1 0x4 PUSH2 0x2334 JUMP JUMPDEST PUSH2 0x12BC JUMP JUMPDEST PUSH32 0x0 PUSH1 0x1 PUSH1 0x1 PUSH1 0xA0 SHL SUB AND CALLER EQ PUSH2 0x534 JUMPI PUSH1 0x40 MLOAD PUSH4 0x91AC5E4F PUSH1 0xE0 SHL DUP2 MSTORE CALLER PUSH1 0x4 DUP3 ADD MSTORE PUSH1 0x24 ADD JUMPDEST PUSH1 0x40 MLOAD DUP1 SWAP2 SUB SWAP1 REVERT JUMPDEST PUSH1 0x20 DUP8 ADD DUP1 CALLDATALOAD SWAP1 PUSH2 0x54E SWAP1 PUSH2 0x549 SWAP1 DUP11 PUSH2 0x1E35 JUMP JUMPDEST PUSH2 0x12F2 JUMP JUMPDEST EQ PUSH2 0x58C JUMPI PUSH2 0x560 PUSH1 0x20 DUP9 ADD DUP9 PUSH2 0x1E35 JUMP JUMPDEST PUSH1 0x40 MLOAD PUSH4 0x309AFAF3 PUSH1 0xE2 SHL DUP2 MSTORE PUSH4 0xFFFFFFFF SWAP1 SWAP2 AND PUSH1 0x4 DUP3 ADD MSTORE PUSH1 0x20 DUP9 ADD CALLDATALOAD PUSH1 0x24 DUP3 ADD MSTORE PUSH1 0x44 ADD PUSH2 0x52B JUMP JUMPDEST PUSH2 0x59B DUP8 DUP8 DUP8 DUP8 DUP8 DUP8 DUP8 PUSH2 0x132E JUMP JUMPDEST POP POP POP POP POP POP POP JUMP JUMPDEST PUSH2 0x5AC PUSH2 0x1510 JUMP JUMPDEST PUSH2 0x5B6 DUP3 DUP3 PUSH2 0x156A JUMP JUMPDEST POP POP JUMP JUMPDEST CHAINID PUSH1 0x0 SWAP1 DUP2 MSTORE PUSH1 0x4 PUSH1 0x20 MSTORE PUSH1 0x40 DUP2 KECCAK256 SLOAD PUSH4 0xFFFFFFFF AND SWAP1 SUB PUSH2 0x61E JUMPI PUSH1 0x40 MLOAD PUSH3 0x461BCD PUSH1 0xE5 SHL DUP2 MSTORE PUSH1 0x20 PUSH1 0x4 DUP3 ADD MSTORE PUSH1 0x1B PUSH1 0x24 DUP3 ADD MSTORE PUSH32 0x536F7572636520636861696E206E6F7420636F6E666967757265640000000000 PUSH1 0x44 DUP3 ADD MSTORE PUSH1 0x64 ADD PUSH2 0x52B JUMP JUMPDEST CHAINID PUSH1 0x0 SWAP1 DUP2 MSTORE PUSH1 0x4 PUSH1 0x20 SWAP1 DUP2 MSTORE PUSH1 0x40 DUP1 DUP4 KECCAK256 SLOAD PUSH4 0xFFFFFFFF AND DUP1 DUP5 MSTORE PUSH1 0x2 DUP4 MSTORE DUP2 DUP5 KECCAK256 SWAP2 MLOAD SWAP1 SWAP4 SWAP3 PUSH2 0x654 SWAP3 DUP6 SWAP3 SWAP1 SWAP2 ADD PUSH2 0x2384 JUMP JUMPDEST PUSH1 0x40 DUP1 MLOAD PUSH1 0x1F NOT DUP2 DUP5 SUB ADD DUP2 MSTORE DUP3 DUP3 ADD DUP3 MSTORE CALLVALUE DUP4 MSTORE PUSH1 0x0 PUSH1 0x20 DUP5 DUP2 ADD SWAP2 SWAP1 SWAP2 MSTORE DUP3 MLOAD DUP1 DUP5 ADD SWAP1 SWAP4 MSTORE PUSH1 0x1D DUP4 MSTORE PUSH32 0x66726F6D20636F6E7472616374206265666F7265206C7A53656E643A20000000 SWAP1 DUP4 ADD MSTORE SWAP3 POP PUSH2 0x6B0 SWAP1 PUSH2 0x15BF JUMP JUMPDEST PUSH2 0x59B DUP7 DUP4 DUP8 DUP8 DUP1 DUP1 PUSH1 0x1F ADD PUSH1 0x20 DUP1 SWAP2 DIV MUL PUSH1 0x20 ADD PUSH1 0x40 MLOAD SWAP1 DUP2 ADD PUSH1 0x40 MSTORE DUP1 SWAP4 SWAP3 SWAP2 SWAP1 DUP2 DUP2 MSTORE PUSH1 0x20 ADD DUP4 DUP4 DUP1 DUP3 DUP5 CALLDATACOPY PUSH1 0x0 SWAP3 ADD SWAP2 SWAP1 SWAP2 MSTORE POP DUP8 SWAP3 POP CALLER SWAP2 POP PUSH2 0x1602 SWAP1 POP JUMP JUMPDEST PUSH4 0xFFFFFFFF DUP2 AND PUSH1 0x0 SWAP1 DUP2 MSTORE PUSH1 0x2 PUSH1 0x20 SWAP1 DUP2 MSTORE PUSH1 0x40 DUP1 DUP4 KECCAK256 DUP1 SLOAD DUP3 MLOAD DUP2 DUP6 MUL DUP2 ADD DUP6 ADD SWAP1 SWAP4 MSTORE DUP1 DUP4 MSTORE PUSH1 0x60 SWAP5 SWAP3 SWAP4 SWAP2 SWAP3 SWAP1 SWAP2 DUP5 ADD JUMPDEST DUP3 DUP3 LT ISZERO PUSH2 0x816 JUMPI DUP4 DUP3 SWAP1 PUSH1 0x0 MSTORE PUSH1 0x20 PUSH1 0x0 KECCAK256 SWAP1 PUSH1 0x5 MUL ADD PUSH1 0x40 MLOAD DUP1 PUSH1 0xA0 ADD PUSH1 0x40 MSTORE SWAP1 DUP2 PUSH1 0x0 DUP3 ADD DUP1 SLOAD PUSH2 0x75D SWAP1 PUSH2 0x2350 JUMP JUMPDEST DUP1 PUSH1 0x1F ADD PUSH1 0x20 DUP1 SWAP2 DIV MUL PUSH1 0x20 ADD PUSH1 0x40 MLOAD SWAP1 DUP2 ADD PUSH1 0x40 MSTORE DUP1 SWAP3 SWAP2 SWAP1 DUP2 DUP2 MSTORE PUSH1 0x20 ADD DUP3 DUP1 SLOAD PUSH2 0x789 SWAP1 PUSH2 0x2350 JUMP JUMPDEST DUP1 ISZERO PUSH2 0x7D6 JUMPI DUP1 PUSH1 0x1F LT PUSH2 0x7AB JUMPI PUSH2 0x100 DUP1 DUP4 SLOAD DIV MUL DUP4 MSTORE SWAP2 PUSH1 0x20 ADD SWAP2 PUSH2 0x7D6 JUMP JUMPDEST DUP3 ADD SWAP2 SWAP1 PUSH1 0x0 MSTORE PUSH1 0x20 PUSH1 0x0 KECCAK256 SWAP1 JUMPDEST DUP2 SLOAD DUP2 MSTORE SWAP1 PUSH1 0x1 ADD SWAP1 PUSH1 0x20 ADD DUP1 DUP4 GT PUSH2 0x7B9 JUMPI DUP3 SWAP1 SUB PUSH1 0x1F AND DUP3 ADD SWAP2 JUMPDEST POP POP POP POP POP DUP2 MSTORE PUSH1 0x20 ADD PUSH1 0x1 DUP3 ADD SLOAD DUP2 MSTORE PUSH1 0x20 ADD PUSH1 0x2 DUP3 ADD SLOAD DUP2 MSTORE PUSH1 0x20 ADD PUSH1 0x3 DUP3 ADD SLOAD DUP2 MSTORE PUSH1 0x20 ADD PUSH1 0x4 DUP3 ADD SLOAD DUP2 MSTORE POP POP DUP2 MSTORE PUSH1 0x20 ADD SWAP1 PUSH1 0x1 ADD SWAP1 PUSH2 0x72A JUMP JUMPDEST POP POP POP POP SWAP1 POP SWAP2 SWAP1 POP JUMP JUMPDEST PUSH2 0x829 PUSH2 0x1510 JUMP JUMPDEST PUSH2 0x833 PUSH1 0x0 PUSH2 0x170D JUMP JUMPDEST JUMP JUMPDEST PUSH1 0x0 JUMPDEST SWAP3 SWAP2 POP POP JUMP JUMPDEST PUSH1 0x1 PUSH1 0x1 PUSH1 0xA0 SHL SUB DUP2 AND ADDRESS EQ JUMPDEST SWAP5 SWAP4 POP POP POP POP JUMP JUMPDEST PUSH2 0x885 PUSH1 0x40 MLOAD DUP1 PUSH1 0xA0 ADD PUSH1 0x40 MSTORE DUP1 PUSH1 0x60 DUP2 MSTORE PUSH1 0x20 ADD PUSH1 0x0 DUP2 MSTORE PUSH1 0x20 ADD PUSH1 0x0 DUP2 MSTORE PUSH1 0x20 ADD PUSH1 0x0 DUP2 MSTORE PUSH1 0x20 ADD PUSH1 0x0 DUP2 MSTORE POP SWAP1 JUMP JUMPDEST PUSH4 0xFFFFFFFF DUP3 AND PUSH1 0x0 SWAP1 DUP2 MSTORE PUSH1 0x2 PUSH1 0x20 MSTORE PUSH1 0x40 SWAP1 KECCAK256 SLOAD PUSH2 0x8F3 JUMPI PUSH1 0x40 MLOAD PUSH3 0x461BCD PUSH1 0xE5 SHL DUP2 MSTORE PUSH1 0x20 PUSH1 0x4 DUP3 ADD MSTORE PUSH1 0x24 DUP1 DUP3 ADD MSTORE PUSH32 0x4E6F207374726174656769657320617661696C61626C6520666F722074686973 PUSH1 0x44 DUP3 ADD MSTORE PUSH4 0x8115251 PUSH1 0xE2 SHL PUSH1 0x64 DUP3 ADD MSTORE PUSH1 0x84 ADD PUSH2 0x52B JUMP JUMPDEST PUSH4 0xFFFFFFFF DUP3 AND PUSH1 0x0 SWAP1 DUP2 MSTORE PUSH1 0x2 PUSH1 0x20 MSTORE PUSH1 0x40 DUP2 KECCAK256 DUP1 SLOAD DUP3 SWAP1 PUSH2 0x918 JUMPI PUSH2 0x918 PUSH2 0x2491 JUMP JUMPDEST SWAP1 PUSH1 0x0 MSTORE PUSH1 0x20 PUSH1 0x0 KECCAK256 SWAP1 PUSH1 0x5 MUL ADD PUSH1 0x40 MLOAD DUP1 PUSH1 0xA0 ADD PUSH1 0x40 MSTORE SWAP1 DUP2 PUSH1 0x0 DUP3 ADD DUP1 SLOAD PUSH2 0x941 SWAP1 PUSH2 0x2350 JUMP JUMPDEST DUP1 PUSH1 0x1F ADD PUSH1 0x20 DUP1 SWAP2 DIV MUL PUSH1 0x20 ADD PUSH1 0x40 MLOAD SWAP1 DUP2 ADD PUSH1 0x40 MSTORE DUP1 SWAP3 SWAP2 SWAP1 DUP2 DUP2 MSTORE PUSH1 0x20 ADD DUP3 DUP1 SLOAD PUSH2 0x96D SWAP1 PUSH2 0x2350 JUMP JUMPDEST DUP1 ISZERO PUSH2 0x9BA JUMPI DUP1 PUSH1 0x1F LT PUSH2 0x98F JUMPI PUSH2 0x100 DUP1 DUP4 SLOAD DIV MUL DUP4 MSTORE SWAP2 PUSH1 0x20 ADD SWAP2 PUSH2 0x9BA JUMP JUMPDEST DUP3 ADD SWAP2 SWAP1 PUSH1 0x0 MSTORE PUSH1 0x20 PUSH1 0x0 KECCAK256 SWAP1 JUMPDEST DUP2 SLOAD DUP2 MSTORE SWAP1 PUSH1 0x1 ADD SWAP1 PUSH1 0x20 ADD DUP1 DUP4 GT PUSH2 0x99D JUMPI DUP3 SWAP1 SUB PUSH1 0x1F AND DUP3 ADD SWAP2 JUMPDEST POP POP POP SWAP2 DUP4 MSTORE POP POP PUSH1 0x1 DUP3 DUP2 ADD SLOAD PUSH1 0x20 DUP4 ADD MSTORE PUSH1 0x2 DUP4 ADD SLOAD PUSH1 0x40 DUP4 ADD MSTORE PUSH1 0x3 DUP4 ADD SLOAD PUSH1 0x60 DUP4 ADD MSTORE PUSH1 0x4 SWAP1 SWAP3 ADD SLOAD PUSH1 0x80 SWAP1 SWAP2 ADD MSTORE SWAP1 SWAP2 POP JUMPDEST PUSH4 0xFFFFFFFF DUP5 AND PUSH1 0x0 SWAP1 DUP2 MSTORE PUSH1 0x2 PUSH1 0x20 MSTORE PUSH1 0x40 SWAP1 KECCAK256 SLOAD DUP2 LT ISZERO PUSH2 0xB63 JUMPI PUSH1 0x20 DUP1 DUP4 ADD MLOAD PUSH4 0xFFFFFFFF DUP7 AND PUSH1 0x0 SWAP1 DUP2 MSTORE PUSH1 0x2 SWAP1 SWAP3 MSTORE PUSH1 0x40 SWAP1 SWAP2 KECCAK256 DUP1 SLOAD DUP4 SWAP1 DUP2 LT PUSH2 0xA3C JUMPI PUSH2 0xA3C PUSH2 0x2491 JUMP JUMPDEST SWAP1 PUSH1 0x0 MSTORE PUSH1 0x20 PUSH1 0x0 KECCAK256 SWAP1 PUSH1 0x5 MUL ADD PUSH1 0x1 ADD SLOAD GT ISZERO PUSH2 0xB51 JUMPI PUSH4 0xFFFFFFFF DUP5 AND PUSH1 0x0 SWAP1 DUP2 MSTORE PUSH1 0x2 PUSH1 0x20 MSTORE PUSH1 0x40 SWAP1 KECCAK256 DUP1 SLOAD DUP3 SWAP1 DUP2 LT PUSH2 0xA7B JUMPI PUSH2 0xA7B PUSH2 0x2491 JUMP JUMPDEST SWAP1 PUSH1 0x0 MSTORE PUSH1 0x20 PUSH1 0x0 KECCAK256 SWAP1 PUSH1 0x5 MUL ADD PUSH1 0x40 MLOAD DUP1 PUSH1 0xA0 ADD PUSH1 0x40 MSTORE SWAP1 DUP2 PUSH1 0x0 DUP3 ADD DUP1 SLOAD PUSH2 0xAA4 SWAP1 PUSH2 0x2350 JUMP JUMPDEST DUP1 PUSH1 0x1F ADD PUSH1 0x20 DUP1 SWAP2 DIV MUL PUSH1 0x20 ADD PUSH1 0x40 MLOAD SWAP1 DUP2 ADD PUSH1 0x40 MSTORE DUP1 SWAP3 SWAP2 SWAP1 DUP2 DUP2 MSTORE PUSH1 0x20 ADD DUP3 DUP1 SLOAD PUSH2 0xAD0 SWAP1 PUSH2 0x2350 JUMP JUMPDEST DUP1 ISZERO PUSH2 0xB1D JUMPI DUP1 PUSH1 0x1F LT PUSH2 0xAF2 JUMPI PUSH2 0x100 DUP1 DUP4 SLOAD DIV MUL DUP4 MSTORE SWAP2 PUSH1 0x20 ADD SWAP2 PUSH2 0xB1D JUMP JUMPDEST DUP3 ADD SWAP2 SWAP1 PUSH1 0x0 MSTORE PUSH1 0x20 PUSH1 0x0 KECCAK256 SWAP1 JUMPDEST DUP2 SLOAD DUP2 MSTORE SWAP1 PUSH1 0x1 ADD SWAP1 PUSH1 0x20 ADD DUP1 DUP4 GT PUSH2 0xB00 JUMPI DUP3 SWAP1 SUB PUSH1 0x1F AND DUP3 ADD SWAP2 JUMPDEST POP POP POP POP POP DUP2 MSTORE PUSH1 0x20 ADD PUSH1 0x1 DUP3 ADD SLOAD DUP2 MSTORE PUSH1 0x20 ADD PUSH1 0x2 DUP3 ADD SLOAD DUP2 MSTORE PUSH1 0x20 ADD PUSH1 0x3 DUP3 ADD SLOAD DUP2 MSTORE PUSH1 0x20 ADD PUSH1 0x4 DUP3 ADD SLOAD DUP2 MSTORE POP POP SWAP2 POP JUMPDEST DUP1 PUSH2 0xB5B DUP2 PUSH2 0x24BD JUMP JUMPDEST SWAP2 POP POP PUSH2 0x9F1 JUMP JUMPDEST POP SWAP3 SWAP2 POP POP JUMP JUMPDEST CHAINID PUSH1 0x0 SWAP1 DUP2 MSTORE PUSH1 0x4 PUSH1 0x20 MSTORE PUSH1 0x40 DUP2 KECCAK256 SLOAD PUSH4 0xFFFFFFFF AND SWAP1 SUB PUSH2 0xBCE JUMPI PUSH1 0x40 MLOAD PUSH3 0x461BCD PUSH1 0xE5 SHL DUP2 MSTORE PUSH1 0x20 PUSH1 0x4 DUP3 ADD MSTORE PUSH1 0x1B PUSH1 0x24 DUP3 ADD MSTORE PUSH32 0x536F7572636520636861696E206E6F7420636F6E666967757265640000000000 PUSH1 0x44 DUP3 ADD MSTORE PUSH1 0x64 ADD PUSH2 0x52B JUMP JUMPDEST CHAINID PUSH1 0x0 SWAP1 DUP2 MSTORE PUSH1 0x4 PUSH1 0x20 SWAP1 DUP2 MSTORE PUSH1 0x40 DUP1 DUP4 KECCAK256 SLOAD PUSH4 0xFFFFFFFF AND DUP1 DUP5 MSTORE PUSH1 0x2 DUP4 MSTORE DUP2 DUP5 KECCAK256 DUP1 SLOAD DUP4 MLOAD DUP2 DUP7 MUL DUP2 ADD DUP7 ADD SWAP1 SWAP5 MSTORE DUP1 DUP5 MSTORE SWAP2 SWAP5 SWAP4 SWAP1 SWAP2 SWAP1 DUP5 SWAP1 DUP5 ADD JUMPDEST DUP3 DUP3 LT ISZERO PUSH2 0xCF9 JUMPI DUP4 DUP3 SWAP1 PUSH1 0x0 MSTORE PUSH1 0x20 PUSH1 0x0 KECCAK256 SWAP1 PUSH1 0x5 MUL ADD PUSH1 0x40 MLOAD DUP1 PUSH1 0xA0 ADD PUSH1 0x40 MSTORE SWAP1 DUP2 PUSH1 0x0 DUP3 ADD DUP1 SLOAD PUSH2 0xC40 SWAP1 PUSH2 0x2350 JUMP JUMPDEST DUP1 PUSH1 0x1F ADD PUSH1 0x20 DUP1 SWAP2 DIV MUL PUSH1 0x20 ADD PUSH1 0x40 MLOAD SWAP1 DUP2 ADD PUSH1 0x40 MSTORE DUP1 SWAP3 SWAP2 SWAP1 DUP2 DUP2 MSTORE PUSH1 0x20 ADD DUP3 DUP1 SLOAD PUSH2 0xC6C SWAP1 PUSH2 0x2350 JUMP JUMPDEST DUP1 ISZERO PUSH2 0xCB9 JUMPI DUP1 PUSH1 0x1F LT PUSH2 0xC8E JUMPI PUSH2 0x100 DUP1 DUP4 SLOAD DIV MUL DUP4 MSTORE SWAP2 PUSH1 0x20 ADD SWAP2 PUSH2 0xCB9 JUMP JUMPDEST DUP3 ADD SWAP2 SWAP1 PUSH1 0x0 MSTORE PUSH1 0x20 PUSH1 0x0 KECCAK256 SWAP1 JUMPDEST DUP2 SLOAD DUP2 MSTORE SWAP1 PUSH1 0x1 ADD SWAP1 PUSH1 0x20 ADD DUP1 DUP4 GT PUSH2 0xC9C JUMPI DUP3 SWAP1 SUB PUSH1 0x1F AND DUP3 ADD SWAP2 JUMPDEST POP POP POP POP POP DUP2 MSTORE PUSH1 0x20 ADD PUSH1 0x1 DUP3 ADD SLOAD DUP2 MSTORE PUSH1 0x20 ADD PUSH1 0x2 DUP3 ADD SLOAD DUP2 MSTORE PUSH1 0x20 ADD PUSH1 0x3 DUP3 ADD SLOAD DUP2 MSTORE PUSH1 0x20 ADD PUSH1 0x4 DUP3 ADD SLOAD DUP2 MSTORE POP POP DUP2 MSTORE PUSH1 0x20 ADD SWAP1 PUSH1 0x1 ADD SWAP1 PUSH2 0xC0D JUMP JUMPDEST POP POP POP POP SWAP1 POP PUSH1 0x0 JUMPDEST DUP2 MLOAD DUP2 LT ISZERO PUSH2 0xD73 JUMPI PUSH1 0x64 DUP3 DUP3 DUP2 MLOAD DUP2 LT PUSH2 0xD1F JUMPI PUSH2 0xD1F PUSH2 0x2491 JUMP JUMPDEST PUSH1 0x20 MUL PUSH1 0x20 ADD ADD MLOAD PUSH1 0x20 ADD MLOAD PUSH1 0x69 PUSH2 0xD37 SWAP2 SWAP1 PUSH2 0x24D6 JUMP JUMPDEST PUSH2 0xD41 SWAP2 SWAP1 PUSH2 0x24ED JUMP JUMPDEST DUP3 DUP3 DUP2 MLOAD DUP2 LT PUSH2 0xD53 JUMPI PUSH2 0xD53 PUSH2 0x2491 JUMP JUMPDEST PUSH1 0x20 SWAP1 DUP2 MUL SWAP2 SWAP1 SWAP2 ADD DUP2 ADD MLOAD ADD MSTORE DUP1 PUSH2 0xD6B DUP2 PUSH2 0x24BD JUMP JUMPDEST SWAP2 POP POP PUSH2 0xD02 JUMP JUMPDEST POP PUSH1 0x0 DUP3 DUP3 PUSH1 0x40 MLOAD PUSH1 0x20 ADD PUSH2 0xD89 SWAP3 SWAP2 SWAP1 PUSH2 0x250F JUMP JUMPDEST PUSH1 0x40 DUP1 MLOAD PUSH1 0x1F NOT DUP2 DUP5 SUB ADD DUP2 MSTORE DUP3 DUP3 ADD DUP3 MSTORE CALLVALUE DUP4 MSTORE PUSH1 0x0 PUSH1 0x20 DUP5 DUP2 ADD SWAP2 SWAP1 SWAP2 MSTORE DUP3 MLOAD PUSH1 0x1F DUP10 ADD DUP3 SWAP1 DIV DUP3 MUL DUP2 ADD DUP3 ADD SWAP1 SWAP4 MSTORE DUP8 DUP4 MSTORE SWAP1 SWAP4 POP PUSH2 0xDEE SWAP2 DUP10 SWAP2 DUP6 SWAP2 SWAP1 DUP11 SWAP1 DUP11 SWAP1 DUP2 SWAP1 DUP5 ADD DUP4 DUP3 DUP1 DUP3 DUP5 CALLDATACOPY PUSH1 0x0 SWAP3 ADD SWAP2 SWAP1 SWAP2 MSTORE POP DUP8 SWAP3 POP CALLER SWAP2 POP PUSH2 0x1602 SWAP1 POP JUMP JUMPDEST POP POP POP POP POP POP POP POP JUMP JUMPDEST PUSH2 0xE00 PUSH2 0x1510 JUMP JUMPDEST PUSH1 0x40 MLOAD PUSH4 0xCA5EB5E1 PUSH1 0xE0 SHL DUP2 MSTORE PUSH1 0x1 PUSH1 0x1 PUSH1 0xA0 SHL SUB DUP3 DUP2 AND PUSH1 0x4 DUP4 ADD MSTORE PUSH32 0x0 AND SWAP1 PUSH4 0xCA5EB5E1 SWAP1 PUSH1 0x24 ADD PUSH1 0x0 PUSH1 0x40 MLOAD DUP1 DUP4 SUB DUP2 PUSH1 0x0 DUP8 DUP1 EXTCODESIZE ISZERO DUP1 ISZERO PUSH2 0xE63 JUMPI PUSH1 0x0 DUP1 REVERT JUMPDEST POP GAS CALL ISZERO DUP1 ISZERO PUSH2 0xE77 JUMPI RETURNDATASIZE PUSH1 0x0 DUP1 RETURNDATACOPY RETURNDATASIZE PUSH1 0x0 REVERT JUMPDEST POP POP POP POP POP JUMP JUMPDEST PUSH2 0xE86 PUSH2 0x1510 JUMP JUMPDEST PUSH4 0xFFFFFFFF DUP7 AND PUSH1 0x0 SWAP1 DUP2 MSTORE PUSH1 0x2 PUSH1 0x20 SWAP1 DUP2 MSTORE PUSH1 0x40 DUP1 DUP4 KECCAK256 DUP2 MLOAD PUSH1 0xA0 DUP2 ADD DUP4 MSTORE DUP10 DUP2 MSTORE DUP1 DUP5 ADD DUP10 SWAP1 MSTORE SWAP2 DUP3 ADD DUP8 SWAP1 MSTORE PUSH1 0x60 DUP3 ADD DUP7 SWAP1 MSTORE PUSH1 0x80 DUP3 ADD DUP6 SWAP1 MSTORE DUP1 SLOAD PUSH1 0x1 DUP2 ADD DUP3 SSTORE SWAP1 DUP5 MSTORE SWAP2 SWAP1 SWAP3 KECCAK256 DUP3 MLOAD PUSH1 0x5 SWAP1 SWAP3 MUL ADD SWAP1 DUP2 SWAP1 PUSH2 0xEE7 SWAP1 DUP3 PUSH2 0x257C JUMP JUMPDEST POP PUSH1 0x20 DUP3 DUP2 ADD MLOAD PUSH1 0x1 DUP4 ADD SSTORE PUSH1 0x40 DUP1 DUP5 ADD MLOAD PUSH1 0x2 DUP5 ADD SSTORE PUSH1 0x60 DUP5 ADD MLOAD PUSH1 0x3 DUP1 DUP6 ADD SWAP2 SWAP1 SWAP2 SSTORE PUSH1 0x80 SWAP1 SWAP5 ADD MLOAD PUSH1 0x4 SWAP1 SWAP4 ADD SWAP3 SWAP1 SWAP3 SSTORE PUSH4 0xFFFFFFFF DUP10 AND PUSH1 0x0 SWAP1 DUP2 MSTORE SWAP3 SWAP1 MSTORE DUP2 KECCAK256 DUP1 SLOAD SWAP2 PUSH2 0xF38 DUP4 PUSH2 0x24BD JUMP JUMPDEST SWAP2 SWAP1 POP SSTORE POP POP POP POP POP POP POP JUMP JUMPDEST PUSH2 0xF77 PUSH1 0x40 MLOAD DUP1 PUSH1 0xA0 ADD PUSH1 0x40 MSTORE DUP1 PUSH1 0x60 DUP2 MSTORE PUSH1 0x20 ADD PUSH1 0x0 DUP2 MSTORE PUSH1 0x20 ADD PUSH1 0x0 DUP2 MSTORE PUSH1 0x20 ADD PUSH1 0x0 DUP2 MSTORE PUSH1 0x20 ADD PUSH1 0x0 DUP2 MSTORE POP SWAP1 JUMP JUMPDEST PUSH1 0x0 DUP1 DUP1 JUMPDEST DUP5 MLOAD DUP2 LT ISZERO PUSH2 0x1126 JUMPI PUSH1 0x0 PUSH2 0x10D7 PUSH1 0x2 PUSH1 0x0 DUP9 DUP6 DUP2 MLOAD DUP2 LT PUSH2 0xFA0 JUMPI PUSH2 0xFA0 PUSH2 0x2491 JUMP JUMPDEST PUSH1 0x20 MUL PUSH1 0x20 ADD ADD MLOAD PUSH4 0xFFFFFFFF AND PUSH4 0xFFFFFFFF AND DUP2 MSTORE PUSH1 0x20 ADD SWAP1 DUP2 MSTORE PUSH1 0x20 ADD PUSH1 0x0 KECCAK256 DUP1 SLOAD DUP1 PUSH1 0x20 MUL PUSH1 0x20 ADD PUSH1 0x40 MLOAD SWAP1 DUP2 ADD PUSH1 0x40 MSTORE DUP1 SWAP3 SWAP2 SWAP1 DUP2 DUP2 MSTORE PUSH1 0x20 ADD PUSH1 0x0 SWAP1 JUMPDEST DUP3 DUP3 LT ISZERO PUSH2 0x10CE JUMPI DUP4 DUP3 SWAP1 PUSH1 0x0 MSTORE PUSH1 0x20 PUSH1 0x0 KECCAK256 SWAP1 PUSH1 0x5 MUL ADD PUSH1 0x40 MLOAD DUP1 PUSH1 0xA0 ADD PUSH1 0x40 MSTORE SWAP1 DUP2 PUSH1 0x0 DUP3 ADD DUP1 SLOAD PUSH2 0x1015 SWAP1 PUSH2 0x2350 JUMP JUMPDEST DUP1 PUSH1 0x1F ADD PUSH1 0x20 DUP1 SWAP2 DIV MUL PUSH1 0x20 ADD PUSH1 0x40 MLOAD SWAP1 DUP2 ADD PUSH1 0x40 MSTORE DUP1 SWAP3 SWAP2 SWAP1 DUP2 DUP2 MSTORE PUSH1 0x20 ADD DUP3 DUP1 SLOAD PUSH2 0x1041 SWAP1 PUSH2 0x2350 JUMP JUMPDEST DUP1 ISZERO PUSH2 0x108E JUMPI DUP1 PUSH1 0x1F LT PUSH2 0x1063 JUMPI PUSH2 0x100 DUP1 DUP4 SLOAD DIV MUL DUP4 MSTORE SWAP2 PUSH1 0x20 ADD SWAP2 PUSH2 0x108E JUMP JUMPDEST DUP3 ADD SWAP2 SWAP1 PUSH1 0x0 MSTORE PUSH1 0x20 PUSH1 0x0 KECCAK256 SWAP1 JUMPDEST DUP2 SLOAD DUP2 MSTORE SWAP1 PUSH1 0x1 ADD SWAP1 PUSH1 0x20 ADD DUP1 DUP4 GT PUSH2 0x1071 JUMPI DUP3 SWAP1 SUB PUSH1 0x1F AND DUP3 ADD SWAP2 JUMPDEST POP POP POP POP POP DUP2 MSTORE PUSH1 0x20 ADD PUSH1 0x1 DUP3 ADD SLOAD DUP2 MSTORE PUSH1 0x20 ADD PUSH1 0x2 DUP3 ADD SLOAD DUP2 MSTORE PUSH1 0x20 ADD PUSH1 0x3 DUP3 ADD SLOAD DUP2 MSTORE PUSH1 0x20 ADD PUSH1 0x4 DUP3 ADD SLOAD DUP2 MSTORE POP POP DUP2 MSTORE PUSH1 0x20 ADD SWAP1 PUSH1 0x1 ADD SWAP1 PUSH2 0xFE2 JUMP JUMPDEST POP POP POP POP PUSH2 0x175D JUMP JUMPDEST SWAP1 POP PUSH1 0x0 PUSH2 0x10E4 DUP3 PUSH2 0x186F JUMP JUMPDEST SWAP1 POP DUP4 DUP2 GT ISZERO PUSH2 0x1111 JUMPI DUP1 SWAP4 POP DUP2 SWAP6 POP DUP7 DUP4 DUP2 MLOAD DUP2 LT PUSH2 0x1106 JUMPI PUSH2 0x1106 PUSH2 0x2491 JUMP JUMPDEST PUSH1 0x20 MUL PUSH1 0x20 ADD ADD MLOAD SWAP5 POP JUMPDEST POP POP DUP1 DUP1 PUSH2 0x111E SWAP1 PUSH2 0x24BD JUMP JUMPDEST SWAP2 POP POP PUSH2 0xF7C JUMP JUMPDEST POP POP SWAP2 POP SWAP2 JUMP JUMPDEST PUSH2 0x1135 PUSH2 0x1510 JUMP JUMPDEST PUSH1 0x1 PUSH1 0x1 PUSH1 0xA0 SHL SUB DUP2 AND PUSH2 0x119A JUMPI PUSH1 0x40 MLOAD PUSH3 0x461BCD PUSH1 0xE5 SHL DUP2 MSTORE PUSH1 0x20 PUSH1 0x4 DUP3 ADD MSTORE PUSH1 0x26 PUSH1 0x24 DUP3 ADD MSTORE PUSH32 0x4F776E61626C653A206E6577206F776E657220697320746865207A65726F2061 PUSH1 0x44 DUP3 ADD MSTORE PUSH6 0x646472657373 PUSH1 0xD0 SHL PUSH1 0x64 DUP3 ADD MSTORE PUSH1 0x84 ADD PUSH2 0x52B JUMP JUMPDEST PUSH2 0x11A3 DUP2 PUSH2 0x170D JUMP JUMPDEST POP JUMP JUMPDEST PUSH1 0x2 PUSH1 0x20 MSTORE DUP2 PUSH1 0x0 MSTORE PUSH1 0x40 PUSH1 0x0 KECCAK256 DUP2 DUP2 SLOAD DUP2 LT PUSH2 0x11C2 JUMPI PUSH1 0x0 DUP1 REVERT JUMPDEST SWAP1 PUSH1 0x0 MSTORE PUSH1 0x20 PUSH1 0x0 KECCAK256 SWAP1 PUSH1 0x5 MUL ADD PUSH1 0x0 SWAP2 POP SWAP2 POP POP DUP1 PUSH1 0x0 ADD DUP1 SLOAD PUSH2 0x11E6 SWAP1 PUSH2 0x2350 JUMP JUMPDEST DUP1 PUSH1 0x1F ADD PUSH1 0x20 DUP1 SWAP2 DIV MUL PUSH1 0x20 ADD PUSH1 0x40 MLOAD SWAP1 DUP2 ADD PUSH1 0x40 MSTORE DUP1 SWAP3 SWAP2 SWAP1 DUP2 DUP2 MSTORE PUSH1 0x20 ADD DUP3 DUP1 SLOAD PUSH2 0x1212 SWAP1 PUSH2 0x2350 JUMP JUMPDEST DUP1 ISZERO PUSH2 0x125F JUMPI DUP1 PUSH1 0x1F LT PUSH2 0x1234 JUMPI PUSH2 0x100 DUP1 DUP4 SLOAD DIV MUL DUP4 MSTORE SWAP2 PUSH1 0x20 ADD SWAP2 PUSH2 0x125F JUMP JUMPDEST DUP3 ADD SWAP2 SWAP1 PUSH1 0x0 MSTORE PUSH1 0x20 PUSH1 0x0 KECCAK256 SWAP1 JUMPDEST DUP2 SLOAD DUP2 MSTORE SWAP1 PUSH1 0x1 ADD SWAP1 PUSH1 0x20 ADD DUP1 DUP4 GT PUSH2 0x1242 JUMPI DUP3 SWAP1 SUB PUSH1 0x1F AND DUP3 ADD SWAP2 JUMPDEST POP POP POP POP POP SWAP1 DUP1 PUSH1 0x1 ADD SLOAD SWAP1 DUP1 PUSH1 0x2 ADD SLOAD SWAP1 DUP1 PUSH1 0x3 ADD SLOAD SWAP1 DUP1 PUSH1 0x4 ADD SLOAD SWAP1 POP DUP6 JUMP JUMPDEST PUSH2 0x1289 PUSH2 0x1510 JUMP JUMPDEST PUSH1 0x0 DUP3 DUP2 MSTORE PUSH1 0x4 PUSH1 0x20 SWAP1 DUP2 MSTORE PUSH1 0x40 DUP1 DUP4 KECCAK256 DUP1 SLOAD PUSH4 0xFFFFFFFF SWAP1 SWAP6 AND PUSH4 0xFFFFFFFF NOT SWAP1 SWAP6 AND DUP6 OR SWAP1 SSTORE SWAP3 DUP3 MSTORE PUSH1 0x5 SWAP1 MSTORE KECCAK256 SSTORE JUMP JUMPDEST PUSH1 0x0 PUSH1 0x20 DUP3 ADD DUP1 CALLDATALOAD SWAP1 PUSH1 0x1 SWAP1 DUP4 SWAP1 PUSH2 0x12D4 SWAP1 DUP7 PUSH2 0x1E35 JUMP JUMPDEST PUSH4 0xFFFFFFFF AND DUP2 MSTORE PUSH1 0x20 DUP2 ADD SWAP2 SWAP1 SWAP2 MSTORE PUSH1 0x40 ADD PUSH1 0x0 KECCAK256 SLOAD EQ SWAP3 SWAP2 POP POP JUMP JUMPDEST PUSH4 0xFFFFFFFF DUP2 AND PUSH1 0x0 SWAP1 DUP2 MSTORE PUSH1 0x1 PUSH1 0x20 MSTORE PUSH1 0x40 DUP2 KECCAK256 SLOAD DUP1 PUSH2 0x838 JUMPI PUSH1 0x40 MLOAD PUSH4 0xF6FF4FB7 PUSH1 0xE0 SHL DUP2 MSTORE PUSH4 0xFFFFFFFF DUP5 AND PUSH1 0x4 DUP3 ADD MSTORE PUSH1 0x24 ADD PUSH2 0x52B JUMP JUMPDEST PUSH2 0x1360 PUSH1 0x40 MLOAD DUP1 PUSH1 0x40 ADD PUSH1 0x40 MSTORE DUP1 PUSH1 0x11 DUP2 MSTORE PUSH1 0x20 ADD PUSH17 0x17DB1E949958D95A5D994818D85B1B1959 PUSH1 0x7A SHL DUP2 MSTORE POP PUSH2 0x15BF JUMP JUMPDEST PUSH1 0x0 DUP1 PUSH2 0x136F DUP7 DUP9 ADD DUP9 PUSH2 0x263B JUMP JUMPDEST SWAP2 POP SWAP2 POP PUSH2 0x13B8 PUSH1 0x40 MLOAD DUP1 PUSH1 0x40 ADD PUSH1 0x40 MSTORE DUP1 PUSH1 0x18 DUP2 MSTORE PUSH1 0x20 ADD PUSH32 0x4465636F646564206D6573736167652E207372634569643A0000000000000000 DUP2 MSTORE POP DUP4 PUSH4 0xFFFFFFFF AND PUSH2 0x18BA JUMP JUMPDEST PUSH2 0x13F0 PUSH1 0x40 MLOAD DUP1 PUSH1 0x40 ADD PUSH1 0x40 MSTORE DUP1 PUSH1 0x15 DUP2 MSTORE PUSH1 0x20 ADD PUSH21 0x273AB6B132B91037B31039BA3930BA32B3B4B2B99D PUSH1 0x59 SHL DUP2 MSTORE POP DUP3 MLOAD PUSH2 0x18BA JUMP JUMPDEST PUSH1 0x0 PUSH2 0x13FB DUP3 PUSH2 0x175D JUMP JUMPDEST SWAP1 POP PUSH2 0x1440 PUSH1 0x40 MLOAD DUP1 PUSH1 0x40 ADD PUSH1 0x40 MSTORE DUP1 PUSH1 0x1A DUP2 MSTORE PUSH1 0x20 ADD PUSH32 0x4265737420737472617465677920666F756E642E204E616D653A000000000000 DUP2 MSTORE POP DUP3 PUSH1 0x0 ADD MLOAD PUSH2 0x18FF JUMP JUMPDEST PUSH2 0x1478 PUSH1 0x40 MLOAD DUP1 PUSH1 0x40 ADD PUSH1 0x40 MSTORE DUP1 PUSH1 0x12 DUP2 MSTORE PUSH1 0x20 ADD PUSH18 0x2132B9BA1039BA3930BA32B3BC9020A82C9D PUSH1 0x71 SHL DUP2 MSTORE POP DUP3 PUSH1 0x20 ADD MLOAD PUSH2 0x18BA JUMP JUMPDEST PUSH32 0xEF687003A6D93E74ED8BFDDA320A959E343AA949FCBB929BB89581A31F29B613 PUSH2 0x14A6 PUSH1 0x20 DUP13 ADD DUP13 PUSH2 0x1E35 JUMP JUMPDEST DUP3 MLOAD PUSH1 0x20 DUP5 ADD MLOAD PUSH1 0x40 MLOAD PUSH2 0x14BE SWAP4 SWAP3 CHAINID SWAP3 SWAP1 SWAP2 PUSH2 0x275F JUMP JUMPDEST PUSH1 0x40 MLOAD DUP1 SWAP2 SUB SWAP1 LOG1 PUSH2 0x1504 PUSH1 0x40 MLOAD DUP1 PUSH1 0x40 ADD PUSH1 0x40 MSTORE DUP1 PUSH1 0x1F DUP2 MSTORE PUSH1 0x20 ADD PUSH32 0x53747261746567794F7074696D697A6564206576656E7420656D697474656400 DUP2 MSTORE POP PUSH2 0x15BF JUMP JUMPDEST POP POP POP POP POP POP POP POP POP POP JUMP JUMPDEST PUSH1 0x0 SLOAD PUSH1 0x1 PUSH1 0x1 PUSH1 0xA0 SHL SUB AND CALLER EQ PUSH2 0x833 JUMPI PUSH1 0x40 MLOAD PUSH3 0x461BCD PUSH1 0xE5 SHL DUP2 MSTORE PUSH1 0x20 PUSH1 0x4 DUP3 ADD DUP2 SWAP1 MSTORE PUSH1 0x24 DUP3 ADD MSTORE PUSH32 0x4F776E61626C653A2063616C6C6572206973206E6F7420746865206F776E6572 PUSH1 0x44 DUP3 ADD MSTORE PUSH1 0x64 ADD PUSH2 0x52B JUMP JUMPDEST PUSH4 0xFFFFFFFF DUP3 AND PUSH1 0x0 DUP2 DUP2 MSTORE PUSH1 0x1 PUSH1 0x20 SWAP1 DUP2 MSTORE PUSH1 0x40 SWAP2 DUP3 SWAP1 KECCAK256 DUP5 SWAP1 SSTORE DUP2 MLOAD SWAP3 DUP4 MSTORE DUP3 ADD DUP4 SWAP1 MSTORE PUSH32 0x238399D427B947898EDB290F5FF0F9109849B1C3BA196A42E35F00C50A54B98B SWAP2 ADD PUSH1 0x40 MLOAD DUP1 SWAP2 SUB SWAP1 LOG1 POP POP JUMP JUMPDEST PUSH2 0x11A3 DUP2 PUSH1 0x40 MLOAD PUSH1 0x24 ADD PUSH2 0x15D3 SWAP2 SWAP1 PUSH2 0x2799 JUMP JUMPDEST PUSH1 0x40 DUP1 MLOAD PUSH1 0x1F NOT DUP2 DUP5 SUB ADD DUP2 MSTORE SWAP2 SWAP1 MSTORE PUSH1 0x20 DUP2 ADD DUP1 MLOAD PUSH1 0x1 PUSH1 0x1 PUSH1 0xE0 SHL SUB AND PUSH4 0x104C13EB PUSH1 0xE2 SHL OR SWAP1 MSTORE PUSH2 0x1940 JUMP JUMPDEST PUSH2 0x160A PUSH2 0x1CC1 JUMP JUMPDEST PUSH1 0x0 PUSH2 0x1619 DUP5 PUSH1 0x0 ADD MLOAD PUSH2 0x1949 JUMP JUMPDEST PUSH1 0x20 DUP6 ADD MLOAD SWAP1 SWAP2 POP ISZERO PUSH2 0x1633 JUMPI PUSH2 0x1633 DUP5 PUSH1 0x20 ADD MLOAD PUSH2 0x1971 JUMP JUMPDEST PUSH32 0x0 PUSH1 0x1 PUSH1 0x1 PUSH1 0xA0 SHL SUB AND PUSH4 0x2637A450 DUP3 PUSH1 0x40 MLOAD DUP1 PUSH1 0xA0 ADD PUSH1 0x40 MSTORE DUP1 DUP12 PUSH4 0xFFFFFFFF AND DUP2 MSTORE PUSH1 0x20 ADD PUSH2 0x1683 DUP13 PUSH2 0x12F2 JUMP JUMPDEST DUP2 MSTORE PUSH1 0x20 ADD DUP11 DUP2 MSTORE PUSH1 0x20 ADD DUP10 DUP2 MSTORE PUSH1 0x20 ADD PUSH1 0x0 DUP10 PUSH1 0x20 ADD MLOAD GT ISZERO ISZERO DUP2 MSTORE POP DUP7 PUSH1 0x40 MLOAD DUP5 PUSH4 0xFFFFFFFF AND PUSH1 0xE0 SHL DUP2 MSTORE PUSH1 0x4 ADD PUSH2 0x16BF SWAP3 SWAP2 SWAP1 PUSH2 0x27AC JUMP JUMPDEST PUSH1 0x80 PUSH1 0x40 MLOAD DUP1 DUP4 SUB DUP2 DUP6 DUP9 GAS CALL ISZERO DUP1 ISZERO PUSH2 0x16DD JUMPI RETURNDATASIZE PUSH1 0x0 DUP1 RETURNDATACOPY RETURNDATASIZE PUSH1 0x0 REVERT JUMPDEST POP POP POP POP POP PUSH1 0x40 MLOAD RETURNDATASIZE PUSH1 0x1F NOT PUSH1 0x1F DUP3 ADD AND DUP3 ADD DUP1 PUSH1 0x40 MSTORE POP DUP2 ADD SWAP1 PUSH2 0x1702 SWAP2 SWAP1 PUSH2 0x2825 JUMP JUMPDEST SWAP8 SWAP7 POP POP POP POP POP POP POP JUMP JUMPDEST PUSH1 0x0 DUP1 SLOAD PUSH1 0x1 PUSH1 0x1 PUSH1 0xA0 SHL SUB DUP4 DUP2 AND PUSH1 0x1 PUSH1 0x1 PUSH1 0xA0 SHL SUB NOT DUP4 AND DUP2 OR DUP5 SSTORE PUSH1 0x40 MLOAD SWAP2 SWAP1 SWAP3 AND SWAP3 DUP4 SWAP2 PUSH32 0x8BE0079C531659141344CD1FD0A4F28419497F9722A3DAAFE3B4186F6B6457E0 SWAP2 SWAP1 LOG3 POP POP JUMP JUMPDEST PUSH2 0x178F PUSH1 0x40 MLOAD DUP1 PUSH1 0xA0 ADD PUSH1 0x40 MSTORE DUP1 PUSH1 0x60 DUP2 MSTORE PUSH1 0x20 ADD PUSH1 0x0 DUP2 MSTORE PUSH1 0x20 ADD PUSH1 0x0 DUP2 MSTORE PUSH1 0x20 ADD PUSH1 0x0 DUP2 MSTORE PUSH1 0x20 ADD PUSH1 0x0 DUP2 MSTORE POP SWAP1 JUMP JUMPDEST PUSH1 0x0 DUP3 MLOAD GT PUSH2 0x17E0 JUMPI PUSH1 0x40 MLOAD PUSH3 0x461BCD PUSH1 0xE5 SHL DUP2 MSTORE PUSH1 0x20 PUSH1 0x4 DUP3 ADD MSTORE PUSH1 0x17 PUSH1 0x24 DUP3 ADD MSTORE PUSH32 0x4E6F207374726174656769657320617661696C61626C65000000000000000000 PUSH1 0x44 DUP3 ADD MSTORE PUSH1 0x64 ADD PUSH2 0x52B JUMP JUMPDEST PUSH1 0x0 DUP3 PUSH1 0x0 DUP2 MLOAD DUP2 LT PUSH2 0x17F5 JUMPI PUSH2 0x17F5 PUSH2 0x2491 JUMP JUMPDEST PUSH1 0x20 MUL PUSH1 0x20 ADD ADD MLOAD SWAP1 POP PUSH1 0x0 PUSH1 0x1 SWAP1 POP JUMPDEST DUP4 MLOAD DUP2 LT ISZERO PUSH2 0xB63 JUMPI PUSH2 0x1818 DUP3 PUSH2 0x186F JUMP JUMPDEST PUSH2 0x183A DUP6 DUP4 DUP2 MLOAD DUP2 LT PUSH2 0x182D JUMPI PUSH2 0x182D PUSH2 0x2491 JUMP JUMPDEST PUSH1 0x20 MUL PUSH1 0x20 ADD ADD MLOAD PUSH2 0x186F JUMP JUMPDEST GT ISZERO PUSH2 0x185D JUMPI DUP4 DUP2 DUP2 MLOAD DUP2 LT PUSH2 0x1852 JUMPI PUSH2 0x1852 PUSH2 0x2491 JUMP JUMPDEST PUSH1 0x20 MUL PUSH1 0x20 ADD ADD MLOAD SWAP2 POP JUMPDEST DUP1 PUSH2 0x1867 DUP2 PUSH2 0x24BD JUMP JUMPDEST SWAP2 POP POP PUSH2 0x1806 JUMP JUMPDEST PUSH1 0x0 DUP2 PUSH1 0x80 ADD MLOAD PUSH1 0x64 PUSH2 0x1882 SWAP2 SWAP1 PUSH2 0x24D6 JUMP JUMPDEST PUSH1 0x60 DUP4 ADD MLOAD PUSH1 0x40 DUP5 ADD MLOAD PUSH2 0x1897 SWAP1 PUSH1 0x64 PUSH2 0x28BA JUMP JUMPDEST DUP5 PUSH1 0x20 ADD MLOAD PUSH2 0x18A6 SWAP2 SWAP1 PUSH2 0x24D6 JUMP JUMPDEST PUSH2 0x18B0 SWAP2 SWAP1 PUSH2 0x24D6 JUMP JUMPDEST PUSH2 0x838 SWAP2 SWAP1 PUSH2 0x24ED JUMP JUMPDEST PUSH2 0x5B6 DUP3 DUP3 PUSH1 0x40 MLOAD PUSH1 0x24 ADD PUSH2 0x18D0 SWAP3 SWAP2 SWAP1 PUSH2 0x28CD JUMP JUMPDEST PUSH1 0x40 DUP1 MLOAD PUSH1 0x1F NOT DUP2 DUP5 SUB ADD DUP2 MSTORE SWAP2 SWAP1 MSTORE PUSH1 0x20 DUP2 ADD DUP1 MLOAD PUSH1 0x1 PUSH1 0x1 PUSH1 0xE0 SHL SUB AND PUSH4 0x2D839CB3 PUSH1 0xE2 SHL OR SWAP1 MSTORE PUSH2 0x1940 JUMP JUMPDEST PUSH2 0x5B6 DUP3 DUP3 PUSH1 0x40 MLOAD PUSH1 0x24 ADD PUSH2 0x1915 SWAP3 SWAP2 SWAP1 PUSH2 0x28EF JUMP JUMPDEST PUSH1 0x40 DUP1 MLOAD PUSH1 0x1F NOT DUP2 DUP5 SUB ADD DUP2 MSTORE SWAP2 SWAP1 MSTORE PUSH1 0x20 DUP2 ADD DUP1 MLOAD PUSH1 0x1 PUSH1 0x1 PUSH1 0xE0 SHL SUB AND PUSH4 0x4B5C4277 PUSH1 0xE0 SHL OR SWAP1 MSTORE JUMPDEST PUSH2 0x11A3 DUP2 PUSH2 0x1A53 JUMP JUMPDEST PUSH1 0x0 DUP2 CALLVALUE EQ PUSH2 0x196D JUMPI PUSH1 0x40 MLOAD PUSH4 0x4FB8209 PUSH1 0xE5 SHL DUP2 MSTORE CALLVALUE PUSH1 0x4 DUP3 ADD MSTORE PUSH1 0x24 ADD PUSH2 0x52B JUMP JUMPDEST POP SWAP1 JUMP JUMPDEST PUSH1 0x0 PUSH32 0x0 PUSH1 0x1 PUSH1 0x1 PUSH1 0xA0 SHL SUB AND PUSH4 0xE4FE1D94 PUSH1 0x40 MLOAD DUP2 PUSH4 0xFFFFFFFF AND PUSH1 0xE0 SHL DUP2 MSTORE PUSH1 0x4 ADD PUSH1 0x20 PUSH1 0x40 MLOAD DUP1 DUP4 SUB DUP2 DUP7 GAS STATICCALL ISZERO DUP1 ISZERO PUSH2 0x19D1 JUMPI RETURNDATASIZE PUSH1 0x0 DUP1 RETURNDATACOPY RETURNDATASIZE PUSH1 0x0 REVERT JUMPDEST POP POP POP POP PUSH1 0x40 MLOAD RETURNDATASIZE PUSH1 0x1F NOT PUSH1 0x1F DUP3 ADD AND DUP3 ADD DUP1 PUSH1 0x40 MSTORE POP DUP2 ADD SWAP1 PUSH2 0x19F5 SWAP2 SWAP1 PUSH2 0x291D JUMP JUMPDEST SWAP1 POP PUSH1 0x1 PUSH1 0x1 PUSH1 0xA0 SHL SUB DUP2 AND PUSH2 0x1A1E JUMPI PUSH1 0x40 MLOAD PUSH4 0x29B99A95 PUSH1 0xE1 SHL DUP2 MSTORE PUSH1 0x4 ADD PUSH1 0x40 MLOAD DUP1 SWAP2 SUB SWAP1 REVERT JUMPDEST PUSH2 0x5B6 PUSH1 0x1 PUSH1 0x1 PUSH1 0xA0 SHL SUB DUP3 AND CALLER PUSH32 0x0 DUP6 PUSH2 0x1A74 JUMP JUMPDEST PUSH1 0x0 PUSH11 0x636F6E736F6C652E6C6F67 SWAP1 POP PUSH1 0x0 DUP1 DUP4 MLOAD PUSH1 0x20 DUP6 ADD DUP5 GAS STATICCALL POP POP POP JUMP JUMPDEST PUSH1 0x40 DUP1 MLOAD PUSH1 0x1 PUSH1 0x1 PUSH1 0xA0 SHL SUB DUP6 DUP2 AND PUSH1 0x24 DUP4 ADD MSTORE DUP5 AND PUSH1 0x44 DUP3 ADD MSTORE PUSH1 0x64 DUP1 DUP3 ADD DUP5 SWAP1 MSTORE DUP3 MLOAD DUP1 DUP4 SUB SWAP1 SWAP2 ADD DUP2 MSTORE PUSH1 0x84 SWAP1 SWAP2 ADD SWAP1 SWAP2 MSTORE PUSH1 0x20 DUP2 ADD DUP1 MLOAD PUSH1 0x1 PUSH1 0x1 PUSH1 0xE0 SHL SUB AND PUSH4 0x23B872DD PUSH1 0xE0 SHL OR SWAP1 MSTORE PUSH2 0x1ACE SWAP1 DUP6 SWAP1 PUSH2 0x1AD4 JUMP JUMPDEST POP POP POP POP JUMP JUMPDEST PUSH1 0x0 PUSH2 0x1B29 DUP3 PUSH1 0x40 MLOAD DUP1 PUSH1 0x40 ADD PUSH1 0x40 MSTORE DUP1 PUSH1 0x20 DUP2 MSTORE PUSH1 0x20 ADD PUSH32 0x5361666545524332303A206C6F772D6C6576656C2063616C6C206661696C6564 DUP2 MSTORE POP DUP6 PUSH1 0x1 PUSH1 0x1 PUSH1 0xA0 SHL SUB AND PUSH2 0x1BAE SWAP1 SWAP3 SWAP2 SWAP1 PUSH4 0xFFFFFFFF AND JUMP JUMPDEST SWAP1 POP DUP1 MLOAD PUSH1 0x0 EQ DUP1 PUSH2 0x1B4A JUMPI POP DUP1 DUP1 PUSH1 0x20 ADD SWAP1 MLOAD DUP2 ADD SWAP1 PUSH2 0x1B4A SWAP2 SWAP1 PUSH2 0x293A JUMP JUMPDEST PUSH2 0x1BA9 JUMPI PUSH1 0x40 MLOAD PUSH3 0x461BCD PUSH1 0xE5 SHL DUP2 MSTORE PUSH1 0x20 PUSH1 0x4 DUP3 ADD MSTORE PUSH1 0x2A PUSH1 0x24 DUP3 ADD MSTORE PUSH32 0x5361666545524332303A204552433230206F7065726174696F6E20646964206E PUSH1 0x44 DUP3 ADD MSTORE PUSH10 0x1BDD081CDD58D8D95959 PUSH1 0xB2 SHL PUSH1 0x64 DUP3 ADD MSTORE PUSH1 0x84 ADD PUSH2 0x52B JUMP JUMPDEST POP POP POP JUMP JUMPDEST PUSH1 0x60 PUSH2 0x84B DUP5 DUP5 PUSH1 0x0 DUP6 DUP6 PUSH1 0x0 DUP1 DUP7 PUSH1 0x1 PUSH1 0x1 PUSH1 0xA0 SHL SUB AND DUP6 DUP8 PUSH1 0x40 MLOAD PUSH2 0x1BD5 SWAP2 SWAP1 PUSH2 0x295C JUMP JUMPDEST PUSH1 0x0 PUSH1 0x40 MLOAD DUP1 DUP4 SUB DUP2 DUP6 DUP8 GAS CALL SWAP3 POP POP POP RETURNDATASIZE DUP1 PUSH1 0x0 DUP2 EQ PUSH2 0x1C12 JUMPI PUSH1 0x40 MLOAD SWAP2 POP PUSH1 0x1F NOT PUSH1 0x3F RETURNDATASIZE ADD AND DUP3 ADD PUSH1 0x40 MSTORE RETURNDATASIZE DUP3 MSTORE RETURNDATASIZE PUSH1 0x0 PUSH1 0x20 DUP5 ADD RETURNDATACOPY PUSH2 0x1C17 JUMP JUMPDEST PUSH1 0x60 SWAP2 POP JUMPDEST POP SWAP2 POP SWAP2 POP PUSH2 0x1702 DUP8 DUP4 DUP4 DUP8 PUSH1 0x60 DUP4 ISZERO PUSH2 0x1C92 JUMPI DUP3 MLOAD PUSH1 0x0 SUB PUSH2 0x1C8B JUMPI PUSH1 0x1 PUSH1 0x1 PUSH1 0xA0 SHL SUB DUP6 AND EXTCODESIZE PUSH2 0x1C8B JUMPI PUSH1 0x40 MLOAD PUSH3 0x461BCD PUSH1 0xE5 SHL DUP2 MSTORE PUSH1 0x20 PUSH1 0x4 DUP3 ADD MSTORE PUSH1 0x1D PUSH1 0x24 DUP3 ADD MSTORE PUSH32 0x416464726573733A2063616C6C20746F206E6F6E2D636F6E7472616374000000 PUSH1 0x44 DUP3 ADD MSTORE PUSH1 0x64 ADD PUSH2 0x52B JUMP JUMPDEST POP DUP2 PUSH2 0x84B JUMP JUMPDEST PUSH2 0x84B DUP4 DUP4 DUP2 MLOAD ISZERO PUSH2 0x1CA7 JUMPI DUP2 MLOAD DUP1 DUP4 PUSH1 0x20 ADD REVERT JUMPDEST DUP1 PUSH1 0x40 MLOAD PUSH3 0x461BCD PUSH1 0xE5 SHL DUP2 MSTORE PUSH1 0x4 ADD PUSH2 0x52B SWAP2 SWAP1 PUSH2 0x2799 JUMP JUMPDEST PUSH1 0x40 MLOAD DUP1 PUSH1 0x60 ADD PUSH1 0x40 MSTORE DUP1 PUSH1 0x0 DUP1 NOT AND DUP2 MSTORE PUSH1 0x20 ADD PUSH1 0x0 PUSH1 0x1 PUSH1 0x1 PUSH1 0x40 SHL SUB AND DUP2 MSTORE PUSH1 0x20 ADD PUSH2 0x1D03 PUSH1 0x40 MLOAD DUP1 PUSH1 0x40 ADD PUSH1 0x40 MSTORE DUP1 PUSH1 0x0 DUP2 MSTORE PUSH1 0x20 ADD PUSH1 0x0 DUP2 MSTORE POP SWAP1 JUMP JUMPDEST SWAP1 MSTORE SWAP1 JUMP JUMPDEST PUSH1 0x0 PUSH1 0x60 DUP3 DUP5 SUB SLT ISZERO PUSH2 0x1D1A JUMPI PUSH1 0x0 DUP1 REVERT JUMPDEST POP SWAP2 SWAP1 POP JUMP JUMPDEST PUSH1 0x0 DUP1 DUP4 PUSH1 0x1F DUP5 ADD SLT PUSH2 0x1D32 JUMPI PUSH1 0x0 DUP1 REVERT JUMPDEST POP DUP2 CALLDATALOAD PUSH1 0x1 PUSH1 0x1 PUSH1 0x40 SHL SUB DUP2 GT ISZERO PUSH2 0x1D49 JUMPI PUSH1 0x0 DUP1 REVERT JUMPDEST PUSH1 0x20 DUP4 ADD SWAP2 POP DUP4 PUSH1 0x20 DUP3 DUP6 ADD ADD GT ISZERO PUSH2 0x1D61 JUMPI PUSH1 0x0 DUP1 REVERT JUMPDEST SWAP3 POP SWAP3 SWAP1 POP JUMP JUMPDEST PUSH1 0x1 PUSH1 0x1 PUSH1 0xA0 SHL SUB DUP2 AND DUP2 EQ PUSH2 0x11A3 JUMPI PUSH1 0x0 DUP1 REVERT JUMPDEST PUSH1 0x0 DUP1 PUSH1 0x0 DUP1 PUSH1 0x0 DUP1 PUSH1 0x0 PUSH1 0xE0 DUP9 DUP11 SUB SLT ISZERO PUSH2 0x1D98 JUMPI PUSH1 0x0 DUP1 REVERT JUMPDEST PUSH2 0x1DA2 DUP10 DUP10 PUSH2 0x1D08 JUMP JUMPDEST SWAP7 POP PUSH1 0x60 DUP9 ADD CALLDATALOAD SWAP6 POP PUSH1 0x80 DUP9 ADD CALLDATALOAD PUSH1 0x1 PUSH1 0x1 PUSH1 0x40 SHL SUB DUP1 DUP3 GT ISZERO PUSH2 0x1DC5 JUMPI PUSH1 0x0 DUP1 REVERT JUMPDEST PUSH2 0x1DD1 DUP12 DUP4 DUP13 ADD PUSH2 0x1D20 JUMP JUMPDEST SWAP1 SWAP8 POP SWAP6 POP PUSH1 0xA0 DUP11 ADD CALLDATALOAD SWAP2 POP PUSH2 0x1DE6 DUP3 PUSH2 0x1D68 JUMP JUMPDEST SWAP1 SWAP4 POP PUSH1 0xC0 DUP10 ADD CALLDATALOAD SWAP1 DUP1 DUP3 GT ISZERO PUSH2 0x1DFC JUMPI PUSH1 0x0 DUP1 REVERT JUMPDEST POP PUSH2 0x1E09 DUP11 DUP3 DUP12 ADD PUSH2 0x1D20 JUMP JUMPDEST SWAP9 SWAP12 SWAP8 SWAP11 POP SWAP6 SWAP9 POP SWAP4 SWAP7 SWAP3 SWAP6 SWAP3 SWAP4 POP POP POP JUMP JUMPDEST DUP1 CALLDATALOAD PUSH4 0xFFFFFFFF DUP2 AND DUP2 EQ PUSH2 0x1E30 JUMPI PUSH1 0x0 DUP1 REVERT JUMPDEST SWAP2 SWAP1 POP JUMP JUMPDEST PUSH1 0x0 PUSH1 0x20 DUP3 DUP5 SUB SLT ISZERO PUSH2 0x1E47 JUMPI PUSH1 0x0 DUP1 REVERT JUMPDEST PUSH2 0x1E50 DUP3 PUSH2 0x1E1C JUMP JUMPDEST SWAP4 SWAP3 POP POP POP JUMP JUMPDEST PUSH1 0x0 DUP1 PUSH1 0x40 DUP4 DUP6 SUB SLT ISZERO PUSH2 0x1E6A JUMPI PUSH1 0x0 DUP1 REVERT JUMPDEST PUSH2 0x1E73 DUP4 PUSH2 0x1E1C JUMP JUMPDEST SWAP5 PUSH1 0x20 SWAP4 SWAP1 SWAP4 ADD CALLDATALOAD SWAP4 POP POP POP JUMP JUMPDEST PUSH1 0x0 DUP1 PUSH1 0x0 PUSH1 0x40 DUP5 DUP7 SUB SLT ISZERO PUSH2 0x1E96 JUMPI PUSH1 0x0 DUP1 REVERT JUMPDEST PUSH2 0x1E9F DUP5 PUSH2 0x1E1C JUMP JUMPDEST SWAP3 POP PUSH1 0x20 DUP5 ADD CALLDATALOAD PUSH1 0x1 PUSH1 0x1 PUSH1 0x40 SHL SUB DUP2 GT ISZERO PUSH2 0x1EBA JUMPI PUSH1 0x0 DUP1 REVERT JUMPDEST PUSH2 0x1EC6 DUP7 DUP3 DUP8 ADD PUSH2 0x1D20 JUMP JUMPDEST SWAP5 SWAP8 SWAP1 SWAP7 POP SWAP4 SWAP5 POP POP POP POP JUMP JUMPDEST PUSH1 0x0 JUMPDEST DUP4 DUP2 LT ISZERO PUSH2 0x1EEE JUMPI DUP2 DUP2 ADD MLOAD DUP4 DUP3 ADD MSTORE PUSH1 0x20 ADD PUSH2 0x1ED6 JUMP JUMPDEST POP POP PUSH1 0x0 SWAP2 ADD MSTORE JUMP JUMPDEST PUSH1 0x0 DUP2 MLOAD DUP1 DUP5 MSTORE PUSH2 0x1F0F DUP2 PUSH1 0x20 DUP7 ADD PUSH1 0x20 DUP7 ADD PUSH2 0x1ED3 JUMP JUMPDEST PUSH1 0x1F ADD PUSH1 0x1F NOT AND SWAP3 SWAP1 SWAP3 ADD PUSH1 0x20 ADD SWAP3 SWAP2 POP POP JUMP JUMPDEST PUSH1 0x0 DUP2 MLOAD PUSH1 0xA0 DUP5 MSTORE PUSH2 0x1F38 PUSH1 0xA0 DUP6 ADD DUP3 PUSH2 0x1EF7 JUMP JUMPDEST SWAP1 POP PUSH1 0x20 DUP4 ADD MLOAD PUSH1 0x20 DUP6 ADD MSTORE PUSH1 0x40 DUP4 ADD MLOAD PUSH1 0x40 DUP6 ADD MSTORE PUSH1 0x60 DUP4 ADD MLOAD PUSH1 0x60 DUP6 ADD MSTORE PUSH1 0x80 DUP4 ADD MLOAD PUSH1 0x80 DUP6 ADD MSTORE DUP1 SWAP2 POP POP SWAP3 SWAP2 POP POP JUMP JUMPDEST PUSH1 0x0 DUP3 DUP3 MLOAD DUP1 DUP6 MSTORE PUSH1 0x20 DUP1 DUP7 ADD SWAP6 POP DUP1 DUP3 PUSH1 0x5 SHL DUP5 ADD ADD DUP2 DUP7 ADD PUSH1 0x0 JUMPDEST DUP5 DUP2 LT ISZERO PUSH2 0x1FB7 JUMPI PUSH1 0x1F NOT DUP7 DUP5 SUB ADD DUP10 MSTORE PUSH2 0x1FA5 DUP4 DUP4 MLOAD PUSH2 0x1F23 JUMP JUMPDEST SWAP9 DUP5 ADD SWAP9 SWAP3 POP SWAP1 DUP4 ADD SWAP1 PUSH1 0x1 ADD PUSH2 0x1F89 JUMP JUMPDEST POP SWAP1 SWAP8 SWAP7 POP POP POP POP POP POP POP JUMP JUMPDEST PUSH1 0x20 DUP2 MSTORE PUSH1 0x0 PUSH2 0x1E50 PUSH1 0x20 DUP4 ADD DUP5 PUSH2 0x1F6C JUMP JUMPDEST PUSH1 0x0 DUP1 PUSH1 0x0 DUP1 PUSH1 0xA0 DUP6 DUP8 SUB SLT ISZERO PUSH2 0x1FED JUMPI PUSH1 0x0 DUP1 REVERT JUMPDEST PUSH2 0x1FF7 DUP7 DUP7 PUSH2 0x1D08 JUMP JUMPDEST SWAP4 POP PUSH1 0x60 DUP6 ADD CALLDATALOAD PUSH1 0x1 PUSH1 0x1 PUSH1 0x40 SHL SUB DUP2 GT ISZERO PUSH2 0x2012 JUMPI PUSH1 0x0 DUP1 REVERT JUMPDEST PUSH2 0x201E DUP8 DUP3 DUP9 ADD PUSH2 0x1D20 JUMP JUMPDEST SWAP1 SWAP5 POP SWAP3 POP POP PUSH1 0x80 DUP6 ADD CALLDATALOAD PUSH2 0x2032 DUP2 PUSH2 0x1D68 JUMP JUMPDEST SWAP4 SWAP7 SWAP3 SWAP6 POP SWAP1 SWAP4 POP POP JUMP JUMPDEST PUSH1 0x20 DUP2 MSTORE PUSH1 0x0 PUSH2 0x1E50 PUSH1 0x20 DUP4 ADD DUP5 PUSH2 0x1F23 JUMP JUMPDEST PUSH1 0x0 PUSH1 0x20 DUP3 DUP5 SUB SLT ISZERO PUSH2 0x2062 JUMPI PUSH1 0x0 DUP1 REVERT JUMPDEST DUP2 CALLDATALOAD PUSH2 0x1E50 DUP2 PUSH2 0x1D68 JUMP JUMPDEST PUSH4 0x4E487B71 PUSH1 0xE0 SHL PUSH1 0x0 MSTORE PUSH1 0x41 PUSH1 0x4 MSTORE PUSH1 0x24 PUSH1 0x0 REVERT JUMPDEST PUSH1 0x40 MLOAD PUSH1 0xA0 DUP2 ADD PUSH1 0x1 PUSH1 0x1 PUSH1 0x40 SHL SUB DUP2 GT DUP3 DUP3 LT OR ISZERO PUSH2 0x20A5 JUMPI PUSH2 0x20A5 PUSH2 0x206D JUMP JUMPDEST PUSH1 0x40 MSTORE SWAP1 JUMP JUMPDEST PUSH1 0x40 DUP1 MLOAD SWAP1 DUP2 ADD PUSH1 0x1 PUSH1 0x1 PUSH1 0x40 SHL SUB DUP2 GT DUP3 DUP3 LT OR ISZERO PUSH2 0x20A5 JUMPI PUSH2 0x20A5 PUSH2 0x206D JUMP JUMPDEST PUSH1 0x40 MLOAD PUSH1 0x1F DUP3 ADD PUSH1 0x1F NOT AND DUP2 ADD PUSH1 0x1 PUSH1 0x1 PUSH1 0x40 SHL SUB DUP2 GT DUP3 DUP3 LT OR ISZERO PUSH2 0x20F5 JUMPI PUSH2 0x20F5 PUSH2 0x206D JUMP JUMPDEST PUSH1 0x40 MSTORE SWAP2 SWAP1 POP JUMP JUMPDEST PUSH1 0x0 DUP3 PUSH1 0x1F DUP4 ADD SLT PUSH2 0x210E JUMPI PUSH1 0x0 DUP1 REVERT JUMPDEST DUP2 CALLDATALOAD PUSH1 0x1 PUSH1 0x1 PUSH1 0x40 SHL SUB DUP2 GT ISZERO PUSH2 0x2127 JUMPI PUSH2 0x2127 PUSH2 0x206D JUMP JUMPDEST PUSH2 0x213A PUSH1 0x1F DUP3 ADD PUSH1 0x1F NOT AND PUSH1 0x20 ADD PUSH2 0x20CD JUMP JUMPDEST DUP2 DUP2 MSTORE DUP5 PUSH1 0x20 DUP4 DUP7 ADD ADD GT ISZERO PUSH2 0x214F JUMPI PUSH1 0x0 DUP1 REVERT JUMPDEST DUP2 PUSH1 0x20 DUP6 ADD PUSH1 0x20 DUP4 ADD CALLDATACOPY PUSH1 0x0 SWAP2 DUP2 ADD PUSH1 0x20 ADD SWAP2 SWAP1 SWAP2 MSTORE SWAP4 SWAP3 POP POP POP JUMP JUMPDEST PUSH1 0x0 DUP1 PUSH1 0x0 DUP1 PUSH1 0x0 DUP1 PUSH1 0xC0 DUP8 DUP10 SUB SLT ISZERO PUSH2 0x2185 JUMPI PUSH1 0x0 DUP1 REVERT JUMPDEST PUSH2 0x218E DUP8 PUSH2 0x1E1C JUMP JUMPDEST SWAP6 POP PUSH1 0x20 DUP8 ADD CALLDATALOAD PUSH1 0x1 PUSH1 0x1 PUSH1 0x40 SHL SUB DUP2 GT ISZERO PUSH2 0x21A9 JUMPI PUSH1 0x0 DUP1 REVERT JUMPDEST PUSH2 0x21B5 DUP10 DUP3 DUP11 ADD PUSH2 0x20FD JUMP JUMPDEST SWAP7 SWAP10 SWAP7 SWAP9 POP POP POP POP PUSH1 0x40 DUP6 ADD CALLDATALOAD SWAP5 PUSH1 0x60 DUP2 ADD CALLDATALOAD SWAP5 PUSH1 0x80 DUP3 ADD CALLDATALOAD SWAP5 POP PUSH1 0xA0 SWAP1 SWAP2 ADD CALLDATALOAD SWAP3 POP SWAP1 POP JUMP JUMPDEST PUSH1 0x0 PUSH1 0x1 PUSH1 0x1 PUSH1 0x40 SHL SUB DUP3 GT ISZERO PUSH2 0x21F5 JUMPI PUSH2 0x21F5 PUSH2 0x206D JUMP JUMPDEST POP PUSH1 0x5 SHL PUSH1 0x20 ADD SWAP1 JUMP JUMPDEST PUSH1 0x0 PUSH1 0x20 DUP1 DUP4 DUP6 SUB SLT ISZERO PUSH2 0x2212 JUMPI PUSH1 0x0 DUP1 REVERT JUMPDEST DUP3 CALLDATALOAD PUSH1 0x1 PUSH1 0x1 PUSH1 0x40 SHL SUB DUP2 GT ISZERO PUSH2 0x2228 JUMPI PUSH1 0x0 DUP1 REVERT JUMPDEST DUP4 ADD PUSH1 0x1F DUP2 ADD DUP6 SGT PUSH2 0x2239 JUMPI PUSH1 0x0 DUP1 REVERT JUMPDEST DUP1 CALLDATALOAD PUSH2 0x224C PUSH2 0x2247 DUP3 PUSH2 0x21DC JUMP JUMPDEST PUSH2 0x20CD JUMP JUMPDEST DUP2 DUP2 MSTORE PUSH1 0x5 SWAP2 SWAP1 SWAP2 SHL DUP3 ADD DUP4 ADD SWAP1 DUP4 DUP2 ADD SWAP1 DUP8 DUP4 GT ISZERO PUSH2 0x226B JUMPI PUSH1 0x0 DUP1 REVERT JUMPDEST SWAP3 DUP5 ADD SWAP3 JUMPDEST DUP3 DUP5 LT ISZERO PUSH2 0x1702 JUMPI PUSH2 0x2281 DUP5 PUSH2 0x1E1C JUMP JUMPDEST DUP3 MSTORE SWAP3 DUP5 ADD SWAP3 SWAP1 DUP5 ADD SWAP1 PUSH2 0x2270 JUMP JUMPDEST PUSH1 0x40 DUP2 MSTORE PUSH1 0x0 PUSH2 0x22A3 PUSH1 0x40 DUP4 ADD DUP6 PUSH2 0x1F23 JUMP JUMPDEST SWAP1 POP PUSH4 0xFFFFFFFF DUP4 AND PUSH1 0x20 DUP4 ADD MSTORE SWAP4 SWAP3 POP POP POP JUMP JUMPDEST PUSH1 0x0 PUSH1 0x20 DUP3 DUP5 SUB SLT ISZERO PUSH2 0x22CA JUMPI PUSH1 0x0 DUP1 REVERT JUMPDEST POP CALLDATALOAD SWAP2 SWAP1 POP JUMP JUMPDEST PUSH1 0xA0 DUP2 MSTORE PUSH1 0x0 PUSH2 0x22E4 PUSH1 0xA0 DUP4 ADD DUP9 PUSH2 0x1EF7 JUMP JUMPDEST SWAP1 POP DUP6 PUSH1 0x20 DUP4 ADD MSTORE DUP5 PUSH1 0x40 DUP4 ADD MSTORE DUP4 PUSH1 0x60 DUP4 ADD MSTORE DUP3 PUSH1 0x80 DUP4 ADD MSTORE SWAP7 SWAP6 POP POP POP POP POP POP JUMP JUMPDEST PUSH1 0x0 DUP1 PUSH1 0x40 DUP4 DUP6 SUB SLT ISZERO PUSH2 0x231B JUMPI PUSH1 0x0 DUP1 REVERT JUMPDEST DUP3 CALLDATALOAD SWAP2 POP PUSH2 0x232B PUSH1 0x20 DUP5 ADD PUSH2 0x1E1C JUMP JUMPDEST SWAP1 POP SWAP3 POP SWAP3 SWAP1 POP JUMP JUMPDEST PUSH1 0x0 PUSH1 0x60 DUP3 DUP5 SUB SLT ISZERO PUSH2 0x2346 JUMPI PUSH1 0x0 DUP1 REVERT JUMPDEST PUSH2 0x1E50 DUP4 DUP4 PUSH2 0x1D08 JUMP JUMPDEST PUSH1 0x1 DUP2 DUP2 SHR SWAP1 DUP3 AND DUP1 PUSH2 0x2364 JUMPI PUSH1 0x7F DUP3 AND SWAP2 POP JUMPDEST PUSH1 0x20 DUP3 LT DUP2 SUB PUSH2 0x1D1A JUMPI PUSH4 0x4E487B71 PUSH1 0xE0 SHL PUSH1 0x0 MSTORE PUSH1 0x22 PUSH1 0x4 MSTORE PUSH1 0x24 PUSH1 0x0 REVERT JUMPDEST PUSH1 0x0 PUSH1 0x40 DUP1 DUP4 ADD PUSH4 0xFFFFFFFF DUP7 AND DUP5 MSTORE PUSH1 0x20 DUP3 DUP2 DUP7 ADD MSTORE DUP2 DUP7 SLOAD DUP1 DUP5 MSTORE PUSH1 0x60 SWAP4 POP DUP4 DUP8 ADD SWAP2 POP PUSH1 0x5 DUP5 DUP3 DUP3 SHL DUP10 ADD ADD PUSH1 0x0 DUP11 DUP2 MSTORE DUP6 DUP2 KECCAK256 DUP2 JUMPDEST DUP6 DUP2 LT ISZERO PUSH2 0x247F JUMPI PUSH1 0x5F NOT DUP13 DUP6 SUB ADD DUP8 MSTORE PUSH1 0xA0 DUP1 DUP6 MSTORE DUP4 DUP4 SLOAD PUSH2 0x23DF DUP2 PUSH2 0x2350 JUMP JUMPDEST SWAP3 DUP8 ADD DUP4 SWAP1 MSTORE PUSH1 0xC0 SWAP3 PUSH1 0x1 DUP3 DUP2 AND DUP1 ISZERO PUSH2 0x2400 JUMPI PUSH1 0x1 DUP2 EQ PUSH2 0x2419 JUMPI PUSH2 0x2444 JUMP JUMPDEST PUSH1 0xFF NOT DUP5 AND DUP11 DUP8 ADD MSTORE DUP3 ISZERO ISZERO DUP12 SHL DUP11 ADD DUP7 ADD SWAP5 POP PUSH2 0x2444 JUMP JUMPDEST DUP8 DUP10 MSTORE DUP14 DUP10 KECCAK256 DUP10 JUMPDEST DUP5 DUP2 LT ISZERO PUSH2 0x243C JUMPI DUP2 SLOAD DUP13 DUP3 ADD DUP10 ADD MSTORE SWAP1 DUP4 ADD SWAP1 DUP16 ADD PUSH2 0x2421 JUMP JUMPDEST DUP12 ADD DUP8 ADD SWAP6 POP POP JUMPDEST POP DUP7 ADD SLOAD DUP9 DUP14 ADD MSTORE POP POP PUSH1 0x2 DUP5 ADD SLOAD DUP13 DUP8 ADD MSTORE PUSH1 0x3 DUP5 ADD SLOAD DUP12 DUP8 ADD MSTORE PUSH1 0x4 DUP5 ADD SLOAD PUSH1 0x80 SWAP1 SWAP7 ADD SWAP6 SWAP1 SWAP6 MSTORE POP SWAP6 DUP8 ADD SWAP6 SWAP1 DUP5 ADD SWAP1 PUSH1 0x1 ADD PUSH2 0x23BD JUMP JUMPDEST POP SWAP2 SWAP13 SWAP12 POP POP POP POP POP POP POP POP POP POP POP POP JUMP JUMPDEST PUSH4 0x4E487B71 PUSH1 0xE0 SHL PUSH1 0x0 MSTORE PUSH1 0x32 PUSH1 0x4 MSTORE PUSH1 0x24 PUSH1 0x0 REVERT JUMPDEST PUSH4 0x4E487B71 PUSH1 0xE0 SHL PUSH1 0x0 MSTORE PUSH1 0x11 PUSH1 0x4 MSTORE PUSH1 0x24 PUSH1 0x0 REVERT JUMPDEST PUSH1 0x0 PUSH1 0x1 DUP3 ADD PUSH2 0x24CF JUMPI PUSH2 0x24CF PUSH2 0x24A7 JUMP JUMPDEST POP PUSH1 0x1 ADD SWAP1 JUMP JUMPDEST DUP1 DUP3 MUL DUP2 ISZERO DUP3 DUP3 DIV DUP5 EQ OR PUSH2 0x838 JUMPI PUSH2 0x838 PUSH2 0x24A7 JUMP JUMPDEST PUSH1 0x0 DUP3 PUSH2 0x250A JUMPI PUSH4 0x4E487B71 PUSH1 0xE0 SHL PUSH1 0x0 MSTORE PUSH1 0x12 PUSH1 0x4 MSTORE PUSH1 0x24 PUSH1 0x0 REVERT JUMPDEST POP DIV SWAP1 JUMP JUMPDEST PUSH4 0xFFFFFFFF DUP4 AND DUP2 MSTORE PUSH1 0x40 PUSH1 0x20 DUP3 ADD MSTORE PUSH1 0x0 PUSH2 0x84B PUSH1 0x40 DUP4 ADD DUP5 PUSH2 0x1F6C JUMP JUMPDEST PUSH1 0x1F DUP3 GT ISZERO PUSH2 0x1BA9 JUMPI PUSH1 0x0 DUP2 DUP2 MSTORE PUSH1 0x20 DUP2 KECCAK256 PUSH1 0x1F DUP6 ADD PUSH1 0x5 SHR DUP2 ADD PUSH1 0x20 DUP7 LT ISZERO PUSH2 0x2555 JUMPI POP DUP1 JUMPDEST PUSH1 0x1F DUP6 ADD PUSH1 0x5 SHR DUP3 ADD SWAP2 POP JUMPDEST DUP2 DUP2 LT ISZERO PUSH2 0x2574 JUMPI DUP3 DUP2 SSTORE PUSH1 0x1 ADD PUSH2 0x2561 JUMP JUMPDEST POP POP POP POP POP POP JUMP JUMPDEST DUP2 MLOAD PUSH1 0x1 PUSH1 0x1 PUSH1 0x40 SHL SUB DUP2 GT ISZERO PUSH2 0x2595 JUMPI PUSH2 0x2595 PUSH2 0x206D JUMP JUMPDEST PUSH2 0x25A9 DUP2 PUSH2 0x25A3 DUP5 SLOAD PUSH2 0x2350 JUMP JUMPDEST DUP5 PUSH2 0x252E JUMP JUMPDEST PUSH1 0x20 DUP1 PUSH1 0x1F DUP4 GT PUSH1 0x1 DUP2 EQ PUSH2 0x25DE JUMPI PUSH1 0x0 DUP5 ISZERO PUSH2 0x25C6 JUMPI POP DUP6 DUP4 ADD MLOAD JUMPDEST PUSH1 0x0 NOT PUSH1 0x3 DUP7 SWAP1 SHL SHR NOT AND PUSH1 0x1 DUP6 SWAP1 SHL OR DUP6 SSTORE PUSH2 0x2574 JUMP JUMPDEST PUSH1 0x0 DUP6 DUP2 MSTORE PUSH1 0x20 DUP2 KECCAK256 PUSH1 0x1F NOT DUP7 AND SWAP2 JUMPDEST DUP3 DUP2 LT ISZERO PUSH2 0x260D JUMPI DUP9 DUP7 ADD MLOAD DUP3 SSTORE SWAP5 DUP5 ADD SWAP5 PUSH1 0x1 SWAP1 SWAP2 ADD SWAP1 DUP5 ADD PUSH2 0x25EE JUMP JUMPDEST POP DUP6 DUP3 LT ISZERO PUSH2 0x262B JUMPI DUP8 DUP6 ADD MLOAD PUSH1 0x0 NOT PUSH1 0x3 DUP9 SWAP1 SHL PUSH1 0xF8 AND SHR NOT AND DUP2 SSTORE JUMPDEST POP POP POP POP POP PUSH1 0x1 SWAP1 DUP2 SHL ADD SWAP1 SSTORE POP JUMP JUMPDEST PUSH1 0x0 DUP1 PUSH1 0x40 DUP4 DUP6 SUB SLT ISZERO PUSH2 0x264E JUMPI PUSH1 0x0 DUP1 REVERT JUMPDEST PUSH2 0x2657 DUP4 PUSH2 0x1E1C JUMP JUMPDEST SWAP2 POP PUSH1 0x20 DUP1 DUP5 ADD CALLDATALOAD PUSH1 0x1 PUSH1 0x1 PUSH1 0x40 SHL SUB DUP1 DUP3 GT ISZERO PUSH2 0x2674 JUMPI PUSH1 0x0 DUP1 REVERT JUMPDEST DUP2 DUP7 ADD SWAP2 POP DUP7 PUSH1 0x1F DUP4 ADD SLT PUSH2 0x2688 JUMPI PUSH1 0x0 DUP1 REVERT JUMPDEST DUP2 CALLDATALOAD PUSH2 0x2696 PUSH2 0x2247 DUP3 PUSH2 0x21DC JUMP JUMPDEST DUP2 DUP2 MSTORE PUSH1 0x5 SWAP2 SWAP1 SWAP2 SHL DUP4 ADD DUP5 ADD SWAP1 DUP5 DUP2 ADD SWAP1 DUP10 DUP4 GT ISZERO PUSH2 0x26B5 JUMPI PUSH1 0x0 DUP1 REVERT JUMPDEST DUP6 DUP6 ADD JUMPDEST DUP4 DUP2 LT ISZERO PUSH2 0x274E JUMPI DUP1 CALLDATALOAD DUP6 DUP2 GT ISZERO PUSH2 0x26D1 JUMPI PUSH1 0x0 DUP1 DUP2 REVERT JUMPDEST DUP7 ADD PUSH1 0xA0 DUP2 DUP14 SUB PUSH1 0x1F NOT ADD DUP2 SGT ISZERO PUSH2 0x26E9 JUMPI PUSH1 0x0 DUP1 DUP2 REVERT JUMPDEST PUSH2 0x26F1 PUSH2 0x2083 JUMP JUMPDEST DUP10 DUP4 ADD CALLDATALOAD DUP9 DUP2 GT ISZERO PUSH2 0x2703 JUMPI PUSH1 0x0 DUP1 DUP2 REVERT JUMPDEST PUSH2 0x2711 DUP16 DUP13 DUP4 DUP8 ADD ADD PUSH2 0x20FD JUMP JUMPDEST DUP3 MSTORE POP PUSH1 0x40 DUP4 DUP2 ADD CALLDATALOAD DUP12 DUP4 ADD MSTORE PUSH1 0x60 DUP1 DUP6 ADD CALLDATALOAD SWAP2 DUP4 ADD SWAP2 SWAP1 SWAP2 MSTORE PUSH1 0x80 DUP1 DUP6 ADD CALLDATALOAD SWAP2 DUP4 ADD SWAP2 SWAP1 SWAP2 MSTORE SWAP2 SWAP1 SWAP3 ADD CALLDATALOAD SWAP1 DUP3 ADD MSTORE DUP4 MSTORE SWAP2 DUP7 ADD SWAP2 DUP7 ADD PUSH2 0x26B9 JUMP JUMPDEST POP DUP1 SWAP7 POP POP POP POP POP POP POP SWAP3 POP SWAP3 SWAP1 POP JUMP JUMPDEST PUSH1 0x0 PUSH4 0xFFFFFFFF DUP1 DUP8 AND DUP4 MSTORE DUP1 DUP7 AND PUSH1 0x20 DUP5 ADD MSTORE POP PUSH1 0x80 PUSH1 0x40 DUP4 ADD MSTORE PUSH2 0x2788 PUSH1 0x80 DUP4 ADD DUP6 PUSH2 0x1EF7 JUMP JUMPDEST SWAP1 POP DUP3 PUSH1 0x60 DUP4 ADD MSTORE SWAP6 SWAP5 POP POP POP POP POP JUMP JUMPDEST PUSH1 0x20 DUP2 MSTORE PUSH1 0x0 PUSH2 0x1E50 PUSH1 0x20 DUP4 ADD DUP5 PUSH2 0x1EF7 JUMP JUMPDEST PUSH1 0x40 DUP2 MSTORE PUSH4 0xFFFFFFFF DUP4 MLOAD AND PUSH1 0x40 DUP3 ADD MSTORE PUSH1 0x20 DUP4 ADD MLOAD PUSH1 0x60 DUP3 ADD MSTORE PUSH1 0x0 PUSH1 0x40 DUP5 ADD MLOAD PUSH1 0xA0 PUSH1 0x80 DUP5 ADD MSTORE PUSH2 0x27E2 PUSH1 0xE0 DUP5 ADD DUP3 PUSH2 0x1EF7 JUMP JUMPDEST SWAP1 POP PUSH1 0x60 DUP6 ADD MLOAD PUSH1 0x3F NOT DUP5 DUP4 SUB ADD PUSH1 0xA0 DUP6 ADD MSTORE PUSH2 0x27FF DUP3 DUP3 PUSH2 0x1EF7 JUMP JUMPDEST PUSH1 0x80 SWAP7 SWAP1 SWAP7 ADD MLOAD ISZERO ISZERO PUSH1 0xC0 DUP6 ADD MSTORE POP POP POP PUSH1 0x1 PUSH1 0x1 PUSH1 0xA0 SHL SUB SWAP2 SWAP1 SWAP2 AND PUSH1 0x20 SWAP1 SWAP2 ADD MSTORE SWAP1 JUMP JUMPDEST PUSH1 0x0 DUP2 DUP4 SUB PUSH1 0x80 DUP2 SLT ISZERO PUSH2 0x2838 JUMPI PUSH1 0x0 DUP1 REVERT JUMPDEST PUSH1 0x40 MLOAD PUSH1 0x60 DUP2 ADD PUSH1 0x1 PUSH1 0x1 PUSH1 0x40 SHL SUB DUP3 DUP3 LT DUP2 DUP4 GT OR ISZERO PUSH2 0x285B JUMPI PUSH2 0x285B PUSH2 0x206D JUMP JUMPDEST DUP2 PUSH1 0x40 MSTORE DUP6 MLOAD DUP4 MSTORE PUSH1 0x20 DUP7 ADD MLOAD SWAP2 POP DUP1 DUP3 AND DUP3 EQ PUSH2 0x2878 JUMPI PUSH1 0x0 DUP1 REVERT JUMPDEST POP PUSH1 0x20 DUP3 ADD MSTORE PUSH1 0x40 PUSH1 0x3F NOT DUP4 ADD SLT ISZERO PUSH2 0x2890 JUMPI PUSH1 0x0 DUP1 REVERT JUMPDEST PUSH2 0x2898 PUSH2 0x20AB JUMP JUMPDEST PUSH1 0x40 DUP6 DUP2 ADD MLOAD DUP3 MSTORE PUSH1 0x60 SWAP1 SWAP6 ADD MLOAD PUSH1 0x20 DUP3 ADD MSTORE SWAP4 DUP2 ADD SWAP4 SWAP1 SWAP4 MSTORE POP SWAP1 SWAP3 SWAP2 POP POP JUMP JUMPDEST DUP2 DUP2 SUB DUP2 DUP2 GT ISZERO PUSH2 0x838 JUMPI PUSH2 0x838 PUSH2 0x24A7 JUMP JUMPDEST PUSH1 0x40 DUP2 MSTORE PUSH1 0x0 PUSH2 0x28E0 PUSH1 0x40 DUP4 ADD DUP6 PUSH2 0x1EF7 JUMP JUMPDEST SWAP1 POP DUP3 PUSH1 0x20 DUP4 ADD MSTORE SWAP4 SWAP3 POP POP POP JUMP JUMPDEST PUSH1 0x40 DUP2 MSTORE PUSH1 0x0 PUSH2 0x2902 PUSH1 0x40 DUP4 ADD DUP6 PUSH2 0x1EF7 JUMP JUMPDEST DUP3 DUP2 SUB PUSH1 0x20 DUP5 ADD MSTORE PUSH2 0x2914 DUP2 DUP6 PUSH2 0x1EF7 JUMP JUMPDEST SWAP6 SWAP5 POP POP POP POP POP JUMP JUMPDEST PUSH1 0x0 PUSH1 0x20 DUP3 DUP5 SUB SLT ISZERO PUSH2 0x292F JUMPI PUSH1 0x0 DUP1 REVERT JUMPDEST DUP2 MLOAD PUSH2 0x1E50 DUP2 PUSH2 0x1D68 JUMP JUMPDEST PUSH1 0x0 PUSH1 0x20 DUP3 DUP5 SUB SLT ISZERO PUSH2 0x294C JUMPI PUSH1 0x0 DUP1 REVERT JUMPDEST DUP2 MLOAD DUP1 ISZERO ISZERO DUP2 EQ PUSH2 0x1E50 JUMPI PUSH1 0x0 DUP1 REVERT JUMPDEST PUSH1 0x0 DUP3 MLOAD PUSH2 0x296E DUP2 DUP5 PUSH1 0x20 DUP8 ADD PUSH2 0x1ED3 JUMP JUMPDEST SWAP2 SWAP1 SWAP2 ADD SWAP3 SWAP2 POP POP JUMP INVALID LOG2 PUSH5 0x6970667358 0x22 SLT KECCAK256 GASPRICE CHAINID SHR DUP3 0xB6 0xA5 DUP10 JUMPI PUSH5 0x2975F9AE44 DUP2 SWAP14 DUP5 PC 0x4A 0x23 SHL PUSH25 0xD320D8C7E420C7C6993E64736F6C6343000814003300000000 "},"methodIdentifiers":{"addStrategy(uint32,string,uint256,uint256,uint256,uint256)":"d439a5c9","allowInitializePath((uint32,bytes32,uint64))":"ff7bd03d","chainIdToEid(uint256)":"f151e497","compareStrategiesAcrossChains(uint32[])":"dcdbf3ec","eidToChainId(uint32)":"8b42babd","endpoint()":"5e280f11","getStrategiesData(uint32)":"59c730c3","isComposeMsgSender((uint32,bytes32,uint64),bytes,address)":"82413eac","lzReceive((uint32,bytes32,uint64),bytes32,bytes,address,bytes)":"13137d65","nextNonce(uint32,bytes32)":"7d25a05e","oAppVersion()":"17442b70","optimizeStrategy(uint32,bytes)":"57efdeaa","optimizeWithPhala(uint32)":"8f565692","optimizeZircuitStrategy(uint32,bytes)":"bd5c9aaf","owner()":"8da5cb5b","peers(uint32)":"bb0b6a53","renounceOwnership()":"715018a6","setChainIdMapping(uint256,uint32)":"f788b3a6","setDelegate(address)":"ca5eb5e1","setPeer(uint32,bytes32)":"3400288b","strategies(uint32,uint256)":"f56f1db2","strategyCount(uint32)":"33c56c75","transferOwnership(address)":"f2fde38b"}}}}}