{"contracts/ChainSageOApp.sol":{"ChainSageOApp":{"abi":[{"inputs":[{"internalType":"address","name":"_endpoint","type":"address"},{"internalType":"address","name":"_owner","type":"address"}],"stateMutability":"nonpayable","type":"constructor"},{"inputs":[],"name":"InvalidDelegate","type":"error"},{"inputs":[],"name":"InvalidEndpointCall","type":"error"},{"inputs":[],"name":"LzTokenUnavailable","type":"error"},{"inputs":[{"internalType":"uint32","name":"eid","type":"uint32"}],"name":"NoPeer","type":"error"},{"inputs":[{"internalType":"uint256","name":"msgValue","type":"uint256"}],"name":"NotEnoughNative","type":"error"},{"inputs":[{"internalType":"address","name":"addr","type":"address"}],"name":"OnlyEndpoint","type":"error"},{"inputs":[{"internalType":"uint32","name":"eid","type":"uint32"},{"internalType":"bytes32","name":"sender","type":"bytes32"}],"name":"OnlyPeer","type":"error"},{"anonymous":false,"inputs":[{"indexed":true,"internalType":"address","name":"previousOwner","type":"address"},{"indexed":true,"internalType":"address","name":"newOwner","type":"address"}],"name":"OwnershipTransferred","type":"event"},{"anonymous":false,"inputs":[{"indexed":false,"internalType":"uint32","name":"eid","type":"uint32"},{"indexed":false,"internalType":"bytes32","name":"peer","type":"bytes32"}],"name":"PeerSet","type":"event"},{"anonymous":false,"inputs":[{"indexed":false,"internalType":"uint32","name":"srcEid","type":"uint32"},{"indexed":false,"internalType":"uint32","name":"dstEid","type":"uint32"},{"indexed":false,"internalType":"string","name":"strategyName","type":"string"},{"indexed":false,"internalType":"uint256","name":"apy","type":"uint256"}],"name":"StrategyOptimized","type":"event"},{"inputs":[{"internalType":"uint32","name":"_eid","type":"uint32"},{"internalType":"string","name":"_name","type":"string"},{"internalType":"uint256","name":"_apy","type":"uint256"},{"internalType":"uint256","name":"_risk","type":"uint256"},{"internalType":"uint256","name":"_liquidity","type":"uint256"},{"internalType":"uint256","name":"_volatility","type":"uint256"}],"name":"addStrategy","outputs":[],"stateMutability":"nonpayable","type":"function"},{"inputs":[{"components":[{"internalType":"uint32","name":"srcEid","type":"uint32"},{"internalType":"bytes32","name":"sender","type":"bytes32"},{"internalType":"uint64","name":"nonce","type":"uint64"}],"internalType":"struct Origin","name":"origin","type":"tuple"}],"name":"allowInitializePath","outputs":[{"internalType":"bool","name":"","type":"bool"}],"stateMutability":"view","type":"function"},{"inputs":[{"internalType":"uint256","name":"","type":"uint256"}],"name":"chainIdToEid","outputs":[{"internalType":"uint32","name":"","type":"uint32"}],"stateMutability":"view","type":"function"},{"inputs":[{"internalType":"uint32[]","name":"_chainIds","type":"uint32[]"}],"name":"compareStrategiesAcrossChains","outputs":[{"components":[{"internalType":"string","name":"name","type":"string"},{"internalType":"uint256","name":"apy","type":"uint256"},{"internalType":"uint256","name":"risk","type":"uint256"},{"internalType":"uint256","name":"liquidity","type":"uint256"},{"internalType":"uint256","name":"volatility","type":"uint256"}],"internalType":"struct ChainSageOApp.Strategy","name":"bestStrategy","type":"tuple"},{"internalType":"uint32","name":"bestChainId","type":"uint32"}],"stateMutability":"view","type":"function"},{"inputs":[{"internalType":"uint32","name":"","type":"uint32"}],"name":"eidToChainId","outputs":[{"internalType":"uint256","name":"","type":"uint256"}],"stateMutability":"view","type":"function"},{"inputs":[],"name":"endpoint","outputs":[{"internalType":"contract ILayerZeroEndpointV2","name":"","type":"address"}],"stateMutability":"view","type":"function"},{"inputs":[{"internalType":"uint32","name":"_eid","type":"uint32"}],"name":"getStrategiesData","outputs":[{"components":[{"internalType":"string","name":"name","type":"string"},{"internalType":"uint256","name":"apy","type":"uint256"},{"internalType":"uint256","name":"risk","type":"uint256"},{"internalType":"uint256","name":"liquidity","type":"uint256"},{"internalType":"uint256","name":"volatility","type":"uint256"}],"internalType":"struct ChainSageOApp.Strategy[]","name":"","type":"tuple[]"}],"stateMutability":"view","type":"function"},{"inputs":[{"components":[{"internalType":"uint32","name":"srcEid","type":"uint32"},{"internalType":"bytes32","name":"sender","type":"bytes32"},{"internalType":"uint64","name":"nonce","type":"uint64"}],"internalType":"struct Origin","name":"","type":"tuple"},{"internalType":"bytes","name":"","type":"bytes"},{"internalType":"address","name":"_sender","type":"address"}],"name":"isComposeMsgSender","outputs":[{"internalType":"bool","name":"","type":"bool"}],"stateMutability":"view","type":"function"},{"inputs":[{"components":[{"internalType":"uint32","name":"srcEid","type":"uint32"},{"internalType":"bytes32","name":"sender","type":"bytes32"},{"internalType":"uint64","name":"nonce","type":"uint64"}],"internalType":"struct Origin","name":"_origin","type":"tuple"},{"internalType":"bytes32","name":"_guid","type":"bytes32"},{"internalType":"bytes","name":"_message","type":"bytes"},{"internalType":"address","name":"_executor","type":"address"},{"internalType":"bytes","name":"_extraData","type":"bytes"}],"name":"lzReceive","outputs":[],"stateMutability":"payable","type":"function"},{"inputs":[{"internalType":"uint32","name":"","type":"uint32"},{"internalType":"bytes32","name":"","type":"bytes32"}],"name":"nextNonce","outputs":[{"internalType":"uint64","name":"nonce","type":"uint64"}],"stateMutability":"view","type":"function"},{"inputs":[],"name":"oAppVersion","outputs":[{"internalType":"uint64","name":"senderVersion","type":"uint64"},{"internalType":"uint64","name":"receiverVersion","type":"uint64"}],"stateMutability":"pure","type":"function"},{"inputs":[{"internalType":"uint32","name":"_dstEid","type":"uint32"},{"internalType":"bytes","name":"_options","type":"bytes"}],"name":"optimizeStrategy","outputs":[],"stateMutability":"payable","type":"function"},{"inputs":[{"internalType":"uint32","name":"_dstEid","type":"uint32"},{"internalType":"bytes","name":"_options","type":"bytes"}],"name":"optimizeZircuitStrategy","outputs":[],"stateMutability":"payable","type":"function"},{"inputs":[],"name":"owner","outputs":[{"internalType":"address","name":"","type":"address"}],"stateMutability":"view","type":"function"},{"inputs":[{"internalType":"uint32","name":"eid","type":"uint32"}],"name":"peers","outputs":[{"internalType":"bytes32","name":"peer","type":"bytes32"}],"stateMutability":"view","type":"function"},{"inputs":[],"name":"renounceOwnership","outputs":[],"stateMutability":"nonpayable","type":"function"},{"inputs":[{"internalType":"uint256","name":"_chainId","type":"uint256"},{"internalType":"uint32","name":"_eid","type":"uint32"}],"name":"setChainIdMapping","outputs":[],"stateMutability":"nonpayable","type":"function"},{"inputs":[{"internalType":"address","name":"_delegate","type":"address"}],"name":"setDelegate","outputs":[],"stateMutability":"nonpayable","type":"function"},{"inputs":[{"internalType":"uint32","name":"_eid","type":"uint32"},{"internalType":"bytes32","name":"_peer","type":"bytes32"}],"name":"setPeer","outputs":[],"stateMutability":"nonpayable","type":"function"},{"inputs":[{"internalType":"uint32","name":"","type":"uint32"},{"internalType":"uint256","name":"","type":"uint256"}],"name":"strategies","outputs":[{"internalType":"string","name":"name","type":"string"},{"internalType":"uint256","name":"apy","type":"uint256"},{"internalType":"uint256","name":"risk","type":"uint256"},{"internalType":"uint256","name":"liquidity","type":"uint256"},{"internalType":"uint256","name":"volatility","type":"uint256"}],"stateMutability":"view","type":"function"},{"inputs":[{"internalType":"uint32","name":"","type":"uint32"}],"name":"strategyCount","outputs":[{"internalType":"uint256","name":"","type":"uint256"}],"stateMutability":"view","type":"function"},{"inputs":[{"internalType":"address","name":"newOwner","type":"address"}],"name":"transferOwnership","outputs":[],"stateMutability":"nonpayable","type":"function"}],"evm":{"bytecode":{"linkReferences":{},"object":"60a06040523480156200001157600080fd5b50604051620028153803806200281583398101604081905262000034916200014b565b818181816200004333620000de565b6001600160a01b0380831660805281166200007157604051632d618d8160e21b815260040160405180910390fd5b60805160405163ca5eb5e160e01b81526001600160a01b0383811660048301529091169063ca5eb5e190602401600060405180830381600087803b158015620000b957600080fd5b505af1158015620000ce573d6000803e3d6000fd5b5050505050505050505062000183565b600080546001600160a01b038381166001600160a01b0319831681178455604051919092169283917f8be0079c531659141344cd1fd0a4f28419497f9722a3daafe3b4186f6b6457e09190a35050565b80516001600160a01b03811681146200014657600080fd5b919050565b600080604083850312156200015f57600080fd5b6200016a836200012e565b91506200017a602084016200012e565b90509250929050565b608051612653620001c260003960008181610223015281816104ae01528181610ad0015281816112e60152818161162d01526116e601526126536000f3fe6080604052600436106101355760003560e01c80638da5cb5b116100ab578063dcdbf3ec1161006f578063dcdbf3ec146103a5578063f151e497146103d3578063f2fde38b1461041b578063f56f1db21461043b578063f788b3a61461046c578063ff7bd03d1461048c57600080fd5b80638da5cb5b14610307578063bb0b6a5314610325578063bd5c9aaf14610352578063ca5eb5e114610365578063d439a5c91461038557600080fd5b806359c730c3116100fd57806359c730c3146101e45780635e280f1114610211578063715018a61461025d5780637d25a05e1461027257806382413eac146102aa5780638b42babd146102da57600080fd5b806313137d651461013a57806317442b701461014f57806333c56c75146101765780633400288b146101b157806357efdeaa146101d1575b600080fd5b61014d610148366004611a35565b6104ac565b005b34801561015b57600080fd5b50604080516001815260026020820152015b60405180910390f35b34801561018257600080fd5b506101a3610191366004611aed565b60036020526000908152604090205481565b60405190815260200161016d565b3480156101bd57600080fd5b5061014d6101cc366004611b0f565b61056c565b61014d6101df366004611b39565b610582565b3480156101f057600080fd5b506102046101ff366004611aed565b6106bd565b60405161016d9190611c7c565b34801561021d57600080fd5b506102457f000000000000000000000000000000000000000000000000000000000000000081565b6040516001600160a01b03909116815260200161016d565b34801561026957600080fd5b5061014d6107e9565b34801561027e57600080fd5b5061029261028d366004611b0f565b6107fd565b6040516001600160401b03909116815260200161016d565b3480156102b657600080fd5b506102ca6102c5366004611c8f565b610806565b604051901515815260200161016d565b3480156102e657600080fd5b506101a36102f5366004611aed565b60056020526000908152604090205481565b34801561031357600080fd5b506000546001600160a01b0316610245565b34801561033157600080fd5b506101a3610340366004611aed565b60016020526000908152604090205481565b61014d610360366004611b39565b61081b565b34801561037157600080fd5b5061014d610380366004611cf5565b610aa9565b34801561039157600080fd5b5061014d6103a0366004611e11565b610b2f565b3480156103b157600080fd5b506103c56103c0366004611ea4565b610bf6565b60405161016d929190611f35565b3480156103df57600080fd5b506104066103ee366004611f5d565b60046020526000908152604090205463ffffffff1681565b60405163ffffffff909116815260200161016d565b34801561042757600080fd5b5061014d610436366004611cf5565b610dde565b34801561044757600080fd5b5061045b610456366004611b0f565b610e57565b60405161016d959493929190611f76565b34801561047857600080fd5b5061014d610487366004611fad565b610f32565b34801561049857600080fd5b506102ca6104a7366004611fd9565b610f6d565b7f00000000000000000000000000000000000000000000000000000000000000006001600160a01b031633146104fc576040516391ac5e4f60e01b81523360048201526024015b60405180910390fd5b6020870180359061051690610511908a611aed565b610fa3565b14610554576105286020880188611aed565b60405163309afaf360e21b815263ffffffff9091166004820152602088013560248201526044016104f3565b61056387878787878787610fdf565b50505050505050565b6105746111c1565b61057e828261121b565b5050565b4660009081526004602052604081205463ffffffff1690036105e65760405162461bcd60e51b815260206004820152601b60248201527f536f7572636520636861696e206e6f7420636f6e66696775726564000000000060448201526064016104f3565b4660009081526004602090815260408083205463ffffffff1680845260028352818420915190939261061c928592909101612029565b60408051601f19818403018152828201825234835260006020848101919091528251808401909352601d83527f66726f6d20636f6e7472616374206265666f7265206c7a53656e643a2000000090830152925061067890611270565b610563868387878080601f0160208091040260200160405190810160405280939291908181526020018383808284376000920191909152508792503391506112b39050565b63ffffffff81166000908152600260209081526040808320805482518185028101850190935280835260609492939192909184015b828210156107de57838290600052602060002090600502016040518060a001604052908160008201805461072590611ff5565b80601f016020809104026020016040519081016040528092919081815260200182805461075190611ff5565b801561079e5780601f106107735761010080835404028352916020019161079e565b820191906000526020600020905b81548152906001019060200180831161078157829003601f168201915b50505050508152602001600182015481526020016002820154815260200160038201548152602001600482015481525050815260200190600101906106f2565b505050509050919050565b6107f16111c1565b6107fb60006113be565b565b60005b92915050565b6001600160a01b03811630145b949350505050565b4660009081526004602052604081205463ffffffff16900361087f5760405162461bcd60e51b815260206004820152601b60248201527f536f7572636520636861696e206e6f7420636f6e66696775726564000000000060448201526064016104f3565b4660009081526004602090815260408083205463ffffffff16808452600283528184208054835181860281018601909452808452919493909190849084015b828210156109aa57838290600052602060002090600502016040518060a00160405290816000820180546108f190611ff5565b80601f016020809104026020016040519081016040528092919081815260200182805461091d90611ff5565b801561096a5780601f1061093f5761010080835404028352916020019161096a565b820191906000526020600020905b81548152906001019060200180831161094d57829003601f168201915b50505050508152602001600182015481526020016002820154815260200160038201548152602001600482015481525050815260200190600101906108be565b50505050905060005b8151811015610a245760648282815181106109d0576109d0612136565b60200260200101516020015160696109e89190612162565b6109f29190612179565b828281518110610a0457610a04612136565b602090810291909101810151015280610a1c8161219b565b9150506109b3565b5060008282604051602001610a3a9291906121b4565b60408051601f19818403018152828201825234835260006020848101919091528251601f8901829004820281018201909352878352909350610a9f9189918591908a908a90819084018382808284376000920191909152508792503391506112b39050565b5050505050505050565b610ab16111c1565b60405163ca5eb5e160e01b81526001600160a01b0382811660048301527f0000000000000000000000000000000000000000000000000000000000000000169063ca5eb5e190602401600060405180830381600087803b158015610b1457600080fd5b505af1158015610b28573d6000803e3d6000fd5b5050505050565b610b376111c1565b63ffffffff86166000908152600260209081526040808320815160a08101835289815280840189905291820187905260608201869052608082018590528054600181018255908452919092208251600590920201908190610b989082612221565b5060208281015160018301556040808401516002840155606084015160038085019190915560809094015160049093019290925563ffffffff891660009081529290528120805491610be98361219b565b9190505550505050505050565b610c286040518060a0016040528060608152602001600081526020016000815260200160008152602001600081525090565b600080805b8451811015610dd7576000610d8860026000888581518110610c5157610c51612136565b602002602001015163ffffffff1663ffffffff168152602001908152602001600020805480602002602001604051908101604052809291908181526020016000905b82821015610d7f57838290600052602060002090600502016040518060a0016040529081600082018054610cc690611ff5565b80601f0160208091040260200160405190810160405280929190818152602001828054610cf290611ff5565b8015610d3f5780601f10610d1457610100808354040283529160200191610d3f565b820191906000526020600020905b815481529060010190602001808311610d2257829003601f168201915b5050505050815260200160018201548152602001600282015481526020016003820154815260200160048201548152505081526020019060010190610c93565b5050505061140e565b90506000610d9582611527565b905083811115610dc257809350819550868381518110610db757610db7612136565b602002602001015194505b50508080610dcf9061219b565b915050610c2d565b5050915091565b610de66111c1565b6001600160a01b038116610e4b5760405162461bcd60e51b815260206004820152602660248201527f4f776e61626c653a206e6577206f776e657220697320746865207a65726f206160448201526564647265737360d01b60648201526084016104f3565b610e54816113be565b50565b60026020528160005260406000208181548110610e7357600080fd5b906000526020600020906005020160009150915050806000018054610e9790611ff5565b80601f0160208091040260200160405190810160405280929190818152602001828054610ec390611ff5565b8015610f105780601f10610ee557610100808354040283529160200191610f10565b820191906000526020600020905b815481529060010190602001808311610ef357829003601f168201915b5050505050908060010154908060020154908060030154908060040154905085565b610f3a6111c1565b6000828152600460209081526040808320805463ffffffff90951663ffffffff1990951685179055928252600590522055565b6000602082018035906001908390610f859086611aed565b63ffffffff1681526020810191909152604001600020541492915050565b63ffffffff8116600090815260016020526040812054806108005760405163f6ff4fb760e01b815263ffffffff841660048201526024016104f3565b6110116040518060400160405280601181526020017017db1e949958d95a5d994818d85b1b1959607a1b815250611270565b600080611020868801886122e0565b915091506110696040518060400160405280601881526020017f4465636f646564206d6573736167652e207372634569643a00000000000000008152508363ffffffff16611572565b6110a160405180604001604052806015815260200174273ab6b132b91037b31039ba3930ba32b3b4b2b99d60591b8152508251611572565b60006110ac8261140e565b90506110f16040518060400160405280601a81526020017f4265737420737472617465677920666f756e642e204e616d653a00000000000081525082600001516115b7565b611129604051806040016040528060128152602001712132b9ba1039ba3930ba32b3bc9020a82c9d60711b8152508260200151611572565b7fef687003a6d93e74ed8bfdda320a959e343aa949fcbb929bb89581a31f29b61361115760208c018c611aed565b8251602084015160405161116f939246929091612404565b60405180910390a16111b56040518060400160405280601f81526020017f53747261746567794f7074696d697a6564206576656e7420656d697474656400815250611270565b50505050505050505050565b6000546001600160a01b031633146107fb5760405162461bcd60e51b815260206004820181905260248201527f4f776e61626c653a2063616c6c6572206973206e6f7420746865206f776e657260448201526064016104f3565b63ffffffff8216600081815260016020908152604091829020849055815192835282018390527f238399d427b947898edb290f5ff0f9109849b1c3ba196a42e35f00c50a54b98b910160405180910390a15050565b610e5481604051602401611284919061243e565b60408051601f198184030181529190526020810180516001600160e01b031663104c13eb60e21b1790526115f8565b6112bb611979565b60006112ca8460000151611601565b6020850151909150156112e4576112e48460200151611629565b7f00000000000000000000000000000000000000000000000000000000000000006001600160a01b0316632637a450826040518060a001604052808b63ffffffff1681526020016113348c610fa3565b81526020018a815260200189815260200160008960200151111515815250866040518463ffffffff1660e01b8152600401611370929190612451565b60806040518083038185885af115801561138e573d6000803e3d6000fd5b50505050506040513d601f19601f820116820180604052508101906113b391906124ca565b979650505050505050565b600080546001600160a01b038381166001600160a01b0319831681178455604051919092169283917f8be0079c531659141344cd1fd0a4f28419497f9722a3daafe3b4186f6b6457e09190a35050565b6114406040518060a0016040528060608152602001600081526020016000815260200160008152602001600081525090565b60008251116114915760405162461bcd60e51b815260206004820152601760248201527f4e6f207374726174656769657320617661696c61626c6500000000000000000060448201526064016104f3565b6000826000815181106114a6576114a6612136565b602002602001015190506000600190505b8351811015611520576114c982611527565b6114eb8583815181106114de576114de612136565b6020026020010151611527565b111561150e5783818151811061150357611503612136565b602002602001015191505b806115188161219b565b9150506114b7565b5092915050565b60008160800151606461153a9190612162565b6060830151604084015161154f90606461255f565b846020015161155e9190612162565b6115689190612162565b6108009190612179565b61057e8282604051602401611588929190612572565b60408051601f198184030181529190526020810180516001600160e01b0316632d839cb360e21b1790526115f8565b61057e82826040516024016115cd929190612594565b60408051601f198184030181529190526020810180516001600160e01b0316634b5c427760e01b1790525b610e548161170b565b6000813414611625576040516304fb820960e51b81523460048201526024016104f3565b5090565b60007f00000000000000000000000000000000000000000000000000000000000000006001600160a01b031663e4fe1d946040518163ffffffff1660e01b8152600401602060405180830381865afa158015611689573d6000803e3d6000fd5b505050506040513d601f19601f820116820180604052508101906116ad91906125c2565b90506001600160a01b0381166116d6576040516329b99a9560e11b815260040160405180910390fd5b61057e6001600160a01b038216337f00000000000000000000000000000000000000000000000000000000000000008561172c565b60006a636f6e736f6c652e6c6f679050600080835160208501845afa505050565b604080516001600160a01b0385811660248301528416604482015260648082018490528251808303909101815260849091019091526020810180516001600160e01b03166323b872dd60e01b17905261178690859061178c565b50505050565b60006117e1826040518060400160405280602081526020017f5361666545524332303a206c6f772d6c6576656c2063616c6c206661696c6564815250856001600160a01b03166118669092919063ffffffff16565b905080516000148061180257508080602001905181019061180291906125df565b6118615760405162461bcd60e51b815260206004820152602a60248201527f5361666545524332303a204552433230206f7065726174696f6e20646964206e6044820152691bdd081cdd58d8d9595960b21b60648201526084016104f3565b505050565b6060610813848460008585600080866001600160a01b0316858760405161188d9190612601565b60006040518083038185875af1925050503d80600081146118ca576040519150601f19603f3d011682016040523d82523d6000602084013e6118cf565b606091505b50915091506113b3878383876060831561194a578251600003611943576001600160a01b0385163b6119435760405162461bcd60e51b815260206004820152601d60248201527f416464726573733a2063616c6c20746f206e6f6e2d636f6e747261637400000060448201526064016104f3565b5081610813565b610813838381511561195f5781518083602001fd5b8060405162461bcd60e51b81526004016104f3919061243e565b60405180606001604052806000801916815260200160006001600160401b031681526020016119bb604051806040016040528060008152602001600081525090565b905290565b6000606082840312156119d257600080fd5b50919050565b60008083601f8401126119ea57600080fd5b5081356001600160401b03811115611a0157600080fd5b602083019150836020828501011115611a1957600080fd5b9250929050565b6001600160a01b0381168114610e5457600080fd5b600080600080600080600060e0888a031215611a5057600080fd5b611a5a89896119c0565b96506060880135955060808801356001600160401b0380821115611a7d57600080fd5b611a898b838c016119d8565b909750955060a08a01359150611a9e82611a20565b90935060c08901359080821115611ab457600080fd5b50611ac18a828b016119d8565b989b979a50959850939692959293505050565b803563ffffffff81168114611ae857600080fd5b919050565b600060208284031215611aff57600080fd5b611b0882611ad4565b9392505050565b60008060408385031215611b2257600080fd5b611b2b83611ad4565b946020939093013593505050565b600080600060408486031215611b4e57600080fd5b611b5784611ad4565b925060208401356001600160401b03811115611b7257600080fd5b611b7e868287016119d8565b9497909650939450505050565b60005b83811015611ba6578181015183820152602001611b8e565b50506000910152565b60008151808452611bc7816020860160208601611b8b565b601f01601f19169290920160200192915050565b6000815160a08452611bf060a0850182611baf565b9050602083015160208501526040830151604085015260608301516060850152608083015160808501528091505092915050565b600082825180855260208086019550808260051b84010181860160005b84811015611c6f57601f19868403018952611c5d838351611bdb565b98840198925090830190600101611c41565b5090979650505050505050565b602081526000611b086020830184611c24565b60008060008060a08587031215611ca557600080fd5b611caf86866119c0565b935060608501356001600160401b03811115611cca57600080fd5b611cd6878288016119d8565b9094509250506080850135611cea81611a20565b939692955090935050565b600060208284031215611d0757600080fd5b8135611b0881611a20565b634e487b7160e01b600052604160045260246000fd5b60405160a081016001600160401b0381118282101715611d4a57611d4a611d12565b60405290565b604080519081016001600160401b0381118282101715611d4a57611d4a611d12565b604051601f8201601f191681016001600160401b0381118282101715611d9a57611d9a611d12565b604052919050565b600082601f830112611db357600080fd5b81356001600160401b03811115611dcc57611dcc611d12565b611ddf601f8201601f1916602001611d72565b818152846020838601011115611df457600080fd5b816020850160208301376000918101602001919091529392505050565b60008060008060008060c08789031215611e2a57600080fd5b611e3387611ad4565b955060208701356001600160401b03811115611e4e57600080fd5b611e5a89828a01611da2565b96999698505050506040850135946060810135946080820135945060a09091013592509050565b60006001600160401b03821115611e9a57611e9a611d12565b5060051b60200190565b60006020808385031215611eb757600080fd5b82356001600160401b03811115611ecd57600080fd5b8301601f81018513611ede57600080fd5b8035611ef1611eec82611e81565b611d72565b81815260059190911b82018301908381019087831115611f1057600080fd5b928401925b828410156113b357611f2684611ad4565b82529284019290840190611f15565b604081526000611f486040830185611bdb565b905063ffffffff831660208301529392505050565b600060208284031215611f6f57600080fd5b5035919050565b60a081526000611f8960a0830188611baf565b90508560208301528460408301528360608301528260808301529695505050505050565b60008060408385031215611fc057600080fd5b82359150611fd060208401611ad4565b90509250929050565b600060608284031215611feb57600080fd5b611b0883836119c0565b600181811c9082168061200957607f821691505b6020821081036119d257634e487b7160e01b600052602260045260246000fd5b6000604080830163ffffffff861684526020828186015281865480845260609350838701915060058482821b89010160008a8152858120815b8581101561212457605f198c850301875260a080855283835461208481611ff5565b92870183905260c092600182811680156120a557600181146120be576120e9565b60ff1984168a8701528215158b1b8a01860194506120e9565b8789528d8920895b848110156120e15781548c8201890152908301908f016120c6565b8b0187019550505b50860154888d0152505060028401548c87015260038401548b8701526004840154608090960195909552509587019590840190600101612062565b50919c9b505050505050505050505050565b634e487b7160e01b600052603260045260246000fd5b634e487b7160e01b600052601160045260246000fd5b80820281158282048414176108005761080061214c565b60008261219657634e487b7160e01b600052601260045260246000fd5b500490565b6000600182016121ad576121ad61214c565b5060010190565b63ffffffff831681526040602082015260006108136040830184611c24565b601f82111561186157600081815260208120601f850160051c810160208610156121fa5750805b601f850160051c820191505b8181101561221957828155600101612206565b505050505050565b81516001600160401b0381111561223a5761223a611d12565b61224e816122488454611ff5565b846121d3565b602080601f831160018114612283576000841561226b5750858301515b600019600386901b1c1916600185901b178555612219565b600085815260208120601f198616915b828110156122b257888601518255948401946001909101908401612293565b50858210156122d05787850151600019600388901b60f8161c191681555b5050505050600190811b01905550565b600080604083850312156122f357600080fd5b6122fc83611ad4565b91506020808401356001600160401b038082111561231957600080fd5b818601915086601f83011261232d57600080fd5b813561233b611eec82611e81565b81815260059190911b8301840190848101908983111561235a57600080fd5b8585015b838110156123f3578035858111156123765760008081fd5b860160a0818d03601f190181131561238e5760008081fd5b612396611d28565b89830135888111156123a85760008081fd5b6123b68f8c83870101611da2565b8252506040838101358b8301526060808501359183019190915260808085013591830191909152919092013590820152835291860191860161235e565b508096505050505050509250929050565b600063ffffffff80871683528086166020840152506080604083015261242d6080830185611baf565b905082606083015295945050505050565b602081526000611b086020830184611baf565b6040815263ffffffff8351166040820152602083015160608201526000604084015160a0608084015261248760e0840182611baf565b90506060850151603f198483030160a08501526124a48282611baf565b60809690960151151560c08501525050506001600160a01b039190911660209091015290565b600081830360808112156124dd57600080fd5b604051606081016001600160401b03828210818311171561250057612500611d12565b816040528551835260208601519150808216821461251d57600080fd5b5060208201526040603f198301121561253557600080fd5b61253d611d50565b6040858101518252606090950151602082015293810193909352509092915050565b818103818111156108005761080061214c565b6040815260006125856040830185611baf565b90508260208301529392505050565b6040815260006125a76040830185611baf565b82810360208401526125b98185611baf565b95945050505050565b6000602082840312156125d457600080fd5b8151611b0881611a20565b6000602082840312156125f157600080fd5b81518015158114611b0857600080fd5b60008251612613818460208701611b8b565b919091019291505056fea264697066735822122013a65b5feb266c381f23eb746d173da8aa9bab2c3068122a586be13f5d516e0264736f6c63430008140033","opcodes":"PUSH1 0xA0 PUSH1 0x40 MSTORE CALLVALUE DUP1 ISZERO PUSH3 0x11 JUMPI PUSH1 0x0 DUP1 REVERT JUMPDEST POP PUSH1 0x40 MLOAD PUSH3 0x2815 CODESIZE SUB DUP1 PUSH3 0x2815 DUP4 CODECOPY DUP2 ADD PUSH1 0x40 DUP2 SWAP1 MSTORE PUSH3 0x34 SWAP2 PUSH3 0x14B JUMP JUMPDEST DUP2 DUP2 DUP2 DUP2 PUSH3 0x43 CALLER PUSH3 0xDE JUMP JUMPDEST PUSH1 0x1 PUSH1 0x1 PUSH1 0xA0 SHL SUB DUP1 DUP4 AND PUSH1 0x80 MSTORE DUP2 AND PUSH3 0x71 JUMPI PUSH1 0x40 MLOAD PUSH4 0x2D618D81 PUSH1 0xE2 SHL DUP2 MSTORE PUSH1 0x4 ADD PUSH1 0x40 MLOAD DUP1 SWAP2 SUB SWAP1 REVERT JUMPDEST PUSH1 0x80 MLOAD PUSH1 0x40 MLOAD PUSH4 0xCA5EB5E1 PUSH1 0xE0 SHL DUP2 MSTORE PUSH1 0x1 PUSH1 0x1 PUSH1 0xA0 SHL SUB DUP4 DUP2 AND PUSH1 0x4 DUP4 ADD MSTORE SWAP1 SWAP2 AND SWAP1 PUSH4 0xCA5EB5E1 SWAP1 PUSH1 0x24 ADD PUSH1 0x0 PUSH1 0x40 MLOAD DUP1 DUP4 SUB DUP2 PUSH1 0x0 DUP8 DUP1 EXTCODESIZE ISZERO DUP1 ISZERO PUSH3 0xB9 JUMPI PUSH1 0x0 DUP1 REVERT JUMPDEST POP GAS CALL ISZERO DUP1 ISZERO PUSH3 0xCE JUMPI RETURNDATASIZE PUSH1 0x0 DUP1 RETURNDATACOPY RETURNDATASIZE PUSH1 0x0 REVERT JUMPDEST POP POP POP POP POP POP POP POP POP POP PUSH3 0x183 JUMP JUMPDEST PUSH1 0x0 DUP1 SLOAD PUSH1 0x1 PUSH1 0x1 PUSH1 0xA0 SHL SUB DUP4 DUP2 AND PUSH1 0x1 PUSH1 0x1 PUSH1 0xA0 SHL SUB NOT DUP4 AND DUP2 OR DUP5 SSTORE PUSH1 0x40 MLOAD SWAP2 SWAP1 SWAP3 AND SWAP3 DUP4 SWAP2 PUSH32 0x8BE0079C531659141344CD1FD0A4F28419497F9722A3DAAFE3B4186F6B6457E0 SWAP2 SWAP1 LOG3 POP POP JUMP JUMPDEST DUP1 MLOAD PUSH1 0x1 PUSH1 0x1 PUSH1 0xA0 SHL SUB DUP2 AND DUP2 EQ PUSH3 0x146 JUMPI PUSH1 0x0 DUP1 REVERT JUMPDEST SWAP2 SWAP1 POP JUMP JUMPDEST PUSH1 0x0 DUP1 PUSH1 0x40 DUP4 DUP6 SUB SLT ISZERO PUSH3 0x15F JUMPI PUSH1 0x0 DUP1 REVERT JUMPDEST PUSH3 0x16A DUP4 PUSH3 0x12E JUMP JUMPDEST SWAP2 POP PUSH3 0x17A PUSH1 0x20 DUP5 ADD PUSH3 0x12E JUMP JUMPDEST SWAP1 POP SWAP3 POP SWAP3 SWAP1 POP JUMP JUMPDEST PUSH1 0x80 MLOAD PUSH2 0x2653 PUSH3 0x1C2 PUSH1 0x0 CODECOPY PUSH1 0x0 DUP2 DUP2 PUSH2 0x223 ADD MSTORE DUP2 DUP2 PUSH2 0x4AE ADD MSTORE DUP2 DUP2 PUSH2 0xAD0 ADD MSTORE DUP2 DUP2 PUSH2 0x12E6 ADD MSTORE DUP2 DUP2 PUSH2 0x162D ADD MSTORE PUSH2 0x16E6 ADD MSTORE PUSH2 0x2653 PUSH1 0x0 RETURN INVALID PUSH1 0x80 PUSH1 0x40 MSTORE PUSH1 0x4 CALLDATASIZE LT PUSH2 0x135 JUMPI PUSH1 0x0 CALLDATALOAD PUSH1 0xE0 SHR DUP1 PUSH4 0x8DA5CB5B GT PUSH2 0xAB JUMPI DUP1 PUSH4 0xDCDBF3EC GT PUSH2 0x6F JUMPI DUP1 PUSH4 0xDCDBF3EC EQ PUSH2 0x3A5 JUMPI DUP1 PUSH4 0xF151E497 EQ PUSH2 0x3D3 JUMPI DUP1 PUSH4 0xF2FDE38B EQ PUSH2 0x41B JUMPI DUP1 PUSH4 0xF56F1DB2 EQ PUSH2 0x43B JUMPI DUP1 PUSH4 0xF788B3A6 EQ PUSH2 0x46C JUMPI DUP1 PUSH4 0xFF7BD03D EQ PUSH2 0x48C JUMPI PUSH1 0x0 DUP1 REVERT JUMPDEST DUP1 PUSH4 0x8DA5CB5B EQ PUSH2 0x307 JUMPI DUP1 PUSH4 0xBB0B6A53 EQ PUSH2 0x325 JUMPI DUP1 PUSH4 0xBD5C9AAF EQ PUSH2 0x352 JUMPI DUP1 PUSH4 0xCA5EB5E1 EQ PUSH2 0x365 JUMPI DUP1 PUSH4 0xD439A5C9 EQ PUSH2 0x385 JUMPI PUSH1 0x0 DUP1 REVERT JUMPDEST DUP1 PUSH4 0x59C730C3 GT PUSH2 0xFD JUMPI DUP1 PUSH4 0x59C730C3 EQ PUSH2 0x1E4 JUMPI DUP1 PUSH4 0x5E280F11 EQ PUSH2 0x211 JUMPI DUP1 PUSH4 0x715018A6 EQ PUSH2 0x25D JUMPI DUP1 PUSH4 0x7D25A05E EQ PUSH2 0x272 JUMPI DUP1 PUSH4 0x82413EAC EQ PUSH2 0x2AA JUMPI DUP1 PUSH4 0x8B42BABD EQ PUSH2 0x2DA JUMPI PUSH1 0x0 DUP1 REVERT JUMPDEST DUP1 PUSH4 0x13137D65 EQ PUSH2 0x13A JUMPI DUP1 PUSH4 0x17442B70 EQ PUSH2 0x14F JUMPI DUP1 PUSH4 0x33C56C75 EQ PUSH2 0x176 JUMPI DUP1 PUSH4 0x3400288B EQ PUSH2 0x1B1 JUMPI DUP1 PUSH4 0x57EFDEAA EQ PUSH2 0x1D1 JUMPI JUMPDEST PUSH1 0x0 DUP1 REVERT JUMPDEST PUSH2 0x14D PUSH2 0x148 CALLDATASIZE PUSH1 0x4 PUSH2 0x1A35 JUMP JUMPDEST PUSH2 0x4AC JUMP JUMPDEST STOP JUMPDEST CALLVALUE DUP1 ISZERO PUSH2 0x15B JUMPI PUSH1 0x0 DUP1 REVERT JUMPDEST POP PUSH1 0x40 DUP1 MLOAD PUSH1 0x1 DUP2 MSTORE PUSH1 0x2 PUSH1 0x20 DUP3 ADD MSTORE ADD JUMPDEST PUSH1 0x40 MLOAD DUP1 SWAP2 SUB SWAP1 RETURN JUMPDEST CALLVALUE DUP1 ISZERO PUSH2 0x182 JUMPI PUSH1 0x0 DUP1 REVERT JUMPDEST POP PUSH2 0x1A3 PUSH2 0x191 CALLDATASIZE PUSH1 0x4 PUSH2 0x1AED JUMP JUMPDEST PUSH1 0x3 PUSH1 0x20 MSTORE PUSH1 0x0 SWAP1 DUP2 MSTORE PUSH1 0x40 SWAP1 KECCAK256 SLOAD DUP2 JUMP JUMPDEST PUSH1 0x40 MLOAD SWAP1 DUP2 MSTORE PUSH1 0x20 ADD PUSH2 0x16D JUMP JUMPDEST CALLVALUE DUP1 ISZERO PUSH2 0x1BD JUMPI PUSH1 0x0 DUP1 REVERT JUMPDEST POP PUSH2 0x14D PUSH2 0x1CC CALLDATASIZE PUSH1 0x4 PUSH2 0x1B0F JUMP JUMPDEST PUSH2 0x56C JUMP JUMPDEST PUSH2 0x14D PUSH2 0x1DF CALLDATASIZE PUSH1 0x4 PUSH2 0x1B39 JUMP JUMPDEST PUSH2 0x582 JUMP JUMPDEST CALLVALUE DUP1 ISZERO PUSH2 0x1F0 JUMPI PUSH1 0x0 DUP1 REVERT JUMPDEST POP PUSH2 0x204 PUSH2 0x1FF CALLDATASIZE PUSH1 0x4 PUSH2 0x1AED JUMP JUMPDEST PUSH2 0x6BD JUMP JUMPDEST PUSH1 0x40 MLOAD PUSH2 0x16D SWAP2 SWAP1 PUSH2 0x1C7C JUMP JUMPDEST CALLVALUE DUP1 ISZERO PUSH2 0x21D JUMPI PUSH1 0x0 DUP1 REVERT JUMPDEST POP PUSH2 0x245 PUSH32 0x0 DUP2 JUMP JUMPDEST PUSH1 0x40 MLOAD PUSH1 0x1 PUSH1 0x1 PUSH1 0xA0 SHL SUB SWAP1 SWAP2 AND DUP2 MSTORE PUSH1 0x20 ADD PUSH2 0x16D JUMP JUMPDEST CALLVALUE DUP1 ISZERO PUSH2 0x269 JUMPI PUSH1 0x0 DUP1 REVERT JUMPDEST POP PUSH2 0x14D PUSH2 0x7E9 JUMP JUMPDEST CALLVALUE DUP1 ISZERO PUSH2 0x27E JUMPI PUSH1 0x0 DUP1 REVERT JUMPDEST POP PUSH2 0x292 PUSH2 0x28D CALLDATASIZE PUSH1 0x4 PUSH2 0x1B0F JUMP JUMPDEST PUSH2 0x7FD JUMP JUMPDEST PUSH1 0x40 MLOAD PUSH1 0x1 PUSH1 0x1 PUSH1 0x40 SHL SUB SWAP1 SWAP2 AND DUP2 MSTORE PUSH1 0x20 ADD PUSH2 0x16D JUMP JUMPDEST CALLVALUE DUP1 ISZERO PUSH2 0x2B6 JUMPI PUSH1 0x0 DUP1 REVERT JUMPDEST POP PUSH2 0x2CA PUSH2 0x2C5 CALLDATASIZE PUSH1 0x4 PUSH2 0x1C8F JUMP JUMPDEST PUSH2 0x806 JUMP JUMPDEST PUSH1 0x40 MLOAD SWAP1 ISZERO ISZERO DUP2 MSTORE PUSH1 0x20 ADD PUSH2 0x16D JUMP JUMPDEST CALLVALUE DUP1 ISZERO PUSH2 0x2E6 JUMPI PUSH1 0x0 DUP1 REVERT JUMPDEST POP PUSH2 0x1A3 PUSH2 0x2F5 CALLDATASIZE PUSH1 0x4 PUSH2 0x1AED JUMP JUMPDEST PUSH1 0x5 PUSH1 0x20 MSTORE PUSH1 0x0 SWAP1 DUP2 MSTORE PUSH1 0x40 SWAP1 KECCAK256 SLOAD DUP2 JUMP JUMPDEST CALLVALUE DUP1 ISZERO PUSH2 0x313 JUMPI PUSH1 0x0 DUP1 REVERT JUMPDEST POP PUSH1 0x0 SLOAD PUSH1 0x1 PUSH1 0x1 PUSH1 0xA0 SHL SUB AND PUSH2 0x245 JUMP JUMPDEST CALLVALUE DUP1 ISZERO PUSH2 0x331 JUMPI PUSH1 0x0 DUP1 REVERT JUMPDEST POP PUSH2 0x1A3 PUSH2 0x340 CALLDATASIZE PUSH1 0x4 PUSH2 0x1AED JUMP JUMPDEST PUSH1 0x1 PUSH1 0x20 MSTORE PUSH1 0x0 SWAP1 DUP2 MSTORE PUSH1 0x40 SWAP1 KECCAK256 SLOAD DUP2 JUMP JUMPDEST PUSH2 0x14D PUSH2 0x360 CALLDATASIZE PUSH1 0x4 PUSH2 0x1B39 JUMP JUMPDEST PUSH2 0x81B JUMP JUMPDEST CALLVALUE DUP1 ISZERO PUSH2 0x371 JUMPI PUSH1 0x0 DUP1 REVERT JUMPDEST POP PUSH2 0x14D PUSH2 0x380 CALLDATASIZE PUSH1 0x4 PUSH2 0x1CF5 JUMP JUMPDEST PUSH2 0xAA9 JUMP JUMPDEST CALLVALUE DUP1 ISZERO PUSH2 0x391 JUMPI PUSH1 0x0 DUP1 REVERT JUMPDEST POP PUSH2 0x14D PUSH2 0x3A0 CALLDATASIZE PUSH1 0x4 PUSH2 0x1E11 JUMP JUMPDEST PUSH2 0xB2F JUMP JUMPDEST CALLVALUE DUP1 ISZERO PUSH2 0x3B1 JUMPI PUSH1 0x0 DUP1 REVERT JUMPDEST POP PUSH2 0x3C5 PUSH2 0x3C0 CALLDATASIZE PUSH1 0x4 PUSH2 0x1EA4 JUMP JUMPDEST PUSH2 0xBF6 JUMP JUMPDEST PUSH1 0x40 MLOAD PUSH2 0x16D SWAP3 SWAP2 SWAP1 PUSH2 0x1F35 JUMP JUMPDEST CALLVALUE DUP1 ISZERO PUSH2 0x3DF JUMPI PUSH1 0x0 DUP1 REVERT JUMPDEST POP PUSH2 0x406 PUSH2 0x3EE CALLDATASIZE PUSH1 0x4 PUSH2 0x1F5D JUMP JUMPDEST PUSH1 0x4 PUSH1 0x20 MSTORE PUSH1 0x0 SWAP1 DUP2 MSTORE PUSH1 0x40 SWAP1 KECCAK256 SLOAD PUSH4 0xFFFFFFFF AND DUP2 JUMP JUMPDEST PUSH1 0x40 MLOAD PUSH4 0xFFFFFFFF SWAP1 SWAP2 AND DUP2 MSTORE PUSH1 0x20 ADD PUSH2 0x16D JUMP JUMPDEST CALLVALUE DUP1 ISZERO PUSH2 0x427 JUMPI PUSH1 0x0 DUP1 REVERT JUMPDEST POP PUSH2 0x14D PUSH2 0x436 CALLDATASIZE PUSH1 0x4 PUSH2 0x1CF5 JUMP JUMPDEST PUSH2 0xDDE JUMP JUMPDEST CALLVALUE DUP1 ISZERO PUSH2 0x447 JUMPI PUSH1 0x0 DUP1 REVERT JUMPDEST POP PUSH2 0x45B PUSH2 0x456 CALLDATASIZE PUSH1 0x4 PUSH2 0x1B0F JUMP JUMPDEST PUSH2 0xE57 JUMP JUMPDEST PUSH1 0x40 MLOAD PUSH2 0x16D SWAP6 SWAP5 SWAP4 SWAP3 SWAP2 SWAP1 PUSH2 0x1F76 JUMP JUMPDEST CALLVALUE DUP1 ISZERO PUSH2 0x478 JUMPI PUSH1 0x0 DUP1 REVERT JUMPDEST POP PUSH2 0x14D PUSH2 0x487 CALLDATASIZE PUSH1 0x4 PUSH2 0x1FAD JUMP JUMPDEST PUSH2 0xF32 JUMP JUMPDEST CALLVALUE DUP1 ISZERO PUSH2 0x498 JUMPI PUSH1 0x0 DUP1 REVERT JUMPDEST POP PUSH2 0x2CA PUSH2 0x4A7 CALLDATASIZE PUSH1 0x4 PUSH2 0x1FD9 JUMP JUMPDEST PUSH2 0xF6D JUMP JUMPDEST PUSH32 0x0 PUSH1 0x1 PUSH1 0x1 PUSH1 0xA0 SHL SUB AND CALLER EQ PUSH2 0x4FC JUMPI PUSH1 0x40 MLOAD PUSH4 0x91AC5E4F PUSH1 0xE0 SHL DUP2 MSTORE CALLER PUSH1 0x4 DUP3 ADD MSTORE PUSH1 0x24 ADD JUMPDEST PUSH1 0x40 MLOAD DUP1 SWAP2 SUB SWAP1 REVERT JUMPDEST PUSH1 0x20 DUP8 ADD DUP1 CALLDATALOAD SWAP1 PUSH2 0x516 SWAP1 PUSH2 0x511 SWAP1 DUP11 PUSH2 0x1AED JUMP JUMPDEST PUSH2 0xFA3 JUMP JUMPDEST EQ PUSH2 0x554 JUMPI PUSH2 0x528 PUSH1 0x20 DUP9 ADD DUP9 PUSH2 0x1AED JUMP JUMPDEST PUSH1 0x40 MLOAD PUSH4 0x309AFAF3 PUSH1 0xE2 SHL DUP2 MSTORE PUSH4 0xFFFFFFFF SWAP1 SWAP2 AND PUSH1 0x4 DUP3 ADD MSTORE PUSH1 0x20 DUP9 ADD CALLDATALOAD PUSH1 0x24 DUP3 ADD MSTORE PUSH1 0x44 ADD PUSH2 0x4F3 JUMP JUMPDEST PUSH2 0x563 DUP8 DUP8 DUP8 DUP8 DUP8 DUP8 DUP8 PUSH2 0xFDF JUMP JUMPDEST POP POP POP POP POP POP POP JUMP JUMPDEST PUSH2 0x574 PUSH2 0x11C1 JUMP JUMPDEST PUSH2 0x57E DUP3 DUP3 PUSH2 0x121B JUMP JUMPDEST POP POP JUMP JUMPDEST CHAINID PUSH1 0x0 SWAP1 DUP2 MSTORE PUSH1 0x4 PUSH1 0x20 MSTORE PUSH1 0x40 DUP2 KECCAK256 SLOAD PUSH4 0xFFFFFFFF AND SWAP1 SUB PUSH2 0x5E6 JUMPI PUSH1 0x40 MLOAD PUSH3 0x461BCD PUSH1 0xE5 SHL DUP2 MSTORE PUSH1 0x20 PUSH1 0x4 DUP3 ADD MSTORE PUSH1 0x1B PUSH1 0x24 DUP3 ADD MSTORE PUSH32 0x536F7572636520636861696E206E6F7420636F6E666967757265640000000000 PUSH1 0x44 DUP3 ADD MSTORE PUSH1 0x64 ADD PUSH2 0x4F3 JUMP JUMPDEST CHAINID PUSH1 0x0 SWAP1 DUP2 MSTORE PUSH1 0x4 PUSH1 0x20 SWAP1 DUP2 MSTORE PUSH1 0x40 DUP1 DUP4 KECCAK256 SLOAD PUSH4 0xFFFFFFFF AND DUP1 DUP5 MSTORE PUSH1 0x2 DUP4 MSTORE DUP2 DUP5 KECCAK256 SWAP2 MLOAD SWAP1 SWAP4 SWAP3 PUSH2 0x61C SWAP3 DUP6 SWAP3 SWAP1 SWAP2 ADD PUSH2 0x2029 JUMP JUMPDEST PUSH1 0x40 DUP1 MLOAD PUSH1 0x1F NOT DUP2 DUP5 SUB ADD DUP2 MSTORE DUP3 DUP3 ADD DUP3 MSTORE CALLVALUE DUP4 MSTORE PUSH1 0x0 PUSH1 0x20 DUP5 DUP2 ADD SWAP2 SWAP1 SWAP2 MSTORE DUP3 MLOAD DUP1 DUP5 ADD SWAP1 SWAP4 MSTORE PUSH1 0x1D DUP4 MSTORE PUSH32 0x66726F6D20636F6E7472616374206265666F7265206C7A53656E643A20000000 SWAP1 DUP4 ADD MSTORE SWAP3 POP PUSH2 0x678 SWAP1 PUSH2 0x1270 JUMP JUMPDEST PUSH2 0x563 DUP7 DUP4 DUP8 DUP8 DUP1 DUP1 PUSH1 0x1F ADD PUSH1 0x20 DUP1 SWAP2 DIV MUL PUSH1 0x20 ADD PUSH1 0x40 MLOAD SWAP1 DUP2 ADD PUSH1 0x40 MSTORE DUP1 SWAP4 SWAP3 SWAP2 SWAP1 DUP2 DUP2 MSTORE PUSH1 0x20 ADD DUP4 DUP4 DUP1 DUP3 DUP5 CALLDATACOPY PUSH1 0x0 SWAP3 ADD SWAP2 SWAP1 SWAP2 MSTORE POP DUP8 SWAP3 POP CALLER SWAP2 POP PUSH2 0x12B3 SWAP1 POP JUMP JUMPDEST PUSH4 0xFFFFFFFF DUP2 AND PUSH1 0x0 SWAP1 DUP2 MSTORE PUSH1 0x2 PUSH1 0x20 SWAP1 DUP2 MSTORE PUSH1 0x40 DUP1 DUP4 KECCAK256 DUP1 SLOAD DUP3 MLOAD DUP2 DUP6 MUL DUP2 ADD DUP6 ADD SWAP1 SWAP4 MSTORE DUP1 DUP4 MSTORE PUSH1 0x60 SWAP5 SWAP3 SWAP4 SWAP2 SWAP3 SWAP1 SWAP2 DUP5 ADD JUMPDEST DUP3 DUP3 LT ISZERO PUSH2 0x7DE JUMPI DUP4 DUP3 SWAP1 PUSH1 0x0 MSTORE PUSH1 0x20 PUSH1 0x0 KECCAK256 SWAP1 PUSH1 0x5 MUL ADD PUSH1 0x40 MLOAD DUP1 PUSH1 0xA0 ADD PUSH1 0x40 MSTORE SWAP1 DUP2 PUSH1 0x0 DUP3 ADD DUP1 SLOAD PUSH2 0x725 SWAP1 PUSH2 0x1FF5 JUMP JUMPDEST DUP1 PUSH1 0x1F ADD PUSH1 0x20 DUP1 SWAP2 DIV MUL PUSH1 0x20 ADD PUSH1 0x40 MLOAD SWAP1 DUP2 ADD PUSH1 0x40 MSTORE DUP1 SWAP3 SWAP2 SWAP1 DUP2 DUP2 MSTORE PUSH1 0x20 ADD DUP3 DUP1 SLOAD PUSH2 0x751 SWAP1 PUSH2 0x1FF5 JUMP JUMPDEST DUP1 ISZERO PUSH2 0x79E JUMPI DUP1 PUSH1 0x1F LT PUSH2 0x773 JUMPI PUSH2 0x100 DUP1 DUP4 SLOAD DIV MUL DUP4 MSTORE SWAP2 PUSH1 0x20 ADD SWAP2 PUSH2 0x79E JUMP JUMPDEST DUP3 ADD SWAP2 SWAP1 PUSH1 0x0 MSTORE PUSH1 0x20 PUSH1 0x0 KECCAK256 SWAP1 JUMPDEST DUP2 SLOAD DUP2 MSTORE SWAP1 PUSH1 0x1 ADD SWAP1 PUSH1 0x20 ADD DUP1 DUP4 GT PUSH2 0x781 JUMPI DUP3 SWAP1 SUB PUSH1 0x1F AND DUP3 ADD SWAP2 JUMPDEST POP POP POP POP POP DUP2 MSTORE PUSH1 0x20 ADD PUSH1 0x1 DUP3 ADD SLOAD DUP2 MSTORE PUSH1 0x20 ADD PUSH1 0x2 DUP3 ADD SLOAD DUP2 MSTORE PUSH1 0x20 ADD PUSH1 0x3 DUP3 ADD SLOAD DUP2 MSTORE PUSH1 0x20 ADD PUSH1 0x4 DUP3 ADD SLOAD DUP2 MSTORE POP POP DUP2 MSTORE PUSH1 0x20 ADD SWAP1 PUSH1 0x1 ADD SWAP1 PUSH2 0x6F2 JUMP JUMPDEST POP POP POP POP SWAP1 POP SWAP2 SWAP1 POP JUMP JUMPDEST PUSH2 0x7F1 PUSH2 0x11C1 JUMP JUMPDEST PUSH2 0x7FB PUSH1 0x0 PUSH2 0x13BE JUMP JUMPDEST JUMP JUMPDEST PUSH1 0x0 JUMPDEST SWAP3 SWAP2 POP POP JUMP JUMPDEST PUSH1 0x1 PUSH1 0x1 PUSH1 0xA0 SHL SUB DUP2 AND ADDRESS EQ JUMPDEST SWAP5 SWAP4 POP POP POP POP JUMP JUMPDEST CHAINID PUSH1 0x0 SWAP1 DUP2 MSTORE PUSH1 0x4 PUSH1 0x20 MSTORE PUSH1 0x40 DUP2 KECCAK256 SLOAD PUSH4 0xFFFFFFFF AND SWAP1 SUB PUSH2 0x87F JUMPI PUSH1 0x40 MLOAD PUSH3 0x461BCD PUSH1 0xE5 SHL DUP2 MSTORE PUSH1 0x20 PUSH1 0x4 DUP3 ADD MSTORE PUSH1 0x1B PUSH1 0x24 DUP3 ADD MSTORE PUSH32 0x536F7572636520636861696E206E6F7420636F6E666967757265640000000000 PUSH1 0x44 DUP3 ADD MSTORE PUSH1 0x64 ADD PUSH2 0x4F3 JUMP JUMPDEST CHAINID PUSH1 0x0 SWAP1 DUP2 MSTORE PUSH1 0x4 PUSH1 0x20 SWAP1 DUP2 MSTORE PUSH1 0x40 DUP1 DUP4 KECCAK256 SLOAD PUSH4 0xFFFFFFFF AND DUP1 DUP5 MSTORE PUSH1 0x2 DUP4 MSTORE DUP2 DUP5 KECCAK256 DUP1 SLOAD DUP4 MLOAD DUP2 DUP7 MUL DUP2 ADD DUP7 ADD SWAP1 SWAP5 MSTORE DUP1 DUP5 MSTORE SWAP2 SWAP5 SWAP4 SWAP1 SWAP2 SWAP1 DUP5 SWAP1 DUP5 ADD JUMPDEST DUP3 DUP3 LT ISZERO PUSH2 0x9AA JUMPI DUP4 DUP3 SWAP1 PUSH1 0x0 MSTORE PUSH1 0x20 PUSH1 0x0 KECCAK256 SWAP1 PUSH1 0x5 MUL ADD PUSH1 0x40 MLOAD DUP1 PUSH1 0xA0 ADD PUSH1 0x40 MSTORE SWAP1 DUP2 PUSH1 0x0 DUP3 ADD DUP1 SLOAD PUSH2 0x8F1 SWAP1 PUSH2 0x1FF5 JUMP JUMPDEST DUP1 PUSH1 0x1F ADD PUSH1 0x20 DUP1 SWAP2 DIV MUL PUSH1 0x20 ADD PUSH1 0x40 MLOAD SWAP1 DUP2 ADD PUSH1 0x40 MSTORE DUP1 SWAP3 SWAP2 SWAP1 DUP2 DUP2 MSTORE PUSH1 0x20 ADD DUP3 DUP1 SLOAD PUSH2 0x91D SWAP1 PUSH2 0x1FF5 JUMP JUMPDEST DUP1 ISZERO PUSH2 0x96A JUMPI DUP1 PUSH1 0x1F LT PUSH2 0x93F JUMPI PUSH2 0x100 DUP1 DUP4 SLOAD DIV MUL DUP4 MSTORE SWAP2 PUSH1 0x20 ADD SWAP2 PUSH2 0x96A JUMP JUMPDEST DUP3 ADD SWAP2 SWAP1 PUSH1 0x0 MSTORE PUSH1 0x20 PUSH1 0x0 KECCAK256 SWAP1 JUMPDEST DUP2 SLOAD DUP2 MSTORE SWAP1 PUSH1 0x1 ADD SWAP1 PUSH1 0x20 ADD DUP1 DUP4 GT PUSH2 0x94D JUMPI DUP3 SWAP1 SUB PUSH1 0x1F AND DUP3 ADD SWAP2 JUMPDEST POP POP POP POP POP DUP2 MSTORE PUSH1 0x20 ADD PUSH1 0x1 DUP3 ADD SLOAD DUP2 MSTORE PUSH1 0x20 ADD PUSH1 0x2 DUP3 ADD SLOAD DUP2 MSTORE PUSH1 0x20 ADD PUSH1 0x3 DUP3 ADD SLOAD DUP2 MSTORE PUSH1 0x20 ADD PUSH1 0x4 DUP3 ADD SLOAD DUP2 MSTORE POP POP DUP2 MSTORE PUSH1 0x20 ADD SWAP1 PUSH1 0x1 ADD SWAP1 PUSH2 0x8BE JUMP JUMPDEST POP POP POP POP SWAP1 POP PUSH1 0x0 JUMPDEST DUP2 MLOAD DUP2 LT ISZERO PUSH2 0xA24 JUMPI PUSH1 0x64 DUP3 DUP3 DUP2 MLOAD DUP2 LT PUSH2 0x9D0 JUMPI PUSH2 0x9D0 PUSH2 0x2136 JUMP JUMPDEST PUSH1 0x20 MUL PUSH1 0x20 ADD ADD MLOAD PUSH1 0x20 ADD MLOAD PUSH1 0x69 PUSH2 0x9E8 SWAP2 SWAP1 PUSH2 0x2162 JUMP JUMPDEST PUSH2 0x9F2 SWAP2 SWAP1 PUSH2 0x2179 JUMP JUMPDEST DUP3 DUP3 DUP2 MLOAD DUP2 LT PUSH2 0xA04 JUMPI PUSH2 0xA04 PUSH2 0x2136 JUMP JUMPDEST PUSH1 0x20 SWAP1 DUP2 MUL SWAP2 SWAP1 SWAP2 ADD DUP2 ADD MLOAD ADD MSTORE DUP1 PUSH2 0xA1C DUP2 PUSH2 0x219B JUMP JUMPDEST SWAP2 POP POP PUSH2 0x9B3 JUMP JUMPDEST POP PUSH1 0x0 DUP3 DUP3 PUSH1 0x40 MLOAD PUSH1 0x20 ADD PUSH2 0xA3A SWAP3 SWAP2 SWAP1 PUSH2 0x21B4 JUMP JUMPDEST PUSH1 0x40 DUP1 MLOAD PUSH1 0x1F NOT DUP2 DUP5 SUB ADD DUP2 MSTORE DUP3 DUP3 ADD DUP3 MSTORE CALLVALUE DUP4 MSTORE PUSH1 0x0 PUSH1 0x20 DUP5 DUP2 ADD SWAP2 SWAP1 SWAP2 MSTORE DUP3 MLOAD PUSH1 0x1F DUP10 ADD DUP3 SWAP1 DIV DUP3 MUL DUP2 ADD DUP3 ADD SWAP1 SWAP4 MSTORE DUP8 DUP4 MSTORE SWAP1 SWAP4 POP PUSH2 0xA9F SWAP2 DUP10 SWAP2 DUP6 SWAP2 SWAP1 DUP11 SWAP1 DUP11 SWAP1 DUP2 SWAP1 DUP5 ADD DUP4 DUP3 DUP1 DUP3 DUP5 CALLDATACOPY PUSH1 0x0 SWAP3 ADD SWAP2 SWAP1 SWAP2 MSTORE POP DUP8 SWAP3 POP CALLER SWAP2 POP PUSH2 0x12B3 SWAP1 POP JUMP JUMPDEST POP POP POP POP POP POP POP POP JUMP JUMPDEST PUSH2 0xAB1 PUSH2 0x11C1 JUMP JUMPDEST PUSH1 0x40 MLOAD PUSH4 0xCA5EB5E1 PUSH1 0xE0 SHL DUP2 MSTORE PUSH1 0x1 PUSH1 0x1 PUSH1 0xA0 SHL SUB DUP3 DUP2 AND PUSH1 0x4 DUP4 ADD MSTORE PUSH32 0x0 AND SWAP1 PUSH4 0xCA5EB5E1 SWAP1 PUSH1 0x24 ADD PUSH1 0x0 PUSH1 0x40 MLOAD DUP1 DUP4 SUB DUP2 PUSH1 0x0 DUP8 DUP1 EXTCODESIZE ISZERO DUP1 ISZERO PUSH2 0xB14 JUMPI PUSH1 0x0 DUP1 REVERT JUMPDEST POP GAS CALL ISZERO DUP1 ISZERO PUSH2 0xB28 JUMPI RETURNDATASIZE PUSH1 0x0 DUP1 RETURNDATACOPY RETURNDATASIZE PUSH1 0x0 REVERT JUMPDEST POP POP POP POP POP JUMP JUMPDEST PUSH2 0xB37 PUSH2 0x11C1 JUMP JUMPDEST PUSH4 0xFFFFFFFF DUP7 AND PUSH1 0x0 SWAP1 DUP2 MSTORE PUSH1 0x2 PUSH1 0x20 SWAP1 DUP2 MSTORE PUSH1 0x40 DUP1 DUP4 KECCAK256 DUP2 MLOAD PUSH1 0xA0 DUP2 ADD DUP4 MSTORE DUP10 DUP2 MSTORE DUP1 DUP5 ADD DUP10 SWAP1 MSTORE SWAP2 DUP3 ADD DUP8 SWAP1 MSTORE PUSH1 0x60 DUP3 ADD DUP7 SWAP1 MSTORE PUSH1 0x80 DUP3 ADD DUP6 SWAP1 MSTORE DUP1 SLOAD PUSH1 0x1 DUP2 ADD DUP3 SSTORE SWAP1 DUP5 MSTORE SWAP2 SWAP1 SWAP3 KECCAK256 DUP3 MLOAD PUSH1 0x5 SWAP1 SWAP3 MUL ADD SWAP1 DUP2 SWAP1 PUSH2 0xB98 SWAP1 DUP3 PUSH2 0x2221 JUMP JUMPDEST POP PUSH1 0x20 DUP3 DUP2 ADD MLOAD PUSH1 0x1 DUP4 ADD SSTORE PUSH1 0x40 DUP1 DUP5 ADD MLOAD PUSH1 0x2 DUP5 ADD SSTORE PUSH1 0x60 DUP5 ADD MLOAD PUSH1 0x3 DUP1 DUP6 ADD SWAP2 SWAP1 SWAP2 SSTORE PUSH1 0x80 SWAP1 SWAP5 ADD MLOAD PUSH1 0x4 SWAP1 SWAP4 ADD SWAP3 SWAP1 SWAP3 SSTORE PUSH4 0xFFFFFFFF DUP10 AND PUSH1 0x0 SWAP1 DUP2 MSTORE SWAP3 SWAP1 MSTORE DUP2 KECCAK256 DUP1 SLOAD SWAP2 PUSH2 0xBE9 DUP4 PUSH2 0x219B JUMP JUMPDEST SWAP2 SWAP1 POP SSTORE POP POP POP POP POP POP POP JUMP JUMPDEST PUSH2 0xC28 PUSH1 0x40 MLOAD DUP1 PUSH1 0xA0 ADD PUSH1 0x40 MSTORE DUP1 PUSH1 0x60 DUP2 MSTORE PUSH1 0x20 ADD PUSH1 0x0 DUP2 MSTORE PUSH1 0x20 ADD PUSH1 0x0 DUP2 MSTORE PUSH1 0x20 ADD PUSH1 0x0 DUP2 MSTORE PUSH1 0x20 ADD PUSH1 0x0 DUP2 MSTORE POP SWAP1 JUMP JUMPDEST PUSH1 0x0 DUP1 DUP1 JUMPDEST DUP5 MLOAD DUP2 LT ISZERO PUSH2 0xDD7 JUMPI PUSH1 0x0 PUSH2 0xD88 PUSH1 0x2 PUSH1 0x0 DUP9 DUP6 DUP2 MLOAD DUP2 LT PUSH2 0xC51 JUMPI PUSH2 0xC51 PUSH2 0x2136 JUMP JUMPDEST PUSH1 0x20 MUL PUSH1 0x20 ADD ADD MLOAD PUSH4 0xFFFFFFFF AND PUSH4 0xFFFFFFFF AND DUP2 MSTORE PUSH1 0x20 ADD SWAP1 DUP2 MSTORE PUSH1 0x20 ADD PUSH1 0x0 KECCAK256 DUP1 SLOAD DUP1 PUSH1 0x20 MUL PUSH1 0x20 ADD PUSH1 0x40 MLOAD SWAP1 DUP2 ADD PUSH1 0x40 MSTORE DUP1 SWAP3 SWAP2 SWAP1 DUP2 DUP2 MSTORE PUSH1 0x20 ADD PUSH1 0x0 SWAP1 JUMPDEST DUP3 DUP3 LT ISZERO PUSH2 0xD7F JUMPI DUP4 DUP3 SWAP1 PUSH1 0x0 MSTORE PUSH1 0x20 PUSH1 0x0 KECCAK256 SWAP1 PUSH1 0x5 MUL ADD PUSH1 0x40 MLOAD DUP1 PUSH1 0xA0 ADD PUSH1 0x40 MSTORE SWAP1 DUP2 PUSH1 0x0 DUP3 ADD DUP1 SLOAD PUSH2 0xCC6 SWAP1 PUSH2 0x1FF5 JUMP JUMPDEST DUP1 PUSH1 0x1F ADD PUSH1 0x20 DUP1 SWAP2 DIV MUL PUSH1 0x20 ADD PUSH1 0x40 MLOAD SWAP1 DUP2 ADD PUSH1 0x40 MSTORE DUP1 SWAP3 SWAP2 SWAP1 DUP2 DUP2 MSTORE PUSH1 0x20 ADD DUP3 DUP1 SLOAD PUSH2 0xCF2 SWAP1 PUSH2 0x1FF5 JUMP JUMPDEST DUP1 ISZERO PUSH2 0xD3F JUMPI DUP1 PUSH1 0x1F LT PUSH2 0xD14 JUMPI PUSH2 0x100 DUP1 DUP4 SLOAD DIV MUL DUP4 MSTORE SWAP2 PUSH1 0x20 ADD SWAP2 PUSH2 0xD3F JUMP JUMPDEST DUP3 ADD SWAP2 SWAP1 PUSH1 0x0 MSTORE PUSH1 0x20 PUSH1 0x0 KECCAK256 SWAP1 JUMPDEST DUP2 SLOAD DUP2 MSTORE SWAP1 PUSH1 0x1 ADD SWAP1 PUSH1 0x20 ADD DUP1 DUP4 GT PUSH2 0xD22 JUMPI DUP3 SWAP1 SUB PUSH1 0x1F AND DUP3 ADD SWAP2 JUMPDEST POP POP POP POP POP DUP2 MSTORE PUSH1 0x20 ADD PUSH1 0x1 DUP3 ADD SLOAD DUP2 MSTORE PUSH1 0x20 ADD PUSH1 0x2 DUP3 ADD SLOAD DUP2 MSTORE PUSH1 0x20 ADD PUSH1 0x3 DUP3 ADD SLOAD DUP2 MSTORE PUSH1 0x20 ADD PUSH1 0x4 DUP3 ADD SLOAD DUP2 MSTORE POP POP DUP2 MSTORE PUSH1 0x20 ADD SWAP1 PUSH1 0x1 ADD SWAP1 PUSH2 0xC93 JUMP JUMPDEST POP POP POP POP PUSH2 0x140E JUMP JUMPDEST SWAP1 POP PUSH1 0x0 PUSH2 0xD95 DUP3 PUSH2 0x1527 JUMP JUMPDEST SWAP1 POP DUP4 DUP2 GT ISZERO PUSH2 0xDC2 JUMPI DUP1 SWAP4 POP DUP2 SWAP6 POP DUP7 DUP4 DUP2 MLOAD DUP2 LT PUSH2 0xDB7 JUMPI PUSH2 0xDB7 PUSH2 0x2136 JUMP JUMPDEST PUSH1 0x20 MUL PUSH1 0x20 ADD ADD MLOAD SWAP5 POP JUMPDEST POP POP DUP1 DUP1 PUSH2 0xDCF SWAP1 PUSH2 0x219B JUMP JUMPDEST SWAP2 POP POP PUSH2 0xC2D JUMP JUMPDEST POP POP SWAP2 POP SWAP2 JUMP JUMPDEST PUSH2 0xDE6 PUSH2 0x11C1 JUMP JUMPDEST PUSH1 0x1 PUSH1 0x1 PUSH1 0xA0 SHL SUB DUP2 AND PUSH2 0xE4B JUMPI PUSH1 0x40 MLOAD PUSH3 0x461BCD PUSH1 0xE5 SHL DUP2 MSTORE PUSH1 0x20 PUSH1 0x4 DUP3 ADD MSTORE PUSH1 0x26 PUSH1 0x24 DUP3 ADD MSTORE PUSH32 0x4F776E61626C653A206E6577206F776E657220697320746865207A65726F2061 PUSH1 0x44 DUP3 ADD MSTORE PUSH6 0x646472657373 PUSH1 0xD0 SHL PUSH1 0x64 DUP3 ADD MSTORE PUSH1 0x84 ADD PUSH2 0x4F3 JUMP JUMPDEST PUSH2 0xE54 DUP2 PUSH2 0x13BE JUMP JUMPDEST POP JUMP JUMPDEST PUSH1 0x2 PUSH1 0x20 MSTORE DUP2 PUSH1 0x0 MSTORE PUSH1 0x40 PUSH1 0x0 KECCAK256 DUP2 DUP2 SLOAD DUP2 LT PUSH2 0xE73 JUMPI PUSH1 0x0 DUP1 REVERT JUMPDEST SWAP1 PUSH1 0x0 MSTORE PUSH1 0x20 PUSH1 0x0 KECCAK256 SWAP1 PUSH1 0x5 MUL ADD PUSH1 0x0 SWAP2 POP SWAP2 POP POP DUP1 PUSH1 0x0 ADD DUP1 SLOAD PUSH2 0xE97 SWAP1 PUSH2 0x1FF5 JUMP JUMPDEST DUP1 PUSH1 0x1F ADD PUSH1 0x20 DUP1 SWAP2 DIV MUL PUSH1 0x20 ADD PUSH1 0x40 MLOAD SWAP1 DUP2 ADD PUSH1 0x40 MSTORE DUP1 SWAP3 SWAP2 SWAP1 DUP2 DUP2 MSTORE PUSH1 0x20 ADD DUP3 DUP1 SLOAD PUSH2 0xEC3 SWAP1 PUSH2 0x1FF5 JUMP JUMPDEST DUP1 ISZERO PUSH2 0xF10 JUMPI DUP1 PUSH1 0x1F LT PUSH2 0xEE5 JUMPI PUSH2 0x100 DUP1 DUP4 SLOAD DIV MUL DUP4 MSTORE SWAP2 PUSH1 0x20 ADD SWAP2 PUSH2 0xF10 JUMP JUMPDEST DUP3 ADD SWAP2 SWAP1 PUSH1 0x0 MSTORE PUSH1 0x20 PUSH1 0x0 KECCAK256 SWAP1 JUMPDEST DUP2 SLOAD DUP2 MSTORE SWAP1 PUSH1 0x1 ADD SWAP1 PUSH1 0x20 ADD DUP1 DUP4 GT PUSH2 0xEF3 JUMPI DUP3 SWAP1 SUB PUSH1 0x1F AND DUP3 ADD SWAP2 JUMPDEST POP POP POP POP POP SWAP1 DUP1 PUSH1 0x1 ADD SLOAD SWAP1 DUP1 PUSH1 0x2 ADD SLOAD SWAP1 DUP1 PUSH1 0x3 ADD SLOAD SWAP1 DUP1 PUSH1 0x4 ADD SLOAD SWAP1 POP DUP6 JUMP JUMPDEST PUSH2 0xF3A PUSH2 0x11C1 JUMP JUMPDEST PUSH1 0x0 DUP3 DUP2 MSTORE PUSH1 0x4 PUSH1 0x20 SWAP1 DUP2 MSTORE PUSH1 0x40 DUP1 DUP4 KECCAK256 DUP1 SLOAD PUSH4 0xFFFFFFFF SWAP1 SWAP6 AND PUSH4 0xFFFFFFFF NOT SWAP1 SWAP6 AND DUP6 OR SWAP1 SSTORE SWAP3 DUP3 MSTORE PUSH1 0x5 SWAP1 MSTORE KECCAK256 SSTORE JUMP JUMPDEST PUSH1 0x0 PUSH1 0x20 DUP3 ADD DUP1 CALLDATALOAD SWAP1 PUSH1 0x1 SWAP1 DUP4 SWAP1 PUSH2 0xF85 SWAP1 DUP7 PUSH2 0x1AED JUMP JUMPDEST PUSH4 0xFFFFFFFF AND DUP2 MSTORE PUSH1 0x20 DUP2 ADD SWAP2 SWAP1 SWAP2 MSTORE PUSH1 0x40 ADD PUSH1 0x0 KECCAK256 SLOAD EQ SWAP3 SWAP2 POP POP JUMP JUMPDEST PUSH4 0xFFFFFFFF DUP2 AND PUSH1 0x0 SWAP1 DUP2 MSTORE PUSH1 0x1 PUSH1 0x20 MSTORE PUSH1 0x40 DUP2 KECCAK256 SLOAD DUP1 PUSH2 0x800 JUMPI PUSH1 0x40 MLOAD PUSH4 0xF6FF4FB7 PUSH1 0xE0 SHL DUP2 MSTORE PUSH4 0xFFFFFFFF DUP5 AND PUSH1 0x4 DUP3 ADD MSTORE PUSH1 0x24 ADD PUSH2 0x4F3 JUMP JUMPDEST PUSH2 0x1011 PUSH1 0x40 MLOAD DUP1 PUSH1 0x40 ADD PUSH1 0x40 MSTORE DUP1 PUSH1 0x11 DUP2 MSTORE PUSH1 0x20 ADD PUSH17 0x17DB1E949958D95A5D994818D85B1B1959 PUSH1 0x7A SHL DUP2 MSTORE POP PUSH2 0x1270 JUMP JUMPDEST PUSH1 0x0 DUP1 PUSH2 0x1020 DUP7 DUP9 ADD DUP9 PUSH2 0x22E0 JUMP JUMPDEST SWAP2 POP SWAP2 POP PUSH2 0x1069 PUSH1 0x40 MLOAD DUP1 PUSH1 0x40 ADD PUSH1 0x40 MSTORE DUP1 PUSH1 0x18 DUP2 MSTORE PUSH1 0x20 ADD PUSH32 0x4465636F646564206D6573736167652E207372634569643A0000000000000000 DUP2 MSTORE POP DUP4 PUSH4 0xFFFFFFFF AND PUSH2 0x1572 JUMP JUMPDEST PUSH2 0x10A1 PUSH1 0x40 MLOAD DUP1 PUSH1 0x40 ADD PUSH1 0x40 MSTORE DUP1 PUSH1 0x15 DUP2 MSTORE PUSH1 0x20 ADD PUSH21 0x273AB6B132B91037B31039BA3930BA32B3B4B2B99D PUSH1 0x59 SHL DUP2 MSTORE POP DUP3 MLOAD PUSH2 0x1572 JUMP JUMPDEST PUSH1 0x0 PUSH2 0x10AC DUP3 PUSH2 0x140E JUMP JUMPDEST SWAP1 POP PUSH2 0x10F1 PUSH1 0x40 MLOAD DUP1 PUSH1 0x40 ADD PUSH1 0x40 MSTORE DUP1 PUSH1 0x1A DUP2 MSTORE PUSH1 0x20 ADD PUSH32 0x4265737420737472617465677920666F756E642E204E616D653A000000000000 DUP2 MSTORE POP DUP3 PUSH1 0x0 ADD MLOAD PUSH2 0x15B7 JUMP JUMPDEST PUSH2 0x1129 PUSH1 0x40 MLOAD DUP1 PUSH1 0x40 ADD PUSH1 0x40 MSTORE DUP1 PUSH1 0x12 DUP2 MSTORE PUSH1 0x20 ADD PUSH18 0x2132B9BA1039BA3930BA32B3BC9020A82C9D PUSH1 0x71 SHL DUP2 MSTORE POP DUP3 PUSH1 0x20 ADD MLOAD PUSH2 0x1572 JUMP JUMPDEST PUSH32 0xEF687003A6D93E74ED8BFDDA320A959E343AA949FCBB929BB89581A31F29B613 PUSH2 0x1157 PUSH1 0x20 DUP13 ADD DUP13 PUSH2 0x1AED JUMP JUMPDEST DUP3 MLOAD PUSH1 0x20 DUP5 ADD MLOAD PUSH1 0x40 MLOAD PUSH2 0x116F SWAP4 SWAP3 CHAINID SWAP3 SWAP1 SWAP2 PUSH2 0x2404 JUMP JUMPDEST PUSH1 0x40 MLOAD DUP1 SWAP2 SUB SWAP1 LOG1 PUSH2 0x11B5 PUSH1 0x40 MLOAD DUP1 PUSH1 0x40 ADD PUSH1 0x40 MSTORE DUP1 PUSH1 0x1F DUP2 MSTORE PUSH1 0x20 ADD PUSH32 0x53747261746567794F7074696D697A6564206576656E7420656D697474656400 DUP2 MSTORE POP PUSH2 0x1270 JUMP JUMPDEST POP POP POP POP POP POP POP POP POP POP JUMP JUMPDEST PUSH1 0x0 SLOAD PUSH1 0x1 PUSH1 0x1 PUSH1 0xA0 SHL SUB AND CALLER EQ PUSH2 0x7FB JUMPI PUSH1 0x40 MLOAD PUSH3 0x461BCD PUSH1 0xE5 SHL DUP2 MSTORE PUSH1 0x20 PUSH1 0x4 DUP3 ADD DUP2 SWAP1 MSTORE PUSH1 0x24 DUP3 ADD MSTORE PUSH32 0x4F776E61626C653A2063616C6C6572206973206E6F7420746865206F776E6572 PUSH1 0x44 DUP3 ADD MSTORE PUSH1 0x64 ADD PUSH2 0x4F3 JUMP JUMPDEST PUSH4 0xFFFFFFFF DUP3 AND PUSH1 0x0 DUP2 DUP2 MSTORE PUSH1 0x1 PUSH1 0x20 SWAP1 DUP2 MSTORE PUSH1 0x40 SWAP2 DUP3 SWAP1 KECCAK256 DUP5 SWAP1 SSTORE DUP2 MLOAD SWAP3 DUP4 MSTORE DUP3 ADD DUP4 SWAP1 MSTORE PUSH32 0x238399D427B947898EDB290F5FF0F9109849B1C3BA196A42E35F00C50A54B98B SWAP2 ADD PUSH1 0x40 MLOAD DUP1 SWAP2 SUB SWAP1 LOG1 POP POP JUMP JUMPDEST PUSH2 0xE54 DUP2 PUSH1 0x40 MLOAD PUSH1 0x24 ADD PUSH2 0x1284 SWAP2 SWAP1 PUSH2 0x243E JUMP JUMPDEST PUSH1 0x40 DUP1 MLOAD PUSH1 0x1F NOT DUP2 DUP5 SUB ADD DUP2 MSTORE SWAP2 SWAP1 MSTORE PUSH1 0x20 DUP2 ADD DUP1 MLOAD PUSH1 0x1 PUSH1 0x1 PUSH1 0xE0 SHL SUB AND PUSH4 0x104C13EB PUSH1 0xE2 SHL OR SWAP1 MSTORE PUSH2 0x15F8 JUMP JUMPDEST PUSH2 0x12BB PUSH2 0x1979 JUMP JUMPDEST PUSH1 0x0 PUSH2 0x12CA DUP5 PUSH1 0x0 ADD MLOAD PUSH2 0x1601 JUMP JUMPDEST PUSH1 0x20 DUP6 ADD MLOAD SWAP1 SWAP2 POP ISZERO PUSH2 0x12E4 JUMPI PUSH2 0x12E4 DUP5 PUSH1 0x20 ADD MLOAD PUSH2 0x1629 JUMP JUMPDEST PUSH32 0x0 PUSH1 0x1 PUSH1 0x1 PUSH1 0xA0 SHL SUB AND PUSH4 0x2637A450 DUP3 PUSH1 0x40 MLOAD DUP1 PUSH1 0xA0 ADD PUSH1 0x40 MSTORE DUP1 DUP12 PUSH4 0xFFFFFFFF AND DUP2 MSTORE PUSH1 0x20 ADD PUSH2 0x1334 DUP13 PUSH2 0xFA3 JUMP JUMPDEST DUP2 MSTORE PUSH1 0x20 ADD DUP11 DUP2 MSTORE PUSH1 0x20 ADD DUP10 DUP2 MSTORE PUSH1 0x20 ADD PUSH1 0x0 DUP10 PUSH1 0x20 ADD MLOAD GT ISZERO ISZERO DUP2 MSTORE POP DUP7 PUSH1 0x40 MLOAD DUP5 PUSH4 0xFFFFFFFF AND PUSH1 0xE0 SHL DUP2 MSTORE PUSH1 0x4 ADD PUSH2 0x1370 SWAP3 SWAP2 SWAP1 PUSH2 0x2451 JUMP JUMPDEST PUSH1 0x80 PUSH1 0x40 MLOAD DUP1 DUP4 SUB DUP2 DUP6 DUP9 GAS CALL ISZERO DUP1 ISZERO PUSH2 0x138E JUMPI RETURNDATASIZE PUSH1 0x0 DUP1 RETURNDATACOPY RETURNDATASIZE PUSH1 0x0 REVERT JUMPDEST POP POP POP POP POP PUSH1 0x40 MLOAD RETURNDATASIZE PUSH1 0x1F NOT PUSH1 0x1F DUP3 ADD AND DUP3 ADD DUP1 PUSH1 0x40 MSTORE POP DUP2 ADD SWAP1 PUSH2 0x13B3 SWAP2 SWAP1 PUSH2 0x24CA JUMP JUMPDEST SWAP8 SWAP7 POP POP POP POP POP POP POP JUMP JUMPDEST PUSH1 0x0 DUP1 SLOAD PUSH1 0x1 PUSH1 0x1 PUSH1 0xA0 SHL SUB DUP4 DUP2 AND PUSH1 0x1 PUSH1 0x1 PUSH1 0xA0 SHL SUB NOT DUP4 AND DUP2 OR DUP5 SSTORE PUSH1 0x40 MLOAD SWAP2 SWAP1 SWAP3 AND SWAP3 DUP4 SWAP2 PUSH32 0x8BE0079C531659141344CD1FD0A4F28419497F9722A3DAAFE3B4186F6B6457E0 SWAP2 SWAP1 LOG3 POP POP JUMP JUMPDEST PUSH2 0x1440 PUSH1 0x40 MLOAD DUP1 PUSH1 0xA0 ADD PUSH1 0x40 MSTORE DUP1 PUSH1 0x60 DUP2 MSTORE PUSH1 0x20 ADD PUSH1 0x0 DUP2 MSTORE PUSH1 0x20 ADD PUSH1 0x0 DUP2 MSTORE PUSH1 0x20 ADD PUSH1 0x0 DUP2 MSTORE PUSH1 0x20 ADD PUSH1 0x0 DUP2 MSTORE POP SWAP1 JUMP JUMPDEST PUSH1 0x0 DUP3 MLOAD GT PUSH2 0x1491 JUMPI PUSH1 0x40 MLOAD PUSH3 0x461BCD PUSH1 0xE5 SHL DUP2 MSTORE PUSH1 0x20 PUSH1 0x4 DUP3 ADD MSTORE PUSH1 0x17 PUSH1 0x24 DUP3 ADD MSTORE PUSH32 0x4E6F207374726174656769657320617661696C61626C65000000000000000000 PUSH1 0x44 DUP3 ADD MSTORE PUSH1 0x64 ADD PUSH2 0x4F3 JUMP JUMPDEST PUSH1 0x0 DUP3 PUSH1 0x0 DUP2 MLOAD DUP2 LT PUSH2 0x14A6 JUMPI PUSH2 0x14A6 PUSH2 0x2136 JUMP JUMPDEST PUSH1 0x20 MUL PUSH1 0x20 ADD ADD MLOAD SWAP1 POP PUSH1 0x0 PUSH1 0x1 SWAP1 POP JUMPDEST DUP4 MLOAD DUP2 LT ISZERO PUSH2 0x1520 JUMPI PUSH2 0x14C9 DUP3 PUSH2 0x1527 JUMP JUMPDEST PUSH2 0x14EB DUP6 DUP4 DUP2 MLOAD DUP2 LT PUSH2 0x14DE JUMPI PUSH2 0x14DE PUSH2 0x2136 JUMP JUMPDEST PUSH1 0x20 MUL PUSH1 0x20 ADD ADD MLOAD PUSH2 0x1527 JUMP JUMPDEST GT ISZERO PUSH2 0x150E JUMPI DUP4 DUP2 DUP2 MLOAD DUP2 LT PUSH2 0x1503 JUMPI PUSH2 0x1503 PUSH2 0x2136 JUMP JUMPDEST PUSH1 0x20 MUL PUSH1 0x20 ADD ADD MLOAD SWAP2 POP JUMPDEST DUP1 PUSH2 0x1518 DUP2 PUSH2 0x219B JUMP JUMPDEST SWAP2 POP POP PUSH2 0x14B7 JUMP JUMPDEST POP SWAP3 SWAP2 POP POP JUMP JUMPDEST PUSH1 0x0 DUP2 PUSH1 0x80 ADD MLOAD PUSH1 0x64 PUSH2 0x153A SWAP2 SWAP1 PUSH2 0x2162 JUMP JUMPDEST PUSH1 0x60 DUP4 ADD MLOAD PUSH1 0x40 DUP5 ADD MLOAD PUSH2 0x154F SWAP1 PUSH1 0x64 PUSH2 0x255F JUMP JUMPDEST DUP5 PUSH1 0x20 ADD MLOAD PUSH2 0x155E SWAP2 SWAP1 PUSH2 0x2162 JUMP JUMPDEST PUSH2 0x1568 SWAP2 SWAP1 PUSH2 0x2162 JUMP JUMPDEST PUSH2 0x800 SWAP2 SWAP1 PUSH2 0x2179 JUMP JUMPDEST PUSH2 0x57E DUP3 DUP3 PUSH1 0x40 MLOAD PUSH1 0x24 ADD PUSH2 0x1588 SWAP3 SWAP2 SWAP1 PUSH2 0x2572 JUMP JUMPDEST PUSH1 0x40 DUP1 MLOAD PUSH1 0x1F NOT DUP2 DUP5 SUB ADD DUP2 MSTORE SWAP2 SWAP1 MSTORE PUSH1 0x20 DUP2 ADD DUP1 MLOAD PUSH1 0x1 PUSH1 0x1 PUSH1 0xE0 SHL SUB AND PUSH4 0x2D839CB3 PUSH1 0xE2 SHL OR SWAP1 MSTORE PUSH2 0x15F8 JUMP JUMPDEST PUSH2 0x57E DUP3 DUP3 PUSH1 0x40 MLOAD PUSH1 0x24 ADD PUSH2 0x15CD SWAP3 SWAP2 SWAP1 PUSH2 0x2594 JUMP JUMPDEST PUSH1 0x40 DUP1 MLOAD PUSH1 0x1F NOT DUP2 DUP5 SUB ADD DUP2 MSTORE SWAP2 SWAP1 MSTORE PUSH1 0x20 DUP2 ADD DUP1 MLOAD PUSH1 0x1 PUSH1 0x1 PUSH1 0xE0 SHL SUB AND PUSH4 0x4B5C4277 PUSH1 0xE0 SHL OR SWAP1 MSTORE JUMPDEST PUSH2 0xE54 DUP2 PUSH2 0x170B JUMP JUMPDEST PUSH1 0x0 DUP2 CALLVALUE EQ PUSH2 0x1625 JUMPI PUSH1 0x40 MLOAD PUSH4 0x4FB8209 PUSH1 0xE5 SHL DUP2 MSTORE CALLVALUE PUSH1 0x4 DUP3 ADD MSTORE PUSH1 0x24 ADD PUSH2 0x4F3 JUMP JUMPDEST POP SWAP1 JUMP JUMPDEST PUSH1 0x0 PUSH32 0x0 PUSH1 0x1 PUSH1 0x1 PUSH1 0xA0 SHL SUB AND PUSH4 0xE4FE1D94 PUSH1 0x40 MLOAD DUP2 PUSH4 0xFFFFFFFF AND PUSH1 0xE0 SHL DUP2 MSTORE PUSH1 0x4 ADD PUSH1 0x20 PUSH1 0x40 MLOAD DUP1 DUP4 SUB DUP2 DUP7 GAS STATICCALL ISZERO DUP1 ISZERO PUSH2 0x1689 JUMPI RETURNDATASIZE PUSH1 0x0 DUP1 RETURNDATACOPY RETURNDATASIZE PUSH1 0x0 REVERT JUMPDEST POP POP POP POP PUSH1 0x40 MLOAD RETURNDATASIZE PUSH1 0x1F NOT PUSH1 0x1F DUP3 ADD AND DUP3 ADD DUP1 PUSH1 0x40 MSTORE POP DUP2 ADD SWAP1 PUSH2 0x16AD SWAP2 SWAP1 PUSH2 0x25C2 JUMP JUMPDEST SWAP1 POP PUSH1 0x1 PUSH1 0x1 PUSH1 0xA0 SHL SUB DUP2 AND PUSH2 0x16D6 JUMPI PUSH1 0x40 MLOAD PUSH4 0x29B99A95 PUSH1 0xE1 SHL DUP2 MSTORE PUSH1 0x4 ADD PUSH1 0x40 MLOAD DUP1 SWAP2 SUB SWAP1 REVERT JUMPDEST PUSH2 0x57E PUSH1 0x1 PUSH1 0x1 PUSH1 0xA0 SHL SUB DUP3 AND CALLER PUSH32 0x0 DUP6 PUSH2 0x172C JUMP JUMPDEST PUSH1 0x0 PUSH11 0x636F6E736F6C652E6C6F67 SWAP1 POP PUSH1 0x0 DUP1 DUP4 MLOAD PUSH1 0x20 DUP6 ADD DUP5 GAS STATICCALL POP POP POP JUMP JUMPDEST PUSH1 0x40 DUP1 MLOAD PUSH1 0x1 PUSH1 0x1 PUSH1 0xA0 SHL SUB DUP6 DUP2 AND PUSH1 0x24 DUP4 ADD MSTORE DUP5 AND PUSH1 0x44 DUP3 ADD MSTORE PUSH1 0x64 DUP1 DUP3 ADD DUP5 SWAP1 MSTORE DUP3 MLOAD DUP1 DUP4 SUB SWAP1 SWAP2 ADD DUP2 MSTORE PUSH1 0x84 SWAP1 SWAP2 ADD SWAP1 SWAP2 MSTORE PUSH1 0x20 DUP2 ADD DUP1 MLOAD PUSH1 0x1 PUSH1 0x1 PUSH1 0xE0 SHL SUB AND PUSH4 0x23B872DD PUSH1 0xE0 SHL OR SWAP1 MSTORE PUSH2 0x1786 SWAP1 DUP6 SWAP1 PUSH2 0x178C JUMP JUMPDEST POP POP POP POP JUMP JUMPDEST PUSH1 0x0 PUSH2 0x17E1 DUP3 PUSH1 0x40 MLOAD DUP1 PUSH1 0x40 ADD PUSH1 0x40 MSTORE DUP1 PUSH1 0x20 DUP2 MSTORE PUSH1 0x20 ADD PUSH32 0x5361666545524332303A206C6F772D6C6576656C2063616C6C206661696C6564 DUP2 MSTORE POP DUP6 PUSH1 0x1 PUSH1 0x1 PUSH1 0xA0 SHL SUB AND PUSH2 0x1866 SWAP1 SWAP3 SWAP2 SWAP1 PUSH4 0xFFFFFFFF AND JUMP JUMPDEST SWAP1 POP DUP1 MLOAD PUSH1 0x0 EQ DUP1 PUSH2 0x1802 JUMPI POP DUP1 DUP1 PUSH1 0x20 ADD SWAP1 MLOAD DUP2 ADD SWAP1 PUSH2 0x1802 SWAP2 SWAP1 PUSH2 0x25DF JUMP JUMPDEST PUSH2 0x1861 JUMPI PUSH1 0x40 MLOAD PUSH3 0x461BCD PUSH1 0xE5 SHL DUP2 MSTORE PUSH1 0x20 PUSH1 0x4 DUP3 ADD MSTORE PUSH1 0x2A PUSH1 0x24 DUP3 ADD MSTORE PUSH32 0x5361666545524332303A204552433230206F7065726174696F6E20646964206E PUSH1 0x44 DUP3 ADD MSTORE PUSH10 0x1BDD081CDD58D8D95959 PUSH1 0xB2 SHL PUSH1 0x64 DUP3 ADD MSTORE PUSH1 0x84 ADD PUSH2 0x4F3 JUMP JUMPDEST POP POP POP JUMP JUMPDEST PUSH1 0x60 PUSH2 0x813 DUP5 DUP5 PUSH1 0x0 DUP6 DUP6 PUSH1 0x0 DUP1 DUP7 PUSH1 0x1 PUSH1 0x1 PUSH1 0xA0 SHL SUB AND DUP6 DUP8 PUSH1 0x40 MLOAD PUSH2 0x188D SWAP2 SWAP1 PUSH2 0x2601 JUMP JUMPDEST PUSH1 0x0 PUSH1 0x40 MLOAD DUP1 DUP4 SUB DUP2 DUP6 DUP8 GAS CALL SWAP3 POP POP POP RETURNDATASIZE DUP1 PUSH1 0x0 DUP2 EQ PUSH2 0x18CA JUMPI PUSH1 0x40 MLOAD SWAP2 POP PUSH1 0x1F NOT PUSH1 0x3F RETURNDATASIZE ADD AND DUP3 ADD PUSH1 0x40 MSTORE RETURNDATASIZE DUP3 MSTORE RETURNDATASIZE PUSH1 0x0 PUSH1 0x20 DUP5 ADD RETURNDATACOPY PUSH2 0x18CF JUMP JUMPDEST PUSH1 0x60 SWAP2 POP JUMPDEST POP SWAP2 POP SWAP2 POP PUSH2 0x13B3 DUP8 DUP4 DUP4 DUP8 PUSH1 0x60 DUP4 ISZERO PUSH2 0x194A JUMPI DUP3 MLOAD PUSH1 0x0 SUB PUSH2 0x1943 JUMPI PUSH1 0x1 PUSH1 0x1 PUSH1 0xA0 SHL SUB DUP6 AND EXTCODESIZE PUSH2 0x1943 JUMPI PUSH1 0x40 MLOAD PUSH3 0x461BCD PUSH1 0xE5 SHL DUP2 MSTORE PUSH1 0x20 PUSH1 0x4 DUP3 ADD MSTORE PUSH1 0x1D PUSH1 0x24 DUP3 ADD MSTORE PUSH32 0x416464726573733A2063616C6C20746F206E6F6E2D636F6E7472616374000000 PUSH1 0x44 DUP3 ADD MSTORE PUSH1 0x64 ADD PUSH2 0x4F3 JUMP JUMPDEST POP DUP2 PUSH2 0x813 JUMP JUMPDEST PUSH2 0x813 DUP4 DUP4 DUP2 MLOAD ISZERO PUSH2 0x195F JUMPI DUP2 MLOAD DUP1 DUP4 PUSH1 0x20 ADD REVERT JUMPDEST DUP1 PUSH1 0x40 MLOAD PUSH3 0x461BCD PUSH1 0xE5 SHL DUP2 MSTORE PUSH1 0x4 ADD PUSH2 0x4F3 SWAP2 SWAP1 PUSH2 0x243E JUMP JUMPDEST PUSH1 0x40 MLOAD DUP1 PUSH1 0x60 ADD PUSH1 0x40 MSTORE DUP1 PUSH1 0x0 DUP1 NOT AND DUP2 MSTORE PUSH1 0x20 ADD PUSH1 0x0 PUSH1 0x1 PUSH1 0x1 PUSH1 0x40 SHL SUB AND DUP2 MSTORE PUSH1 0x20 ADD PUSH2 0x19BB PUSH1 0x40 MLOAD DUP1 PUSH1 0x40 ADD PUSH1 0x40 MSTORE DUP1 PUSH1 0x0 DUP2 MSTORE PUSH1 0x20 ADD PUSH1 0x0 DUP2 MSTORE POP SWAP1 JUMP JUMPDEST SWAP1 MSTORE SWAP1 JUMP JUMPDEST PUSH1 0x0 PUSH1 0x60 DUP3 DUP5 SUB SLT ISZERO PUSH2 0x19D2 JUMPI PUSH1 0x0 DUP1 REVERT JUMPDEST POP SWAP2 SWAP1 POP JUMP JUMPDEST PUSH1 0x0 DUP1 DUP4 PUSH1 0x1F DUP5 ADD SLT PUSH2 0x19EA JUMPI PUSH1 0x0 DUP1 REVERT JUMPDEST POP DUP2 CALLDATALOAD PUSH1 0x1 PUSH1 0x1 PUSH1 0x40 SHL SUB DUP2 GT ISZERO PUSH2 0x1A01 JUMPI PUSH1 0x0 DUP1 REVERT JUMPDEST PUSH1 0x20 DUP4 ADD SWAP2 POP DUP4 PUSH1 0x20 DUP3 DUP6 ADD ADD GT ISZERO PUSH2 0x1A19 JUMPI PUSH1 0x0 DUP1 REVERT JUMPDEST SWAP3 POP SWAP3 SWAP1 POP JUMP JUMPDEST PUSH1 0x1 PUSH1 0x1 PUSH1 0xA0 SHL SUB DUP2 AND DUP2 EQ PUSH2 0xE54 JUMPI PUSH1 0x0 DUP1 REVERT JUMPDEST PUSH1 0x0 DUP1 PUSH1 0x0 DUP1 PUSH1 0x0 DUP1 PUSH1 0x0 PUSH1 0xE0 DUP9 DUP11 SUB SLT ISZERO PUSH2 0x1A50 JUMPI PUSH1 0x0 DUP1 REVERT JUMPDEST PUSH2 0x1A5A DUP10 DUP10 PUSH2 0x19C0 JUMP JUMPDEST SWAP7 POP PUSH1 0x60 DUP9 ADD CALLDATALOAD SWAP6 POP PUSH1 0x80 DUP9 ADD CALLDATALOAD PUSH1 0x1 PUSH1 0x1 PUSH1 0x40 SHL SUB DUP1 DUP3 GT ISZERO PUSH2 0x1A7D JUMPI PUSH1 0x0 DUP1 REVERT JUMPDEST PUSH2 0x1A89 DUP12 DUP4 DUP13 ADD PUSH2 0x19D8 JUMP JUMPDEST SWAP1 SWAP8 POP SWAP6 POP PUSH1 0xA0 DUP11 ADD CALLDATALOAD SWAP2 POP PUSH2 0x1A9E DUP3 PUSH2 0x1A20 JUMP JUMPDEST SWAP1 SWAP4 POP PUSH1 0xC0 DUP10 ADD CALLDATALOAD SWAP1 DUP1 DUP3 GT ISZERO PUSH2 0x1AB4 JUMPI PUSH1 0x0 DUP1 REVERT JUMPDEST POP PUSH2 0x1AC1 DUP11 DUP3 DUP12 ADD PUSH2 0x19D8 JUMP JUMPDEST SWAP9 SWAP12 SWAP8 SWAP11 POP SWAP6 SWAP9 POP SWAP4 SWAP7 SWAP3 SWAP6 SWAP3 SWAP4 POP POP POP JUMP JUMPDEST DUP1 CALLDATALOAD PUSH4 0xFFFFFFFF DUP2 AND DUP2 EQ PUSH2 0x1AE8 JUMPI PUSH1 0x0 DUP1 REVERT JUMPDEST SWAP2 SWAP1 POP JUMP JUMPDEST PUSH1 0x0 PUSH1 0x20 DUP3 DUP5 SUB SLT ISZERO PUSH2 0x1AFF JUMPI PUSH1 0x0 DUP1 REVERT JUMPDEST PUSH2 0x1B08 DUP3 PUSH2 0x1AD4 JUMP JUMPDEST SWAP4 SWAP3 POP POP POP JUMP JUMPDEST PUSH1 0x0 DUP1 PUSH1 0x40 DUP4 DUP6 SUB SLT ISZERO PUSH2 0x1B22 JUMPI PUSH1 0x0 DUP1 REVERT JUMPDEST PUSH2 0x1B2B DUP4 PUSH2 0x1AD4 JUMP JUMPDEST SWAP5 PUSH1 0x20 SWAP4 SWAP1 SWAP4 ADD CALLDATALOAD SWAP4 POP POP POP JUMP JUMPDEST PUSH1 0x0 DUP1 PUSH1 0x0 PUSH1 0x40 DUP5 DUP7 SUB SLT ISZERO PUSH2 0x1B4E JUMPI PUSH1 0x0 DUP1 REVERT JUMPDEST PUSH2 0x1B57 DUP5 PUSH2 0x1AD4 JUMP JUMPDEST SWAP3 POP PUSH1 0x20 DUP5 ADD CALLDATALOAD PUSH1 0x1 PUSH1 0x1 PUSH1 0x40 SHL SUB DUP2 GT ISZERO PUSH2 0x1B72 JUMPI PUSH1 0x0 DUP1 REVERT JUMPDEST PUSH2 0x1B7E DUP7 DUP3 DUP8 ADD PUSH2 0x19D8 JUMP JUMPDEST SWAP5 SWAP8 SWAP1 SWAP7 POP SWAP4 SWAP5 POP POP POP POP JUMP JUMPDEST PUSH1 0x0 JUMPDEST DUP4 DUP2 LT ISZERO PUSH2 0x1BA6 JUMPI DUP2 DUP2 ADD MLOAD DUP4 DUP3 ADD MSTORE PUSH1 0x20 ADD PUSH2 0x1B8E JUMP JUMPDEST POP POP PUSH1 0x0 SWAP2 ADD MSTORE JUMP JUMPDEST PUSH1 0x0 DUP2 MLOAD DUP1 DUP5 MSTORE PUSH2 0x1BC7 DUP2 PUSH1 0x20 DUP7 ADD PUSH1 0x20 DUP7 ADD PUSH2 0x1B8B JUMP JUMPDEST PUSH1 0x1F ADD PUSH1 0x1F NOT AND SWAP3 SWAP1 SWAP3 ADD PUSH1 0x20 ADD SWAP3 SWAP2 POP POP JUMP JUMPDEST PUSH1 0x0 DUP2 MLOAD PUSH1 0xA0 DUP5 MSTORE PUSH2 0x1BF0 PUSH1 0xA0 DUP6 ADD DUP3 PUSH2 0x1BAF JUMP JUMPDEST SWAP1 POP PUSH1 0x20 DUP4 ADD MLOAD PUSH1 0x20 DUP6 ADD MSTORE PUSH1 0x40 DUP4 ADD MLOAD PUSH1 0x40 DUP6 ADD MSTORE PUSH1 0x60 DUP4 ADD MLOAD PUSH1 0x60 DUP6 ADD MSTORE PUSH1 0x80 DUP4 ADD MLOAD PUSH1 0x80 DUP6 ADD MSTORE DUP1 SWAP2 POP POP SWAP3 SWAP2 POP POP JUMP JUMPDEST PUSH1 0x0 DUP3 DUP3 MLOAD DUP1 DUP6 MSTORE PUSH1 0x20 DUP1 DUP7 ADD SWAP6 POP DUP1 DUP3 PUSH1 0x5 SHL DUP5 ADD ADD DUP2 DUP7 ADD PUSH1 0x0 JUMPDEST DUP5 DUP2 LT ISZERO PUSH2 0x1C6F JUMPI PUSH1 0x1F NOT DUP7 DUP5 SUB ADD DUP10 MSTORE PUSH2 0x1C5D DUP4 DUP4 MLOAD PUSH2 0x1BDB JUMP JUMPDEST SWAP9 DUP5 ADD SWAP9 SWAP3 POP SWAP1 DUP4 ADD SWAP1 PUSH1 0x1 ADD PUSH2 0x1C41 JUMP JUMPDEST POP SWAP1 SWAP8 SWAP7 POP POP POP POP POP POP POP JUMP JUMPDEST PUSH1 0x20 DUP2 MSTORE PUSH1 0x0 PUSH2 0x1B08 PUSH1 0x20 DUP4 ADD DUP5 PUSH2 0x1C24 JUMP JUMPDEST PUSH1 0x0 DUP1 PUSH1 0x0 DUP1 PUSH1 0xA0 DUP6 DUP8 SUB SLT ISZERO PUSH2 0x1CA5 JUMPI PUSH1 0x0 DUP1 REVERT JUMPDEST PUSH2 0x1CAF DUP7 DUP7 PUSH2 0x19C0 JUMP JUMPDEST SWAP4 POP PUSH1 0x60 DUP6 ADD CALLDATALOAD PUSH1 0x1 PUSH1 0x1 PUSH1 0x40 SHL SUB DUP2 GT ISZERO PUSH2 0x1CCA JUMPI PUSH1 0x0 DUP1 REVERT JUMPDEST PUSH2 0x1CD6 DUP8 DUP3 DUP9 ADD PUSH2 0x19D8 JUMP JUMPDEST SWAP1 SWAP5 POP SWAP3 POP POP PUSH1 0x80 DUP6 ADD CALLDATALOAD PUSH2 0x1CEA DUP2 PUSH2 0x1A20 JUMP JUMPDEST SWAP4 SWAP7 SWAP3 SWAP6 POP SWAP1 SWAP4 POP POP JUMP JUMPDEST PUSH1 0x0 PUSH1 0x20 DUP3 DUP5 SUB SLT ISZERO PUSH2 0x1D07 JUMPI PUSH1 0x0 DUP1 REVERT JUMPDEST DUP2 CALLDATALOAD PUSH2 0x1B08 DUP2 PUSH2 0x1A20 JUMP JUMPDEST PUSH4 0x4E487B71 PUSH1 0xE0 SHL PUSH1 0x0 MSTORE PUSH1 0x41 PUSH1 0x4 MSTORE PUSH1 0x24 PUSH1 0x0 REVERT JUMPDEST PUSH1 0x40 MLOAD PUSH1 0xA0 DUP2 ADD PUSH1 0x1 PUSH1 0x1 PUSH1 0x40 SHL SUB DUP2 GT DUP3 DUP3 LT OR ISZERO PUSH2 0x1D4A JUMPI PUSH2 0x1D4A PUSH2 0x1D12 JUMP JUMPDEST PUSH1 0x40 MSTORE SWAP1 JUMP JUMPDEST PUSH1 0x40 DUP1 MLOAD SWAP1 DUP2 ADD PUSH1 0x1 PUSH1 0x1 PUSH1 0x40 SHL SUB DUP2 GT DUP3 DUP3 LT OR ISZERO PUSH2 0x1D4A JUMPI PUSH2 0x1D4A PUSH2 0x1D12 JUMP JUMPDEST PUSH1 0x40 MLOAD PUSH1 0x1F DUP3 ADD PUSH1 0x1F NOT AND DUP2 ADD PUSH1 0x1 PUSH1 0x1 PUSH1 0x40 SHL SUB DUP2 GT DUP3 DUP3 LT OR ISZERO PUSH2 0x1D9A JUMPI PUSH2 0x1D9A PUSH2 0x1D12 JUMP JUMPDEST PUSH1 0x40 MSTORE SWAP2 SWAP1 POP JUMP JUMPDEST PUSH1 0x0 DUP3 PUSH1 0x1F DUP4 ADD SLT PUSH2 0x1DB3 JUMPI PUSH1 0x0 DUP1 REVERT JUMPDEST DUP2 CALLDATALOAD PUSH1 0x1 PUSH1 0x1 PUSH1 0x40 SHL SUB DUP2 GT ISZERO PUSH2 0x1DCC JUMPI PUSH2 0x1DCC PUSH2 0x1D12 JUMP JUMPDEST PUSH2 0x1DDF PUSH1 0x1F DUP3 ADD PUSH1 0x1F NOT AND PUSH1 0x20 ADD PUSH2 0x1D72 JUMP JUMPDEST DUP2 DUP2 MSTORE DUP5 PUSH1 0x20 DUP4 DUP7 ADD ADD GT ISZERO PUSH2 0x1DF4 JUMPI PUSH1 0x0 DUP1 REVERT JUMPDEST DUP2 PUSH1 0x20 DUP6 ADD PUSH1 0x20 DUP4 ADD CALLDATACOPY PUSH1 0x0 SWAP2 DUP2 ADD PUSH1 0x20 ADD SWAP2 SWAP1 SWAP2 MSTORE SWAP4 SWAP3 POP POP POP JUMP JUMPDEST PUSH1 0x0 DUP1 PUSH1 0x0 DUP1 PUSH1 0x0 DUP1 PUSH1 0xC0 DUP8 DUP10 SUB SLT ISZERO PUSH2 0x1E2A JUMPI PUSH1 0x0 DUP1 REVERT JUMPDEST PUSH2 0x1E33 DUP8 PUSH2 0x1AD4 JUMP JUMPDEST SWAP6 POP PUSH1 0x20 DUP8 ADD CALLDATALOAD PUSH1 0x1 PUSH1 0x1 PUSH1 0x40 SHL SUB DUP2 GT ISZERO PUSH2 0x1E4E JUMPI PUSH1 0x0 DUP1 REVERT JUMPDEST PUSH2 0x1E5A DUP10 DUP3 DUP11 ADD PUSH2 0x1DA2 JUMP JUMPDEST SWAP7 SWAP10 SWAP7 SWAP9 POP POP POP POP PUSH1 0x40 DUP6 ADD CALLDATALOAD SWAP5 PUSH1 0x60 DUP2 ADD CALLDATALOAD SWAP5 PUSH1 0x80 DUP3 ADD CALLDATALOAD SWAP5 POP PUSH1 0xA0 SWAP1 SWAP2 ADD CALLDATALOAD SWAP3 POP SWAP1 POP JUMP JUMPDEST PUSH1 0x0 PUSH1 0x1 PUSH1 0x1 PUSH1 0x40 SHL SUB DUP3 GT ISZERO PUSH2 0x1E9A JUMPI PUSH2 0x1E9A PUSH2 0x1D12 JUMP JUMPDEST POP PUSH1 0x5 SHL PUSH1 0x20 ADD SWAP1 JUMP JUMPDEST PUSH1 0x0 PUSH1 0x20 DUP1 DUP4 DUP6 SUB SLT ISZERO PUSH2 0x1EB7 JUMPI PUSH1 0x0 DUP1 REVERT JUMPDEST DUP3 CALLDATALOAD PUSH1 0x1 PUSH1 0x1 PUSH1 0x40 SHL SUB DUP2 GT ISZERO PUSH2 0x1ECD JUMPI PUSH1 0x0 DUP1 REVERT JUMPDEST DUP4 ADD PUSH1 0x1F DUP2 ADD DUP6 SGT PUSH2 0x1EDE JUMPI PUSH1 0x0 DUP1 REVERT JUMPDEST DUP1 CALLDATALOAD PUSH2 0x1EF1 PUSH2 0x1EEC DUP3 PUSH2 0x1E81 JUMP JUMPDEST PUSH2 0x1D72 JUMP JUMPDEST DUP2 DUP2 MSTORE PUSH1 0x5 SWAP2 SWAP1 SWAP2 SHL DUP3 ADD DUP4 ADD SWAP1 DUP4 DUP2 ADD SWAP1 DUP8 DUP4 GT ISZERO PUSH2 0x1F10 JUMPI PUSH1 0x0 DUP1 REVERT JUMPDEST SWAP3 DUP5 ADD SWAP3 JUMPDEST DUP3 DUP5 LT ISZERO PUSH2 0x13B3 JUMPI PUSH2 0x1F26 DUP5 PUSH2 0x1AD4 JUMP JUMPDEST DUP3 MSTORE SWAP3 DUP5 ADD SWAP3 SWAP1 DUP5 ADD SWAP1 PUSH2 0x1F15 JUMP JUMPDEST PUSH1 0x40 DUP2 MSTORE PUSH1 0x0 PUSH2 0x1F48 PUSH1 0x40 DUP4 ADD DUP6 PUSH2 0x1BDB JUMP JUMPDEST SWAP1 POP PUSH4 0xFFFFFFFF DUP4 AND PUSH1 0x20 DUP4 ADD MSTORE SWAP4 SWAP3 POP POP POP JUMP JUMPDEST PUSH1 0x0 PUSH1 0x20 DUP3 DUP5 SUB SLT ISZERO PUSH2 0x1F6F JUMPI PUSH1 0x0 DUP1 REVERT JUMPDEST POP CALLDATALOAD SWAP2 SWAP1 POP JUMP JUMPDEST PUSH1 0xA0 DUP2 MSTORE PUSH1 0x0 PUSH2 0x1F89 PUSH1 0xA0 DUP4 ADD DUP9 PUSH2 0x1BAF JUMP JUMPDEST SWAP1 POP DUP6 PUSH1 0x20 DUP4 ADD MSTORE DUP5 PUSH1 0x40 DUP4 ADD MSTORE DUP4 PUSH1 0x60 DUP4 ADD MSTORE DUP3 PUSH1 0x80 DUP4 ADD MSTORE SWAP7 SWAP6 POP POP POP POP POP POP JUMP JUMPDEST PUSH1 0x0 DUP1 PUSH1 0x40 DUP4 DUP6 SUB SLT ISZERO PUSH2 0x1FC0 JUMPI PUSH1 0x0 DUP1 REVERT JUMPDEST DUP3 CALLDATALOAD SWAP2 POP PUSH2 0x1FD0 PUSH1 0x20 DUP5 ADD PUSH2 0x1AD4 JUMP JUMPDEST SWAP1 POP SWAP3 POP SWAP3 SWAP1 POP JUMP JUMPDEST PUSH1 0x0 PUSH1 0x60 DUP3 DUP5 SUB SLT ISZERO PUSH2 0x1FEB JUMPI PUSH1 0x0 DUP1 REVERT JUMPDEST PUSH2 0x1B08 DUP4 DUP4 PUSH2 0x19C0 JUMP JUMPDEST PUSH1 0x1 DUP2 DUP2 SHR SWAP1 DUP3 AND DUP1 PUSH2 0x2009 JUMPI PUSH1 0x7F DUP3 AND SWAP2 POP JUMPDEST PUSH1 0x20 DUP3 LT DUP2 SUB PUSH2 0x19D2 JUMPI PUSH4 0x4E487B71 PUSH1 0xE0 SHL PUSH1 0x0 MSTORE PUSH1 0x22 PUSH1 0x4 MSTORE PUSH1 0x24 PUSH1 0x0 REVERT JUMPDEST PUSH1 0x0 PUSH1 0x40 DUP1 DUP4 ADD PUSH4 0xFFFFFFFF DUP7 AND DUP5 MSTORE PUSH1 0x20 DUP3 DUP2 DUP7 ADD MSTORE DUP2 DUP7 SLOAD DUP1 DUP5 MSTORE PUSH1 0x60 SWAP4 POP DUP4 DUP8 ADD SWAP2 POP PUSH1 0x5 DUP5 DUP3 DUP3 SHL DUP10 ADD ADD PUSH1 0x0 DUP11 DUP2 MSTORE DUP6 DUP2 KECCAK256 DUP2 JUMPDEST DUP6 DUP2 LT ISZERO PUSH2 0x2124 JUMPI PUSH1 0x5F NOT DUP13 DUP6 SUB ADD DUP8 MSTORE PUSH1 0xA0 DUP1 DUP6 MSTORE DUP4 DUP4 SLOAD PUSH2 0x2084 DUP2 PUSH2 0x1FF5 JUMP JUMPDEST SWAP3 DUP8 ADD DUP4 SWAP1 MSTORE PUSH1 0xC0 SWAP3 PUSH1 0x1 DUP3 DUP2 AND DUP1 ISZERO PUSH2 0x20A5 JUMPI PUSH1 0x1 DUP2 EQ PUSH2 0x20BE JUMPI PUSH2 0x20E9 JUMP JUMPDEST PUSH1 0xFF NOT DUP5 AND DUP11 DUP8 ADD MSTORE DUP3 ISZERO ISZERO DUP12 SHL DUP11 ADD DUP7 ADD SWAP5 POP PUSH2 0x20E9 JUMP JUMPDEST DUP8 DUP10 MSTORE DUP14 DUP10 KECCAK256 DUP10 JUMPDEST DUP5 DUP2 LT ISZERO PUSH2 0x20E1 JUMPI DUP2 SLOAD DUP13 DUP3 ADD DUP10 ADD MSTORE SWAP1 DUP4 ADD SWAP1 DUP16 ADD PUSH2 0x20C6 JUMP JUMPDEST DUP12 ADD DUP8 ADD SWAP6 POP POP JUMPDEST POP DUP7 ADD SLOAD DUP9 DUP14 ADD MSTORE POP POP PUSH1 0x2 DUP5 ADD SLOAD DUP13 DUP8 ADD MSTORE PUSH1 0x3 DUP5 ADD SLOAD DUP12 DUP8 ADD MSTORE PUSH1 0x4 DUP5 ADD SLOAD PUSH1 0x80 SWAP1 SWAP7 ADD SWAP6 SWAP1 SWAP6 MSTORE POP SWAP6 DUP8 ADD SWAP6 SWAP1 DUP5 ADD SWAP1 PUSH1 0x1 ADD PUSH2 0x2062 JUMP JUMPDEST POP SWAP2 SWAP13 SWAP12 POP POP POP POP POP POP POP POP POP POP POP POP JUMP JUMPDEST PUSH4 0x4E487B71 PUSH1 0xE0 SHL PUSH1 0x0 MSTORE PUSH1 0x32 PUSH1 0x4 MSTORE PUSH1 0x24 PUSH1 0x0 REVERT JUMPDEST PUSH4 0x4E487B71 PUSH1 0xE0 SHL PUSH1 0x0 MSTORE PUSH1 0x11 PUSH1 0x4 MSTORE PUSH1 0x24 PUSH1 0x0 REVERT JUMPDEST DUP1 DUP3 MUL DUP2 ISZERO DUP3 DUP3 DIV DUP5 EQ OR PUSH2 0x800 JUMPI PUSH2 0x800 PUSH2 0x214C JUMP JUMPDEST PUSH1 0x0 DUP3 PUSH2 0x2196 JUMPI PUSH4 0x4E487B71 PUSH1 0xE0 SHL PUSH1 0x0 MSTORE PUSH1 0x12 PUSH1 0x4 MSTORE PUSH1 0x24 PUSH1 0x0 REVERT JUMPDEST POP DIV SWAP1 JUMP JUMPDEST PUSH1 0x0 PUSH1 0x1 DUP3 ADD PUSH2 0x21AD JUMPI PUSH2 0x21AD PUSH2 0x214C JUMP JUMPDEST POP PUSH1 0x1 ADD SWAP1 JUMP JUMPDEST PUSH4 0xFFFFFFFF DUP4 AND DUP2 MSTORE PUSH1 0x40 PUSH1 0x20 DUP3 ADD MSTORE PUSH1 0x0 PUSH2 0x813 PUSH1 0x40 DUP4 ADD DUP5 PUSH2 0x1C24 JUMP JUMPDEST PUSH1 0x1F DUP3 GT ISZERO PUSH2 0x1861 JUMPI PUSH1 0x0 DUP2 DUP2 MSTORE PUSH1 0x20 DUP2 KECCAK256 PUSH1 0x1F DUP6 ADD PUSH1 0x5 SHR DUP2 ADD PUSH1 0x20 DUP7 LT ISZERO PUSH2 0x21FA JUMPI POP DUP1 JUMPDEST PUSH1 0x1F DUP6 ADD PUSH1 0x5 SHR DUP3 ADD SWAP2 POP JUMPDEST DUP2 DUP2 LT ISZERO PUSH2 0x2219 JUMPI DUP3 DUP2 SSTORE PUSH1 0x1 ADD PUSH2 0x2206 JUMP JUMPDEST POP POP POP POP POP POP JUMP JUMPDEST DUP2 MLOAD PUSH1 0x1 PUSH1 0x1 PUSH1 0x40 SHL SUB DUP2 GT ISZERO PUSH2 0x223A JUMPI PUSH2 0x223A PUSH2 0x1D12 JUMP JUMPDEST PUSH2 0x224E DUP2 PUSH2 0x2248 DUP5 SLOAD PUSH2 0x1FF5 JUMP JUMPDEST DUP5 PUSH2 0x21D3 JUMP JUMPDEST PUSH1 0x20 DUP1 PUSH1 0x1F DUP4 GT PUSH1 0x1 DUP2 EQ PUSH2 0x2283 JUMPI PUSH1 0x0 DUP5 ISZERO PUSH2 0x226B JUMPI POP DUP6 DUP4 ADD MLOAD JUMPDEST PUSH1 0x0 NOT PUSH1 0x3 DUP7 SWAP1 SHL SHR NOT AND PUSH1 0x1 DUP6 SWAP1 SHL OR DUP6 SSTORE PUSH2 0x2219 JUMP JUMPDEST PUSH1 0x0 DUP6 DUP2 MSTORE PUSH1 0x20 DUP2 KECCAK256 PUSH1 0x1F NOT DUP7 AND SWAP2 JUMPDEST DUP3 DUP2 LT ISZERO PUSH2 0x22B2 JUMPI DUP9 DUP7 ADD MLOAD DUP3 SSTORE SWAP5 DUP5 ADD SWAP5 PUSH1 0x1 SWAP1 SWAP2 ADD SWAP1 DUP5 ADD PUSH2 0x2293 JUMP JUMPDEST POP DUP6 DUP3 LT ISZERO PUSH2 0x22D0 JUMPI DUP8 DUP6 ADD MLOAD PUSH1 0x0 NOT PUSH1 0x3 DUP9 SWAP1 SHL PUSH1 0xF8 AND SHR NOT AND DUP2 SSTORE JUMPDEST POP POP POP POP POP PUSH1 0x1 SWAP1 DUP2 SHL ADD SWAP1 SSTORE POP JUMP JUMPDEST PUSH1 0x0 DUP1 PUSH1 0x40 DUP4 DUP6 SUB SLT ISZERO PUSH2 0x22F3 JUMPI PUSH1 0x0 DUP1 REVERT JUMPDEST PUSH2 0x22FC DUP4 PUSH2 0x1AD4 JUMP JUMPDEST SWAP2 POP PUSH1 0x20 DUP1 DUP5 ADD CALLDATALOAD PUSH1 0x1 PUSH1 0x1 PUSH1 0x40 SHL SUB DUP1 DUP3 GT ISZERO PUSH2 0x2319 JUMPI PUSH1 0x0 DUP1 REVERT JUMPDEST DUP2 DUP7 ADD SWAP2 POP DUP7 PUSH1 0x1F DUP4 ADD SLT PUSH2 0x232D JUMPI PUSH1 0x0 DUP1 REVERT JUMPDEST DUP2 CALLDATALOAD PUSH2 0x233B PUSH2 0x1EEC DUP3 PUSH2 0x1E81 JUMP JUMPDEST DUP2 DUP2 MSTORE PUSH1 0x5 SWAP2 SWAP1 SWAP2 SHL DUP4 ADD DUP5 ADD SWAP1 DUP5 DUP2 ADD SWAP1 DUP10 DUP4 GT ISZERO PUSH2 0x235A JUMPI PUSH1 0x0 DUP1 REVERT JUMPDEST DUP6 DUP6 ADD JUMPDEST DUP4 DUP2 LT ISZERO PUSH2 0x23F3 JUMPI DUP1 CALLDATALOAD DUP6 DUP2 GT ISZERO PUSH2 0x2376 JUMPI PUSH1 0x0 DUP1 DUP2 REVERT JUMPDEST DUP7 ADD PUSH1 0xA0 DUP2 DUP14 SUB PUSH1 0x1F NOT ADD DUP2 SGT ISZERO PUSH2 0x238E JUMPI PUSH1 0x0 DUP1 DUP2 REVERT JUMPDEST PUSH2 0x2396 PUSH2 0x1D28 JUMP JUMPDEST DUP10 DUP4 ADD CALLDATALOAD DUP9 DUP2 GT ISZERO PUSH2 0x23A8 JUMPI PUSH1 0x0 DUP1 DUP2 REVERT JUMPDEST PUSH2 0x23B6 DUP16 DUP13 DUP4 DUP8 ADD ADD PUSH2 0x1DA2 JUMP JUMPDEST DUP3 MSTORE POP PUSH1 0x40 DUP4 DUP2 ADD CALLDATALOAD DUP12 DUP4 ADD MSTORE PUSH1 0x60 DUP1 DUP6 ADD CALLDATALOAD SWAP2 DUP4 ADD SWAP2 SWAP1 SWAP2 MSTORE PUSH1 0x80 DUP1 DUP6 ADD CALLDATALOAD SWAP2 DUP4 ADD SWAP2 SWAP1 SWAP2 MSTORE SWAP2 SWAP1 SWAP3 ADD CALLDATALOAD SWAP1 DUP3 ADD MSTORE DUP4 MSTORE SWAP2 DUP7 ADD SWAP2 DUP7 ADD PUSH2 0x235E JUMP JUMPDEST POP DUP1 SWAP7 POP POP POP POP POP POP POP SWAP3 POP SWAP3 SWAP1 POP JUMP JUMPDEST PUSH1 0x0 PUSH4 0xFFFFFFFF DUP1 DUP8 AND DUP4 MSTORE DUP1 DUP7 AND PUSH1 0x20 DUP5 ADD MSTORE POP PUSH1 0x80 PUSH1 0x40 DUP4 ADD MSTORE PUSH2 0x242D PUSH1 0x80 DUP4 ADD DUP6 PUSH2 0x1BAF JUMP JUMPDEST SWAP1 POP DUP3 PUSH1 0x60 DUP4 ADD MSTORE SWAP6 SWAP5 POP POP POP POP POP JUMP JUMPDEST PUSH1 0x20 DUP2 MSTORE PUSH1 0x0 PUSH2 0x1B08 PUSH1 0x20 DUP4 ADD DUP5 PUSH2 0x1BAF JUMP JUMPDEST PUSH1 0x40 DUP2 MSTORE PUSH4 0xFFFFFFFF DUP4 MLOAD AND PUSH1 0x40 DUP3 ADD MSTORE PUSH1 0x20 DUP4 ADD MLOAD PUSH1 0x60 DUP3 ADD MSTORE PUSH1 0x0 PUSH1 0x40 DUP5 ADD MLOAD PUSH1 0xA0 PUSH1 0x80 DUP5 ADD MSTORE PUSH2 0x2487 PUSH1 0xE0 DUP5 ADD DUP3 PUSH2 0x1BAF JUMP JUMPDEST SWAP1 POP PUSH1 0x60 DUP6 ADD MLOAD PUSH1 0x3F NOT DUP5 DUP4 SUB ADD PUSH1 0xA0 DUP6 ADD MSTORE PUSH2 0x24A4 DUP3 DUP3 PUSH2 0x1BAF JUMP JUMPDEST PUSH1 0x80 SWAP7 SWAP1 SWAP7 ADD MLOAD ISZERO ISZERO PUSH1 0xC0 DUP6 ADD MSTORE POP POP POP PUSH1 0x1 PUSH1 0x1 PUSH1 0xA0 SHL SUB SWAP2 SWAP1 SWAP2 AND PUSH1 0x20 SWAP1 SWAP2 ADD MSTORE SWAP1 JUMP JUMPDEST PUSH1 0x0 DUP2 DUP4 SUB PUSH1 0x80 DUP2 SLT ISZERO PUSH2 0x24DD JUMPI PUSH1 0x0 DUP1 REVERT JUMPDEST PUSH1 0x40 MLOAD PUSH1 0x60 DUP2 ADD PUSH1 0x1 PUSH1 0x1 PUSH1 0x40 SHL SUB DUP3 DUP3 LT DUP2 DUP4 GT OR ISZERO PUSH2 0x2500 JUMPI PUSH2 0x2500 PUSH2 0x1D12 JUMP JUMPDEST DUP2 PUSH1 0x40 MSTORE DUP6 MLOAD DUP4 MSTORE PUSH1 0x20 DUP7 ADD MLOAD SWAP2 POP DUP1 DUP3 AND DUP3 EQ PUSH2 0x251D JUMPI PUSH1 0x0 DUP1 REVERT JUMPDEST POP PUSH1 0x20 DUP3 ADD MSTORE PUSH1 0x40 PUSH1 0x3F NOT DUP4 ADD SLT ISZERO PUSH2 0x2535 JUMPI PUSH1 0x0 DUP1 REVERT JUMPDEST PUSH2 0x253D PUSH2 0x1D50 JUMP JUMPDEST PUSH1 0x40 DUP6 DUP2 ADD MLOAD DUP3 MSTORE PUSH1 0x60 SWAP1 SWAP6 ADD MLOAD PUSH1 0x20 DUP3 ADD MSTORE SWAP4 DUP2 ADD SWAP4 SWAP1 SWAP4 MSTORE POP SWAP1 SWAP3 SWAP2 POP POP JUMP JUMPDEST DUP2 DUP2 SUB DUP2 DUP2 GT ISZERO PUSH2 0x800 JUMPI PUSH2 0x800 PUSH2 0x214C JUMP JUMPDEST PUSH1 0x40 DUP2 MSTORE PUSH1 0x0 PUSH2 0x2585 PUSH1 0x40 DUP4 ADD DUP6 PUSH2 0x1BAF JUMP JUMPDEST SWAP1 POP DUP3 PUSH1 0x20 DUP4 ADD MSTORE SWAP4 SWAP3 POP POP POP JUMP JUMPDEST PUSH1 0x40 DUP2 MSTORE PUSH1 0x0 PUSH2 0x25A7 PUSH1 0x40 DUP4 ADD DUP6 PUSH2 0x1BAF JUMP JUMPDEST DUP3 DUP2 SUB PUSH1 0x20 DUP5 ADD MSTORE PUSH2 0x25B9 DUP2 DUP6 PUSH2 0x1BAF JUMP JUMPDEST SWAP6 SWAP5 POP POP POP POP POP JUMP JUMPDEST PUSH1 0x0 PUSH1 0x20 DUP3 DUP5 SUB SLT ISZERO PUSH2 0x25D4 JUMPI PUSH1 0x0 DUP1 REVERT JUMPDEST DUP2 MLOAD PUSH2 0x1B08 DUP2 PUSH2 0x1A20 JUMP JUMPDEST PUSH1 0x0 PUSH1 0x20 DUP3 DUP5 SUB SLT ISZERO PUSH2 0x25F1 JUMPI PUSH1 0x0 DUP1 REVERT JUMPDEST DUP2 MLOAD DUP1 ISZERO ISZERO DUP2 EQ PUSH2 0x1B08 JUMPI PUSH1 0x0 DUP1 REVERT JUMPDEST PUSH1 0x0 DUP3 MLOAD PUSH2 0x2613 DUP2 DUP5 PUSH1 0x20 DUP8 ADD PUSH2 0x1B8B JUMP JUMPDEST SWAP2 SWAP1 SWAP2 ADD SWAP3 SWAP2 POP POP JUMP INVALID LOG2 PUSH5 0x6970667358 0x22 SLT KECCAK256 SGT 0xA6 JUMPDEST PUSH0 0xEB 0x26 PUSH13 0x381F23EB746D173DA8AA9BAB2C ADDRESS PUSH9 0x122A586BE13F5D516E MUL PUSH5 0x736F6C6343 STOP ADDMOD EQ STOP CALLER "},"methodIdentifiers":{"addStrategy(uint32,string,uint256,uint256,uint256,uint256)":"d439a5c9","allowInitializePath((uint32,bytes32,uint64))":"ff7bd03d","chainIdToEid(uint256)":"f151e497","compareStrategiesAcrossChains(uint32[])":"dcdbf3ec","eidToChainId(uint32)":"8b42babd","endpoint()":"5e280f11","getStrategiesData(uint32)":"59c730c3","isComposeMsgSender((uint32,bytes32,uint64),bytes,address)":"82413eac","lzReceive((uint32,bytes32,uint64),bytes32,bytes,address,bytes)":"13137d65","nextNonce(uint32,bytes32)":"7d25a05e","oAppVersion()":"17442b70","optimizeStrategy(uint32,bytes)":"57efdeaa","optimizeZircuitStrategy(uint32,bytes)":"bd5c9aaf","owner()":"8da5cb5b","peers(uint32)":"bb0b6a53","renounceOwnership()":"715018a6","setChainIdMapping(uint256,uint32)":"f788b3a6","setDelegate(address)":"ca5eb5e1","setPeer(uint32,bytes32)":"3400288b","strategies(uint32,uint256)":"f56f1db2","strategyCount(uint32)":"33c56c75","transferOwnership(address)":"f2fde38b"}}}}}