{
  "_format": "hh-sol-artifact-1",
  "contractName": "DeFiStrategyOptimizer",
  "sourceName": "contracts/DeFiStrategyOptimizer.sol",
  "abi": [
    {
      "inputs": [],
      "stateMutability": "nonpayable",
      "type": "constructor"
    },
    {
      "inputs": [
        {
          "internalType": "string",
          "name": "_name",
          "type": "string"
        },
        {
          "internalType": "uint256",
          "name": "_apy",
          "type": "uint256"
        },
        {
          "internalType": "uint256",
          "name": "_risk",
          "type": "uint256"
        },
        {
          "internalType": "uint256",
          "name": "_liquidity",
          "type": "uint256"
        },
        {
          "internalType": "uint256",
          "name": "_volatility",
          "type": "uint256"
        }
      ],
      "name": "addStrategy",
      "outputs": [],
      "stateMutability": "nonpayable",
      "type": "function"
    },
    {
      "inputs": [],
      "name": "getOptimalStrategy",
      "outputs": [
        {
          "internalType": "string",
          "name": "",
          "type": "string"
        },
        {
          "internalType": "uint256",
          "name": "",
          "type": "uint256"
        },
        {
          "internalType": "uint256",
          "name": "",
          "type": "uint256"
        }
      ],
      "stateMutability": "view",
      "type": "function"
    },
    {
      "inputs": [],
      "name": "getStrategiesData",
      "outputs": [
        {
          "components": [
            {
              "internalType": "string",
              "name": "name",
              "type": "string"
            },
            {
              "internalType": "uint256",
              "name": "apy",
              "type": "uint256"
            },
            {
              "internalType": "uint256",
              "name": "risk",
              "type": "uint256"
            },
            {
              "internalType": "uint256",
              "name": "liquidity",
              "type": "uint256"
            },
            {
              "internalType": "uint256",
              "name": "volatility",
              "type": "uint256"
            }
          ],
          "internalType": "struct DeFiStrategyOptimizer.Strategy[]",
          "name": "",
          "type": "tuple[]"
        }
      ],
      "stateMutability": "view",
      "type": "function"
    },
    {
      "inputs": [],
      "name": "owner",
      "outputs": [
        {
          "internalType": "address",
          "name": "",
          "type": "address"
        }
      ],
      "stateMutability": "view",
      "type": "function"
    },
    {
      "inputs": [
        {
          "internalType": "uint256",
          "name": "",
          "type": "uint256"
        }
      ],
      "name": "strategies",
      "outputs": [
        {
          "internalType": "string",
          "name": "name",
          "type": "string"
        },
        {
          "internalType": "uint256",
          "name": "apy",
          "type": "uint256"
        },
        {
          "internalType": "uint256",
          "name": "risk",
          "type": "uint256"
        },
        {
          "internalType": "uint256",
          "name": "liquidity",
          "type": "uint256"
        },
        {
          "internalType": "uint256",
          "name": "volatility",
          "type": "uint256"
        }
      ],
      "stateMutability": "view",
      "type": "function"
    }
  ],
  "bytecode": "0x608060405234801561001057600080fd5b5033600160006101000a81548173ffffffffffffffffffffffffffffffffffffffff021916908373ffffffffffffffffffffffffffffffffffffffff16021790555061102f806100616000396000f3fe608060405234801561001057600080fd5b50600436106100575760003560e01c8063048a9c551461005c578063095aa6a51461007a5780638da5cb5b1461009a578063b5d787d4146100b8578063d574ea3d146100d4575b600080fd5b610064610108565b60405161007191906107f5565b60405180910390f35b610082610221565b60405161009193929190610870565b60405180910390f35b6100a26103f7565b6040516100af91906108ef565b60405180910390f35b6100d260048036038101906100cd9190610a7f565b61041d565b005b6100ee60048036038101906100e99190610b16565b610546565b6040516100ff959493929190610b43565b60405180910390f35b60606000805480602002602001604051908101604052809291908181526020016000905b8282101561021857838290600052602060002090600502016040518060a001604052908160008201805461015f90610bcc565b80601f016020809104026020016040519081016040528092919081815260200182805461018b90610bcc565b80156101d85780601f106101ad576101008083540402835291602001916101d8565b820191906000526020600020905b8154815290600101906020018083116101bb57829003601f168201915b505050505081526020016001820154815260200160028201548152602001600382015481526020016004820154815250508152602001906001019061012c565b50505050905090565b6060600080600080805490501161026d576040517f08c379a000000000000000000000000000000000000000000000000000000000815260040161026490610c49565b60405180910390fd5b60008060005b6000805490508110156102ec57826000828154811061029557610294610c69565b5b90600052602060002090600502016001015411156102d957600081815481106102c1576102c0610c69565b5b90600052602060002090600502016001015492508091505b80806102e490610cc7565b915050610273565b506000818154811061030157610300610c69565b5b90600052602060002090600502016000016000828154811061032657610325610c69565b5b9060005260206000209060050201600101546000838154811061034c5761034b610c69565b5b90600052602060002090600502016002015482805461036a90610bcc565b80601f016020809104026020016040519081016040528092919081815260200182805461039690610bcc565b80156103e35780601f106103b8576101008083540402835291602001916103e3565b820191906000526020600020905b8154815290600101906020018083116103c657829003601f168201915b505050505092509450945094505050909192565b600160009054906101000a900473ffffffffffffffffffffffffffffffffffffffff1681565b600160009054906101000a900473ffffffffffffffffffffffffffffffffffffffff1673ffffffffffffffffffffffffffffffffffffffff163373ffffffffffffffffffffffffffffffffffffffff16146104ad576040517f08c379a00000000000000000000000000000000000000000000000000000000081526004016104a490610d5b565b60405180910390fd5b60006040518060a0016040528087815260200186815260200185815260200184815260200183815250908060018154018082558091505060019003906000526020600020906005020160009091909190915060008201518160000190816105149190610f27565b506020820151816001015560408201518160020155606082015181600301556080820151816004015550505050505050565b6000818154811061055657600080fd5b906000526020600020906005020160009150905080600001805461057990610bcc565b80601f01602080910402602001604051908101604052809291908181526020018280546105a590610bcc565b80156105f25780601f106105c7576101008083540402835291602001916105f2565b820191906000526020600020905b8154815290600101906020018083116105d557829003601f168201915b5050505050908060010154908060020154908060030154908060040154905085565b600081519050919050565b600082825260208201905092915050565b6000819050602082019050919050565b600081519050919050565b600082825260208201905092915050565b60005b8381101561067a57808201518184015260208101905061065f565b60008484015250505050565b6000601f19601f8301169050919050565b60006106a282610640565b6106ac818561064b565b93506106bc81856020860161065c565b6106c581610686565b840191505092915050565b6000819050919050565b6106e3816106d0565b82525050565b600060a08301600083015184820360008601526107068282610697565b915050602083015161071b60208601826106da565b50604083015161072e60408601826106da565b50606083015161074160608601826106da565b50608083015161075460808601826106da565b508091505092915050565b600061076b83836106e9565b905092915050565b6000602082019050919050565b600061078b82610614565b610795818561061f565b9350836020820285016107a785610630565b8060005b858110156107e357848403895281516107c4858261075f565b94506107cf83610773565b925060208a019950506001810190506107ab565b50829750879550505050505092915050565b6000602082019050818103600083015261080f8184610780565b905092915050565b600082825260208201905092915050565b600061083382610640565b61083d8185610817565b935061084d81856020860161065c565b61085681610686565b840191505092915050565b61086a816106d0565b82525050565b6000606082019050818103600083015261088a8186610828565b90506108996020830185610861565b6108a66040830184610861565b949350505050565b600073ffffffffffffffffffffffffffffffffffffffff82169050919050565b60006108d9826108ae565b9050919050565b6108e9816108ce565b82525050565b600060208201905061090460008301846108e0565b92915050565b6000604051905090565b600080fd5b600080fd5b600080fd5b600080fd5b7f4e487b7100000000000000000000000000000000000000000000000000000000600052604160045260246000fd5b61096082610686565b810181811067ffffffffffffffff8211171561097f5761097e610928565b5b80604052505050565b600061099261090a565b905061099e8282610957565b919050565b600067ffffffffffffffff8211156109be576109bd610928565b5b6109c782610686565b9050602081019050919050565b82818337600083830152505050565b60006109f66109f1846109a3565b610988565b905082815260208101848484011115610a1257610a11610923565b5b610a1d8482856109d4565b509392505050565b600082601f830112610a3a57610a3961091e565b5b8135610a4a8482602086016109e3565b91505092915050565b610a5c816106d0565b8114610a6757600080fd5b50565b600081359050610a7981610a53565b92915050565b600080600080600060a08688031215610a9b57610a9a610914565b5b600086013567ffffffffffffffff811115610ab957610ab8610919565b5b610ac588828901610a25565b9550506020610ad688828901610a6a565b9450506040610ae788828901610a6a565b9350506060610af888828901610a6a565b9250506080610b0988828901610a6a565b9150509295509295909350565b600060208284031215610b2c57610b2b610914565b5b6000610b3a84828501610a6a565b91505092915050565b600060a0820190508181036000830152610b5d8188610828565b9050610b6c6020830187610861565b610b796040830186610861565b610b866060830185610861565b610b936080830184610861565b9695505050505050565b7f4e487b7100000000000000000000000000000000000000000000000000000000600052602260045260246000fd5b60006002820490506001821680610be457607f821691505b602082108103610bf757610bf6610b9d565b5b50919050565b7f4e6f207374726174656769657320617661696c61626c65000000000000000000600082015250565b6000610c33601783610817565b9150610c3e82610bfd565b602082019050919050565b60006020820190508181036000830152610c6281610c26565b9050919050565b7f4e487b7100000000000000000000000000000000000000000000000000000000600052603260045260246000fd5b7f4e487b7100000000000000000000000000000000000000000000000000000000600052601160045260246000fd5b6000610cd2826106d0565b91507fffffffffffffffffffffffffffffffffffffffffffffffffffffffffffffffff8203610d0457610d03610c98565b5b600182019050919050565b7f4f6e6c79206f776e65722063616e206164642073747261746567696573000000600082015250565b6000610d45601d83610817565b9150610d5082610d0f565b602082019050919050565b60006020820190508181036000830152610d7481610d38565b9050919050565b60008190508160005260206000209050919050565b60006020601f8301049050919050565b600082821b905092915050565b600060088302610ddd7fffffffffffffffffffffffffffffffffffffffffffffffffffffffffffffffff82610da0565b610de78683610da0565b95508019841693508086168417925050509392505050565b6000819050919050565b6000610e24610e1f610e1a846106d0565b610dff565b6106d0565b9050919050565b6000819050919050565b610e3e83610e09565b610e52610e4a82610e2b565b848454610dad565b825550505050565b600090565b610e67610e5a565b610e72818484610e35565b505050565b5b81811015610e9657610e8b600082610e5f565b600181019050610e78565b5050565b601f821115610edb57610eac81610d7b565b610eb584610d90565b81016020851015610ec4578190505b610ed8610ed085610d90565b830182610e77565b50505b505050565b600082821c905092915050565b6000610efe60001984600802610ee0565b1980831691505092915050565b6000610f178383610eed565b9150826002028217905092915050565b610f3082610640565b67ffffffffffffffff811115610f4957610f48610928565b5b610f538254610bcc565b610f5e828285610e9a565b600060209050601f831160018114610f915760008415610f7f578287015190505b610f898582610f0b565b865550610ff1565b601f198416610f9f86610d7b565b60005b82811015610fc757848901518255600182019150602085019450602081019050610fa2565b86831015610fe45784890151610fe0601f891682610eed565b8355505b6001600288020188555050505b50505050505056fea26469706673582212209f78d6e86679a679f9c418fdc3a8ff46d77d995e945b73e0ef6506424babc77f64736f6c63430008130033",
  "linkReferences": {},
  "deployedLinkReferences": {}
}