{
  "_format": "hh-sol-artifact-1",
  "contractName": "ChainSageOApp",
  "sourceName": "contracts/ChainSageOApp.sol",
  "abi": [
    {
      "inputs": [
        {
          "internalType": "address",
          "name": "_endpoint",
          "type": "address"
        },
        {
          "internalType": "address",
          "name": "_owner",
          "type": "address"
        }
      ],
      "stateMutability": "nonpayable",
      "type": "constructor"
    },
    {
      "inputs": [],
      "name": "InvalidDelegate",
      "type": "error"
    },
    {
      "inputs": [],
      "name": "InvalidEndpointCall",
      "type": "error"
    },
    {
      "inputs": [],
      "name": "LzTokenUnavailable",
      "type": "error"
    },
    {
      "inputs": [
        {
          "internalType": "uint32",
          "name": "eid",
          "type": "uint32"
        }
      ],
      "name": "NoPeer",
      "type": "error"
    },
    {
      "inputs": [
        {
          "internalType": "uint256",
          "name": "msgValue",
          "type": "uint256"
        }
      ],
      "name": "NotEnoughNative",
      "type": "error"
    },
    {
      "inputs": [
        {
          "internalType": "address",
          "name": "addr",
          "type": "address"
        }
      ],
      "name": "OnlyEndpoint",
      "type": "error"
    },
    {
      "inputs": [
        {
          "internalType": "uint32",
          "name": "eid",
          "type": "uint32"
        },
        {
          "internalType": "bytes32",
          "name": "sender",
          "type": "bytes32"
        }
      ],
      "name": "OnlyPeer",
      "type": "error"
    },
    {
      "anonymous": false,
      "inputs": [
        {
          "indexed": true,
          "internalType": "address",
          "name": "previousOwner",
          "type": "address"
        },
        {
          "indexed": true,
          "internalType": "address",
          "name": "newOwner",
          "type": "address"
        }
      ],
      "name": "OwnershipTransferred",
      "type": "event"
    },
    {
      "anonymous": false,
      "inputs": [
        {
          "indexed": false,
          "internalType": "uint32",
          "name": "eid",
          "type": "uint32"
        },
        {
          "indexed": false,
          "internalType": "bytes32",
          "name": "peer",
          "type": "bytes32"
        }
      ],
      "name": "PeerSet",
      "type": "event"
    },
    {
      "anonymous": false,
      "inputs": [
        {
          "indexed": false,
          "internalType": "uint32",
          "name": "srcEid",
          "type": "uint32"
        },
        {
          "indexed": false,
          "internalType": "uint32",
          "name": "dstEid",
          "type": "uint32"
        },
        {
          "indexed": false,
          "internalType": "string",
          "name": "strategyName",
          "type": "string"
        },
        {
          "indexed": false,
          "internalType": "uint256",
          "name": "apy",
          "type": "uint256"
        }
      ],
      "name": "StrategyOptimized",
      "type": "event"
    },
    {
      "inputs": [
        {
          "internalType": "uint32",
          "name": "_eid",
          "type": "uint32"
        },
        {
          "internalType": "string",
          "name": "_name",
          "type": "string"
        },
        {
          "internalType": "uint256",
          "name": "_apy",
          "type": "uint256"
        },
        {
          "internalType": "uint256",
          "name": "_risk",
          "type": "uint256"
        },
        {
          "internalType": "uint256",
          "name": "_liquidity",
          "type": "uint256"
        },
        {
          "internalType": "uint256",
          "name": "_volatility",
          "type": "uint256"
        }
      ],
      "name": "addStrategy",
      "outputs": [],
      "stateMutability": "nonpayable",
      "type": "function"
    },
    {
      "inputs": [
        {
          "components": [
            {
              "internalType": "uint32",
              "name": "srcEid",
              "type": "uint32"
            },
            {
              "internalType": "bytes32",
              "name": "sender",
              "type": "bytes32"
            },
            {
              "internalType": "uint64",
              "name": "nonce",
              "type": "uint64"
            }
          ],
          "internalType": "struct Origin",
          "name": "origin",
          "type": "tuple"
        }
      ],
      "name": "allowInitializePath",
      "outputs": [
        {
          "internalType": "bool",
          "name": "",
          "type": "bool"
        }
      ],
      "stateMutability": "view",
      "type": "function"
    },
    {
      "inputs": [
        {
          "internalType": "uint256",
          "name": "",
          "type": "uint256"
        }
      ],
      "name": "chainIdToEid",
      "outputs": [
        {
          "internalType": "uint32",
          "name": "",
          "type": "uint32"
        }
      ],
      "stateMutability": "view",
      "type": "function"
    },
    {
      "inputs": [
        {
          "internalType": "uint32[]",
          "name": "_chainIds",
          "type": "uint32[]"
        }
      ],
      "name": "compareStrategiesAcrossChains",
      "outputs": [
        {
          "components": [
            {
              "internalType": "string",
              "name": "name",
              "type": "string"
            },
            {
              "internalType": "uint256",
              "name": "apy",
              "type": "uint256"
            },
            {
              "internalType": "uint256",
              "name": "risk",
              "type": "uint256"
            },
            {
              "internalType": "uint256",
              "name": "liquidity",
              "type": "uint256"
            },
            {
              "internalType": "uint256",
              "name": "volatility",
              "type": "uint256"
            }
          ],
          "internalType": "struct ChainSageOApp.Strategy",
          "name": "bestStrategy",
          "type": "tuple"
        },
        {
          "internalType": "uint32",
          "name": "bestChainId",
          "type": "uint32"
        }
      ],
      "stateMutability": "view",
      "type": "function"
    },
    {
      "inputs": [
        {
          "internalType": "uint32",
          "name": "",
          "type": "uint32"
        }
      ],
      "name": "eidToChainId",
      "outputs": [
        {
          "internalType": "uint256",
          "name": "",
          "type": "uint256"
        }
      ],
      "stateMutability": "view",
      "type": "function"
    },
    {
      "inputs": [],
      "name": "endpoint",
      "outputs": [
        {
          "internalType": "contract ILayerZeroEndpointV2",
          "name": "",
          "type": "address"
        }
      ],
      "stateMutability": "view",
      "type": "function"
    },
    {
      "inputs": [
        {
          "internalType": "uint32",
          "name": "_eid",
          "type": "uint32"
        }
      ],
      "name": "getStrategiesData",
      "outputs": [
        {
          "components": [
            {
              "internalType": "string",
              "name": "name",
              "type": "string"
            },
            {
              "internalType": "uint256",
              "name": "apy",
              "type": "uint256"
            },
            {
              "internalType": "uint256",
              "name": "risk",
              "type": "uint256"
            },
            {
              "internalType": "uint256",
              "name": "liquidity",
              "type": "uint256"
            },
            {
              "internalType": "uint256",
              "name": "volatility",
              "type": "uint256"
            }
          ],
          "internalType": "struct ChainSageOApp.Strategy[]",
          "name": "",
          "type": "tuple[]"
        }
      ],
      "stateMutability": "view",
      "type": "function"
    },
    {
      "inputs": [
        {
          "components": [
            {
              "internalType": "uint32",
              "name": "srcEid",
              "type": "uint32"
            },
            {
              "internalType": "bytes32",
              "name": "sender",
              "type": "bytes32"
            },
            {
              "internalType": "uint64",
              "name": "nonce",
              "type": "uint64"
            }
          ],
          "internalType": "struct Origin",
          "name": "",
          "type": "tuple"
        },
        {
          "internalType": "bytes",
          "name": "",
          "type": "bytes"
        },
        {
          "internalType": "address",
          "name": "_sender",
          "type": "address"
        }
      ],
      "name": "isComposeMsgSender",
      "outputs": [
        {
          "internalType": "bool",
          "name": "",
          "type": "bool"
        }
      ],
      "stateMutability": "view",
      "type": "function"
    },
    {
      "inputs": [
        {
          "components": [
            {
              "internalType": "uint32",
              "name": "srcEid",
              "type": "uint32"
            },
            {
              "internalType": "bytes32",
              "name": "sender",
              "type": "bytes32"
            },
            {
              "internalType": "uint64",
              "name": "nonce",
              "type": "uint64"
            }
          ],
          "internalType": "struct Origin",
          "name": "_origin",
          "type": "tuple"
        },
        {
          "internalType": "bytes32",
          "name": "_guid",
          "type": "bytes32"
        },
        {
          "internalType": "bytes",
          "name": "_message",
          "type": "bytes"
        },
        {
          "internalType": "address",
          "name": "_executor",
          "type": "address"
        },
        {
          "internalType": "bytes",
          "name": "_extraData",
          "type": "bytes"
        }
      ],
      "name": "lzReceive",
      "outputs": [],
      "stateMutability": "payable",
      "type": "function"
    },
    {
      "inputs": [
        {
          "internalType": "uint32",
          "name": "",
          "type": "uint32"
        },
        {
          "internalType": "bytes32",
          "name": "",
          "type": "bytes32"
        }
      ],
      "name": "nextNonce",
      "outputs": [
        {
          "internalType": "uint64",
          "name": "nonce",
          "type": "uint64"
        }
      ],
      "stateMutability": "view",
      "type": "function"
    },
    {
      "inputs": [],
      "name": "oAppVersion",
      "outputs": [
        {
          "internalType": "uint64",
          "name": "senderVersion",
          "type": "uint64"
        },
        {
          "internalType": "uint64",
          "name": "receiverVersion",
          "type": "uint64"
        }
      ],
      "stateMutability": "pure",
      "type": "function"
    },
    {
      "inputs": [
        {
          "internalType": "uint32",
          "name": "_dstEid",
          "type": "uint32"
        },
        {
          "internalType": "bytes",
          "name": "_options",
          "type": "bytes"
        }
      ],
      "name": "optimizeStrategy",
      "outputs": [],
      "stateMutability": "payable",
      "type": "function"
    },
    {
      "inputs": [
        {
          "internalType": "uint32",
          "name": "_eid",
          "type": "uint32"
        }
      ],
      "name": "optimizeWithPhala",
      "outputs": [
        {
          "components": [
            {
              "internalType": "string",
              "name": "name",
              "type": "string"
            },
            {
              "internalType": "uint256",
              "name": "apy",
              "type": "uint256"
            },
            {
              "internalType": "uint256",
              "name": "risk",
              "type": "uint256"
            },
            {
              "internalType": "uint256",
              "name": "liquidity",
              "type": "uint256"
            },
            {
              "internalType": "uint256",
              "name": "volatility",
              "type": "uint256"
            }
          ],
          "internalType": "struct ChainSageOApp.Strategy",
          "name": "",
          "type": "tuple"
        }
      ],
      "stateMutability": "view",
      "type": "function"
    },
    {
      "inputs": [
        {
          "internalType": "uint32",
          "name": "_dstEid",
          "type": "uint32"
        },
        {
          "internalType": "bytes",
          "name": "_options",
          "type": "bytes"
        }
      ],
      "name": "optimizeZircuitStrategy",
      "outputs": [],
      "stateMutability": "payable",
      "type": "function"
    },
    {
      "inputs": [],
      "name": "owner",
      "outputs": [
        {
          "internalType": "address",
          "name": "",
          "type": "address"
        }
      ],
      "stateMutability": "view",
      "type": "function"
    },
    {
      "inputs": [
        {
          "internalType": "uint32",
          "name": "eid",
          "type": "uint32"
        }
      ],
      "name": "peers",
      "outputs": [
        {
          "internalType": "bytes32",
          "name": "peer",
          "type": "bytes32"
        }
      ],
      "stateMutability": "view",
      "type": "function"
    },
    {
      "inputs": [],
      "name": "renounceOwnership",
      "outputs": [],
      "stateMutability": "nonpayable",
      "type": "function"
    },
    {
      "inputs": [
        {
          "internalType": "uint256",
          "name": "_chainId",
          "type": "uint256"
        },
        {
          "internalType": "uint32",
          "name": "_eid",
          "type": "uint32"
        }
      ],
      "name": "setChainIdMapping",
      "outputs": [],
      "stateMutability": "nonpayable",
      "type": "function"
    },
    {
      "inputs": [
        {
          "internalType": "address",
          "name": "_delegate",
          "type": "address"
        }
      ],
      "name": "setDelegate",
      "outputs": [],
      "stateMutability": "nonpayable",
      "type": "function"
    },
    {
      "inputs": [
        {
          "internalType": "uint32",
          "name": "_eid",
          "type": "uint32"
        },
        {
          "internalType": "bytes32",
          "name": "_peer",
          "type": "bytes32"
        }
      ],
      "name": "setPeer",
      "outputs": [],
      "stateMutability": "nonpayable",
      "type": "function"
    },
    {
      "inputs": [
        {
          "internalType": "uint32",
          "name": "",
          "type": "uint32"
        },
        {
          "internalType": "uint256",
          "name": "",
          "type": "uint256"
        }
      ],
      "name": "strategies",
      "outputs": [
        {
          "internalType": "string",
          "name": "name",
          "type": "string"
        },
        {
          "internalType": "uint256",
          "name": "apy",
          "type": "uint256"
        },
        {
          "internalType": "uint256",
          "name": "risk",
          "type": "uint256"
        },
        {
          "internalType": "uint256",
          "name": "liquidity",
          "type": "uint256"
        },
        {
          "internalType": "uint256",
          "name": "volatility",
          "type": "uint256"
        }
      ],
      "stateMutability": "view",
      "type": "function"
    },
    {
      "inputs": [
        {
          "internalType": "uint32",
          "name": "",
          "type": "uint32"
        }
      ],
      "name": "strategyCount",
      "outputs": [
        {
          "internalType": "uint256",
          "name": "",
          "type": "uint256"
        }
      ],
      "stateMutability": "view",
      "type": "function"
    },
    {
      "inputs": [
        {
          "internalType": "address",
          "name": "newOwner",
          "type": "address"
        }
      ],
      "name": "transferOwnership",
      "outputs": [],
      "stateMutability": "nonpayable",
      "type": "function"
    }
  ],
  "bytecode": "0x60a06040523480156200001157600080fd5b5060405162002b7038038062002b7083398101604081905262000034916200014b565b818181816200004333620000de565b6001600160a01b0380831660805281166200007157604051632d618d8160e21b815260040160405180910390fd5b60805160405163ca5eb5e160e01b81526001600160a01b0383811660048301529091169063ca5eb5e190602401600060405180830381600087803b158015620000b957600080fd5b505af1158015620000ce573d6000803e3d6000fd5b5050505050505050505062000183565b600080546001600160a01b038381166001600160a01b0319831681178455604051919092169283917f8be0079c531659141344cd1fd0a4f28419497f9722a3daafe3b4186f6b6457e09190a35050565b80516001600160a01b03811681146200014657600080fd5b919050565b600080604083850312156200015f57600080fd5b6200016a836200012e565b91506200017a602084016200012e565b90509250929050565b6080516129ae620001c26000396000818161022e015281816104e601528181610e1f01528181611635015281816119750152611a2e01526129ae6000f3fe6080604052600436106101405760003560e01c80638da5cb5b116100b6578063dcdbf3ec1161006f578063dcdbf3ec146103dd578063f151e4971461040b578063f2fde38b14610453578063f56f1db214610473578063f788b3a6146104a4578063ff7bd03d146104c457600080fd5b80638da5cb5b146103125780638f56569214610330578063bb0b6a531461035d578063bd5c9aaf1461038a578063ca5eb5e11461039d578063d439a5c9146103bd57600080fd5b806359c730c31161010857806359c730c3146101ef5780635e280f111461021c578063715018a6146102685780637d25a05e1461027d57806382413eac146102b55780638b42babd146102e557600080fd5b806313137d651461014557806317442b701461015a57806333c56c75146101815780633400288b146101bc57806357efdeaa146101dc575b600080fd5b610158610153366004611d7d565b6104e4565b005b34801561016657600080fd5b50604080516001815260026020820152015b60405180910390f35b34801561018d57600080fd5b506101ae61019c366004611e35565b60036020526000908152604090205481565b604051908152602001610178565b3480156101c857600080fd5b506101586101d7366004611e57565b6105a4565b6101586101ea366004611e81565b6105ba565b3480156101fb57600080fd5b5061020f61020a366004611e35565b6106f5565b6040516101789190611fc4565b34801561022857600080fd5b506102507f000000000000000000000000000000000000000000000000000000000000000081565b6040516001600160a01b039091168152602001610178565b34801561027457600080fd5b50610158610821565b34801561028957600080fd5b5061029d610298366004611e57565b610835565b6040516001600160401b039091168152602001610178565b3480156102c157600080fd5b506102d56102d0366004611fd7565b61083e565b6040519015158152602001610178565b3480156102f157600080fd5b506101ae610300366004611e35565b60056020526000908152604090205481565b34801561031e57600080fd5b506000546001600160a01b0316610250565b34801561033c57600080fd5b5061035061034b366004611e35565b610853565b604051610178919061203d565b34801561036957600080fd5b506101ae610378366004611e35565b60016020526000908152604090205481565b610158610398366004611e81565b610b6a565b3480156103a957600080fd5b506101586103b8366004612050565b610df8565b3480156103c957600080fd5b506101586103d836600461216c565b610e7e565b3480156103e957600080fd5b506103fd6103f83660046121ff565b610f45565b604051610178929190612290565b34801561041757600080fd5b5061043e6104263660046122b8565b60046020526000908152604090205463ffffffff1681565b60405163ffffffff9091168152602001610178565b34801561045f57600080fd5b5061015861046e366004612050565b61112d565b34801561047f57600080fd5b5061049361048e366004611e57565b6111a6565b6040516101789594939291906122d1565b3480156104b057600080fd5b506101586104bf366004612308565b611281565b3480156104d057600080fd5b506102d56104df366004612334565b6112bc565b7f00000000000000000000000000000000000000000000000000000000000000006001600160a01b03163314610534576040516391ac5e4f60e01b81523360048201526024015b60405180910390fd5b6020870180359061054e90610549908a611e35565b6112f2565b1461058c576105606020880188611e35565b60405163309afaf360e21b815263ffffffff90911660048201526020880135602482015260440161052b565b61059b8787878787878761132e565b50505050505050565b6105ac611510565b6105b6828261156a565b5050565b4660009081526004602052604081205463ffffffff16900361061e5760405162461bcd60e51b815260206004820152601b60248201527f536f7572636520636861696e206e6f7420636f6e666967757265640000000000604482015260640161052b565b4660009081526004602090815260408083205463ffffffff16808452600283528184209151909392610654928592909101612384565b60408051601f19818403018152828201825234835260006020848101919091528251808401909352601d83527f66726f6d20636f6e7472616374206265666f7265206c7a53656e643a200000009083015292506106b0906115bf565b61059b868387878080601f0160208091040260200160405190810160405280939291908181526020018383808284376000920191909152508792503391506116029050565b63ffffffff81166000908152600260209081526040808320805482518185028101850190935280835260609492939192909184015b8282101561081657838290600052602060002090600502016040518060a001604052908160008201805461075d90612350565b80601f016020809104026020016040519081016040528092919081815260200182805461078990612350565b80156107d65780601f106107ab576101008083540402835291602001916107d6565b820191906000526020600020905b8154815290600101906020018083116107b957829003601f168201915b505050505081526020016001820154815260200160028201548152602001600382015481526020016004820154815250508152602001906001019061072a565b505050509050919050565b610829611510565b610833600061170d565b565b60005b92915050565b6001600160a01b03811630145b949350505050565b6108856040518060a0016040528060608152602001600081526020016000815260200160008152602001600081525090565b63ffffffff82166000908152600260205260409020546108f35760405162461bcd60e51b8152602060048201526024808201527f4e6f207374726174656769657320617661696c61626c6520666f7220746869736044820152630811525160e21b606482015260840161052b565b63ffffffff821660009081526002602052604081208054829061091857610918612491565b90600052602060002090600502016040518060a001604052908160008201805461094190612350565b80601f016020809104026020016040519081016040528092919081815260200182805461096d90612350565b80156109ba5780601f1061098f576101008083540402835291602001916109ba565b820191906000526020600020905b81548152906001019060200180831161099d57829003601f168201915b5050509183525050600182810154602083015260028301546040830152600383015460608301526004909201546080909101529091505b63ffffffff8416600090815260026020526040902054811015610b635760208083015163ffffffff8616600090815260029092526040909120805483908110610a3c57610a3c612491565b9060005260206000209060050201600101541115610b515763ffffffff84166000908152600260205260409020805482908110610a7b57610a7b612491565b90600052602060002090600502016040518060a0016040529081600082018054610aa490612350565b80601f0160208091040260200160405190810160405280929190818152602001828054610ad090612350565b8015610b1d5780601f10610af257610100808354040283529160200191610b1d565b820191906000526020600020905b815481529060010190602001808311610b0057829003601f168201915b5050505050815260200160018201548152602001600282015481526020016003820154815260200160048201548152505091505b80610b5b816124bd565b9150506109f1565b5092915050565b4660009081526004602052604081205463ffffffff169003610bce5760405162461bcd60e51b815260206004820152601b60248201527f536f7572636520636861696e206e6f7420636f6e666967757265640000000000604482015260640161052b565b4660009081526004602090815260408083205463ffffffff16808452600283528184208054835181860281018601909452808452919493909190849084015b82821015610cf957838290600052602060002090600502016040518060a0016040529081600082018054610c4090612350565b80601f0160208091040260200160405190810160405280929190818152602001828054610c6c90612350565b8015610cb95780601f10610c8e57610100808354040283529160200191610cb9565b820191906000526020600020905b815481529060010190602001808311610c9c57829003601f168201915b5050505050815260200160018201548152602001600282015481526020016003820154815260200160048201548152505081526020019060010190610c0d565b50505050905060005b8151811015610d73576064828281518110610d1f57610d1f612491565b6020026020010151602001516069610d3791906124d6565b610d4191906124ed565b828281518110610d5357610d53612491565b602090810291909101810151015280610d6b816124bd565b915050610d02565b5060008282604051602001610d8992919061250f565b60408051601f19818403018152828201825234835260006020848101919091528251601f8901829004820281018201909352878352909350610dee9189918591908a908a90819084018382808284376000920191909152508792503391506116029050565b5050505050505050565b610e00611510565b60405163ca5eb5e160e01b81526001600160a01b0382811660048301527f0000000000000000000000000000000000000000000000000000000000000000169063ca5eb5e190602401600060405180830381600087803b158015610e6357600080fd5b505af1158015610e77573d6000803e3d6000fd5b5050505050565b610e86611510565b63ffffffff86166000908152600260209081526040808320815160a08101835289815280840189905291820187905260608201869052608082018590528054600181018255908452919092208251600590920201908190610ee7908261257c565b5060208281015160018301556040808401516002840155606084015160038085019190915560809094015160049093019290925563ffffffff891660009081529290528120805491610f38836124bd565b9190505550505050505050565b610f776040518060a0016040528060608152602001600081526020016000815260200160008152602001600081525090565b600080805b84518110156111265760006110d760026000888581518110610fa057610fa0612491565b602002602001015163ffffffff1663ffffffff168152602001908152602001600020805480602002602001604051908101604052809291908181526020016000905b828210156110ce57838290600052602060002090600502016040518060a001604052908160008201805461101590612350565b80601f016020809104026020016040519081016040528092919081815260200182805461104190612350565b801561108e5780601f106110635761010080835404028352916020019161108e565b820191906000526020600020905b81548152906001019060200180831161107157829003601f168201915b5050505050815260200160018201548152602001600282015481526020016003820154815260200160048201548152505081526020019060010190610fe2565b5050505061175d565b905060006110e48261186f565b9050838111156111115780935081955086838151811061110657611106612491565b602002602001015194505b5050808061111e906124bd565b915050610f7c565b5050915091565b611135611510565b6001600160a01b03811661119a5760405162461bcd60e51b815260206004820152602660248201527f4f776e61626c653a206e6577206f776e657220697320746865207a65726f206160448201526564647265737360d01b606482015260840161052b565b6111a38161170d565b50565b600260205281600052604060002081815481106111c257600080fd5b9060005260206000209060050201600091509150508060000180546111e690612350565b80601f016020809104026020016040519081016040528092919081815260200182805461121290612350565b801561125f5780601f106112345761010080835404028352916020019161125f565b820191906000526020600020905b81548152906001019060200180831161124257829003601f168201915b5050505050908060010154908060020154908060030154908060040154905085565b611289611510565b6000828152600460209081526040808320805463ffffffff90951663ffffffff1990951685179055928252600590522055565b60006020820180359060019083906112d49086611e35565b63ffffffff1681526020810191909152604001600020541492915050565b63ffffffff8116600090815260016020526040812054806108385760405163f6ff4fb760e01b815263ffffffff8416600482015260240161052b565b6113606040518060400160405280601181526020017017db1e949958d95a5d994818d85b1b1959607a1b8152506115bf565b60008061136f8688018861263b565b915091506113b86040518060400160405280601881526020017f4465636f646564206d6573736167652e207372634569643a00000000000000008152508363ffffffff166118ba565b6113f060405180604001604052806015815260200174273ab6b132b91037b31039ba3930ba32b3b4b2b99d60591b81525082516118ba565b60006113fb8261175d565b90506114406040518060400160405280601a81526020017f4265737420737472617465677920666f756e642e204e616d653a00000000000081525082600001516118ff565b611478604051806040016040528060128152602001712132b9ba1039ba3930ba32b3bc9020a82c9d60711b81525082602001516118ba565b7fef687003a6d93e74ed8bfdda320a959e343aa949fcbb929bb89581a31f29b6136114a660208c018c611e35565b825160208401516040516114be93924692909161275f565b60405180910390a16115046040518060400160405280601f81526020017f53747261746567794f7074696d697a6564206576656e7420656d6974746564008152506115bf565b50505050505050505050565b6000546001600160a01b031633146108335760405162461bcd60e51b815260206004820181905260248201527f4f776e61626c653a2063616c6c6572206973206e6f7420746865206f776e6572604482015260640161052b565b63ffffffff8216600081815260016020908152604091829020849055815192835282018390527f238399d427b947898edb290f5ff0f9109849b1c3ba196a42e35f00c50a54b98b910160405180910390a15050565b6111a3816040516024016115d39190612799565b60408051601f198184030181529190526020810180516001600160e01b031663104c13eb60e21b179052611940565b61160a611cc1565b60006116198460000151611949565b602085015190915015611633576116338460200151611971565b7f00000000000000000000000000000000000000000000000000000000000000006001600160a01b0316632637a450826040518060a001604052808b63ffffffff1681526020016116838c6112f2565b81526020018a815260200189815260200160008960200151111515815250866040518463ffffffff1660e01b81526004016116bf9291906127ac565b60806040518083038185885af11580156116dd573d6000803e3d6000fd5b50505050506040513d601f19601f820116820180604052508101906117029190612825565b979650505050505050565b600080546001600160a01b038381166001600160a01b0319831681178455604051919092169283917f8be0079c531659141344cd1fd0a4f28419497f9722a3daafe3b4186f6b6457e09190a35050565b61178f6040518060a0016040528060608152602001600081526020016000815260200160008152602001600081525090565b60008251116117e05760405162461bcd60e51b815260206004820152601760248201527f4e6f207374726174656769657320617661696c61626c65000000000000000000604482015260640161052b565b6000826000815181106117f5576117f5612491565b602002602001015190506000600190505b8351811015610b63576118188261186f565b61183a85838151811061182d5761182d612491565b602002602001015161186f565b111561185d5783818151811061185257611852612491565b602002602001015191505b80611867816124bd565b915050611806565b60008160800151606461188291906124d6565b606083015160408401516118979060646128ba565b84602001516118a691906124d6565b6118b091906124d6565b61083891906124ed565b6105b682826040516024016118d09291906128cd565b60408051601f198184030181529190526020810180516001600160e01b0316632d839cb360e21b179052611940565b6105b682826040516024016119159291906128ef565b60408051601f198184030181529190526020810180516001600160e01b0316634b5c427760e01b1790525b6111a381611a53565b600081341461196d576040516304fb820960e51b815234600482015260240161052b565b5090565b60007f00000000000000000000000000000000000000000000000000000000000000006001600160a01b031663e4fe1d946040518163ffffffff1660e01b8152600401602060405180830381865afa1580156119d1573d6000803e3d6000fd5b505050506040513d601f19601f820116820180604052508101906119f5919061291d565b90506001600160a01b038116611a1e576040516329b99a9560e11b815260040160405180910390fd5b6105b66001600160a01b038216337f000000000000000000000000000000000000000000000000000000000000000085611a74565b60006a636f6e736f6c652e6c6f679050600080835160208501845afa505050565b604080516001600160a01b0385811660248301528416604482015260648082018490528251808303909101815260849091019091526020810180516001600160e01b03166323b872dd60e01b179052611ace908590611ad4565b50505050565b6000611b29826040518060400160405280602081526020017f5361666545524332303a206c6f772d6c6576656c2063616c6c206661696c6564815250856001600160a01b0316611bae9092919063ffffffff16565b9050805160001480611b4a575080806020019051810190611b4a919061293a565b611ba95760405162461bcd60e51b815260206004820152602a60248201527f5361666545524332303a204552433230206f7065726174696f6e20646964206e6044820152691bdd081cdd58d8d9595960b21b606482015260840161052b565b505050565b606061084b848460008585600080866001600160a01b03168587604051611bd5919061295c565b60006040518083038185875af1925050503d8060008114611c12576040519150601f19603f3d011682016040523d82523d6000602084013e611c17565b606091505b50915091506117028783838760608315611c92578251600003611c8b576001600160a01b0385163b611c8b5760405162461bcd60e51b815260206004820152601d60248201527f416464726573733a2063616c6c20746f206e6f6e2d636f6e7472616374000000604482015260640161052b565b508161084b565b61084b8383815115611ca75781518083602001fd5b8060405162461bcd60e51b815260040161052b9190612799565b60405180606001604052806000801916815260200160006001600160401b03168152602001611d03604051806040016040528060008152602001600081525090565b905290565b600060608284031215611d1a57600080fd5b50919050565b60008083601f840112611d3257600080fd5b5081356001600160401b03811115611d4957600080fd5b602083019150836020828501011115611d6157600080fd5b9250929050565b6001600160a01b03811681146111a357600080fd5b600080600080600080600060e0888a031215611d9857600080fd5b611da28989611d08565b96506060880135955060808801356001600160401b0380821115611dc557600080fd5b611dd18b838c01611d20565b909750955060a08a01359150611de682611d68565b90935060c08901359080821115611dfc57600080fd5b50611e098a828b01611d20565b989b979a50959850939692959293505050565b803563ffffffff81168114611e3057600080fd5b919050565b600060208284031215611e4757600080fd5b611e5082611e1c565b9392505050565b60008060408385031215611e6a57600080fd5b611e7383611e1c565b946020939093013593505050565b600080600060408486031215611e9657600080fd5b611e9f84611e1c565b925060208401356001600160401b03811115611eba57600080fd5b611ec686828701611d20565b9497909650939450505050565b60005b83811015611eee578181015183820152602001611ed6565b50506000910152565b60008151808452611f0f816020860160208601611ed3565b601f01601f19169290920160200192915050565b6000815160a08452611f3860a0850182611ef7565b9050602083015160208501526040830151604085015260608301516060850152608083015160808501528091505092915050565b600082825180855260208086019550808260051b84010181860160005b84811015611fb757601f19868403018952611fa5838351611f23565b98840198925090830190600101611f89565b5090979650505050505050565b602081526000611e506020830184611f6c565b60008060008060a08587031215611fed57600080fd5b611ff78686611d08565b935060608501356001600160401b0381111561201257600080fd5b61201e87828801611d20565b909450925050608085013561203281611d68565b939692955090935050565b602081526000611e506020830184611f23565b60006020828403121561206257600080fd5b8135611e5081611d68565b634e487b7160e01b600052604160045260246000fd5b60405160a081016001600160401b03811182821017156120a5576120a561206d565b60405290565b604080519081016001600160401b03811182821017156120a5576120a561206d565b604051601f8201601f191681016001600160401b03811182821017156120f5576120f561206d565b604052919050565b600082601f83011261210e57600080fd5b81356001600160401b038111156121275761212761206d565b61213a601f8201601f19166020016120cd565b81815284602083860101111561214f57600080fd5b816020850160208301376000918101602001919091529392505050565b60008060008060008060c0878903121561218557600080fd5b61218e87611e1c565b955060208701356001600160401b038111156121a957600080fd5b6121b589828a016120fd565b96999698505050506040850135946060810135946080820135945060a09091013592509050565b60006001600160401b038211156121f5576121f561206d565b5060051b60200190565b6000602080838503121561221257600080fd5b82356001600160401b0381111561222857600080fd5b8301601f8101851361223957600080fd5b803561224c612247826121dc565b6120cd565b81815260059190911b8201830190838101908783111561226b57600080fd5b928401925b828410156117025761228184611e1c565b82529284019290840190612270565b6040815260006122a36040830185611f23565b905063ffffffff831660208301529392505050565b6000602082840312156122ca57600080fd5b5035919050565b60a0815260006122e460a0830188611ef7565b90508560208301528460408301528360608301528260808301529695505050505050565b6000806040838503121561231b57600080fd5b8235915061232b60208401611e1c565b90509250929050565b60006060828403121561234657600080fd5b611e508383611d08565b600181811c9082168061236457607f821691505b602082108103611d1a57634e487b7160e01b600052602260045260246000fd5b6000604080830163ffffffff861684526020828186015281865480845260609350838701915060058482821b89010160008a8152858120815b8581101561247f57605f198c850301875260a08085528383546123df81612350565b92870183905260c09260018281168015612400576001811461241957612444565b60ff1984168a8701528215158b1b8a0186019450612444565b8789528d8920895b8481101561243c5781548c8201890152908301908f01612421565b8b0187019550505b50860154888d0152505060028401548c87015260038401548b87015260048401546080909601959095525095870195908401906001016123bd565b50919c9b505050505050505050505050565b634e487b7160e01b600052603260045260246000fd5b634e487b7160e01b600052601160045260246000fd5b6000600182016124cf576124cf6124a7565b5060010190565b8082028115828204841417610838576108386124a7565b60008261250a57634e487b7160e01b600052601260045260246000fd5b500490565b63ffffffff8316815260406020820152600061084b6040830184611f6c565b601f821115611ba957600081815260208120601f850160051c810160208610156125555750805b601f850160051c820191505b8181101561257457828155600101612561565b505050505050565b81516001600160401b038111156125955761259561206d565b6125a9816125a38454612350565b8461252e565b602080601f8311600181146125de57600084156125c65750858301515b600019600386901b1c1916600185901b178555612574565b600085815260208120601f198616915b8281101561260d578886015182559484019460019091019084016125ee565b508582101561262b5787850151600019600388901b60f8161c191681555b5050505050600190811b01905550565b6000806040838503121561264e57600080fd5b61265783611e1c565b91506020808401356001600160401b038082111561267457600080fd5b818601915086601f83011261268857600080fd5b8135612696612247826121dc565b81815260059190911b830184019084810190898311156126b557600080fd5b8585015b8381101561274e578035858111156126d15760008081fd5b860160a0818d03601f19018113156126e95760008081fd5b6126f1612083565b89830135888111156127035760008081fd5b6127118f8c838701016120fd565b8252506040838101358b830152606080850135918301919091526080808501359183019190915291909201359082015283529186019186016126b9565b508096505050505050509250929050565b600063ffffffff8087168352808616602084015250608060408301526127886080830185611ef7565b905082606083015295945050505050565b602081526000611e506020830184611ef7565b6040815263ffffffff8351166040820152602083015160608201526000604084015160a060808401526127e260e0840182611ef7565b90506060850151603f198483030160a08501526127ff8282611ef7565b60809690960151151560c08501525050506001600160a01b039190911660209091015290565b6000818303608081121561283857600080fd5b604051606081016001600160401b03828210818311171561285b5761285b61206d565b816040528551835260208601519150808216821461287857600080fd5b5060208201526040603f198301121561289057600080fd5b6128986120ab565b6040858101518252606090950151602082015293810193909352509092915050565b81810381811115610838576108386124a7565b6040815260006128e06040830185611ef7565b90508260208301529392505050565b6040815260006129026040830185611ef7565b82810360208401526129148185611ef7565b95945050505050565b60006020828403121561292f57600080fd5b8151611e5081611d68565b60006020828403121561294c57600080fd5b81518015158114611e5057600080fd5b6000825161296e818460208701611ed3565b919091019291505056fea26469706673582212203a461c82b6a58957642975f9ae44819d84584a231b78d320d8c7e420c7c6993e64736f6c63430008140033",
  "linkReferences": {},
  "deployedLinkReferences": {}
}