{
  "_format": "hh-sol-artifact-1",
  "contractName": "ChainSageOApp",
  "sourceName": "contracts/ChainSageOApp.sol",
  "abi": [
    {
      "inputs": [
        {
          "internalType": "address",
          "name": "_endpoint",
          "type": "address"
        },
        {
          "internalType": "address",
          "name": "_owner",
          "type": "address"
        }
      ],
      "stateMutability": "nonpayable",
      "type": "constructor"
    },
    {
      "inputs": [],
      "name": "InvalidDelegate",
      "type": "error"
    },
    {
      "inputs": [],
      "name": "InvalidEndpointCall",
      "type": "error"
    },
    {
      "inputs": [],
      "name": "LzTokenUnavailable",
      "type": "error"
    },
    {
      "inputs": [
        {
          "internalType": "uint32",
          "name": "eid",
          "type": "uint32"
        }
      ],
      "name": "NoPeer",
      "type": "error"
    },
    {
      "inputs": [
        {
          "internalType": "uint256",
          "name": "msgValue",
          "type": "uint256"
        }
      ],
      "name": "NotEnoughNative",
      "type": "error"
    },
    {
      "inputs": [
        {
          "internalType": "address",
          "name": "addr",
          "type": "address"
        }
      ],
      "name": "OnlyEndpoint",
      "type": "error"
    },
    {
      "inputs": [
        {
          "internalType": "uint32",
          "name": "eid",
          "type": "uint32"
        },
        {
          "internalType": "bytes32",
          "name": "sender",
          "type": "bytes32"
        }
      ],
      "name": "OnlyPeer",
      "type": "error"
    },
    {
      "anonymous": false,
      "inputs": [
        {
          "indexed": true,
          "internalType": "address",
          "name": "previousOwner",
          "type": "address"
        },
        {
          "indexed": true,
          "internalType": "address",
          "name": "newOwner",
          "type": "address"
        }
      ],
      "name": "OwnershipTransferred",
      "type": "event"
    },
    {
      "anonymous": false,
      "inputs": [
        {
          "indexed": false,
          "internalType": "uint32",
          "name": "eid",
          "type": "uint32"
        },
        {
          "indexed": false,
          "internalType": "bytes32",
          "name": "peer",
          "type": "bytes32"
        }
      ],
      "name": "PeerSet",
      "type": "event"
    },
    {
      "anonymous": false,
      "inputs": [
        {
          "indexed": false,
          "internalType": "uint32",
          "name": "srcEid",
          "type": "uint32"
        },
        {
          "indexed": false,
          "internalType": "uint32",
          "name": "dstEid",
          "type": "uint32"
        },
        {
          "indexed": false,
          "internalType": "string",
          "name": "strategyName",
          "type": "string"
        },
        {
          "indexed": false,
          "internalType": "uint256",
          "name": "apy",
          "type": "uint256"
        }
      ],
      "name": "StrategyOptimized",
      "type": "event"
    },
    {
      "inputs": [
        {
          "internalType": "uint32",
          "name": "_eid",
          "type": "uint32"
        },
        {
          "internalType": "string",
          "name": "_name",
          "type": "string"
        },
        {
          "internalType": "uint256",
          "name": "_apy",
          "type": "uint256"
        },
        {
          "internalType": "uint256",
          "name": "_risk",
          "type": "uint256"
        },
        {
          "internalType": "uint256",
          "name": "_liquidity",
          "type": "uint256"
        },
        {
          "internalType": "uint256",
          "name": "_volatility",
          "type": "uint256"
        }
      ],
      "name": "addStrategy",
      "outputs": [],
      "stateMutability": "nonpayable",
      "type": "function"
    },
    {
      "inputs": [
        {
          "components": [
            {
              "internalType": "uint32",
              "name": "srcEid",
              "type": "uint32"
            },
            {
              "internalType": "bytes32",
              "name": "sender",
              "type": "bytes32"
            },
            {
              "internalType": "uint64",
              "name": "nonce",
              "type": "uint64"
            }
          ],
          "internalType": "struct Origin",
          "name": "origin",
          "type": "tuple"
        }
      ],
      "name": "allowInitializePath",
      "outputs": [
        {
          "internalType": "bool",
          "name": "",
          "type": "bool"
        }
      ],
      "stateMutability": "view",
      "type": "function"
    },
    {
      "inputs": [
        {
          "internalType": "uint256",
          "name": "",
          "type": "uint256"
        }
      ],
      "name": "chainIdToEid",
      "outputs": [
        {
          "internalType": "uint32",
          "name": "",
          "type": "uint32"
        }
      ],
      "stateMutability": "view",
      "type": "function"
    },
    {
      "inputs": [
        {
          "internalType": "uint32[]",
          "name": "_chainIds",
          "type": "uint32[]"
        }
      ],
      "name": "compareStrategiesAcrossChains",
      "outputs": [
        {
          "components": [
            {
              "internalType": "string",
              "name": "name",
              "type": "string"
            },
            {
              "internalType": "uint256",
              "name": "apy",
              "type": "uint256"
            },
            {
              "internalType": "uint256",
              "name": "risk",
              "type": "uint256"
            },
            {
              "internalType": "uint256",
              "name": "liquidity",
              "type": "uint256"
            },
            {
              "internalType": "uint256",
              "name": "volatility",
              "type": "uint256"
            }
          ],
          "internalType": "struct ChainSageOApp.Strategy",
          "name": "bestStrategy",
          "type": "tuple"
        },
        {
          "internalType": "uint32",
          "name": "bestChainId",
          "type": "uint32"
        }
      ],
      "stateMutability": "view",
      "type": "function"
    },
    {
      "inputs": [
        {
          "internalType": "uint32",
          "name": "",
          "type": "uint32"
        }
      ],
      "name": "eidToChainId",
      "outputs": [
        {
          "internalType": "uint256",
          "name": "",
          "type": "uint256"
        }
      ],
      "stateMutability": "view",
      "type": "function"
    },
    {
      "inputs": [],
      "name": "endpoint",
      "outputs": [
        {
          "internalType": "contract ILayerZeroEndpointV2",
          "name": "",
          "type": "address"
        }
      ],
      "stateMutability": "view",
      "type": "function"
    },
    {
      "inputs": [
        {
          "internalType": "uint32",
          "name": "_eid",
          "type": "uint32"
        }
      ],
      "name": "getStrategiesData",
      "outputs": [
        {
          "components": [
            {
              "internalType": "string",
              "name": "name",
              "type": "string"
            },
            {
              "internalType": "uint256",
              "name": "apy",
              "type": "uint256"
            },
            {
              "internalType": "uint256",
              "name": "risk",
              "type": "uint256"
            },
            {
              "internalType": "uint256",
              "name": "liquidity",
              "type": "uint256"
            },
            {
              "internalType": "uint256",
              "name": "volatility",
              "type": "uint256"
            }
          ],
          "internalType": "struct ChainSageOApp.Strategy[]",
          "name": "",
          "type": "tuple[]"
        }
      ],
      "stateMutability": "view",
      "type": "function"
    },
    {
      "inputs": [
        {
          "components": [
            {
              "internalType": "uint32",
              "name": "srcEid",
              "type": "uint32"
            },
            {
              "internalType": "bytes32",
              "name": "sender",
              "type": "bytes32"
            },
            {
              "internalType": "uint64",
              "name": "nonce",
              "type": "uint64"
            }
          ],
          "internalType": "struct Origin",
          "name": "",
          "type": "tuple"
        },
        {
          "internalType": "bytes",
          "name": "",
          "type": "bytes"
        },
        {
          "internalType": "address",
          "name": "_sender",
          "type": "address"
        }
      ],
      "name": "isComposeMsgSender",
      "outputs": [
        {
          "internalType": "bool",
          "name": "",
          "type": "bool"
        }
      ],
      "stateMutability": "view",
      "type": "function"
    },
    {
      "inputs": [
        {
          "components": [
            {
              "internalType": "uint32",
              "name": "srcEid",
              "type": "uint32"
            },
            {
              "internalType": "bytes32",
              "name": "sender",
              "type": "bytes32"
            },
            {
              "internalType": "uint64",
              "name": "nonce",
              "type": "uint64"
            }
          ],
          "internalType": "struct Origin",
          "name": "_origin",
          "type": "tuple"
        },
        {
          "internalType": "bytes32",
          "name": "_guid",
          "type": "bytes32"
        },
        {
          "internalType": "bytes",
          "name": "_message",
          "type": "bytes"
        },
        {
          "internalType": "address",
          "name": "_executor",
          "type": "address"
        },
        {
          "internalType": "bytes",
          "name": "_extraData",
          "type": "bytes"
        }
      ],
      "name": "lzReceive",
      "outputs": [],
      "stateMutability": "payable",
      "type": "function"
    },
    {
      "inputs": [
        {
          "internalType": "uint32",
          "name": "",
          "type": "uint32"
        },
        {
          "internalType": "bytes32",
          "name": "",
          "type": "bytes32"
        }
      ],
      "name": "nextNonce",
      "outputs": [
        {
          "internalType": "uint64",
          "name": "nonce",
          "type": "uint64"
        }
      ],
      "stateMutability": "view",
      "type": "function"
    },
    {
      "inputs": [],
      "name": "oAppVersion",
      "outputs": [
        {
          "internalType": "uint64",
          "name": "senderVersion",
          "type": "uint64"
        },
        {
          "internalType": "uint64",
          "name": "receiverVersion",
          "type": "uint64"
        }
      ],
      "stateMutability": "pure",
      "type": "function"
    },
    {
      "inputs": [
        {
          "internalType": "uint32",
          "name": "_dstEid",
          "type": "uint32"
        },
        {
          "internalType": "bytes",
          "name": "_options",
          "type": "bytes"
        }
      ],
      "name": "optimizeStrategy",
      "outputs": [],
      "stateMutability": "payable",
      "type": "function"
    },
    {
      "inputs": [
        {
          "internalType": "uint32",
          "name": "_dstEid",
          "type": "uint32"
        },
        {
          "internalType": "bytes",
          "name": "_options",
          "type": "bytes"
        }
      ],
      "name": "optimizeZircuitStrategy",
      "outputs": [],
      "stateMutability": "payable",
      "type": "function"
    },
    {
      "inputs": [],
      "name": "owner",
      "outputs": [
        {
          "internalType": "address",
          "name": "",
          "type": "address"
        }
      ],
      "stateMutability": "view",
      "type": "function"
    },
    {
      "inputs": [
        {
          "internalType": "uint32",
          "name": "eid",
          "type": "uint32"
        }
      ],
      "name": "peers",
      "outputs": [
        {
          "internalType": "bytes32",
          "name": "peer",
          "type": "bytes32"
        }
      ],
      "stateMutability": "view",
      "type": "function"
    },
    {
      "inputs": [],
      "name": "renounceOwnership",
      "outputs": [],
      "stateMutability": "nonpayable",
      "type": "function"
    },
    {
      "inputs": [
        {
          "internalType": "uint256",
          "name": "_chainId",
          "type": "uint256"
        },
        {
          "internalType": "uint32",
          "name": "_eid",
          "type": "uint32"
        }
      ],
      "name": "setChainIdMapping",
      "outputs": [],
      "stateMutability": "nonpayable",
      "type": "function"
    },
    {
      "inputs": [
        {
          "internalType": "address",
          "name": "_delegate",
          "type": "address"
        }
      ],
      "name": "setDelegate",
      "outputs": [],
      "stateMutability": "nonpayable",
      "type": "function"
    },
    {
      "inputs": [
        {
          "internalType": "uint32",
          "name": "_eid",
          "type": "uint32"
        },
        {
          "internalType": "bytes32",
          "name": "_peer",
          "type": "bytes32"
        }
      ],
      "name": "setPeer",
      "outputs": [],
      "stateMutability": "nonpayable",
      "type": "function"
    },
    {
      "inputs": [
        {
          "internalType": "uint32",
          "name": "",
          "type": "uint32"
        },
        {
          "internalType": "uint256",
          "name": "",
          "type": "uint256"
        }
      ],
      "name": "strategies",
      "outputs": [
        {
          "internalType": "string",
          "name": "name",
          "type": "string"
        },
        {
          "internalType": "uint256",
          "name": "apy",
          "type": "uint256"
        },
        {
          "internalType": "uint256",
          "name": "risk",
          "type": "uint256"
        },
        {
          "internalType": "uint256",
          "name": "liquidity",
          "type": "uint256"
        },
        {
          "internalType": "uint256",
          "name": "volatility",
          "type": "uint256"
        }
      ],
      "stateMutability": "view",
      "type": "function"
    },
    {
      "inputs": [
        {
          "internalType": "uint32",
          "name": "",
          "type": "uint32"
        }
      ],
      "name": "strategyCount",
      "outputs": [
        {
          "internalType": "uint256",
          "name": "",
          "type": "uint256"
        }
      ],
      "stateMutability": "view",
      "type": "function"
    },
    {
      "inputs": [
        {
          "internalType": "address",
          "name": "newOwner",
          "type": "address"
        }
      ],
      "name": "transferOwnership",
      "outputs": [],
      "stateMutability": "nonpayable",
      "type": "function"
    }
  ],
  "bytecode": "0x60a06040523480156200001157600080fd5b50604051620028153803806200281583398101604081905262000034916200014b565b818181816200004333620000de565b6001600160a01b0380831660805281166200007157604051632d618d8160e21b815260040160405180910390fd5b60805160405163ca5eb5e160e01b81526001600160a01b0383811660048301529091169063ca5eb5e190602401600060405180830381600087803b158015620000b957600080fd5b505af1158015620000ce573d6000803e3d6000fd5b5050505050505050505062000183565b600080546001600160a01b038381166001600160a01b0319831681178455604051919092169283917f8be0079c531659141344cd1fd0a4f28419497f9722a3daafe3b4186f6b6457e09190a35050565b80516001600160a01b03811681146200014657600080fd5b919050565b600080604083850312156200015f57600080fd5b6200016a836200012e565b91506200017a602084016200012e565b90509250929050565b608051612653620001c260003960008181610223015281816104ae01528181610ad0015281816112e60152818161162d01526116e601526126536000f3fe6080604052600436106101355760003560e01c80638da5cb5b116100ab578063dcdbf3ec1161006f578063dcdbf3ec146103a5578063f151e497146103d3578063f2fde38b1461041b578063f56f1db21461043b578063f788b3a61461046c578063ff7bd03d1461048c57600080fd5b80638da5cb5b14610307578063bb0b6a5314610325578063bd5c9aaf14610352578063ca5eb5e114610365578063d439a5c91461038557600080fd5b806359c730c3116100fd57806359c730c3146101e45780635e280f1114610211578063715018a61461025d5780637d25a05e1461027257806382413eac146102aa5780638b42babd146102da57600080fd5b806313137d651461013a57806317442b701461014f57806333c56c75146101765780633400288b146101b157806357efdeaa146101d1575b600080fd5b61014d610148366004611a35565b6104ac565b005b34801561015b57600080fd5b50604080516001815260026020820152015b60405180910390f35b34801561018257600080fd5b506101a3610191366004611aed565b60036020526000908152604090205481565b60405190815260200161016d565b3480156101bd57600080fd5b5061014d6101cc366004611b0f565b61056c565b61014d6101df366004611b39565b610582565b3480156101f057600080fd5b506102046101ff366004611aed565b6106bd565b60405161016d9190611c7c565b34801561021d57600080fd5b506102457f000000000000000000000000000000000000000000000000000000000000000081565b6040516001600160a01b03909116815260200161016d565b34801561026957600080fd5b5061014d6107e9565b34801561027e57600080fd5b5061029261028d366004611b0f565b6107fd565b6040516001600160401b03909116815260200161016d565b3480156102b657600080fd5b506102ca6102c5366004611c8f565b610806565b604051901515815260200161016d565b3480156102e657600080fd5b506101a36102f5366004611aed565b60056020526000908152604090205481565b34801561031357600080fd5b506000546001600160a01b0316610245565b34801561033157600080fd5b506101a3610340366004611aed565b60016020526000908152604090205481565b61014d610360366004611b39565b61081b565b34801561037157600080fd5b5061014d610380366004611cf5565b610aa9565b34801561039157600080fd5b5061014d6103a0366004611e11565b610b2f565b3480156103b157600080fd5b506103c56103c0366004611ea4565b610bf6565b60405161016d929190611f35565b3480156103df57600080fd5b506104066103ee366004611f5d565b60046020526000908152604090205463ffffffff1681565b60405163ffffffff909116815260200161016d565b34801561042757600080fd5b5061014d610436366004611cf5565b610dde565b34801561044757600080fd5b5061045b610456366004611b0f565b610e57565b60405161016d959493929190611f76565b34801561047857600080fd5b5061014d610487366004611fad565b610f32565b34801561049857600080fd5b506102ca6104a7366004611fd9565b610f6d565b7f00000000000000000000000000000000000000000000000000000000000000006001600160a01b031633146104fc576040516391ac5e4f60e01b81523360048201526024015b60405180910390fd5b6020870180359061051690610511908a611aed565b610fa3565b14610554576105286020880188611aed565b60405163309afaf360e21b815263ffffffff9091166004820152602088013560248201526044016104f3565b61056387878787878787610fdf565b50505050505050565b6105746111c1565b61057e828261121b565b5050565b4660009081526004602052604081205463ffffffff1690036105e65760405162461bcd60e51b815260206004820152601b60248201527f536f7572636520636861696e206e6f7420636f6e66696775726564000000000060448201526064016104f3565b4660009081526004602090815260408083205463ffffffff1680845260028352818420915190939261061c928592909101612029565b60408051601f19818403018152828201825234835260006020848101919091528251808401909352601d83527f66726f6d20636f6e7472616374206265666f7265206c7a53656e643a2000000090830152925061067890611270565b610563868387878080601f0160208091040260200160405190810160405280939291908181526020018383808284376000920191909152508792503391506112b39050565b63ffffffff81166000908152600260209081526040808320805482518185028101850190935280835260609492939192909184015b828210156107de57838290600052602060002090600502016040518060a001604052908160008201805461072590611ff5565b80601f016020809104026020016040519081016040528092919081815260200182805461075190611ff5565b801561079e5780601f106107735761010080835404028352916020019161079e565b820191906000526020600020905b81548152906001019060200180831161078157829003601f168201915b50505050508152602001600182015481526020016002820154815260200160038201548152602001600482015481525050815260200190600101906106f2565b505050509050919050565b6107f16111c1565b6107fb60006113be565b565b60005b92915050565b6001600160a01b03811630145b949350505050565b4660009081526004602052604081205463ffffffff16900361087f5760405162461bcd60e51b815260206004820152601b60248201527f536f7572636520636861696e206e6f7420636f6e66696775726564000000000060448201526064016104f3565b4660009081526004602090815260408083205463ffffffff16808452600283528184208054835181860281018601909452808452919493909190849084015b828210156109aa57838290600052602060002090600502016040518060a00160405290816000820180546108f190611ff5565b80601f016020809104026020016040519081016040528092919081815260200182805461091d90611ff5565b801561096a5780601f1061093f5761010080835404028352916020019161096a565b820191906000526020600020905b81548152906001019060200180831161094d57829003601f168201915b50505050508152602001600182015481526020016002820154815260200160038201548152602001600482015481525050815260200190600101906108be565b50505050905060005b8151811015610a245760648282815181106109d0576109d0612136565b60200260200101516020015160696109e89190612162565b6109f29190612179565b828281518110610a0457610a04612136565b602090810291909101810151015280610a1c8161219b565b9150506109b3565b5060008282604051602001610a3a9291906121b4565b60408051601f19818403018152828201825234835260006020848101919091528251601f8901829004820281018201909352878352909350610a9f9189918591908a908a90819084018382808284376000920191909152508792503391506112b39050565b5050505050505050565b610ab16111c1565b60405163ca5eb5e160e01b81526001600160a01b0382811660048301527f0000000000000000000000000000000000000000000000000000000000000000169063ca5eb5e190602401600060405180830381600087803b158015610b1457600080fd5b505af1158015610b28573d6000803e3d6000fd5b5050505050565b610b376111c1565b63ffffffff86166000908152600260209081526040808320815160a08101835289815280840189905291820187905260608201869052608082018590528054600181018255908452919092208251600590920201908190610b989082612221565b5060208281015160018301556040808401516002840155606084015160038085019190915560809094015160049093019290925563ffffffff891660009081529290528120805491610be98361219b565b9190505550505050505050565b610c286040518060a0016040528060608152602001600081526020016000815260200160008152602001600081525090565b600080805b8451811015610dd7576000610d8860026000888581518110610c5157610c51612136565b602002602001015163ffffffff1663ffffffff168152602001908152602001600020805480602002602001604051908101604052809291908181526020016000905b82821015610d7f57838290600052602060002090600502016040518060a0016040529081600082018054610cc690611ff5565b80601f0160208091040260200160405190810160405280929190818152602001828054610cf290611ff5565b8015610d3f5780601f10610d1457610100808354040283529160200191610d3f565b820191906000526020600020905b815481529060010190602001808311610d2257829003601f168201915b5050505050815260200160018201548152602001600282015481526020016003820154815260200160048201548152505081526020019060010190610c93565b5050505061140e565b90506000610d9582611527565b905083811115610dc257809350819550868381518110610db757610db7612136565b602002602001015194505b50508080610dcf9061219b565b915050610c2d565b5050915091565b610de66111c1565b6001600160a01b038116610e4b5760405162461bcd60e51b815260206004820152602660248201527f4f776e61626c653a206e6577206f776e657220697320746865207a65726f206160448201526564647265737360d01b60648201526084016104f3565b610e54816113be565b50565b60026020528160005260406000208181548110610e7357600080fd5b906000526020600020906005020160009150915050806000018054610e9790611ff5565b80601f0160208091040260200160405190810160405280929190818152602001828054610ec390611ff5565b8015610f105780601f10610ee557610100808354040283529160200191610f10565b820191906000526020600020905b815481529060010190602001808311610ef357829003601f168201915b5050505050908060010154908060020154908060030154908060040154905085565b610f3a6111c1565b6000828152600460209081526040808320805463ffffffff90951663ffffffff1990951685179055928252600590522055565b6000602082018035906001908390610f859086611aed565b63ffffffff1681526020810191909152604001600020541492915050565b63ffffffff8116600090815260016020526040812054806108005760405163f6ff4fb760e01b815263ffffffff841660048201526024016104f3565b6110116040518060400160405280601181526020017017db1e949958d95a5d994818d85b1b1959607a1b815250611270565b600080611020868801886122e0565b915091506110696040518060400160405280601881526020017f4465636f646564206d6573736167652e207372634569643a00000000000000008152508363ffffffff16611572565b6110a160405180604001604052806015815260200174273ab6b132b91037b31039ba3930ba32b3b4b2b99d60591b8152508251611572565b60006110ac8261140e565b90506110f16040518060400160405280601a81526020017f4265737420737472617465677920666f756e642e204e616d653a00000000000081525082600001516115b7565b611129604051806040016040528060128152602001712132b9ba1039ba3930ba32b3bc9020a82c9d60711b8152508260200151611572565b7fef687003a6d93e74ed8bfdda320a959e343aa949fcbb929bb89581a31f29b61361115760208c018c611aed565b8251602084015160405161116f939246929091612404565b60405180910390a16111b56040518060400160405280601f81526020017f53747261746567794f7074696d697a6564206576656e7420656d697474656400815250611270565b50505050505050505050565b6000546001600160a01b031633146107fb5760405162461bcd60e51b815260206004820181905260248201527f4f776e61626c653a2063616c6c6572206973206e6f7420746865206f776e657260448201526064016104f3565b63ffffffff8216600081815260016020908152604091829020849055815192835282018390527f238399d427b947898edb290f5ff0f9109849b1c3ba196a42e35f00c50a54b98b910160405180910390a15050565b610e5481604051602401611284919061243e565b60408051601f198184030181529190526020810180516001600160e01b031663104c13eb60e21b1790526115f8565b6112bb611979565b60006112ca8460000151611601565b6020850151909150156112e4576112e48460200151611629565b7f00000000000000000000000000000000000000000000000000000000000000006001600160a01b0316632637a450826040518060a001604052808b63ffffffff1681526020016113348c610fa3565b81526020018a815260200189815260200160008960200151111515815250866040518463ffffffff1660e01b8152600401611370929190612451565b60806040518083038185885af115801561138e573d6000803e3d6000fd5b50505050506040513d601f19601f820116820180604052508101906113b391906124ca565b979650505050505050565b600080546001600160a01b038381166001600160a01b0319831681178455604051919092169283917f8be0079c531659141344cd1fd0a4f28419497f9722a3daafe3b4186f6b6457e09190a35050565b6114406040518060a0016040528060608152602001600081526020016000815260200160008152602001600081525090565b60008251116114915760405162461bcd60e51b815260206004820152601760248201527f4e6f207374726174656769657320617661696c61626c6500000000000000000060448201526064016104f3565b6000826000815181106114a6576114a6612136565b602002602001015190506000600190505b8351811015611520576114c982611527565b6114eb8583815181106114de576114de612136565b6020026020010151611527565b111561150e5783818151811061150357611503612136565b602002602001015191505b806115188161219b565b9150506114b7565b5092915050565b60008160800151606461153a9190612162565b6060830151604084015161154f90606461255f565b846020015161155e9190612162565b6115689190612162565b6108009190612179565b61057e8282604051602401611588929190612572565b60408051601f198184030181529190526020810180516001600160e01b0316632d839cb360e21b1790526115f8565b61057e82826040516024016115cd929190612594565b60408051601f198184030181529190526020810180516001600160e01b0316634b5c427760e01b1790525b610e548161170b565b6000813414611625576040516304fb820960e51b81523460048201526024016104f3565b5090565b60007f00000000000000000000000000000000000000000000000000000000000000006001600160a01b031663e4fe1d946040518163ffffffff1660e01b8152600401602060405180830381865afa158015611689573d6000803e3d6000fd5b505050506040513d601f19601f820116820180604052508101906116ad91906125c2565b90506001600160a01b0381166116d6576040516329b99a9560e11b815260040160405180910390fd5b61057e6001600160a01b038216337f00000000000000000000000000000000000000000000000000000000000000008561172c565b60006a636f6e736f6c652e6c6f679050600080835160208501845afa505050565b604080516001600160a01b0385811660248301528416604482015260648082018490528251808303909101815260849091019091526020810180516001600160e01b03166323b872dd60e01b17905261178690859061178c565b50505050565b60006117e1826040518060400160405280602081526020017f5361666545524332303a206c6f772d6c6576656c2063616c6c206661696c6564815250856001600160a01b03166118669092919063ffffffff16565b905080516000148061180257508080602001905181019061180291906125df565b6118615760405162461bcd60e51b815260206004820152602a60248201527f5361666545524332303a204552433230206f7065726174696f6e20646964206e6044820152691bdd081cdd58d8d9595960b21b60648201526084016104f3565b505050565b6060610813848460008585600080866001600160a01b0316858760405161188d9190612601565b60006040518083038185875af1925050503d80600081146118ca576040519150601f19603f3d011682016040523d82523d6000602084013e6118cf565b606091505b50915091506113b3878383876060831561194a578251600003611943576001600160a01b0385163b6119435760405162461bcd60e51b815260206004820152601d60248201527f416464726573733a2063616c6c20746f206e6f6e2d636f6e747261637400000060448201526064016104f3565b5081610813565b610813838381511561195f5781518083602001fd5b8060405162461bcd60e51b81526004016104f3919061243e565b60405180606001604052806000801916815260200160006001600160401b031681526020016119bb604051806040016040528060008152602001600081525090565b905290565b6000606082840312156119d257600080fd5b50919050565b60008083601f8401126119ea57600080fd5b5081356001600160401b03811115611a0157600080fd5b602083019150836020828501011115611a1957600080fd5b9250929050565b6001600160a01b0381168114610e5457600080fd5b600080600080600080600060e0888a031215611a5057600080fd5b611a5a89896119c0565b96506060880135955060808801356001600160401b0380821115611a7d57600080fd5b611a898b838c016119d8565b909750955060a08a01359150611a9e82611a20565b90935060c08901359080821115611ab457600080fd5b50611ac18a828b016119d8565b989b979a50959850939692959293505050565b803563ffffffff81168114611ae857600080fd5b919050565b600060208284031215611aff57600080fd5b611b0882611ad4565b9392505050565b60008060408385031215611b2257600080fd5b611b2b83611ad4565b946020939093013593505050565b600080600060408486031215611b4e57600080fd5b611b5784611ad4565b925060208401356001600160401b03811115611b7257600080fd5b611b7e868287016119d8565b9497909650939450505050565b60005b83811015611ba6578181015183820152602001611b8e565b50506000910152565b60008151808452611bc7816020860160208601611b8b565b601f01601f19169290920160200192915050565b6000815160a08452611bf060a0850182611baf565b9050602083015160208501526040830151604085015260608301516060850152608083015160808501528091505092915050565b600082825180855260208086019550808260051b84010181860160005b84811015611c6f57601f19868403018952611c5d838351611bdb565b98840198925090830190600101611c41565b5090979650505050505050565b602081526000611b086020830184611c24565b60008060008060a08587031215611ca557600080fd5b611caf86866119c0565b935060608501356001600160401b03811115611cca57600080fd5b611cd6878288016119d8565b9094509250506080850135611cea81611a20565b939692955090935050565b600060208284031215611d0757600080fd5b8135611b0881611a20565b634e487b7160e01b600052604160045260246000fd5b60405160a081016001600160401b0381118282101715611d4a57611d4a611d12565b60405290565b604080519081016001600160401b0381118282101715611d4a57611d4a611d12565b604051601f8201601f191681016001600160401b0381118282101715611d9a57611d9a611d12565b604052919050565b600082601f830112611db357600080fd5b81356001600160401b03811115611dcc57611dcc611d12565b611ddf601f8201601f1916602001611d72565b818152846020838601011115611df457600080fd5b816020850160208301376000918101602001919091529392505050565b60008060008060008060c08789031215611e2a57600080fd5b611e3387611ad4565b955060208701356001600160401b03811115611e4e57600080fd5b611e5a89828a01611da2565b96999698505050506040850135946060810135946080820135945060a09091013592509050565b60006001600160401b03821115611e9a57611e9a611d12565b5060051b60200190565b60006020808385031215611eb757600080fd5b82356001600160401b03811115611ecd57600080fd5b8301601f81018513611ede57600080fd5b8035611ef1611eec82611e81565b611d72565b81815260059190911b82018301908381019087831115611f1057600080fd5b928401925b828410156113b357611f2684611ad4565b82529284019290840190611f15565b604081526000611f486040830185611bdb565b905063ffffffff831660208301529392505050565b600060208284031215611f6f57600080fd5b5035919050565b60a081526000611f8960a0830188611baf565b90508560208301528460408301528360608301528260808301529695505050505050565b60008060408385031215611fc057600080fd5b82359150611fd060208401611ad4565b90509250929050565b600060608284031215611feb57600080fd5b611b0883836119c0565b600181811c9082168061200957607f821691505b6020821081036119d257634e487b7160e01b600052602260045260246000fd5b6000604080830163ffffffff861684526020828186015281865480845260609350838701915060058482821b89010160008a8152858120815b8581101561212457605f198c850301875260a080855283835461208481611ff5565b92870183905260c092600182811680156120a557600181146120be576120e9565b60ff1984168a8701528215158b1b8a01860194506120e9565b8789528d8920895b848110156120e15781548c8201890152908301908f016120c6565b8b0187019550505b50860154888d0152505060028401548c87015260038401548b8701526004840154608090960195909552509587019590840190600101612062565b50919c9b505050505050505050505050565b634e487b7160e01b600052603260045260246000fd5b634e487b7160e01b600052601160045260246000fd5b80820281158282048414176108005761080061214c565b60008261219657634e487b7160e01b600052601260045260246000fd5b500490565b6000600182016121ad576121ad61214c565b5060010190565b63ffffffff831681526040602082015260006108136040830184611c24565b601f82111561186157600081815260208120601f850160051c810160208610156121fa5750805b601f850160051c820191505b8181101561221957828155600101612206565b505050505050565b81516001600160401b0381111561223a5761223a611d12565b61224e816122488454611ff5565b846121d3565b602080601f831160018114612283576000841561226b5750858301515b600019600386901b1c1916600185901b178555612219565b600085815260208120601f198616915b828110156122b257888601518255948401946001909101908401612293565b50858210156122d05787850151600019600388901b60f8161c191681555b5050505050600190811b01905550565b600080604083850312156122f357600080fd5b6122fc83611ad4565b91506020808401356001600160401b038082111561231957600080fd5b818601915086601f83011261232d57600080fd5b813561233b611eec82611e81565b81815260059190911b8301840190848101908983111561235a57600080fd5b8585015b838110156123f3578035858111156123765760008081fd5b860160a0818d03601f190181131561238e5760008081fd5b612396611d28565b89830135888111156123a85760008081fd5b6123b68f8c83870101611da2565b8252506040838101358b8301526060808501359183019190915260808085013591830191909152919092013590820152835291860191860161235e565b508096505050505050509250929050565b600063ffffffff80871683528086166020840152506080604083015261242d6080830185611baf565b905082606083015295945050505050565b602081526000611b086020830184611baf565b6040815263ffffffff8351166040820152602083015160608201526000604084015160a0608084015261248760e0840182611baf565b90506060850151603f198483030160a08501526124a48282611baf565b60809690960151151560c08501525050506001600160a01b039190911660209091015290565b600081830360808112156124dd57600080fd5b604051606081016001600160401b03828210818311171561250057612500611d12565b816040528551835260208601519150808216821461251d57600080fd5b5060208201526040603f198301121561253557600080fd5b61253d611d50565b6040858101518252606090950151602082015293810193909352509092915050565b818103818111156108005761080061214c565b6040815260006125856040830185611baf565b90508260208301529392505050565b6040815260006125a76040830185611baf565b82810360208401526125b98185611baf565b95945050505050565b6000602082840312156125d457600080fd5b8151611b0881611a20565b6000602082840312156125f157600080fd5b81518015158114611b0857600080fd5b60008251612613818460208701611b8b565b919091019291505056fea264697066735822122013a65b5feb266c381f23eb746d173da8aa9bab2c3068122a586be13f5d516e0264736f6c63430008140033",
  "linkReferences": {},
  "deployedLinkReferences": {}
}