{
  "_format": "hh-sol-artifact-1",
  "contractName": "ChainSageOApp",
  "sourceName": "contracts/ChainSageOApp.sol",
  "abi": [
    {
      "inputs": [
        {
          "internalType": "address",
          "name": "_endpoint",
          "type": "address"
        },
        {
          "internalType": "address",
          "name": "_owner",
          "type": "address"
        }
      ],
      "stateMutability": "nonpayable",
      "type": "constructor"
    },
    {
      "inputs": [],
      "name": "InvalidDelegate",
      "type": "error"
    },
    {
      "inputs": [],
      "name": "InvalidEndpointCall",
      "type": "error"
    },
    {
      "inputs": [],
      "name": "LzTokenUnavailable",
      "type": "error"
    },
    {
      "inputs": [
        {
          "internalType": "uint32",
          "name": "eid",
          "type": "uint32"
        }
      ],
      "name": "NoPeer",
      "type": "error"
    },
    {
      "inputs": [
        {
          "internalType": "uint256",
          "name": "msgValue",
          "type": "uint256"
        }
      ],
      "name": "NotEnoughNative",
      "type": "error"
    },
    {
      "inputs": [
        {
          "internalType": "address",
          "name": "addr",
          "type": "address"
        }
      ],
      "name": "OnlyEndpoint",
      "type": "error"
    },
    {
      "inputs": [
        {
          "internalType": "uint32",
          "name": "eid",
          "type": "uint32"
        },
        {
          "internalType": "bytes32",
          "name": "sender",
          "type": "bytes32"
        }
      ],
      "name": "OnlyPeer",
      "type": "error"
    },
    {
      "anonymous": false,
      "inputs": [
        {
          "indexed": true,
          "internalType": "address",
          "name": "previousOwner",
          "type": "address"
        },
        {
          "indexed": true,
          "internalType": "address",
          "name": "newOwner",
          "type": "address"
        }
      ],
      "name": "OwnershipTransferred",
      "type": "event"
    },
    {
      "anonymous": false,
      "inputs": [
        {
          "indexed": false,
          "internalType": "uint32",
          "name": "eid",
          "type": "uint32"
        },
        {
          "indexed": false,
          "internalType": "bytes32",
          "name": "peer",
          "type": "bytes32"
        }
      ],
      "name": "PeerSet",
      "type": "event"
    },
    {
      "anonymous": false,
      "inputs": [
        {
          "indexed": false,
          "internalType": "uint32",
          "name": "srcEid",
          "type": "uint32"
        },
        {
          "indexed": false,
          "internalType": "uint32",
          "name": "dstEid",
          "type": "uint32"
        },
        {
          "indexed": false,
          "internalType": "string",
          "name": "strategyName",
          "type": "string"
        },
        {
          "indexed": false,
          "internalType": "uint256",
          "name": "apy",
          "type": "uint256"
        }
      ],
      "name": "StrategyOptimized",
      "type": "event"
    },
    {
      "inputs": [
        {
          "internalType": "uint32",
          "name": "_eid",
          "type": "uint32"
        },
        {
          "internalType": "string",
          "name": "_name",
          "type": "string"
        },
        {
          "internalType": "uint256",
          "name": "_apy",
          "type": "uint256"
        },
        {
          "internalType": "uint256",
          "name": "_risk",
          "type": "uint256"
        },
        {
          "internalType": "uint256",
          "name": "_liquidity",
          "type": "uint256"
        },
        {
          "internalType": "uint256",
          "name": "_volatility",
          "type": "uint256"
        }
      ],
      "name": "addStrategy",
      "outputs": [],
      "stateMutability": "nonpayable",
      "type": "function"
    },
    {
      "inputs": [
        {
          "components": [
            {
              "internalType": "uint32",
              "name": "srcEid",
              "type": "uint32"
            },
            {
              "internalType": "bytes32",
              "name": "sender",
              "type": "bytes32"
            },
            {
              "internalType": "uint64",
              "name": "nonce",
              "type": "uint64"
            }
          ],
          "internalType": "struct Origin",
          "name": "origin",
          "type": "tuple"
        }
      ],
      "name": "allowInitializePath",
      "outputs": [
        {
          "internalType": "bool",
          "name": "",
          "type": "bool"
        }
      ],
      "stateMutability": "view",
      "type": "function"
    },
    {
      "inputs": [
        {
          "internalType": "uint256",
          "name": "",
          "type": "uint256"
        }
      ],
      "name": "chainIdToEid",
      "outputs": [
        {
          "internalType": "uint32",
          "name": "",
          "type": "uint32"
        }
      ],
      "stateMutability": "view",
      "type": "function"
    },
    {
      "inputs": [
        {
          "internalType": "uint32[]",
          "name": "_chainIds",
          "type": "uint32[]"
        }
      ],
      "name": "compareStrategiesAcrossChains",
      "outputs": [
        {
          "components": [
            {
              "internalType": "string",
              "name": "name",
              "type": "string"
            },
            {
              "internalType": "uint256",
              "name": "apy",
              "type": "uint256"
            },
            {
              "internalType": "uint256",
              "name": "risk",
              "type": "uint256"
            },
            {
              "internalType": "uint256",
              "name": "liquidity",
              "type": "uint256"
            },
            {
              "internalType": "uint256",
              "name": "volatility",
              "type": "uint256"
            }
          ],
          "internalType": "struct ChainSageOApp.Strategy",
          "name": "bestStrategy",
          "type": "tuple"
        },
        {
          "internalType": "uint32",
          "name": "bestChainId",
          "type": "uint32"
        }
      ],
      "stateMutability": "view",
      "type": "function"
    },
    {
      "inputs": [
        {
          "internalType": "uint32",
          "name": "",
          "type": "uint32"
        }
      ],
      "name": "eidToChainId",
      "outputs": [
        {
          "internalType": "uint256",
          "name": "",
          "type": "uint256"
        }
      ],
      "stateMutability": "view",
      "type": "function"
    },
    {
      "inputs": [],
      "name": "endpoint",
      "outputs": [
        {
          "internalType": "contract ILayerZeroEndpointV2",
          "name": "",
          "type": "address"
        }
      ],
      "stateMutability": "view",
      "type": "function"
    },
    {
      "inputs": [
        {
          "internalType": "uint32",
          "name": "_eid",
          "type": "uint32"
        }
      ],
      "name": "getStrategiesData",
      "outputs": [
        {
          "components": [
            {
              "internalType": "string",
              "name": "name",
              "type": "string"
            },
            {
              "internalType": "uint256",
              "name": "apy",
              "type": "uint256"
            },
            {
              "internalType": "uint256",
              "name": "risk",
              "type": "uint256"
            },
            {
              "internalType": "uint256",
              "name": "liquidity",
              "type": "uint256"
            },
            {
              "internalType": "uint256",
              "name": "volatility",
              "type": "uint256"
            }
          ],
          "internalType": "struct ChainSageOApp.Strategy[]",
          "name": "",
          "type": "tuple[]"
        }
      ],
      "stateMutability": "view",
      "type": "function"
    },
    {
      "inputs": [
        {
          "components": [
            {
              "internalType": "uint32",
              "name": "srcEid",
              "type": "uint32"
            },
            {
              "internalType": "bytes32",
              "name": "sender",
              "type": "bytes32"
            },
            {
              "internalType": "uint64",
              "name": "nonce",
              "type": "uint64"
            }
          ],
          "internalType": "struct Origin",
          "name": "",
          "type": "tuple"
        },
        {
          "internalType": "bytes",
          "name": "",
          "type": "bytes"
        },
        {
          "internalType": "address",
          "name": "_sender",
          "type": "address"
        }
      ],
      "name": "isComposeMsgSender",
      "outputs": [
        {
          "internalType": "bool",
          "name": "",
          "type": "bool"
        }
      ],
      "stateMutability": "view",
      "type": "function"
    },
    {
      "inputs": [
        {
          "components": [
            {
              "internalType": "uint32",
              "name": "srcEid",
              "type": "uint32"
            },
            {
              "internalType": "bytes32",
              "name": "sender",
              "type": "bytes32"
            },
            {
              "internalType": "uint64",
              "name": "nonce",
              "type": "uint64"
            }
          ],
          "internalType": "struct Origin",
          "name": "_origin",
          "type": "tuple"
        },
        {
          "internalType": "bytes32",
          "name": "_guid",
          "type": "bytes32"
        },
        {
          "internalType": "bytes",
          "name": "_message",
          "type": "bytes"
        },
        {
          "internalType": "address",
          "name": "_executor",
          "type": "address"
        },
        {
          "internalType": "bytes",
          "name": "_extraData",
          "type": "bytes"
        }
      ],
      "name": "lzReceive",
      "outputs": [],
      "stateMutability": "payable",
      "type": "function"
    },
    {
      "inputs": [
        {
          "internalType": "uint32",
          "name": "",
          "type": "uint32"
        },
        {
          "internalType": "bytes32",
          "name": "",
          "type": "bytes32"
        }
      ],
      "name": "nextNonce",
      "outputs": [
        {
          "internalType": "uint64",
          "name": "nonce",
          "type": "uint64"
        }
      ],
      "stateMutability": "view",
      "type": "function"
    },
    {
      "inputs": [],
      "name": "oAppVersion",
      "outputs": [
        {
          "internalType": "uint64",
          "name": "senderVersion",
          "type": "uint64"
        },
        {
          "internalType": "uint64",
          "name": "receiverVersion",
          "type": "uint64"
        }
      ],
      "stateMutability": "pure",
      "type": "function"
    },
    {
      "inputs": [
        {
          "internalType": "uint32",
          "name": "_dstEid",
          "type": "uint32"
        },
        {
          "internalType": "bytes",
          "name": "_options",
          "type": "bytes"
        }
      ],
      "name": "optimizeStrategy",
      "outputs": [],
      "stateMutability": "payable",
      "type": "function"
    },
    {
      "inputs": [],
      "name": "owner",
      "outputs": [
        {
          "internalType": "address",
          "name": "",
          "type": "address"
        }
      ],
      "stateMutability": "view",
      "type": "function"
    },
    {
      "inputs": [
        {
          "internalType": "uint32",
          "name": "eid",
          "type": "uint32"
        }
      ],
      "name": "peers",
      "outputs": [
        {
          "internalType": "bytes32",
          "name": "peer",
          "type": "bytes32"
        }
      ],
      "stateMutability": "view",
      "type": "function"
    },
    {
      "inputs": [],
      "name": "renounceOwnership",
      "outputs": [],
      "stateMutability": "nonpayable",
      "type": "function"
    },
    {
      "inputs": [
        {
          "internalType": "uint256",
          "name": "_chainId",
          "type": "uint256"
        },
        {
          "internalType": "uint32",
          "name": "_eid",
          "type": "uint32"
        }
      ],
      "name": "setChainIdMapping",
      "outputs": [],
      "stateMutability": "nonpayable",
      "type": "function"
    },
    {
      "inputs": [
        {
          "internalType": "address",
          "name": "_delegate",
          "type": "address"
        }
      ],
      "name": "setDelegate",
      "outputs": [],
      "stateMutability": "nonpayable",
      "type": "function"
    },
    {
      "inputs": [
        {
          "internalType": "uint32",
          "name": "_eid",
          "type": "uint32"
        },
        {
          "internalType": "bytes32",
          "name": "_peer",
          "type": "bytes32"
        }
      ],
      "name": "setPeer",
      "outputs": [],
      "stateMutability": "nonpayable",
      "type": "function"
    },
    {
      "inputs": [
        {
          "internalType": "uint32",
          "name": "",
          "type": "uint32"
        },
        {
          "internalType": "uint256",
          "name": "",
          "type": "uint256"
        }
      ],
      "name": "strategies",
      "outputs": [
        {
          "internalType": "string",
          "name": "name",
          "type": "string"
        },
        {
          "internalType": "uint256",
          "name": "apy",
          "type": "uint256"
        },
        {
          "internalType": "uint256",
          "name": "risk",
          "type": "uint256"
        },
        {
          "internalType": "uint256",
          "name": "liquidity",
          "type": "uint256"
        },
        {
          "internalType": "uint256",
          "name": "volatility",
          "type": "uint256"
        }
      ],
      "stateMutability": "view",
      "type": "function"
    },
    {
      "inputs": [
        {
          "internalType": "uint32",
          "name": "",
          "type": "uint32"
        }
      ],
      "name": "strategyCount",
      "outputs": [
        {
          "internalType": "uint256",
          "name": "",
          "type": "uint256"
        }
      ],
      "stateMutability": "view",
      "type": "function"
    },
    {
      "inputs": [
        {
          "internalType": "address",
          "name": "newOwner",
          "type": "address"
        }
      ],
      "name": "transferOwnership",
      "outputs": [],
      "stateMutability": "nonpayable",
      "type": "function"
    }
  ],
  "bytecode": "0x60a06040523480156200001157600080fd5b50604051620025413803806200254183398101604081905262000034916200014b565b818181816200004333620000de565b6001600160a01b0380831660805281166200007157604051632d618d8160e21b815260040160405180910390fd5b60805160405163ca5eb5e160e01b81526001600160a01b0383811660048301529091169063ca5eb5e190602401600060405180830381600087803b158015620000b957600080fd5b505af1158015620000ce573d6000803e3d6000fd5b5050505050505050505062000183565b600080546001600160a01b038381166001600160a01b0319831681178455604051919092169283917f8be0079c531659141344cd1fd0a4f28419497f9722a3daafe3b4186f6b6457e09190a35050565b80516001600160a01b03811681146200014657600080fd5b919050565b600080604083850312156200015f57600080fd5b6200016a836200012e565b91506200017a602084016200012e565b90509250929050565b60805161237f620001c26000396000818161021801528181610490015281816108240152818161103a01528181611381015261143a015261237f6000f3fe60806040526004361061012a5760003560e01c80638b42babd116100ab578063dcdbf3ec1161006f578063dcdbf3ec14610387578063f151e497146103b5578063f2fde38b146103fd578063f56f1db21461041d578063f788b3a61461044e578063ff7bd03d1461046e57600080fd5b80638b42babd146102cf5780638da5cb5b146102fc578063bb0b6a531461031a578063ca5eb5e114610347578063d439a5c91461036757600080fd5b806359c730c3116100f257806359c730c3146101d95780635e280f1114610206578063715018a6146102525780637d25a05e1461026757806382413eac1461029f57600080fd5b806313137d651461012f57806317442b701461014457806333c56c751461016b5780633400288b146101a657806357efdeaa146101c6575b600080fd5b61014261013d366004611789565b61048e565b005b34801561015057600080fd5b50604080516001815260026020820152015b60405180910390f35b34801561017757600080fd5b50610198610186366004611841565b60036020526000908152604090205481565b604051908152602001610162565b3480156101b257600080fd5b506101426101c1366004611863565b61054e565b6101426101d436600461188d565b610564565b3480156101e557600080fd5b506101f96101f4366004611841565b61069f565b6040516101629190611978565b34801561021257600080fd5b5061023a7f000000000000000000000000000000000000000000000000000000000000000081565b6040516001600160a01b039091168152602001610162565b34801561025e57600080fd5b506101426107cb565b34801561027357600080fd5b50610287610282366004611863565b6107df565b6040516001600160401b039091168152602001610162565b3480156102ab57600080fd5b506102bf6102ba3660046119da565b6107e8565b6040519015158152602001610162565b3480156102db57600080fd5b506101986102ea366004611841565b60056020526000908152604090205481565b34801561030857600080fd5b506000546001600160a01b031661023a565b34801561032657600080fd5b50610198610335366004611841565b60016020526000908152604090205481565b34801561035357600080fd5b50610142610362366004611a40565b6107fd565b34801561037357600080fd5b50610142610382366004611b5c565b610883565b34801561039357600080fd5b506103a76103a2366004611bef565b61094a565b604051610162929190611c80565b3480156103c157600080fd5b506103e86103d0366004611ca8565b60046020526000908152604090205463ffffffff1681565b60405163ffffffff9091168152602001610162565b34801561040957600080fd5b50610142610418366004611a40565b610b32565b34801561042957600080fd5b5061043d610438366004611863565b610bab565b604051610162959493929190611cc1565b34801561045a57600080fd5b50610142610469366004611cf8565b610c86565b34801561047a57600080fd5b506102bf610489366004611d24565b610cc1565b7f00000000000000000000000000000000000000000000000000000000000000006001600160a01b031633146104de576040516391ac5e4f60e01b81523360048201526024015b60405180910390fd5b602087018035906104f8906104f3908a611841565b610cf7565b146105365761050a6020880188611841565b60405163309afaf360e21b815263ffffffff9091166004820152602088013560248201526044016104d5565b61054587878787878787610d33565b50505050505050565b610556610f15565b6105608282610f6f565b5050565b4660009081526004602052604081205463ffffffff1690036105c85760405162461bcd60e51b815260206004820152601b60248201527f536f7572636520636861696e206e6f7420636f6e66696775726564000000000060448201526064016104d5565b4660009081526004602090815260408083205463ffffffff168084526002835281842091519093926105fe928592909101611d74565b60408051601f19818403018152828201825234835260006020848101919091528251808401909352601d83527f66726f6d20636f6e7472616374206265666f7265206c7a53656e643a2000000090830152925061065a90610fc4565b610545868387878080601f0160208091040260200160405190810160405280939291908181526020018383808284376000920191909152508792503391506110079050565b63ffffffff81166000908152600260209081526040808320805482518185028101850190935280835260609492939192909184015b828210156107c057838290600052602060002090600502016040518060a001604052908160008201805461070790611d40565b80601f016020809104026020016040519081016040528092919081815260200182805461073390611d40565b80156107805780601f1061075557610100808354040283529160200191610780565b820191906000526020600020905b81548152906001019060200180831161076357829003601f168201915b50505050508152602001600182015481526020016002820154815260200160038201548152602001600482015481525050815260200190600101906106d4565b505050509050919050565b6107d3610f15565b6107dd6000611112565b565b60005b92915050565b6001600160a01b03811630145b949350505050565b610805610f15565b60405163ca5eb5e160e01b81526001600160a01b0382811660048301527f0000000000000000000000000000000000000000000000000000000000000000169063ca5eb5e190602401600060405180830381600087803b15801561086857600080fd5b505af115801561087c573d6000803e3d6000fd5b5050505050565b61088b610f15565b63ffffffff86166000908152600260209081526040808320815160a081018352898152808401899052918201879052606082018690526080820185905280546001810182559084529190922082516005909202019081906108ec9082611ecf565b5060208281015160018301556040808401516002840155606084015160038085019190915560809094015160049093019290925563ffffffff89166000908152929052812080549161093d83611fa4565b9190505550505050505050565b61097c6040518060a0016040528060608152602001600081526020016000815260200160008152602001600081525090565b600080805b8451811015610b2b576000610adc600260008885815181106109a5576109a5611fbd565b602002602001015163ffffffff1663ffffffff168152602001908152602001600020805480602002602001604051908101604052809291908181526020016000905b82821015610ad357838290600052602060002090600502016040518060a0016040529081600082018054610a1a90611d40565b80601f0160208091040260200160405190810160405280929190818152602001828054610a4690611d40565b8015610a935780601f10610a6857610100808354040283529160200191610a93565b820191906000526020600020905b815481529060010190602001808311610a7657829003601f168201915b50505050508152602001600182015481526020016002820154815260200160038201548152602001600482015481525050815260200190600101906109e7565b50505050611162565b90506000610ae98261127b565b905083811115610b1657809350819550868381518110610b0b57610b0b611fbd565b602002602001015194505b50508080610b2390611fa4565b915050610981565b5050915091565b610b3a610f15565b6001600160a01b038116610b9f5760405162461bcd60e51b815260206004820152602660248201527f4f776e61626c653a206e6577206f776e657220697320746865207a65726f206160448201526564647265737360d01b60648201526084016104d5565b610ba881611112565b50565b60026020528160005260406000208181548110610bc757600080fd5b906000526020600020906005020160009150915050806000018054610beb90611d40565b80601f0160208091040260200160405190810160405280929190818152602001828054610c1790611d40565b8015610c645780601f10610c3957610100808354040283529160200191610c64565b820191906000526020600020905b815481529060010190602001808311610c4757829003601f168201915b5050505050908060010154908060020154908060030154908060040154905085565b610c8e610f15565b6000828152600460209081526040808320805463ffffffff90951663ffffffff1990951685179055928252600590522055565b6000602082018035906001908390610cd99086611841565b63ffffffff1681526020810191909152604001600020541492915050565b63ffffffff8116600090815260016020526040812054806107e25760405163f6ff4fb760e01b815263ffffffff841660048201526024016104d5565b610d656040518060400160405280601181526020017017db1e949958d95a5d994818d85b1b1959607a1b815250610fc4565b600080610d7486880188611fd3565b91509150610dbd6040518060400160405280601881526020017f4465636f646564206d6573736167652e207372634569643a00000000000000008152508363ffffffff166112c6565b610df560405180604001604052806015815260200174273ab6b132b91037b31039ba3930ba32b3b4b2b99d60591b81525082516112c6565b6000610e0082611162565b9050610e456040518060400160405280601a81526020017f4265737420737472617465677920666f756e642e204e616d653a000000000000815250826000015161130b565b610e7d604051806040016040528060128152602001712132b9ba1039ba3930ba32b3bc9020a82c9d60711b81525082602001516112c6565b7fef687003a6d93e74ed8bfdda320a959e343aa949fcbb929bb89581a31f29b613610eab60208c018c611841565b82516020840151604051610ec39392469290916120f7565b60405180910390a1610f096040518060400160405280601f81526020017f53747261746567794f7074696d697a6564206576656e7420656d697474656400815250610fc4565b50505050505050505050565b6000546001600160a01b031633146107dd5760405162461bcd60e51b815260206004820181905260248201527f4f776e61626c653a2063616c6c6572206973206e6f7420746865206f776e657260448201526064016104d5565b63ffffffff8216600081815260016020908152604091829020849055815192835282018390527f238399d427b947898edb290f5ff0f9109849b1c3ba196a42e35f00c50a54b98b910160405180910390a15050565b610ba881604051602401610fd89190612131565b60408051601f198184030181529190526020810180516001600160e01b031663104c13eb60e21b17905261134c565b61100f6116cd565b600061101e8460000151611355565b60208501519091501561103857611038846020015161137d565b7f00000000000000000000000000000000000000000000000000000000000000006001600160a01b0316632637a450826040518060a001604052808b63ffffffff1681526020016110888c610cf7565b81526020018a815260200189815260200160008960200151111515815250866040518463ffffffff1660e01b81526004016110c4929190612144565b60806040518083038185885af11580156110e2573d6000803e3d6000fd5b50505050506040513d601f19601f8201168201806040525081019061110791906121bd565b979650505050505050565b600080546001600160a01b038381166001600160a01b0319831681178455604051919092169283917f8be0079c531659141344cd1fd0a4f28419497f9722a3daafe3b4186f6b6457e09190a35050565b6111946040518060a0016040528060608152602001600081526020016000815260200160008152602001600081525090565b60008251116111e55760405162461bcd60e51b815260206004820152601760248201527f4e6f207374726174656769657320617661696c61626c6500000000000000000060448201526064016104d5565b6000826000815181106111fa576111fa611fbd565b602002602001015190506000600190505b83518110156112745761121d8261127b565b61123f85838151811061123257611232611fbd565b602002602001015161127b565b11156112625783818151811061125757611257611fbd565b602002602001015191505b8061126c81611fa4565b91505061120b565b5092915050565b60008160800151606461128e9190612252565b606083015160408401516112a3906064612269565b84602001516112b29190612252565b6112bc9190612252565b6107e2919061227c565b61056082826040516024016112dc92919061229e565b60408051601f198184030181529190526020810180516001600160e01b0316632d839cb360e21b17905261134c565b61056082826040516024016113219291906122c0565b60408051601f198184030181529190526020810180516001600160e01b0316634b5c427760e01b1790525b610ba88161145f565b6000813414611379576040516304fb820960e51b81523460048201526024016104d5565b5090565b60007f00000000000000000000000000000000000000000000000000000000000000006001600160a01b031663e4fe1d946040518163ffffffff1660e01b8152600401602060405180830381865afa1580156113dd573d6000803e3d6000fd5b505050506040513d601f19601f8201168201806040525081019061140191906122ee565b90506001600160a01b03811661142a576040516329b99a9560e11b815260040160405180910390fd5b6105606001600160a01b038216337f000000000000000000000000000000000000000000000000000000000000000085611480565b60006a636f6e736f6c652e6c6f679050600080835160208501845afa505050565b604080516001600160a01b0385811660248301528416604482015260648082018490528251808303909101815260849091019091526020810180516001600160e01b03166323b872dd60e01b1790526114da9085906114e0565b50505050565b6000611535826040518060400160405280602081526020017f5361666545524332303a206c6f772d6c6576656c2063616c6c206661696c6564815250856001600160a01b03166115ba9092919063ffffffff16565b9050805160001480611556575080806020019051810190611556919061230b565b6115b55760405162461bcd60e51b815260206004820152602a60248201527f5361666545524332303a204552433230206f7065726174696f6e20646964206e6044820152691bdd081cdd58d8d9595960b21b60648201526084016104d5565b505050565b60606107f5848460008585600080866001600160a01b031685876040516115e1919061232d565b60006040518083038185875af1925050503d806000811461161e576040519150601f19603f3d011682016040523d82523d6000602084013e611623565b606091505b5091509150611107878383876060831561169e578251600003611697576001600160a01b0385163b6116975760405162461bcd60e51b815260206004820152601d60248201527f416464726573733a2063616c6c20746f206e6f6e2d636f6e747261637400000060448201526064016104d5565b50816107f5565b6107f583838151156116b35781518083602001fd5b8060405162461bcd60e51b81526004016104d59190612131565b60405180606001604052806000801916815260200160006001600160401b0316815260200161170f604051806040016040528060008152602001600081525090565b905290565b60006060828403121561172657600080fd5b50919050565b60008083601f84011261173e57600080fd5b5081356001600160401b0381111561175557600080fd5b60208301915083602082850101111561176d57600080fd5b9250929050565b6001600160a01b0381168114610ba857600080fd5b600080600080600080600060e0888a0312156117a457600080fd5b6117ae8989611714565b96506060880135955060808801356001600160401b03808211156117d157600080fd5b6117dd8b838c0161172c565b909750955060a08a013591506117f282611774565b90935060c0890135908082111561180857600080fd5b506118158a828b0161172c565b989b979a50959850939692959293505050565b803563ffffffff8116811461183c57600080fd5b919050565b60006020828403121561185357600080fd5b61185c82611828565b9392505050565b6000806040838503121561187657600080fd5b61187f83611828565b946020939093013593505050565b6000806000604084860312156118a257600080fd5b6118ab84611828565b925060208401356001600160401b038111156118c657600080fd5b6118d28682870161172c565b9497909650939450505050565b60005b838110156118fa5781810151838201526020016118e2565b50506000910152565b6000815180845261191b8160208601602086016118df565b601f01601f19169290920160200192915050565b6000815160a0845261194460a0850182611903565b9050602083015160208501526040830151604085015260608301516060850152608083015160808501528091505092915050565b6000602080830181845280855180835260408601915060408160051b870101925083870160005b828110156119cd57603f198886030184526119bb85835161192f565b9450928501929085019060010161199f565b5092979650505050505050565b60008060008060a085870312156119f057600080fd5b6119fa8686611714565b935060608501356001600160401b03811115611a1557600080fd5b611a218782880161172c565b9094509250506080850135611a3581611774565b939692955090935050565b600060208284031215611a5257600080fd5b813561185c81611774565b634e487b7160e01b600052604160045260246000fd5b60405160a081016001600160401b0381118282101715611a9557611a95611a5d565b60405290565b604080519081016001600160401b0381118282101715611a9557611a95611a5d565b604051601f8201601f191681016001600160401b0381118282101715611ae557611ae5611a5d565b604052919050565b600082601f830112611afe57600080fd5b81356001600160401b03811115611b1757611b17611a5d565b611b2a601f8201601f1916602001611abd565b818152846020838601011115611b3f57600080fd5b816020850160208301376000918101602001919091529392505050565b60008060008060008060c08789031215611b7557600080fd5b611b7e87611828565b955060208701356001600160401b03811115611b9957600080fd5b611ba589828a01611aed565b96999698505050506040850135946060810135946080820135945060a09091013592509050565b60006001600160401b03821115611be557611be5611a5d565b5060051b60200190565b60006020808385031215611c0257600080fd5b82356001600160401b03811115611c1857600080fd5b8301601f81018513611c2957600080fd5b8035611c3c611c3782611bcc565b611abd565b81815260059190911b82018301908381019087831115611c5b57600080fd5b928401925b8284101561110757611c7184611828565b82529284019290840190611c60565b604081526000611c93604083018561192f565b905063ffffffff831660208301529392505050565b600060208284031215611cba57600080fd5b5035919050565b60a081526000611cd460a0830188611903565b90508560208301528460408301528360608301528260808301529695505050505050565b60008060408385031215611d0b57600080fd5b82359150611d1b60208401611828565b90509250929050565b600060608284031215611d3657600080fd5b61185c8383611714565b600181811c90821680611d5457607f821691505b60208210810361172657634e487b7160e01b600052602260045260246000fd5b6000604080830163ffffffff861684526020828186015281865480845260609350838701915060058482821b89010160008a8152858120815b85811015611e6f57605f198c850301875260a0808552838354611dcf81611d40565b92870183905260c09260018281168015611df05760018114611e0957611e34565b60ff1984168a8701528215158b1b8a0186019450611e34565b8789528d8920895b84811015611e2c5781548c8201890152908301908f01611e11565b8b0187019550505b50860154888d0152505060028401548c87015260038401548b8701526004840154608090960195909552509587019590840190600101611dad565b50919c9b505050505050505050505050565b601f8211156115b557600081815260208120601f850160051c81016020861015611ea85750805b601f850160051c820191505b81811015611ec757828155600101611eb4565b505050505050565b81516001600160401b03811115611ee857611ee8611a5d565b611efc81611ef68454611d40565b84611e81565b602080601f831160018114611f315760008415611f195750858301515b600019600386901b1c1916600185901b178555611ec7565b600085815260208120601f198616915b82811015611f6057888601518255948401946001909101908401611f41565b5085821015611f7e5787850151600019600388901b60f8161c191681555b5050505050600190811b01905550565b634e487b7160e01b600052601160045260246000fd5b600060018201611fb657611fb6611f8e565b5060010190565b634e487b7160e01b600052603260045260246000fd5b60008060408385031215611fe657600080fd5b611fef83611828565b91506020808401356001600160401b038082111561200c57600080fd5b818601915086601f83011261202057600080fd5b813561202e611c3782611bcc565b81815260059190911b8301840190848101908983111561204d57600080fd5b8585015b838110156120e6578035858111156120695760008081fd5b860160a0818d03601f19018113156120815760008081fd5b612089611a73565b898301358881111561209b5760008081fd5b6120a98f8c83870101611aed565b8252506040838101358b83015260608085013591830191909152608080850135918301919091529190920135908201528352918601918601612051565b508096505050505050509250929050565b600063ffffffff8087168352808616602084015250608060408301526121206080830185611903565b905082606083015295945050505050565b60208152600061185c6020830184611903565b6040815263ffffffff8351166040820152602083015160608201526000604084015160a0608084015261217a60e0840182611903565b90506060850151603f198483030160a08501526121978282611903565b60809690960151151560c08501525050506001600160a01b039190911660209091015290565b600081830360808112156121d057600080fd5b604051606081016001600160401b0382821081831117156121f3576121f3611a5d565b816040528551835260208601519150808216821461221057600080fd5b5060208201526040603f198301121561222857600080fd5b612230611a9b565b6040858101518252606090950151602082015293810193909352509092915050565b80820281158282048414176107e2576107e2611f8e565b818103818111156107e2576107e2611f8e565b60008261229957634e487b7160e01b600052601260045260246000fd5b500490565b6040815260006122b16040830185611903565b90508260208301529392505050565b6040815260006122d36040830185611903565b82810360208401526122e58185611903565b95945050505050565b60006020828403121561230057600080fd5b815161185c81611774565b60006020828403121561231d57600080fd5b8151801515811461185c57600080fd5b6000825161233f8184602087016118df565b919091019291505056fea2646970667358221220515d7c8a287de625b5b20a8990ea562bdedc03d4cf8bf5bfa8e249c0bb2585d864736f6c63430008140033",
  "linkReferences": {},
  "deployedLinkReferences": {}
}