{
  "_format": "hh-sol-artifact-1",
  "contractName": "DeFiStrategyOptimizer",
  "sourceName": "contracts/DeFiStrategyOptimizer.sol",
  "abi": [
    {
      "inputs": [],
      "stateMutability": "nonpayable",
      "type": "constructor"
    },
    {
      "inputs": [
        {
          "internalType": "string",
          "name": "_name",
          "type": "string"
        },
        {
          "internalType": "uint256",
          "name": "_apy",
          "type": "uint256"
        },
        {
          "internalType": "uint256",
          "name": "_risk",
          "type": "uint256"
        },
        {
          "internalType": "uint256",
          "name": "_liquidity",
          "type": "uint256"
        },
        {
          "internalType": "uint256",
          "name": "_volatility",
          "type": "uint256"
        }
      ],
      "name": "addStrategy",
      "outputs": [],
      "stateMutability": "nonpayable",
      "type": "function"
    },
    {
      "inputs": [],
      "name": "getOptimalStrategy",
      "outputs": [
        {
          "internalType": "string",
          "name": "",
          "type": "string"
        },
        {
          "internalType": "uint256",
          "name": "",
          "type": "uint256"
        },
        {
          "internalType": "uint256",
          "name": "",
          "type": "uint256"
        }
      ],
      "stateMutability": "view",
      "type": "function"
    },
    {
      "inputs": [],
      "name": "getStrategiesData",
      "outputs": [
        {
          "components": [
            {
              "internalType": "string",
              "name": "name",
              "type": "string"
            },
            {
              "internalType": "uint256",
              "name": "apy",
              "type": "uint256"
            },
            {
              "internalType": "uint256",
              "name": "risk",
              "type": "uint256"
            },
            {
              "internalType": "uint256",
              "name": "liquidity",
              "type": "uint256"
            },
            {
              "internalType": "uint256",
              "name": "volatility",
              "type": "uint256"
            }
          ],
          "internalType": "struct DeFiStrategyOptimizer.Strategy[]",
          "name": "",
          "type": "tuple[]"
        }
      ],
      "stateMutability": "view",
      "type": "function"
    },
    {
      "inputs": [],
      "name": "owner",
      "outputs": [
        {
          "internalType": "address",
          "name": "",
          "type": "address"
        }
      ],
      "stateMutability": "view",
      "type": "function"
    },
    {
      "inputs": [
        {
          "internalType": "uint256",
          "name": "",
          "type": "uint256"
        }
      ],
      "name": "strategies",
      "outputs": [
        {
          "internalType": "string",
          "name": "name",
          "type": "string"
        },
        {
          "internalType": "uint256",
          "name": "apy",
          "type": "uint256"
        },
        {
          "internalType": "uint256",
          "name": "risk",
          "type": "uint256"
        },
        {
          "internalType": "uint256",
          "name": "liquidity",
          "type": "uint256"
        },
        {
          "internalType": "uint256",
          "name": "volatility",
          "type": "uint256"
        }
      ],
      "stateMutability": "view",
      "type": "function"
    }
  ],
  "bytecode": "0x608060405234801561001057600080fd5b50600180546001600160a01b031916331790556109e6806100326000396000f3fe608060405234801561001057600080fd5b50600436106100575760003560e01c8063048a9c551461005c578063095aa6a51461007a5780638da5cb5b14610091578063b5d787d4146100bc578063d574ea3d146100d1575b600080fd5b6100646100f5565b604051610071919061063c565b60405180910390f35b61008261025d565b604051610071939291906106d1565b6001546100a4906001600160a01b031681565b6040516001600160a01b039091168152602001610071565b6100cf6100ca36600461070c565b610431565b005b6100e46100df3660046107da565b610528565b6040516100719594939291906107f3565b6000546060906101465760405162461bcd60e51b81526020600482015260176024820152764e6f207374726174656769657320617661696c61626c6560481b60448201526064015b60405180910390fd5b6000805480602002602001604051908101604052809291908181526020016000905b8282101561025457838290600052602060002090600502016040518060a001604052908160008201805461019b9061082a565b80601f01602080910402602001604051908101604052809291908181526020018280546101c79061082a565b80156102145780601f106101e957610100808354040283529160200191610214565b820191906000526020600020905b8154815290600101906020018083116101f757829003601f168201915b5050505050815260200160018201548152602001600282015481526020016003820154815260200160048201548152505081526020019060010190610168565b50505050905090565b606060008060008080549050116102b05760405162461bcd60e51b81526020600482015260176024820152764e6f207374726174656769657320617661696c61626c6560481b604482015260640161013d565b60008060005b6000548110156103295782600082815481106102d4576102d4610864565b906000526020600020906005020160010154111561031757600081815481106102ff576102ff610864565b90600052602060002090600502016001015492508091505b806103218161087a565b9150506102b6565b506000818154811061033d5761033d610864565b90600052602060002090600502016000016000828154811061036157610361610864565b9060005260206000209060050201600101546000838154811061038657610386610864565b9060005260206000209060050201600201548280546103a49061082a565b80601f01602080910402602001604051908101604052809291908181526020018280546103d09061082a565b801561041d5780601f106103f25761010080835404028352916020019161041d565b820191906000526020600020905b81548152906001019060200180831161040057829003601f168201915b505050505092509450945094505050909192565b6001546001600160a01b0316331461048b5760405162461bcd60e51b815260206004820152601d60248201527f4f6e6c79206f776e65722063616e206164642073747261746567696573000000604482015260640161013d565b6040805160a08101825286815260208101869052908101849052606081018390526080810182905260008054600181018255908052815160059091027f290decd9548b62a8d60345a988386fc84ba6bc95484008f6362f93160ef3e563019081906104f690826108f0565b506020820151816001015560408201518160020155606082015181600301556080820151816004015550505050505050565b6000818154811061053857600080fd5b906000526020600020906005020160009150905080600001805461055b9061082a565b80601f01602080910402602001604051908101604052809291908181526020018280546105879061082a565b80156105d45780601f106105a9576101008083540402835291602001916105d4565b820191906000526020600020905b8154815290600101906020018083116105b757829003601f168201915b5050505050908060010154908060020154908060030154908060040154905085565b6000815180845260005b8181101561061c57602081850181015186830182015201610600565b506000602082860101526020601f19601f83011685010191505092915050565b60006020808301818452808551808352604092508286019150828160051b87010184880160005b838110156106c357603f19898403018552815160a08151818652610689828701826105f6565b838b0151878c0152898401518a88015260608085015190880152608093840151939096019290925250509386019390860190600101610663565b509098975050505050505050565b6060815260006106e460608301866105f6565b60208301949094525060400152919050565b634e487b7160e01b600052604160045260246000fd5b600080600080600060a0868803121561072457600080fd5b853567ffffffffffffffff8082111561073c57600080fd5b818801915088601f83011261075057600080fd5b813581811115610762576107626106f6565b604051601f8201601f19908116603f0116810190838211818310171561078a5761078a6106f6565b816040528281528b60208487010111156107a357600080fd5b82602086016020830137600060209382018401529b918a01359a505060408901359860608101359850608001359650945050505050565b6000602082840312156107ec57600080fd5b5035919050565b60a08152600061080660a08301886105f6565b90508560208301528460408301528360608301528260808301529695505050505050565b600181811c9082168061083e57607f821691505b60208210810361085e57634e487b7160e01b600052602260045260246000fd5b50919050565b634e487b7160e01b600052603260045260246000fd5b60006001820161089a57634e487b7160e01b600052601160045260246000fd5b5060010190565b601f8211156108eb57600081815260208120601f850160051c810160208610156108c85750805b601f850160051c820191505b818110156108e7578281556001016108d4565b5050505b505050565b815167ffffffffffffffff81111561090a5761090a6106f6565b61091e81610918845461082a565b846108a1565b602080601f831160018114610953576000841561093b5750858301515b600019600386901b1c1916600185901b1785556108e7565b600085815260208120601f198616915b8281101561098257888601518255948401946001909101908401610963565b50858210156109a05787850151600019600388901b60f8161c191681555b5050505050600190811b0190555056fea26469706673582212201aaf0261af534b1d8267ece4581efe21fcd5f386e11c18f674826fdbf92763e964736f6c63430008140033",
  "linkReferences": {},
  "deployedLinkReferences": {}
}