{
  "_format": "hh-sol-artifact-1",
  "contractName": "DeFiStrategyOptimizer",
  "sourceName": "contracts/DeFiStrategyOptimizer.sol",
  "abi": [
    {
      "inputs": [],
      "stateMutability": "nonpayable",
      "type": "constructor"
    },
    {
      "inputs": [
        {
          "internalType": "string",
          "name": "_name",
          "type": "string"
        },
        {
          "internalType": "uint256",
          "name": "_apy",
          "type": "uint256"
        },
        {
          "internalType": "uint256",
          "name": "_risk",
          "type": "uint256"
        }
      ],
      "name": "addStrategy",
      "outputs": [],
      "stateMutability": "nonpayable",
      "type": "function"
    },
    {
      "inputs": [],
      "name": "getOptimalStrategy",
      "outputs": [
        {
          "internalType": "string",
          "name": "",
          "type": "string"
        },
        {
          "internalType": "uint256",
          "name": "",
          "type": "uint256"
        },
        {
          "internalType": "uint256",
          "name": "",
          "type": "uint256"
        }
      ],
      "stateMutability": "view",
      "type": "function"
    },
    {
      "inputs": [],
      "name": "owner",
      "outputs": [
        {
          "internalType": "address",
          "name": "",
          "type": "address"
        }
      ],
      "stateMutability": "view",
      "type": "function"
    },
    {
      "inputs": [
        {
          "internalType": "uint256",
          "name": "",
          "type": "uint256"
        }
      ],
      "name": "strategies",
      "outputs": [
        {
          "internalType": "string",
          "name": "name",
          "type": "string"
        },
        {
          "internalType": "uint256",
          "name": "apy",
          "type": "uint256"
        },
        {
          "internalType": "uint256",
          "name": "risk",
          "type": "uint256"
        }
      ],
      "stateMutability": "view",
      "type": "function"
    }
  ],
  "bytecode": "0x608060405234801561001057600080fd5b5033600160006101000a81548173ffffffffffffffffffffffffffffffffffffffff021916908373ffffffffffffffffffffffffffffffffffffffff160217905550610c88806100616000396000f3fe608060405234801561001057600080fd5b506004361061004c5760003560e01c8063095aa6a5146100515780638da5cb5b14610071578063ccd5e2411461008f578063d574ea3d146100ab575b600080fd5b6100596100dd565b6040516100689392919061054b565b60405180910390f35b6100796102b3565b60405161008691906105ca565b60405180910390f35b6100a960048036038101906100a4919061075a565b6102d9565b005b6100c560048036038101906100c091906107c9565b6103e0565b6040516100d49392919061054b565b60405180910390f35b60606000806000808054905011610129576040517f08c379a000000000000000000000000000000000000000000000000000000000815260040161012090610842565b60405180910390fd5b60008060005b6000805490508110156101a857826000828154811061015157610150610862565b5b9060005260206000209060030201600101541115610195576000818154811061017d5761017c610862565b5b90600052602060002090600302016001015492508091505b80806101a0906108c0565b91505061012f565b50600081815481106101bd576101bc610862565b5b9060005260206000209060030201600001600082815481106101e2576101e1610862565b5b9060005260206000209060030201600101546000838154811061020857610207610862565b5b90600052602060002090600302016002015482805461022690610937565b80601f016020809104026020016040519081016040528092919081815260200182805461025290610937565b801561029f5780601f106102745761010080835404028352916020019161029f565b820191906000526020600020905b81548152906001019060200180831161028257829003601f168201915b505050505092509450945094505050909192565b600160009054906101000a900473ffffffffffffffffffffffffffffffffffffffff1681565b600160009054906101000a900473ffffffffffffffffffffffffffffffffffffffff1673ffffffffffffffffffffffffffffffffffffffff163373ffffffffffffffffffffffffffffffffffffffff1614610369576040517f08c379a0000000000000000000000000000000000000000000000000000000008152600401610360906109b4565b60405180910390fd5b6000604051806060016040528085815260200184815260200183815250908060018154018082558091505060019003906000526020600020906003020160009091909190915060008201518160000190816103c49190610b80565b5060208201518160010155604082015181600201555050505050565b600081815481106103f057600080fd5b906000526020600020906003020160009150905080600001805461041390610937565b80601f016020809104026020016040519081016040528092919081815260200182805461043f90610937565b801561048c5780601f106104615761010080835404028352916020019161048c565b820191906000526020600020905b81548152906001019060200180831161046f57829003601f168201915b5050505050908060010154908060020154905083565b600081519050919050565b600082825260208201905092915050565b60005b838110156104dc5780820151818401526020810190506104c1565b60008484015250505050565b6000601f19601f8301169050919050565b6000610504826104a2565b61050e81856104ad565b935061051e8185602086016104be565b610527816104e8565b840191505092915050565b6000819050919050565b61054581610532565b82525050565b6000606082019050818103600083015261056581866104f9565b9050610574602083018561053c565b610581604083018461053c565b949350505050565b600073ffffffffffffffffffffffffffffffffffffffff82169050919050565b60006105b482610589565b9050919050565b6105c4816105a9565b82525050565b60006020820190506105df60008301846105bb565b92915050565b6000604051905090565b600080fd5b600080fd5b600080fd5b600080fd5b7f4e487b7100000000000000000000000000000000000000000000000000000000600052604160045260246000fd5b61063b826104e8565b810181811067ffffffffffffffff8211171561065a57610659610603565b5b80604052505050565b600061066d6105e5565b90506106798282610632565b919050565b600067ffffffffffffffff82111561069957610698610603565b5b6106a2826104e8565b9050602081019050919050565b82818337600083830152505050565b60006106d16106cc8461067e565b610663565b9050828152602081018484840111156106ed576106ec6105fe565b5b6106f88482856106af565b509392505050565b600082601f830112610715576107146105f9565b5b81356107258482602086016106be565b91505092915050565b61073781610532565b811461074257600080fd5b50565b6000813590506107548161072e565b92915050565b600080600060608486031215610773576107726105ef565b5b600084013567ffffffffffffffff811115610791576107906105f4565b5b61079d86828701610700565b93505060206107ae86828701610745565b92505060406107bf86828701610745565b9150509250925092565b6000602082840312156107df576107de6105ef565b5b60006107ed84828501610745565b91505092915050565b7f4e6f207374726174656769657320617661696c61626c65000000000000000000600082015250565b600061082c6017836104ad565b9150610837826107f6565b602082019050919050565b6000602082019050818103600083015261085b8161081f565b9050919050565b7f4e487b7100000000000000000000000000000000000000000000000000000000600052603260045260246000fd5b7f4e487b7100000000000000000000000000000000000000000000000000000000600052601160045260246000fd5b60006108cb82610532565b91507fffffffffffffffffffffffffffffffffffffffffffffffffffffffffffffffff82036108fd576108fc610891565b5b600182019050919050565b7f4e487b7100000000000000000000000000000000000000000000000000000000600052602260045260246000fd5b6000600282049050600182168061094f57607f821691505b60208210810361096257610961610908565b5b50919050565b7f4f6e6c79206f776e65722063616e206164642073747261746567696573000000600082015250565b600061099e601d836104ad565b91506109a982610968565b602082019050919050565b600060208201905081810360008301526109cd81610991565b9050919050565b60008190508160005260206000209050919050565b60006020601f8301049050919050565b600082821b905092915050565b600060088302610a367fffffffffffffffffffffffffffffffffffffffffffffffffffffffffffffffff826109f9565b610a4086836109f9565b95508019841693508086168417925050509392505050565b6000819050919050565b6000610a7d610a78610a7384610532565b610a58565b610532565b9050919050565b6000819050919050565b610a9783610a62565b610aab610aa382610a84565b848454610a06565b825550505050565b600090565b610ac0610ab3565b610acb818484610a8e565b505050565b5b81811015610aef57610ae4600082610ab8565b600181019050610ad1565b5050565b601f821115610b3457610b05816109d4565b610b0e846109e9565b81016020851015610b1d578190505b610b31610b29856109e9565b830182610ad0565b50505b505050565b600082821c905092915050565b6000610b5760001984600802610b39565b1980831691505092915050565b6000610b708383610b46565b9150826002028217905092915050565b610b89826104a2565b67ffffffffffffffff811115610ba257610ba1610603565b5b610bac8254610937565b610bb7828285610af3565b600060209050601f831160018114610bea5760008415610bd8578287015190505b610be28582610b64565b865550610c4a565b601f198416610bf8866109d4565b60005b82811015610c2057848901518255600182019150602085019450602081019050610bfb565b86831015610c3d5784890151610c39601f891682610b46565b8355505b6001600288020188555050505b50505050505056fea264697066735822122072ce001c16148774e0dc7da2f1ec9f0baca93ae55ff1709ed344de719e11456b64736f6c63430008130033",
  "linkReferences": {},
  "deployedLinkReferences": {}
}