{
  "_format": "hh-sol-artifact-1",
  "contractName": "ChainSageOApp",
  "sourceName": "contracts/ChainSageOApp.sol",
  "abi": [
    {
      "inputs": [
        {
          "internalType": "address",
          "name": "_endpoint",
          "type": "address"
        },
        {
          "internalType": "address",
          "name": "_owner",
          "type": "address"
        }
      ],
      "stateMutability": "nonpayable",
      "type": "constructor"
    },
    {
      "inputs": [],
      "name": "InvalidDelegate",
      "type": "error"
    },
    {
      "inputs": [],
      "name": "InvalidEndpointCall",
      "type": "error"
    },
    {
      "inputs": [],
      "name": "LzTokenUnavailable",
      "type": "error"
    },
    {
      "inputs": [
        {
          "internalType": "uint32",
          "name": "eid",
          "type": "uint32"
        }
      ],
      "name": "NoPeer",
      "type": "error"
    },
    {
      "inputs": [
        {
          "internalType": "uint256",
          "name": "msgValue",
          "type": "uint256"
        }
      ],
      "name": "NotEnoughNative",
      "type": "error"
    },
    {
      "inputs": [
        {
          "internalType": "address",
          "name": "addr",
          "type": "address"
        }
      ],
      "name": "OnlyEndpoint",
      "type": "error"
    },
    {
      "inputs": [
        {
          "internalType": "uint32",
          "name": "eid",
          "type": "uint32"
        },
        {
          "internalType": "bytes32",
          "name": "sender",
          "type": "bytes32"
        }
      ],
      "name": "OnlyPeer",
      "type": "error"
    },
    {
      "anonymous": false,
      "inputs": [
        {
          "indexed": true,
          "internalType": "address",
          "name": "previousOwner",
          "type": "address"
        },
        {
          "indexed": true,
          "internalType": "address",
          "name": "newOwner",
          "type": "address"
        }
      ],
      "name": "OwnershipTransferred",
      "type": "event"
    },
    {
      "anonymous": false,
      "inputs": [
        {
          "indexed": false,
          "internalType": "uint32",
          "name": "eid",
          "type": "uint32"
        },
        {
          "indexed": false,
          "internalType": "bytes32",
          "name": "peer",
          "type": "bytes32"
        }
      ],
      "name": "PeerSet",
      "type": "event"
    },
    {
      "anonymous": false,
      "inputs": [
        {
          "indexed": false,
          "internalType": "uint32",
          "name": "chainId",
          "type": "uint32"
        },
        {
          "indexed": false,
          "internalType": "string",
          "name": "name",
          "type": "string"
        },
        {
          "indexed": false,
          "internalType": "uint256",
          "name": "apy",
          "type": "uint256"
        },
        {
          "indexed": false,
          "internalType": "uint256",
          "name": "risk",
          "type": "uint256"
        },
        {
          "indexed": false,
          "internalType": "uint256",
          "name": "liquidity",
          "type": "uint256"
        },
        {
          "indexed": false,
          "internalType": "uint256",
          "name": "volatility",
          "type": "uint256"
        }
      ],
      "name": "StrategyAdded",
      "type": "event"
    },
    {
      "anonymous": false,
      "inputs": [
        {
          "indexed": false,
          "internalType": "uint32",
          "name": "sourceChainId",
          "type": "uint32"
        },
        {
          "indexed": false,
          "internalType": "uint32",
          "name": "destinationChainId",
          "type": "uint32"
        },
        {
          "indexed": false,
          "internalType": "string",
          "name": "name",
          "type": "string"
        },
        {
          "indexed": false,
          "internalType": "uint256",
          "name": "apy",
          "type": "uint256"
        }
      ],
      "name": "StrategyOptimized",
      "type": "event"
    },
    {
      "inputs": [
        {
          "internalType": "uint32",
          "name": "_chainId",
          "type": "uint32"
        },
        {
          "internalType": "string",
          "name": "_name",
          "type": "string"
        },
        {
          "internalType": "uint256",
          "name": "_apy",
          "type": "uint256"
        },
        {
          "internalType": "uint256",
          "name": "_risk",
          "type": "uint256"
        },
        {
          "internalType": "uint256",
          "name": "_liquidity",
          "type": "uint256"
        },
        {
          "internalType": "uint256",
          "name": "_volatility",
          "type": "uint256"
        }
      ],
      "name": "addStrategy",
      "outputs": [],
      "stateMutability": "nonpayable",
      "type": "function"
    },
    {
      "inputs": [
        {
          "components": [
            {
              "internalType": "uint32",
              "name": "srcEid",
              "type": "uint32"
            },
            {
              "internalType": "bytes32",
              "name": "sender",
              "type": "bytes32"
            },
            {
              "internalType": "uint64",
              "name": "nonce",
              "type": "uint64"
            }
          ],
          "internalType": "struct Origin",
          "name": "origin",
          "type": "tuple"
        }
      ],
      "name": "allowInitializePath",
      "outputs": [
        {
          "internalType": "bool",
          "name": "",
          "type": "bool"
        }
      ],
      "stateMutability": "view",
      "type": "function"
    },
    {
      "inputs": [],
      "name": "endpoint",
      "outputs": [
        {
          "internalType": "contract ILayerZeroEndpointV2",
          "name": "",
          "type": "address"
        }
      ],
      "stateMutability": "view",
      "type": "function"
    },
    {
      "inputs": [
        {
          "internalType": "uint32",
          "name": "_chainId",
          "type": "uint32"
        }
      ],
      "name": "getStrategiesData",
      "outputs": [
        {
          "components": [
            {
              "internalType": "string",
              "name": "name",
              "type": "string"
            },
            {
              "internalType": "uint256",
              "name": "apy",
              "type": "uint256"
            },
            {
              "internalType": "uint256",
              "name": "risk",
              "type": "uint256"
            },
            {
              "internalType": "uint256",
              "name": "liquidity",
              "type": "uint256"
            },
            {
              "internalType": "uint256",
              "name": "volatility",
              "type": "uint256"
            }
          ],
          "internalType": "struct ChainSageOApp.Strategy[]",
          "name": "",
          "type": "tuple[]"
        }
      ],
      "stateMutability": "view",
      "type": "function"
    },
    {
      "inputs": [
        {
          "components": [
            {
              "internalType": "uint32",
              "name": "srcEid",
              "type": "uint32"
            },
            {
              "internalType": "bytes32",
              "name": "sender",
              "type": "bytes32"
            },
            {
              "internalType": "uint64",
              "name": "nonce",
              "type": "uint64"
            }
          ],
          "internalType": "struct Origin",
          "name": "",
          "type": "tuple"
        },
        {
          "internalType": "bytes",
          "name": "",
          "type": "bytes"
        },
        {
          "internalType": "address",
          "name": "_sender",
          "type": "address"
        }
      ],
      "name": "isComposeMsgSender",
      "outputs": [
        {
          "internalType": "bool",
          "name": "",
          "type": "bool"
        }
      ],
      "stateMutability": "view",
      "type": "function"
    },
    {
      "inputs": [
        {
          "components": [
            {
              "internalType": "uint32",
              "name": "srcEid",
              "type": "uint32"
            },
            {
              "internalType": "bytes32",
              "name": "sender",
              "type": "bytes32"
            },
            {
              "internalType": "uint64",
              "name": "nonce",
              "type": "uint64"
            }
          ],
          "internalType": "struct Origin",
          "name": "_origin",
          "type": "tuple"
        },
        {
          "internalType": "bytes32",
          "name": "_guid",
          "type": "bytes32"
        },
        {
          "internalType": "bytes",
          "name": "_message",
          "type": "bytes"
        },
        {
          "internalType": "address",
          "name": "_executor",
          "type": "address"
        },
        {
          "internalType": "bytes",
          "name": "_extraData",
          "type": "bytes"
        }
      ],
      "name": "lzReceive",
      "outputs": [],
      "stateMutability": "payable",
      "type": "function"
    },
    {
      "inputs": [
        {
          "internalType": "uint32",
          "name": "",
          "type": "uint32"
        },
        {
          "internalType": "bytes32",
          "name": "",
          "type": "bytes32"
        }
      ],
      "name": "nextNonce",
      "outputs": [
        {
          "internalType": "uint64",
          "name": "nonce",
          "type": "uint64"
        }
      ],
      "stateMutability": "view",
      "type": "function"
    },
    {
      "inputs": [],
      "name": "oAppVersion",
      "outputs": [
        {
          "internalType": "uint64",
          "name": "senderVersion",
          "type": "uint64"
        },
        {
          "internalType": "uint64",
          "name": "receiverVersion",
          "type": "uint64"
        }
      ],
      "stateMutability": "pure",
      "type": "function"
    },
    {
      "inputs": [
        {
          "internalType": "uint32",
          "name": "_dstChainId",
          "type": "uint32"
        },
        {
          "internalType": "bytes",
          "name": "_adapterParams",
          "type": "bytes"
        }
      ],
      "name": "optimizeStrategy",
      "outputs": [],
      "stateMutability": "payable",
      "type": "function"
    },
    {
      "inputs": [],
      "name": "owner",
      "outputs": [
        {
          "internalType": "address",
          "name": "",
          "type": "address"
        }
      ],
      "stateMutability": "view",
      "type": "function"
    },
    {
      "inputs": [
        {
          "internalType": "uint32",
          "name": "eid",
          "type": "uint32"
        }
      ],
      "name": "peers",
      "outputs": [
        {
          "internalType": "bytes32",
          "name": "peer",
          "type": "bytes32"
        }
      ],
      "stateMutability": "view",
      "type": "function"
    },
    {
      "inputs": [],
      "name": "renounceOwnership",
      "outputs": [],
      "stateMutability": "nonpayable",
      "type": "function"
    },
    {
      "inputs": [
        {
          "internalType": "address",
          "name": "_delegate",
          "type": "address"
        }
      ],
      "name": "setDelegate",
      "outputs": [],
      "stateMutability": "nonpayable",
      "type": "function"
    },
    {
      "inputs": [
        {
          "internalType": "uint32",
          "name": "_eid",
          "type": "uint32"
        },
        {
          "internalType": "bytes32",
          "name": "_peer",
          "type": "bytes32"
        }
      ],
      "name": "setPeer",
      "outputs": [],
      "stateMutability": "nonpayable",
      "type": "function"
    },
    {
      "inputs": [
        {
          "internalType": "uint32",
          "name": "",
          "type": "uint32"
        },
        {
          "internalType": "uint256",
          "name": "",
          "type": "uint256"
        }
      ],
      "name": "strategies",
      "outputs": [
        {
          "internalType": "string",
          "name": "name",
          "type": "string"
        },
        {
          "internalType": "uint256",
          "name": "apy",
          "type": "uint256"
        },
        {
          "internalType": "uint256",
          "name": "risk",
          "type": "uint256"
        },
        {
          "internalType": "uint256",
          "name": "liquidity",
          "type": "uint256"
        },
        {
          "internalType": "uint256",
          "name": "volatility",
          "type": "uint256"
        }
      ],
      "stateMutability": "view",
      "type": "function"
    },
    {
      "inputs": [
        {
          "internalType": "uint32",
          "name": "",
          "type": "uint32"
        }
      ],
      "name": "strategyCount",
      "outputs": [
        {
          "internalType": "uint256",
          "name": "",
          "type": "uint256"
        }
      ],
      "stateMutability": "view",
      "type": "function"
    },
    {
      "inputs": [
        {
          "internalType": "address",
          "name": "newOwner",
          "type": "address"
        }
      ],
      "name": "transferOwnership",
      "outputs": [],
      "stateMutability": "nonpayable",
      "type": "function"
    }
  ],
  "bytecode": "0x60a06040523480156200001157600080fd5b5060405162001ceb38038062001ceb83398101604081905262000034916200015c565b818181816200004333620000ef565b6001600160a01b0380831660805281166200007157604051632d618d8160e21b815260040160405180910390fd5b60805160405163ca5eb5e160e01b81526001600160a01b0383811660048301529091169063ca5eb5e190602401600060405180830381600087803b158015620000b957600080fd5b505af1158015620000ce573d6000803e3d6000fd5b5050505050505050620000e781620000ef60201b60201c565b505062000194565b600080546001600160a01b038381166001600160a01b0319831681178455604051919092169283917f8be0079c531659141344cd1fd0a4f28419497f9722a3daafe3b4186f6b6457e09190a35050565b80516001600160a01b03811681146200015757600080fd5b919050565b600080604083850312156200017057600080fd5b6200017b836200013f565b91506200018b602084016200013f565b90509250929050565b608051611b18620001d3600039600081816101ec015281816103a5015281816106e701528181610b7301528181610f150152610fcc0152611b186000f3fe6080604052600436106100fe5760003560e01c80637d25a05e11610095578063ca5eb5e111610064578063ca5eb5e1146102f2578063d439a5c914610312578063f2fde38b14610332578063f56f1db214610352578063ff7bd03d1461038357600080fd5b80637d25a05e1461023b57806382413eac146102775780638da5cb5b146102a7578063bb0b6a53146102c557600080fd5b806357efdeaa116100d157806357efdeaa1461019a57806359c730c3146101ad5780635e280f11146101da578063715018a61461022657600080fd5b806313137d651461010357806317442b701461011857806333c56c751461013f5780633400288b1461017a575b600080fd5b6101166101113660046112f4565b6103a3565b005b34801561012457600080fd5b50604080516001815260026020820152015b60405180910390f35b34801561014b57600080fd5b5061016c61015a3660046113ad565b60036020526000908152604090205481565b604051908152602001610136565b34801561018657600080fd5b506101166101953660046113cf565b610463565b6101166101a83660046113f9565b610479565b3480156101b957600080fd5b506101cd6101c83660046113ad565b61056b565b604051610136919061149c565b3480156101e657600080fd5b5061020e7f000000000000000000000000000000000000000000000000000000000000000081565b6040516001600160a01b039091168152602001610136565b34801561023257600080fd5b50610116610697565b34801561024757600080fd5b5061025e6102563660046113cf565b600092915050565b60405167ffffffffffffffff9091168152602001610136565b34801561028357600080fd5b50610297610292366004611531565b6106ab565b6040519015158152602001610136565b3480156102b357600080fd5b506000546001600160a01b031661020e565b3480156102d157600080fd5b5061016c6102e03660046113ad565b60016020526000908152604090205481565b3480156102fe57600080fd5b5061011661030d366004611598565b6106c0565b34801561031e57600080fd5b5061011661032d366004611625565b610746565b34801561033e57600080fd5b5061011661034d366004611598565b61084e565b34801561035e57600080fd5b5061037261036d3660046113cf565b6108c7565b6040516101369594939291906116ed565b34801561038f57600080fd5b5061029761039e366004611724565b6109a2565b7f00000000000000000000000000000000000000000000000000000000000000006001600160a01b031633146103f3576040516391ac5e4f60e01b81523360048201526024015b60405180910390fd5b6020870180359061040d90610408908a6113ad565b6109d8565b1461044b5761041f60208801886113ad565b60405163309afaf360e21b815263ffffffff9091166004820152602088013560248201526044016103ea565b61045a87878787878787610a1a565b50505050505050565b61046b610a91565b6104758282610aeb565b5050565b63ffffffff83166000908152600360205260409020546104f05760405162461bcd60e51b815260206004820152602c60248201527f4e6f207374726174656769657320617661696c61626c65206f6e20646573746960448201526b3730ba34b7b71031b430b4b760a11b60648201526084016103ea565b604080514660208201526000910160408051601f19818403018152828201825234835260006020848101919091528251601f87018290048202810182019093528583529093506105639187918591908890889081908401838280828437600092019190915250879250339150610b409050565b505050505050565b63ffffffff81166000908152600260209081526040808320805482518185028101850190935280835260609492939192909184015b8282101561068c57838290600052602060002090600502016040518060a00160405290816000820180546105d390611740565b80601f01602080910402602001604051908101604052809291908181526020018280546105ff90611740565b801561064c5780601f106106215761010080835404028352916020019161064c565b820191906000526020600020905b81548152906001019060200180831161062f57829003601f168201915b50505050508152602001600182015481526020016002820154815260200160038201548152602001600482015481525050815260200190600101906105a0565b505050509050919050565b61069f610a91565b6106a96000610c4b565b565b6001600160a01b03811630145b949350505050565b6106c8610a91565b60405163ca5eb5e160e01b81526001600160a01b0382811660048301527f0000000000000000000000000000000000000000000000000000000000000000169063ca5eb5e190602401600060405180830381600087803b15801561072b57600080fd5b505af115801561073f573d6000803e3d6000fd5b5050505050565b61074e610a91565b63ffffffff86166000908152600260209081526040808320815160a081018352898152808401899052918201879052606082018690526080820185905280546001810182559084529190922082516005909202019081906107af90826117ba565b5060208281015160018301556040808401516002840155606084015160038085019190915560809094015160049093019290925563ffffffff8916600090815292905281208054916108008361187a565b91905055507fda92e85506b75175d386be09b990fa97f8cdb899ce26c2267e6f4ed81acd9b4686868686868660405161083e969594939291906118a1565b60405180910390a1505050505050565b610856610a91565b6001600160a01b0381166108bb5760405162461bcd60e51b815260206004820152602660248201527f4f776e61626c653a206e6577206f776e657220697320746865207a65726f206160448201526564647265737360d01b60648201526084016103ea565b6108c481610c4b565b50565b600260205281600052604060002081815481106108e357600080fd5b90600052602060002090600502016000915091505080600001805461090790611740565b80601f016020809104026020016040519081016040528092919081815260200182805461093390611740565b80156109805780601f1061095557610100808354040283529160200191610980565b820191906000526020600020905b81548152906001019060200180831161096357829003601f168201915b5050505050908060010154908060020154908060030154908060040154905085565b60006020820180359060019083906109ba90866113ad565b63ffffffff1681526020810191909152604001600020541492915050565b63ffffffff811660009081526001602052604081205480610a145760405163f6ff4fb760e01b815263ffffffff841660048201526024016103ea565b92915050565b6000610a2685876118e5565b60e01c90506000610a3682610c9b565b90507fef687003a6d93e74ed8bfdda320a959e343aa949fcbb929bb89581a31f29b61382610a6760208c018c6113ad565b83516020850151604051610a7e9493929190611915565b60405180910390a1505050505050505050565b6000546001600160a01b031633146106a95760405162461bcd60e51b815260206004820181905260248201527f4f776e61626c653a2063616c6c6572206973206e6f7420746865206f776e657260448201526064016103ea565b63ffffffff8216600081815260016020908152604091829020849055815192835282018390527f238399d427b947898edb290f5ff0f9109849b1c3ba196a42e35f00c50a54b98b910160405180910390a15050565b610b48611236565b6000610b578460000151610ee9565b602085015190915015610b7157610b718460200151610f11565b7f00000000000000000000000000000000000000000000000000000000000000006001600160a01b0316632637a450826040518060a001604052808b63ffffffff168152602001610bc18c6109d8565b81526020018a815260200189815260200160008960200151111515815250866040518463ffffffff1660e01b8152600401610bfd92919061194f565b60806040518083038185885af1158015610c1b573d6000803e3d6000fd5b50505050506040513d601f19601f82011682018060405250810190610c4091906119c8565b979650505050505050565b600080546001600160a01b038381166001600160a01b0319831681178455604051919092169283917f8be0079c531659141344cd1fd0a4f28419497f9722a3daafe3b4186f6b6457e09190a35050565b610ccd6040518060a0016040528060608152602001600081526020016000815260200160008152602001600081525090565b63ffffffff8216600090815260036020526040902054610d2f5760405162461bcd60e51b815260206004820152601760248201527f4e6f207374726174656769657320617661696c61626c6500000000000000000060448201526064016103ea565b60008060005b63ffffffff8516600090815260026020526040902054811015610de55763ffffffff85166000908152600260205260409020805484919083908110610d7c57610d7c611a5e565b9060005260206000209060050201600101541115610dd35763ffffffff85166000908152600260205260409020805482908110610dbb57610dbb611a5e565b90600052602060002090600502016001015492508091505b80610ddd8161187a565b915050610d35565b5063ffffffff84166000908152600260205260409020805482908110610e0d57610e0d611a5e565b90600052602060002090600502016040518060a0016040529081600082018054610e3690611740565b80601f0160208091040260200160405190810160405280929190818152602001828054610e6290611740565b8015610eaf5780601f10610e8457610100808354040283529160200191610eaf565b820191906000526020600020905b815481529060010190602001808311610e9257829003601f168201915b5050505050815260200160018201548152602001600282015481526020016003820154815260200160048201548152505092505050919050565b6000813414610f0d576040516304fb820960e51b81523460048201526024016103ea565b5090565b60007f00000000000000000000000000000000000000000000000000000000000000006001600160a01b031663e4fe1d946040518163ffffffff1660e01b8152600401602060405180830381865afa158015610f71573d6000803e3d6000fd5b505050506040513d601f19601f82011682018060405250810190610f959190611a74565b90506001600160a01b038116610fbe576040516329b99a9560e11b815260040160405180910390fd5b6040805133602482018190527f00000000000000000000000000000000000000000000000000000000000000006001600160a01b03818116604485015260648085018890528551808603909101815260849094019094526020830180516001600160e01b03166323b872dd60e01b179052610475938516928690611043908590611049565b50505050565b600061109e826040518060400160405280602081526020017f5361666545524332303a206c6f772d6c6576656c2063616c6c206661696c6564815250856001600160a01b03166111239092919063ffffffff16565b90508051600014806110bf5750808060200190518101906110bf9190611a91565b61111e5760405162461bcd60e51b815260206004820152602a60248201527f5361666545524332303a204552433230206f7065726174696f6e20646964206e6044820152691bdd081cdd58d8d9595960b21b60648201526084016103ea565b505050565b60606106b8848460008585600080866001600160a01b0316858760405161114a9190611ab3565b60006040518083038185875af1925050503d8060008114611187576040519150601f19603f3d011682016040523d82523d6000602084013e61118c565b606091505b5091509150610c408783838760608315611207578251600003611200576001600160a01b0385163b6112005760405162461bcd60e51b815260206004820152601d60248201527f416464726573733a2063616c6c20746f206e6f6e2d636f6e747261637400000060448201526064016103ea565b50816106b8565b6106b8838381511561121c5781518083602001fd5b8060405162461bcd60e51b81526004016103ea9190611acf565b604051806060016040528060008019168152602001600067ffffffffffffffff168152602001611279604051806040016040528060008152602001600081525090565b905290565b60006060828403121561129057600080fd5b50919050565b60008083601f8401126112a857600080fd5b50813567ffffffffffffffff8111156112c057600080fd5b6020830191508360208285010111156112d857600080fd5b9250929050565b6001600160a01b03811681146108c457600080fd5b600080600080600080600060e0888a03121561130f57600080fd5b611319898961127e565b965060608801359550608088013567ffffffffffffffff8082111561133d57600080fd5b6113498b838c01611296565b909750955060a08a0135915061135e826112df565b90935060c0890135908082111561137457600080fd5b506113818a828b01611296565b989b979a50959850939692959293505050565b803563ffffffff811681146113a857600080fd5b919050565b6000602082840312156113bf57600080fd5b6113c882611394565b9392505050565b600080604083850312156113e257600080fd5b6113eb83611394565b946020939093013593505050565b60008060006040848603121561140e57600080fd5b61141784611394565b9250602084013567ffffffffffffffff81111561143357600080fd5b61143f86828701611296565b9497909650939450505050565b60005b8381101561146757818101518382015260200161144f565b50506000910152565b6000815180845261148881602086016020860161144c565b601f01601f19169290920160200192915050565b60006020808301818452808551808352604092508286019150828160051b87010184880160005b8381101561152357603f19898403018552815160a081518186526114e982870182611470565b838b0151878c0152898401518a880152606080850151908801526080938401519390960192909252505093860193908601906001016114c3565b509098975050505050505050565b60008060008060a0858703121561154757600080fd5b611551868661127e565b9350606085013567ffffffffffffffff81111561156d57600080fd5b61157987828801611296565b909450925050608085013561158d816112df565b939692955090935050565b6000602082840312156115aa57600080fd5b81356113c8816112df565b634e487b7160e01b600052604160045260246000fd5b6040805190810167ffffffffffffffff811182821017156115ee576115ee6115b5565b60405290565b604051601f8201601f1916810167ffffffffffffffff8111828210171561161d5761161d6115b5565b604052919050565b60008060008060008060c0878903121561163e57600080fd5b61164787611394565b955060208088013567ffffffffffffffff8082111561166557600080fd5b818a0191508a601f83011261167957600080fd5b81358181111561168b5761168b6115b5565b61169d601f8201601f191685016115f4565b91508082528b848285010111156116b357600080fd5b80848401858401376000908201909301929092525095989597505050506040840135936060810135936080820135935060a0909101359150565b60a08152600061170060a0830188611470565b90508560208301528460408301528360608301528260808301529695505050505050565b60006060828403121561173657600080fd5b6113c8838361127e565b600181811c9082168061175457607f821691505b60208210810361129057634e487b7160e01b600052602260045260246000fd5b601f82111561111e57600081815260208120601f850160051c8101602086101561179b5750805b601f850160051c820191505b81811015610563578281556001016117a7565b815167ffffffffffffffff8111156117d4576117d46115b5565b6117e8816117e28454611740565b84611774565b602080601f83116001811461181d57600084156118055750858301515b600019600386901b1c1916600185901b178555610563565b600085815260208120601f198616915b8281101561184c5788860151825594840194600190910190840161182d565b508582101561186a5787850151600019600388901b60f8161c191681555b5050505050600190811b01905550565b60006001820161189a57634e487b7160e01b600052601160045260246000fd5b5060010190565b63ffffffff8716815260c0602082015260006118c060c0830188611470565b90508560408301528460608301528360808301528260a0830152979650505050505050565b6001600160e01b0319813581811691600485101561190d5780818660040360031b1b83161692505b505092915050565b600063ffffffff80871683528086166020840152506080604083015261193e6080830185611470565b905082606083015295945050505050565b6040815263ffffffff8351166040820152602083015160608201526000604084015160a0608084015261198560e0840182611470565b90506060850151603f198483030160a08501526119a28282611470565b60809690960151151560c08501525050506001600160a01b039190911660209091015290565b600081830360808112156119db57600080fd5b6040516060810167ffffffffffffffff82821081831117156119ff576119ff6115b5565b8160405285518352602086015191508082168214611a1c57600080fd5b5060208201526040603f1983011215611a3457600080fd5b611a3c6115cb565b6040858101518252606090950151602082015293810193909352509092915050565b634e487b7160e01b600052603260045260246000fd5b600060208284031215611a8657600080fd5b81516113c8816112df565b600060208284031215611aa357600080fd5b815180151581146113c857600080fd5b60008251611ac581846020870161144c565b9190910192915050565b6020815260006113c8602083018461147056fea26469706673582212202903ffd9f0661985c24ab94da87dfd5d94e19a1dd6f926a8e8a4dd8dba147b5b64736f6c63430008140033",
  "linkReferences": {},
  "deployedLinkReferences": {}
}